:100000000C9444010C9475010C9475010C947501C9
:100010000C9475010C9475010C9475010C94750188
:100020000C9475010C9475010C9475010C94750178
:100030000C9475010C9475010C9475010C94750168
:100040000C9475010C9475010C9475010C94750158
:100050000C9475010C9475010C9475010C94F107C6
:100060000C9475010C94BB070C9491070C947501CA
:100070000C9475010C9475010C9475010C94750128
:100080000C9475010C9475010C9475010C94750118
:100090000C945B070C9431070C9475010C9475015A
:1000A0000C9475010C9475010C9475010C947501F8
:1000B0000C9475010C9475010C9475010C947501E8
:1000C0000C9475010C9475010C9475010C947501D8
:1000D0000C9475010C9475010C9475010C947501C8
:1000E0000C9475010C94C4030C94D1020C94C903B4
:1000F0000C945E020C9497030C94A8030C948F024A
:100100000C949B030C94C0030C942C040C94C70413
:100110000C949E030C94CE030C9431020C94930324
:100120000C9481020C94CA030C94B2030C94BC038B
:100130000C94A4030C947A0D0C946D020C94FB03A4
:100140000C941F060C943B080C94C8040C946C048B
:100150000C94AE030C941E030C9489030C948F032F
:100160000C94B60300002100240027002A002D0073
:100170003000330001010000040107010A01000002
:100180002200250028002B002E003100340002013F
:100190000000050108010B010000200023002600DB
:1001A00029002C002F00320000010000030106018D
:1001B00009010505050507050808080802020202ED
:1001C0000A0A0808040404040101010101010101F3
:1001D0000303030303030303040707070C0C0C0CBE
:1001E0000C0C0C0C020202020606060606060606A7
:1001F0000B0B0B0B0B0B0B0B010210202008081034
:100200002040102040800201020108040201010286
:10021000040810204080804020100804020180045F
:1002200002018040201008040201080402010102BA
:1002300004081020408001020408102040800000C3
:100240000A0B02090C0D0E08070304010000000050
:10025000000000000000000000000000000000009E
:10026000000000000000000000001211100000005B
:10027000000000000000000000000000000000007E
:10028000000000003B087A0D11241FBECFEFD1E221
:10029000DEBFCDBF00E00CBF12E0A0E0B2E0E6E2BE
:1002A000F2E200E00BBF02C007900D92A83DB1073B
:1002B000D9F724E0A8EDB2E001C01D92AF3CB2072F
:1002C000E1F711E0C3E4D1E000E006C021970109A5
:1002D000802FFE010E94DA0EC234D10780E00807A9
:1002E000A9F70E9453090C9401110C940000FC0121
:1002F000A089B18982E08C93A485B5851C92A685DE
:10030000B7858FEC8C93108EA489B58986E08C9389
:10031000A289B3898C9180618C93A289B3898C91D5
:1003200088608C93A289B3898C9180688C930288B1
:10033000F389E02D80818F7D8083089596E0899FE9
:10034000D0011124A85CBB4F90967C936E935F976D
:1003500091E091969C939197E091A504F091A60469
:100360009091A404992339F0309751F0811108C07D
:10037000809154041994309719F05C968C91FACFBF
:100380000895CF92DF92EF92FF920F931F9396E022
:10039000899FF0011124E85CFB4F11A2278D30A149
:1003A0002130310551F178F02230310509F451C086
:1003B0002330310509F452C01F910F91FF90EF9047
:1003C000DF90CF9008956623B9F361E070E00E945A
:1003D0009E012FB7F8948091E2029091E302A091E0
:1003E000E402B091E5022FBF8093900490939104B2
:1003F000A0939204B0939304DFCF9FB7F894C0907A
:10040000E202D090E302E090E402F090E5029FBFA8
:1004100000919004109191042091920430919304E2
:10042000C01AD10AE20AF30A0091A2041091A304AF
:1004300030E020E00C151D052E053F0550F462E06C
:1004400070E01F910F91FF90EF90DF90CF900C9490
:100450009E016111B1CF63E070E0F3CF70E060E026
:10046000F0CFAF92BF92CF92DF92EF92FF920F93B5
:100470001F93CF93DF936C017B018B01040F151F3A
:10048000EB015E01AE18BF08C017D10759F06991A2
:10049000D601ED91FC910190F081E02DC6011995F6
:1004A000892B79F7C501DF91CF911F910F91FF90B3
:1004B000EF90DF90CF90BF90AF900895FC01538DE7
:1004C000448D252F30E0842F90E0821B930B54172E
:1004D00010F0CF96089501970895FC01918D828DBB
:1004E000981761F0A28DAE0FBF2FB11D5D968C9154
:1004F000928D9F5F9F73928F90E008958FEF9FEF93
:100500000895FC01918D828D981731F0828DE80F4E
:10051000F11D858D90E008958FEF9FEF0895FC0108
:10052000918D228D892F90E0805C9F4F821B9109D5
:100530008F739927089586EE92E00E948F0221E042
:10054000892B09F420E0822F089583E893E00E942C
:100550008F0221E0892B09F420E0822F0895FC010D
:10056000A48DA80FB92FB11DA35ABF4F2C91848D14
:1005700090E001968F739927848FA689B7892C9371
:10058000A089B1898C91837080648C93938D848DC4
:10059000981306C00288F389E02D80818F7D8083C7
:1005A0000895EF92FF920F931F93CF93DF93EC0187
:1005B00081E0888F9B8D8C8D98131AC0E889F9890A
:1005C000808185FF15C09FB7F894EE89FF8960830D
:1005D000E889F98980818370806480839FBF81E08E
:1005E00090E0DF91CF911F910F91FF90EF900895D0
:1005F000F62E0B8D10E00F5F1F4F0F731127E02EAB
:100600008C8D8E110CC00FB607FCFACFE889F989E2
:10061000808185FFF5CFCE010E94AF02F1CFEB8D37
:10062000EC0FFD2FF11DE35AFF4FF0829FB7F894B6
:100630000B8FEA89FB8980818062CFCFCF93DF93D4
:10064000EC01888D8823B9F0AA89BB89E889F989EA
:100650008C9185FD03C0808186FD0DC00FB607FC1F
:10066000F7CF8C9185FFF2CF808185FFEDCFCE0152
:100670000E94AF02E9CFDF91CF91089580E090E032
:10068000892B29F00E94A50281110E94000080E0C0
:1006900090E0892B29F00E949B0281110E940000AA
:1006A00080E090E0892B49F080E090E0892B29F0F0
:1006B0000E94000081110E94000080E090E0892BE0
:1006C00049F080E090E0892B29F00E940000811120
:1006D0000C94000008958150823108F05AC0E82F30
:1006E000F0E08827E958FC4F8F4F0C94DA0E9703FF
:1006F0009B0389038F039303C9039E03A403A803E9
:10070000AE03B203B603BC03C003C903C403CA03E8
:10071000CE03809180008F77809380000895809130
:1007200080008F7DF9CF80918000877FF5CF84B5E1
:100730008F7784BD089584B58F7DFBCF8091B00005
:100740008F778093B00008958091B0008F7DF9CFAE
:10075000809190008F778093900008958091900011
:100760008F7DF9CF80919000877FF5CF8091A00099
:100770008F778093A00008958091A0008F7DF9CF9E
:100780008091A000877FF5CF809120018F778093A3
:1007900020010895809120018F7DF9CF8091200163
:1007A000877FF5CFCF93DF93282F30E0F901E25C0C
:1007B000FD4F8491F901E850FE4FD491F901EE54B8
:1007C000FE4FC491CC23A1F081110E946B03EC2F4A
:1007D000F0E0EE0FFF1FE856FE4FA591B491EC91AB
:1007E000ED2381E090E009F480E0DF91CF9108955E
:1007F00080E090E0FACF862F0C94D2031F93CF9322
:10080000DF93282F30E0F901E25CFD4F8491F9017C
:10081000E850FE4FD491F901EE54FE4FC491CC2321
:10082000A9F0162F81110E946B03EC2FF0E0EE0F60
:10083000FF1FE258FE4FA591B4918FB7F894EC9149
:10084000111108C0D095DE23DC938FBFDF91CF91CB
:100850001F910895DE2BF8CF862F642F0C94FE0392
:10086000CF93DF9390E0FC01E850FE4F24918E542B
:100870009E4FFC0184918823C9F090E0880F991F56
:10088000FC01EC59FE4FA591B491FC01E258FE4FDA
:10089000C591D49161110DC09FB7F8948C912095AA
:1008A00082238C938881282328839FBFDF91CF9157
:1008B0000895623051F49FB7F8943C91822F80954F
:1008C00083238C93E8812E2BEFCF8FB7F894EC9194
:1008D0002E2B2C938FBFEACF862F642F0C943004DD
:1008E0003FB7F8948091D9029091DA02A091DB028F
:1008F000B091DC0226B5A89B05C02F3F19F00196E8
:10090000A11DB11D3FBFBA2FA92F982F8827BC0169
:10091000CD01620F711D811D911D42E0660F771F91
:10092000881F991F4A95D1F708958F929F92AF9291
:10093000BF92CF92DF92EF92FF924B015C010E9437
:1009400070046B017C010E9470046C197D098E0992
:100950009F09683E734081059105A8F321E0821A42
:100960009108A108B10888EEC80E83E0D81EE11CEA
:10097000F11C81149104A104B10429F7FF90EF90B8
:10098000DF90CF90BF90AF909F908F900895089583
:1009900090E080E00895CF93DF93EC0160E08E81DA
:1009A0000E94FE0361E08E810E94FE0360E08E8162
:1009B0000E94FE038BE891E00197F1F7DF91CF9160
:1009C0000895CF92DF92EF92FF920F931F93CF93F0
:1009D000DF936C017C0187E0E80EF11CD0E0C0E001
:1009E000062F10E0B8010C2E02C0759567950A9489
:1009F000E2F76170F70181917F010E94FE03219669
:100A0000C430D10579F7C601DF91CF911F910F91C5
:100A1000FF90EF90DF90CF900C94CB04CF92DF92B9
:100A2000EF92FF920F931F93CF93DF93EC01F62E7B
:100A3000642F8C810E94FE038D818F3F19F060E04E
:100A40000E94FE030F2D10E08F8584FF25C06E01EC
:100A500087E0C80ED11CF12CE12CB8010E2C02C08D
:100A6000759567950A94E2F76170F60181916F01BF
:100A70000E94FE03FFEFEF1AFF0A88E0E816F10478
:100A800061F7CE01DF91CF911F910F91FF90EF9011
:100A9000DF90CF900C94CB04B80184E075956795F6
:100AA0008A95E1F7CE010E94E1046F2DCE01DF911E
:100AB000CF911F910F91FF90EF90DF90CF900C940A
:100AC000E10440E0682F83EB94E00C940E0581E094
:100AD0000E9461058BE39FE10197F1F70895CF93A1
:100AE000DF93823029F49091C20498609093C204FD
:100AF0008093C6041092C70480E48093C80480E108
:100B00008093C90480E58093CA0461E08091B704B2
:100B10000E9430048091B8048F3F19F061E00E9478
:100B2000300461E08091B9040E943004C3EBD4E04A
:100B30009E01235B34408091C20484FD0BC084E09D
:100B400090E021962817390744F461E08E810E94D5
:100B50003004EECF88E090E0F4CF8BE39DE0019786
:100B6000F1F760E08091B7040E94FE0360E080919D
:100B7000B9040E94FE038091B8048F3F19F060E031
:100B80000E94FE038091C20484FD34C063E083EBC5
:100B900094E00E94E104CBE4D6E4CE010197F1F7A2
:100BA00063E083EB94E00E94E1042197F1F763E0B6
:100BB00083EB94E00E94E10483E592E00197F1F772
:100BC00062E083EB94E00E94E1048091C2048062C1
:100BD0000E94610584E08093C3048CE00E9461055B
:100BE0000E94670582E08093C40486E0DF91CF9184
:100BF0000C94610580620E9461058BE496E4019784
:100C0000F1F78091C20480620E94610583E592E061
:100C10000197F1F78091C20480620E946105D5CFEF
:100C20009091C604691710F06FEF690FE62FF0E09E
:100C3000ED54FB4F9489890F80680C94610541E065
:100C40000E940E0581E090E00895FC0101900020D3
:100C5000E9F73197AF01481B590BBC0183EB94E0D6
:100C60000C94310242E050E062E572E00C943102F3
:100C70000F931F93CF93DF93EC0166E50E94D1029F
:100C80008C01CE010E943206800F911FDF91CF911F
:100C90001F910F9108950F931F93CF93DF93EC0152
:100CA000E6E2F4E044815581608171810E94310265
:100CB0008C01CE010E943206800F911FDF91CF91EF
:100CC0001F910F910895FC0180819181009711F08F
:100CD0000C947E0F08950F931F93CF93DF93EC0135
:100CE00088819981009759F02A813B81261737071F
:100CF00030F081E0DF91CF911F910F9108958B012A
:100D00006F5F7F4F0E940710009759F09983888387
:100D10001B830A832C813D81232B59F7FC01108210
:100D2000E8CF80E0E7CFEF92FF920F931F93CF932E
:100D3000DF93EC017B01198218821B821A821D82CB
:100D40001C82FB0101900020E9F731978F01061BFF
:100D5000170BB8010E946B0628813981811113C0DD
:100D60002115310519F0C9010E947E0F19821882E0
:100D70001D821C821B821A82DF91CF911F910F91DD
:100D8000FF90EF9008951D830C83B701C901DF9197
:100D9000CF911F910F91FF90EF900C94FA10EF926A
:100DA000FF920F931F93CF93DF93EC017B01FB0125
:100DB00001900020E9F731978F01061B170BB8014E
:100DC0000E946B0628813981811113C021153105DC
:100DD00019F0C9010E947E0F198218821D821C829F
:100DE0001B821A82DF91CF911F910F91FF90EF909C
:100DF00008951D830C83B701C901DF91CF911F9125
:100E00000F91FF90EF900C94FA10EF92FF920F93D6
:100E10001F93CF93DF936115710541F480E0DF915B
:100E2000CF911F910F91FF90EF90089541155105BB
:100E3000B1F07B01EC010C811D81040F151FB8017D
:100E40000E946B06882351F3288139818C819D8112
:100E5000B701820F931F0E94FA101D830C8381E05B
:100E6000DECF1F920F920FB60F9211240BB60F9286
:100E70002F933F934F935F936F937F938F939F93A2
:100E8000AF93BF93EF93FF9386EE92E00E94AF0281
:100E9000FF91EF91BF91AF919F918F917F916F9152
:100EA0005F914F913F912F910F900BBE0F900FBE0E
:100EB0000F901F9018951F920F920FB60F9211244A
:100EC0000BB60F922F938F939F93EF93FF93E09125
:100ED000F602F091F7028081E091FC02F091FD02B0
:100EE00082FD1DC090818091FF028F5F8F732091E2
:100EF0000003821741F0E091FF02F0E0EA51FD4F5C
:100F0000958F8093FF02FF91EF919F918F912F9189
:100F10000F900BBE0F900FBE0F901F901895808101
:100F2000F2CF1F920F920FB60F9211240BB60F92B1
:100F30002F933F934F935F936F937F938F939F93E1
:100F4000AF93BF93EF93FF9383E893E00E94AF02C8
:100F5000FF91EF91BF91AF919F918F917F916F9191
:100F60005F914F913F912F910F900BBE0F900FBE4D
:100F70000F901F9018951F920F920FB60F92112489
:100F80000BB60F922F938F939F93EF93FF93E09164
:100F90009303F09194038081E0919903F0919A0377
:100FA00082FD1DC0908180919C038F5F8F73209183
:100FB0009D03821741F0E0919C03F0E0ED57FC4F58
:100FC000958F80939C03FF91EF919F918F912F912B
:100FD0000F900BBE0F900FBE0F901F901895808141
:100FE000F2CF1F920F920FB60F9211242F933F93BF
:100FF0008F939F93AF93BF938091E2029091E3020E
:10100000A091E402B091E5023091D80223E0230FD1
:101010002D3758F50196A11DB11D2093D80280935C
:10102000E2029093E302A093E402B093E502809180
:10103000D9029091DA02A091DB02B091DC02019614
:10104000A11DB11D8093D9029093DA02A093DB0217
:10105000B093DC02BF91AF919F918F913F912F91FF
:101060000F900FBE0F901F90189526E8230F029641
:10107000A11DB11DD2CF1092E9021092E80248EEF4
:1010800053E060E070E04093EA025093EB0260931B
:10109000EC027093ED028EE292E09093E70280936F
:1010A000E6022DEC30E03093F3022093F2022CECB8
:1010B00030E03093F5022093F40228EC30E03093D6
:1010C000F7022093F60229EC30E03093F9022093E6
:1010D000F8022AEC30E03093FB022093FA022EEC67
:1010E00030E03093FD022093FC021092FF02109238
:1010F00000031092010310920203109286031092D3
:10110000850340938703509388036093890370930A
:101110008A03909384038093830385EC90E09093FB
:10112000900380938F0384EC90E0909392038093DC
:10113000910380EC90E0909394038093930381EC6F
:1011400090E0909396038093950382EC90E09093C7
:1011500098038093970386EC90E090939A03809392
:10116000990310929C0310929D0310929E0310927B
:101170009F031092B6041092B5048AE492E0909313
:10118000B4048093B30487E08093B7048FEF809317
:10119000B80486E08093B90485E08093BA0484E0C3
:1011A0008093BB0483E08093BC0482E08093BD0401
:1011B0001092BE041092BF041092C0041092C10499
:1011C0001092C20481E00E946F0565E572E08DEA2D
:1011D00094E00E9493066AE572E087EA94E00E9438
:1011E000930610923A0410923E0410923D0410921D
:1011F0003F0480E492E09093390480933804E4E55E
:10120000F4E01082148213821582369684E0E0396D
:10121000F807B9F78CE092E090939B0480939A04CE
:1012200088E092E090939D0480939C0484E08093F6
:101230009E0480939F0480E192E0909399048093B0
:1012400098048AE090E09093A1048093A00484EF36
:1012500091E09093A3048093A2041092A6041092AC
:10126000A504109294041092950410929604109282
:1012700097041092A40464E572E082E394E00E9473
:10128000930664E572E08CE294E00E94930664E5C4
:1012900072E086E294E00E94930664E572E080E2E8
:1012A00094E00C949306CF93DF93CDB7DEB7A89765
:1012B0000FB6F894DEBF0FBECDBF789484B58260C0
:1012C00084BD84B5816084BD85B5826085BD85B5EA
:1012D000816085BD80916E00816080936E00109268
:1012E00081008091810082608093810080918100E3
:1012F0008160809381008091800081608093800074
:101300008091B10084608093B1008091B0008160D1
:101310008093B000809191008260809391008091D1
:101320009100816080939100809190008160809312
:1013300090008091A10082608093A1008091A10023
:1013400081608093A1008091A00081608093A000C3
:10135000809121018260809321018091210181602F
:1013600080932101809120018160809320018091F0
:101370007A00846080937A0080917A008260809302
:101380007A0080917A00816080937A0080917A005F
:10139000806880937A001092C10082E00E946F05FD
:1013A00080E40E94610500E012E0F80161918F0184
:1013B00083EB94E00E941F06F2E008301F07A9F7B4
:1013C0000E94670582E00E9461058BE39FE101971F
:1013D000F1F760E082E00E94100660E083EB94E0A9
:1013E0000E941F0660E083E00E94100680E692E003
:1013F0000E94250660E08DE00E94100660E083EB0D
:1014000094E00E941F0661E081E00E9410068BE6D6
:1014100092E00E94250683E893E00E94770186EE21
:1014200092E00E9477018FEF9FEF9093E10280930B
:10143000E00264E572E086E294E00E94CF0664E593
:1014400072E080E294E00E94CF0680917B00877F6B
:1014500080937B0080E480937C0080917A0080649C
:1014600080937A0080917A0086FDFCCF60917800AD
:1014700070917900072E000C880B990B611571058E
:101480008105910511F00E942D0E1092DE0210923E
:10149000DD0261E08DE00E94300461E08AE00E949C
:1014A0003004412C512C32014394AA24AA94BA2C22
:1014B0008091E0029091E1028B30910579F560E036
:1014C00080E00E9410068BE792E00E94250661E012
:1014D00080E00E94100685E892E00E94250683E8DD
:1014E00093E00E948F02181619064CF583E893E0EA
:1014F0000E946D028093DF02833409F50E94670524
:1015000060E080E00E9410068EE892E00E942506CE
:101510008091E0029091E10201960DC08A30910520
:1015200089F468EE73E080E090E00E9495040E94E8
:1015300067058BE090E09093E1028093E0020E94C7
:101540003E03B6CF8C30910509F07EC283E893E06C
:101550000E948F021816190694F78091DF028836D0
:1015600009F054C20E94670560E08DE00E94FE030E
:1015700004E010E049E0C42ED12CE12CF12C0E94B3
:10158000DE0D1CA21BA21EA21DA218A61FA2A7014F
:1015900096010E94770E2AE0AE014F5F5F4F0E94D6
:1015A000360EBE016F5F7F4FCE0183960E94CF063D
:1015B0004FA158A56BA17CA186E294E00E9405078B
:1015C000CE0183960E94630601501109C1F60E9464
:1015D000DE0D33E0C32ED12CE12CF12CA7019601B6
:1015E0000E94770E6F5B7F4F8F4F9F4F69831A82E8
:1015F00041E050E0BE016F5F7F4F86E294E00E94C1
:1016000005070E94DE0DA70196010E94770E6F5B11
:101610007F4F8F4F9F4F69831A8241E050E0BE0198
:101620006F5F7F4F86E294E00E94050783E893E0B6
:101630000E944B0686EE92E00E944B0660E080E03E
:101640000E94100688E992E00E94250661E080E091
:101650000E94100651E05093A4048FB7F894409173
:10166000E2025091E3026091E4027091E5028FBFC3
:101670008091940490919504A0919604B091970460
:10168000481B590B6A0B7B0B8091A0049091A1041D
:10169000B0E0A0E084179507A607B707D8F610E0DA
:1016A00080919E04181760F4E0919A04F0919B04D5
:1016B000E10FF11D62E080810E9430041F5FF0CFD6
:1016C000312C80919F04381608F061C0E32CF12C76
:1016D000E0919C04F0919D04EE0DFF1D61E080817E
:1016E0000E943004E0919C04F0919D04EE0DFF1DDA
:1016F00060E080810E94FE03D301C201032C04C07C
:10170000880F991FAA1FBB1F0A94D2F74C016C01C6
:10171000C094D094212C80919E04281608F5022DA7
:1017200010E0E0919A04F0919B04E00FF11F80819A
:101730000E94D2030C5F1F4F000F111FF801E85CDD
:10174000FB4F892B41F480819181882999299183CC
:1017500080832394E0CF808191818C219D21F7CFDC
:10176000E0919C04F0919D04EE0DFF1D61E08081ED
:101770000E94FE0380919C0490919D04E80EF91E46
:1017800060E0F70180810E94300433949ACF08E32F
:1017900014E07801F701878D90A1892B21F4148E34
:1017A000B68EA58E11A2F6E0EF0EF11C54E7E516F9
:1017B00054E0F50679F7912C80919E04981608F074
:1017C00053C0812CC92CD12CCC0CDD1CC601805CF3
:1017D0009B4F6C0120919F04821608F043C0F601D4
:1017E00060817181082C02C0769567950A94E2F7B2
:1017F000929E90011124280D311DE8E3F4E080E071
:10180000458D568D2417350709F43FC18F5F3696F5
:101810008A30B1F760FF24C0E8E3F4E090E080E0B4
:10182000448D411118C0E0919804F0919904E20FA1
:10183000F31F408156E0589FF001599FF00D11248D
:10184000E85CFB4F448F368F258F10A2178E61E026
:101850000E94C10105C0019636968A30910501F7B4
:101860008394B8CF9394A8CF80E0F80191A191110F
:10187000892F0A5F1F4FE016F106B9F79FB7F8945A
:101880004091E2025091E3026091E4027091E5021E
:101890009FBF409394045093950460939604709373
:1018A0009704882309F4D6CE80915904882309F43B
:1018B000D1CE8091570490915804019709F0CACE77
:1018C00010915404112309F4C5CE1A3209F079C0DD
:1018D000209124043091250480912A0490912B04B6
:1018E00028173907C1F48091200490912104609158
:1018F000260470912704009709F4C9C06115710589
:1019000039F4232B09F4D1C0FC01808190E0CAC0D6
:101910000E94F110C7C08091DD029091DE02019615
:101920009093DE028093DD0260E00397D1F480E0C3
:101930000E94100682EA92E00E94250661E080E0A3
:101940000E94100688EB92E00E94250661E08DE07F
:101950000E94FE0360E47FE180E090E00E94950435
:10196000EECD80E00E94100682EA92E00E942506F9
:1019700061E080E00E94100682EC92E00E94250661
:1019800060E47FE180E090E00E9495040E9467059A
:1019900064E572E080E294E00E94CF0660E080E0BF
:1019A0000E94100688E992E00E94250661E080E02E
:1019B0000E9410066FE070E080E090E00E949504C5
:1019C00049CE133289F40E94670560E080E00E94EE
:1019D000100682EA92E00E94250661E080E00E9403
:1019E00010068DEC92E0B0CF19831A8241E050E0EE
:1019F000BE016F5F7F4F80E294E00E94050741E0E7
:101A0000612F83EB94E00E940E0524CE853709F008
:101A100096CD64E572E086E294E00E94CF0664E52C
:101A200072E080E294E00E94CF061092DE021092F3
:101A3000DD028BE090E09093E1028093E00268E8A1
:101A400073E180E090E08ACF8D30910581F483E8E6
:101A500093E00E948F02181619060CF070CD809149
:101A6000DF028E3609F06BCD0E94670568CD8A30A3
:101A700091050CF064CD01969093E1028093E00211
:101A800068EE73E080E090E069CF6170E1CE6115AF
:101A9000710559F0232B49F0FB01808190E091956D
:101AA00081959109892B09F036CF0E94670560E086
:101AB00080E00E94100682EA92E00E94250661E022
:101AC00080E00E9410068AEA92E00E9425061092A9
:101AD000DE021092DD0264E572E080E294E00E9492
:101AE000CF0683E893E00E94380686EE92E00E94DB
:101AF00038060ECD80E294E00E94630686E294E010
:101B00000E9463068CE294E00E94630682E394E004
:101B10000E94630687EA94E00E9463068DEA94E0DF
:101B20000C9463068F929F92AF92BF92CF92DF92F6
:101B3000EF92FF92CF93DF93EC01688179818A81E4
:101B40009B81611571058105910521F464E279EDB0
:101B50008BE597E02DE133EF41E050E00E94770EF6
:101B600049015A019B01AC01A7EAB1E40E94960E1B
:101B70006B017C01ACEEB4EFA50194010E94A40EB0
:101B8000C60ED71EE81EF91EF7FE06C081E0C81A71
:101B9000D108E10880E8F80AC882D982EA82FB828B
:101BA000C701B6019F77DF91CF91FF90EF90DF9053
:101BB000CF90BF90AF909F908F9008958F929F92FB
:101BC000AF92BF92CF92DF92EF92FF92609120028C
:101BD000709121028091220290912302611571057A
:101BE0008105910521F464E279ED8BE597E02DE123
:101BF00033EF41E050E00E94770E49015A019B010A
:101C0000AC01A7EAB1E40E94960E6B017C01ACEE38
:101C1000B4EFA50194010E94A40EC60ED71EE81EC3
:101C2000F91EF7FE06C081E0C81AD108E10880E875
:101C3000F80AC0922002D0922102E0922202F09291
:101C40002302C701B6019F77FF90EF90DF90CF90FE
:101C5000BF90AF909F908F900895609320027093F3
:101C6000210280932202909323020895BB272A30F9
:101C700051F4992342F4BDE2909580957095619559
:101C80007F4F8F4F9F4F0C94460EBB27FA01A62F14
:101C90006217710581059105330B30FB66F0AA27A9
:101CA000660F771F881F991FAA1FA21710F0A21B8B
:101CB00063953850A9F7A05DAA3308F0A95DA193F8
:101CC00036F7B111B1931082CA010C94670EDC0192
:101CD000FC01672F71917723E1F7329704C07C9163
:101CE0006D9370836291AE17BF07C8F30895052EF8
:101CF00097FB1EF400940E948E0E57FD07D00E94A1
:101D0000A90E07FC03D04EF40C948E0E509540950E
:101D1000309521953F4F4F4F5F4F08959095809597
:101D2000709561957F4F8F4F9F4F08950E94CB0E06
:101D3000A59F900DB49F900DA49F800D911D11241F
:101D40000895B7FF0C94960E0E94960E821B930B7B
:101D50000895A1E21A2EAA1BBB1BFD010DC0AA1FEC
:101D6000BB1FEE1FFF1FA217B307E407F50720F004
:101D7000A21BB30BE40BF50B661F771F881F991F7F
:101D80001A9469F760957095809590959B01AC01C8
:101D9000BD01CF010895A29FB001B39FC001A39FD1
:101DA000700D811D1124911DB29F700D811D112494
:101DB000911D0895EE0FFF1F881F8BBF0790F691AE
:101DC000E02D19940F931F93CF93DF9382309105E9
:101DD00010F482E090E0E091CD04F091CE0430E088
:101DE00020E0B0E0A0E0309799F42115310509F426
:101DF0004AC0281B390B24303105D8F58A819B81D4
:101E00006115710589F1FB0193838283FE0111C085
:101E1000408151810281138148175907E0F048172A
:101E2000590799F4109761F012960C931297139634
:101E30001C933296CF01DF91CF911F910F9108959E
:101E40000093CD041093CE04F4CF2115310551F049
:101E50004217530738F0A901DB019A01BD01DF01E8
:101E6000F801C1CFEF01F9CF9093CE048093CD0458
:101E7000CDCFFE01E20FF31F8193919322503109E0
:101E800039832883D7CF2091CB043091CC04232BE6
:101E900041F420912602309127023093CC04209304
:101EA000CB0420912402309125022115310541F403
:101EB0002DB73EB74091280250912902241B350BC3
:101EC000E091CB04F091CC04E217F307A0F42E1BB1
:101ED0003F0B2817390778F0AC014E5F5F4F24178E
:101EE000350748F04E0F5F1F5093CC044093CB044E
:101EF000819391939FCFF0E0E0E09CCFCF93DF936D
:101F00000097E9F0FC01329713821282A091CD0470
:101F1000B091CE04ED0130E020E01097A1F42081D3
:101F20003181820F931F2091CB043091CC0428176C
:101F3000390709F061C0F093CC04E093CB04DF9142
:101F4000CF910895EA01CE17DF07E8F54A815B815A
:101F50009E0141155105B1F7E901FB83EA834991DF
:101F60005991C40FD51FEC17FD0761F48081918151
:101F70000296840F951FE90199838883828193815A
:101F80009B838A83F0E0E0E012968D919C911397F9
:101F90000097B9F52D913C911197CD010296820FD2
:101FA000931F2091CB043091CC042817390739F6C0
:101FB000309751F51092CE041092CD04B093CC041A
:101FC000A093CB04BCCFD383C28340815181840FC3
:101FD000951FC817D90761F44E5F5F4F88819981BB
:101FE000480F591F518340838A819B819383828349
:101FF0002115310509F0B0CFF093CE04E093CD0464
:102000009ECFFD01DC01C0CF13821282D7CF4F9249
:102010005F926F927F928F929F92AF92BF92CF9278
:10202000DF92EF92FF920F931F93CF93DF938C0178
:10203000009799F4CB01DF91CF911F910F91FF9001
:10204000EF90DF90CF90BF90AF909F908F907F9058
:102050006F905F904F900C94E20EFC01E60FF71F1B
:102060009C0122503109E217F30708F4AEC0D901F0
:10207000CD91DC911197C617D70720F1C530D10556
:1020800078F0CE0104978617970750F0C61BD70B40
:102090002297C193D1936D937C93CF010E947E0FC1
:1020A000C801DF91CF911F910F91FF90EF90DF90CA
:1020B000CF90BF90AF909F908F907F906F905F90E8
:1020C0004F9008955B01AC1ABD0A4C018C0E9D1E09
:1020D000A091CD04B091CE04512C412CF12CE12CD7
:1020E000109731F58091CB049091CC048815990517
:1020F00009F05CC04616570608F058C080912402CB
:1021000090912502009741F48DB79EB74091280227
:1021100050912902841B950BE817F90708F055C068
:10212000F093CC04E093CB04F90171836083B8CFC2
:102130008D919C91119712966C90129713967C90AA
:102140001397A815B90559F56C0142E0C40ED11CCE
:10215000CA14DB0420F1AC014A195B09DA011296BA
:10216000159780F06282738251834083D9016D9309
:102170007C93E114F10471F0D7011396FC93EE9374
:1021800012978ECF22968C0F9D1FF9019183808329
:10219000F301EFCFF093CE04E093CD0481CF481646
:1021A000590608F42C017D01D3019ACFCB010E947E
:1021B000E20E7C01009749F0AE01B8010E94E810E0
:1021C000C8010E947E0F87016BCF10E000E068CF4E
:1021D000FB01DC0102C001900D9241505040D8F744
:1021E0000895FB01DC018D91019080190110D9F354
:1021F000990B0895FB01DC0101900D920020E1F79D
:10220000089511E0C3E4D1E000E006C0802FFE0194
:102210000E94DA0E2196011DC434D10780E0080720
:06222000A9F7F894FFCFBE
:10222600040A11111F1B1F1F161718191A1B1C1D34
:102236003132334134353642373839432A30234434
:10224600010000000000CF04800000000000D10261
:1022560031025E021E038F026D0281020000000041
:102266006C042C04FB03000000001F063102C804A6
:10227600C7040D0A00313233340061646D696E00A3
:102286004269656E76656E69646F00477275706F38
:10229600352D53656363696F6E41004573706572D2
:1022A600616E646F00436F6E6578696F6E00436F91
:1022B6006E65637461646F00436F6469676F2E2E89
:1022C6002E00496E677265736F00436F72726563A5
:1022D60074616D656E746500426C6F7175656164DD
:1022E6006F00496E636F72726563746F0043616E4F
:0822F60063656C61646F000078
:00000001FF
