:100000000C9444010C9475010C9475010C947501C9
:100010000C9475010C9475010C9475010C94750188
:100020000C9475010C9475010C9475010C94750178
:100030000C9475010C9475010C9475010C94750168
:100040000C9475010C9475010C9475010C94750158
:100050000C9475010C9475010C9475010C948B092A
:100060000C9475010C9455090C942B090C94750192
:100070000C9475010C9475010C9475010C94750128
:100080000C9475010C9475010C9475010C94750118
:100090000C9475010C9475010C9475010C94750108
:1000A0000C9475010C9475010C9475010C947501F8
:1000B0000C9475010C9475010C9475010C947501E8
:1000C0000C9475010C9475010C9475010C947501D8
:1000D0000C9475010C9475010C9475010C947501C8
:1000E0000C9475010C9449070C9466030C94FF035F
:1000F0000C946A030C94F1050C9493030C94ED0298
:100100000C946E030C9437020C947B030C945A02EB
:100110000C9446020C949C030C9477030C943F04BB
:100120000C945C030C9497030C94F2050C94D50981
:100130000C94CE030C949D030C9481030C946802E0
:100140000C9462030C9489030C948F030C940A02A0
:100150000C94A0020C9485030C94D70C0C9471039E
:100160000C94A10300002100240027002A002D0088
:100170003000330001010000040107010A01000002
:100180002200250028002B002E003100340002013F
:100190000000050108010B010000200023002600DB
:1001A00029002C002F00320000010000030106018D
:1001B00009010505050507050808080802020202ED
:1001C0000A0A0808040404040101010101010101F3
:1001D0000303030303030303040707070C0C0C0CBE
:1001E0000C0C0C0C020202020606060606060606A7
:1001F0000B0B0B0B0B0B0B0B010210202008081034
:100200002040102040800201020108040201010286
:10021000040810204080804020100804020180045F
:1002200002018040201008040201080402010102BA
:1002300004081020408001020408102040800000C3
:100240000A0B02090C0D0E08070304010000000050
:10025000000000000000000000000000000000009E
:10026000000000000000000000001211100000005B
:10027000000000000000000000000000000000007E
:1002800000000000D509D70C11241FBECFEFD1E22A
:10029000DEBFCDBF00E00CBF12E0A0E0B2E0E0EEB8
:1002A000F0E200E00BBF02C007900D92A43EB10740
:1002B000D9F724E0A4EEB2E001C01D92AD33B2073D
:1002C000E1F711E0C3E4D1E000E006C021970109A5
:1002D000802FFE010E94370EC234D10780E008074C
:1002E000A9F70E94B10A0C945E100C94000096E0ED
:1002F000899FD0011124AA55BC4F90967C936E9390
:100300005F9791E091969C939197E0911304F091FF
:10031000140490911204992339F0309751F081110F
:1003200008C08091C2031994309719F05C968C91A3
:10033000FACF0895CF92DF92EF92FF920F931F931F
:1003400096E0899FF0011124EA55FC4F11A2278DF8
:1003500030A12130310551F178F02230310509F416
:1003600051C02330310509F452C01F910F91FF9005
:10037000EF90DF90CF9008956623B9F361E070E0CD
:100380000E9477012FB7F8948091ED029091EE02D0
:10039000A091EF02B091F0022FBF8093FE039093E3
:1003A000FF03A0930004B0930104DFCF9FB7F8943C
:1003B000C090ED02D090EE02E090EF02F090F002DB
:1003C0009FBF0091FE031091FF0320910004309124
:1003D0000104C01AD10AE20AF30A00911004109134
:1003E000110430E020E00C151D052E053F0550F4EA
:1003F00062E070E01F910F91FF90EF90DF90CF903F
:100400000C9477016111B1CF63E070E0F3CF70E03D
:1004100060E0F0CFAF92BF92CF92DF92EF92FF9267
:100420000F931F93CF93DF936C017B018B01040F1C
:10043000151FEB015E01AE18BF08C017D10759F0B8
:100440006991D601ED91FC910190F081E02DC601FA
:100450001995892B79F7C501DF91CF911F910F91E4
:10046000FF90EF90DF90CF90BF90AF900895FC0188
:10047000538D448D252F30E0842F90E0821B930B09
:10048000541710F0CF96089501970895FC01918DAF
:10049000828D981761F0A28DAE0FBF2FB11D5D96B2
:1004A0008C91928D9F5F9F73928F90E008958FEF54
:1004B0009FEF0895FC01918D828D981731F0828D08
:1004C000E80FF11D858D90E008958FEF9FEF08955F
:1004D000FC01918D228D892F90E0805C9F4F821BC3
:1004E00091098F739927089581EF92E00E94680225
:1004F00021E0892B09F420E0822F0895FC01A48DCE
:10050000A80FB92FB11DA35ABF4F2C91848D90E035
:1005100001968F739927848FA689B7892C93A08918
:10052000B1898C91837080648C93938D848D9813A2
:1005300006C00288F389E02D80818F7D8083089535
:10054000EF92FF920F931F93CF93DF93EC0181E023
:10055000888F9B8D8C8D98131AC0E889F9898081CA
:1005600085FF15C09FB7F894EE89FF896083E889FD
:10057000F98980818370806480839FBF81E090E0EF
:10058000DF91CF911F910F91FF90EF900895F62E7C
:100590000B8D10E00F5F1F4F0F731127E02E8C8D16
:1005A0008E110CC00FB607FCFACFE889F98980815B
:1005B00085FFF5CFCE010E947E02F1CFEB8DEC0FCF
:1005C000FD2FF11DE35AFF4FF0829FB7F8940B8F78
:1005D000EA89FB8980818062CFCFCF93DF93EC01E2
:1005E000888D8823B9F0AA89BB89E889F9898C911B
:1005F00085FD03C0808186FD0DC00FB607FCF7CFD7
:100600008C9185FFF2CF808185FFEDCFCE010E94D6
:100610007E02E9CFDF91CF91089580E090E0892BB1
:1006200029F00E94740281110E94000080E090E095
:10063000892B49F080E090E0892B29F00E9400008E
:1006400081110E94000080E090E0892B49F080E059
:1006500090E0892B29F00E94000081110E94000087
:1006600080E090E0892B49F080E090E0892B29F030
:100670000E94000081110C94000008958150823185
:1006800008F05AC0E82FF0E08827E65BFC4F8F4F58
:100690000C94370E6A036E035C03620366039C03CB
:1006A000710377037B038103850389038F0393031E
:1006B0009C0397039D03A103809180008F77809313
:1006C00080000895809180008F7DF9CF8091800017
:1006D000877FF5CF84B58F7784BD089584B58F7DEE
:1006E000FBCF8091B0008F778093B0000895809108
:1006F000B0008F7DF9CF809190008F77809390002C
:100700000895809190008F7DF9CF80919000877F30
:10071000F5CF8091A0008F778093A00008958091FD
:10072000A0008F7DF9CF8091A000877FF5CF8091C9
:1007300020018F77809320010895809120018F7D83
:10074000F9CF80912001877FF5CFCF93DF93282FBA
:1007500030E0F901E25CFD4F8491F901E850FE4F71
:10076000D491F901EE54FE4FC491CC23A1F0811134
:100770000E943E03EC2FF0E0EE0FFF1FE856FE4F05
:10078000A591B491EC91ED2381E090E009F480E033
:10079000DF91CF91089580E090E0FACF862F0C94FE
:1007A000A5031F93CF93DF93282F30E0F901E25C7C
:1007B000FD4F8491F901E850FE4FD491F901EE54B8
:1007C000FE4FC491CC23A9F0162F81110E943E0345
:1007D000EC2FF0E0EE0FFF1FE258FE4FA591B49111
:1007E0008FB7F894EC91111108C0D095DE23DC93FB
:1007F0008FBFDF91CF911F910895DE2BF8CF862F09
:10080000642F0C94D103CF93DF9390E0FC01E85068
:10081000FE4F24918E549E4FFC0184918823C9F091
:1008200090E0880F991FFC01EC59FE4FA591B491FF
:10083000FC01E258FE4FC591D49161110DC09FB7E4
:10084000F8948C91209582238C9388812823288387
:100850009FBFDF91CF910895623051F49FB7F89414
:100860003C91822F809583238C93E8812E2BEFCFB0
:100870008FB7F894EC912E2B2C938FBFEACF862F55
:10088000642F0C9403046F927F928F929F92AF9289
:10089000BF92CF92DF92EF92FF920F931F93CF936D
:1008A000DF9381E0809312048FB7F8944091ED02BA
:1008B0005091EE026091EF027091F0028FBF809133
:1008C000020490910304A0910404B0910504481B14
:1008D000590B6A0B7B0B80910E0490910F04B0E0D2
:1008E000A0E084179507A607B70708F01DC1C0E070
:1008F00080910C04C81760F4E0910804F091090499
:10090000EC0FF11D62E080810E940304CF5FF0CF05
:10091000712C812C912C5401839480910D047816B4
:1009200008F05FC0072D10E0E0910A04F0910B047D
:10093000E00FF11F61E080810E940304E0910A044E
:10094000F0910B04E00FF11F60E080810E94D10361
:10095000D501C401072C04C0880F991FAA1FBB1F13
:100960000A94D2F76C017C01E094F094612C8091A0
:100970000C046816F8F4C62DD0E0E0910804F0915C
:100980000904EC0FFD1F80810E94A5032496CC0F63
:10099000DD1FCA55DC4F892B41F4888199818C2950
:1009A0009D29998388836394E2CF888199818E21E0
:1009B0009F21F7CFE0910A04F0910B04E00FF11FA3
:1009C00061E080810E94D10380910A0490910B0420
:1009D000080F191F60E0F80180810E9403047394DE
:1009E0009CCFC6EAD3E0FE018FEF9FEF278D30A1A9
:1009F000232B21F4148E968F858F11A2369623E037
:100A0000E23EF20799F7F12C96E0D92E80910C0482
:100A1000F81608F050C0E12C0F2D10E0000F111F48
:100A200002551C4F20910D04E21608F042C0F80157
:100A3000608171810E2C02C0769567950A94E2F769
:100A4000F29E900111242E0D311DE6EAF3E080E0C4
:100A5000458D568D2417350709F46AC08F5F369689
:100A60008A30B1F760FF23C0E6EAF3E090E080E06F
:100A7000448D411117C0E0910604F0910704E20F84
:100A8000F31F4081D89EF001D99EF00D1124EA5544
:100A9000FC4F448F368F258F10A2178E61E00E9485
:100AA0009A0105C0019636968A30910509F7E394BC
:100AB000B9CFF394ABCF80E099A19111892F2696FD
:100AC000F3E0C23EDF07C1F79FB7F8944091ED0213
:100AD0005091EE026091EF027091F0029FBF40933F
:100AE0000204509303046093040470930504882364
:100AF000D9F08091C7038823B9F08091C503909104
:100B0000C603019789F48091C203DF91CF911F91B1
:100B10000F91FF90EF90DF90CF90BF90AF909F909C
:100B20008F907F906F9008951092120480E0EDCF27
:100B30006170B5CF3FB7F8948091E5029091E602DD
:100B4000A091E702B091E80226B5A89B05C02F3F0F
:100B500019F00196A11DB11D3FBFBA2FA92F982FE3
:100B60008827BC01CD01620F711D811D911D42E0DE
:100B7000660F771F881F991F4A95D1F708958F92A6
:100B80009F92AF92BF92CF92DF92EF92FF924B0172
:100B90005C010E949A056B017C010E949A056C1908
:100BA0007D098E099F09683E734081059105A8F370
:100BB00021E0821A9108A108B10888EEC80E83E0EE
:100BC000D81EE11CF11C81149104A104B10429F781
:100BD000FF90EF90DF90CF90BF90AF909F908F905D
:100BE0000895089590E080E00895CF93DF93EC019D
:100BF00060E08E810E94D10361E08E810E94D1036A
:100C000060E08E810E94D1038BE891E00197F1F7BB
:100C1000DF91CF910895CF92DF92EF92FF920F93E1
:100C20001F93CF93DF936C017C0187E0E80EF11CEA
:100C3000D0E0C0E0062F10E0B8010C2E02C0759580
:100C400067950A94E2F76170F70181917F010E9434
:100C5000D1032196C430D10579F7C601DF91CF9138
:100C60001F910F91FF90EF90DF90CF900C94F505BE
:100C7000CF92DF92EF92FF920F931F93CF93DF9368
:100C8000EC01F62E642F8C810E94D1038D818F3F61
:100C900019F060E00E94D1030F2D10E08F8584FFD2
:100CA00025C06E0187E0C80ED11CF12CE12CB801E3
:100CB0000E2C02C0759567950A94E2F76170F601F3
:100CC00081916F010E94D103FFEFEF1AFF0A88E0C4
:100CD000E816F10461F7CE01DF91CF911F910F91DA
:100CE000FF90EF90DF90CF900C94F505B80184E071
:100CF000759567958A95E1F7CE010E940B066F2DD9
:100D0000CE01DF91CF911F910F91FF90EF90DF9077
:100D1000CF900C940B0640E0682F81E294E00C9495
:100D2000380681E00E948B068BE39FE10197F1F783
:100D30000895CF93DF93823029F490913004986026
:100D400090933004809334041092350480E48093AF
:100D5000360480E18093370480E58093380461E0B5
:100D6000809125040E940304809126048F3F19F08E
:100D700061E00E94030461E0809127040E94030463
:100D8000C1E2D4E09E01215234408091300484FDC0
:100D90000BC084E090E021962817390744F461E005
:100DA0008E810E940304EECF88E090E0F4CF8BE3C5
:100DB0009DE00197F1F760E0809125040E94D10346
:100DC00060E0809127040E94D103809126048F3F28
:100DD00019F060E00E94D1038091300484FD34C09A
:100DE00063E081E294E00E940B06CBE4D6E4CE01FE
:100DF0000197F1F763E081E294E00E940B062197EE
:100E0000F1F763E081E294E00E940B0683E592E053
:100E10000197F1F762E081E294E00E940B06809175
:100E2000300480620E948B0684E0809331048CE061
:100E30000E948B060E94910682E08093320486E035
:100E4000DF91CF910C948B0680620E948B068BE41D
:100E500096E40197F1F78091300480620E948B063E
:100E600083E592E00197F1F78091300480620E945F
:100E70008B06D5CF90913404691710F06FEF690F8E
:100E8000E62FF0E0EF5DFB4F9489890F80680C94AA
:100E90008B0641E00E94380681E090E00895FC0155
:100EA00001900020E9F73197AF01481B590BBC01B5
:100EB00081E294E00C940A02FC0180819181009708
:100EC00011F00C94DB0E08950F931F93CF93DF93D3
:100ED000EC0188819981009759F02A813B8126177E
:100EE000370730F081E0DF91CF911F910F91089586
:100EF0008B016F5F7F4F0E94640F009759F09983B9
:100F000088831B830A832C813D81232B59F7FC01A5
:100F10001082E8CF80E0E7CFEF92FF920F931F930C
:100F2000CF93DF93EC017B01198218821B821A8216
:100F30001D821C82FB0101900020E9F731978F018F
:100F4000061B170BB8010E946407288139818111A3
:100F500013C02115310519F0C9010E94DB0E198259
:100F600018821D821C821B821A82DF91CF911F91F1
:100F70000F91FF90EF9008951D830C83B701C90175
:100F8000DF91CF911F910F91FF90EF900C9457102C
:100F9000EF92FF920F931F93CF93DF93EC017B01AE
:100FA000FB0101900020E9F731978F01061B170B19
:100FB000B8010E94640728813981811113C021156D
:100FC000310519F0C9010E94DB0E198218821D82B9
:100FD0001C821B821A82DF91CF911F910F91FF908B
:100FE000EF9008951D830C83B701C901DF91CF9164
:100FF0001F910F91FF90EF900C945710EF92FF927A
:101000000F931F93CF93DF931F921F92CDB7DEB73D
:101010008C0169831A82FC01E480F580FFEFEF1AEE
:10102000FF0AB7010E946407882381F0F80120813C
:10103000318184819581BE016F5F7F4F820F931F45
:101040000E945710F801F582E48281E00F900F9022
:10105000DF91CF911F910F91FF90EF9008958F92A4
:101060009F92AF92BF92CF92DF92EF92FF920F9337
:101070001F93CF93DF93CDB7DEB7A8970FB6F89441
:10108000DEBF0FBECDBF34E0E32EF12C49E0842E4D
:10109000912CA12CB12C0E943B0D1CA21BA21EA2C4
:1010A0001DA218A61FA2A50194010E94D40D2AE03A
:1010B000AE014F5F5F4F0E94930DBE016F5F7F4F88
:1010C000CE0183960E94C807CBA0DCA0C114D10436
:1010D00019F10FA118A501151105F1F080919803E0
:1010E00090919903080F191FB80184E993E00E94B9
:1010F0006407882389F020919403309195038091AF
:10110000980390919903B601820F931F0E94571084
:101110001093990300939803CE0183960E945C0775
:1011200081E0E81AF10809F0B6CF0E943B0D23E0F8
:10113000C22ED12CE12CF12CA70196010E94D40DD6
:101140006F5B7F4F8F4F9F4F84E993E00E94FE07B4
:101150000E943B0DA70196010E94D40D6F5B7F4F4B
:101160008F4F9F4F84E993E00E94FE0740919803C0
:1011700050919903609194037091950381EF92E0EF
:101180000E940A0242E050E062E572E081EF92E0E4
:101190000E940A0260E080E00E943A0785E592E042
:1011A0000E944F0761E080E00E943A07A8960FB6C0
:1011B000F894DEBF0FBECDBFDF91CF911F910F918D
:1011C000FF90EF90DF90CF90BF90AF909F908F9067
:1011D000089560E080E00E943A078FE592E00E9467
:1011E0004F0761E080E00E943A078DE692E00E949E
:1011F0004F070E9443048823E1F38133F1F40E94F6
:10120000910664E572E084E993E00E94C8071092B9
:10121000EA021092E90260E08DE00E94D1036FE0E3
:1012200070E080E090E00E94BF058091EB02909119
:10123000EC020C9779F00C942F088233D1F68CE0F5
:1012400090E09093EC028093EB0260E08DE00E94CE
:10125000D103EBCF08951F920F920FB60F92112476
:101260000BB60F922F933F934F935F936F937F93A0
:101270008F939F93AF93BF93EF93FF9381EF92E090
:101280000E947E02FF91EF91BF91AF919F918F914C
:101290007F916F915F914F913F912F910F900BBE76
:1012A0000F900FBE0F901F9018951F920F920FB6C0
:1012B0000F9211240BB60F922F938F939F93EF935E
:1012C000FF93E0910103F09102038081E091070315
:1012D000F091080382FD1DC0908180910A038F5F09
:1012E0008F7320910B03821741F0E0910A03F0E025
:1012F000EF50FD4F958F80930A03FF91EF919F91DF
:101300008F912F910F900BBE0F900FBE0F901F90DB
:1013100018958081F2CF1F920F920FB60F92112471
:101320002F933F938F939F93AF93BF938091ED0241
:101330009091EE02A091EF02B091F0023091E402A0
:1013400023E0230F2D3758F50196A11DB11D2093E1
:10135000E4028093ED029093EE02A093EF02B0932B
:10136000F0028091E5029091E602A091E702B0912F
:10137000E8020196A11DB11D8093E5029093E6025B
:10138000A093E702B093E802BF91AF919F918F9134
:101390003F912F910F900FBE0F901F90189526E848
:1013A000230F0296A11DB11DD2CF1092F40210920C
:1013B000F30288EE93E0A0E0B0E08093F502909312
:1013C000F602A093F702B093F8028EE292E09093B7
:1013D000F2028093F10285EC90E09093FE028093FC
:1013E000FD0284EC90E0909300038093FF0280EC78
:1013F00090E0909302038093010381EC90E090933E
:1014000004038093030382EC90E09093060380939F
:10141000050386EC90E090930803809307031092F5
:101420000A0310920B0310920C0310920D031092FA
:101430002404109223048AE492E09093220480937F
:10144000210487E0809325048FEF8093260486E0B3
:101450008093270485E08093280484E08093290406
:1014600083E080932A0482E080932B0410922C0462
:1014700010922D0410922E0410922F04109230041A
:1014800081E00E9499066EE772E08BE194E00E9491
:101490008C0763E872E085E194E00E948C0710926B
:1014A000A8031092AC031092AB031092AD0380E43A
:1014B00092E09093A7038093A603E2ECF3E01082FE
:1014C000148213821582369683E0EE3FF807B9F74F
:1014D0008CE092E0909309048093080488E092E005
:1014E00090930B0480930A0484E080930C0480930F
:1014F0000D0480E192E090930704809306048AE053
:1015000090E090930F0480930E0484EF91E0909309
:10151000110480931004109214041092130410927A
:101520000204109203041092040410920504109215
:10153000120464E572E080EA93E00E948C0764E59F
:1015400072E08AE993E00E948C0764E572E084E926
:1015500093E00E948C0764E572E08EE893E00C94BF
:101560008C07789484B5826084BD84B5816084BD25
:1015700085B5826085BD85B5816085BD80916E0031
:10158000816080936E001092810080918100826062
:10159000809381008091810081608093810080919F
:1015A00080008160809380008091B100846080938E
:1015B000B1008091B00081608093B0008091910073
:1015C000826080939100809191008160809391006E
:1015D000809190008160809390008091A100826052
:1015E0008093A1008091A10081608093A1008091EF
:1015F000A00081608093A00080912101826080938F
:10160000210180912101816080932101809120013D
:1016100081608093200180917A00846080937A00B9
:1016200080917A00826080937A0080917A00816054
:1016300080937A0080917A00806880937A0010927B
:10164000C10082E00E94990680E40E948B06C0E0FF
:10165000D2E0699181E294E00E94490782E0C830BB
:10166000D807B9F70E94910682E00E948B068BE3AF
:101670009FE10197F1F760E082E00E943A0760E0A5
:1016800081E294E00E94490760E083E00E943A070B
:1016900089E892E00E944F0760E08DE00E943A07DF
:1016A00060E081E294E00E94490761E081E00E94ED
:1016B0003A0784E992E00E944F07E0910103F0911C
:1016C000020382E08083E091FD02F091FE0210822D
:1016D000E091FF02F09100038FEC808310920903E8
:1016E000E0910503F091060386E08083E091030317
:1016F000F0910403808180618083E0910303F09185
:101700000403808188608083E0910303F0910403E7
:10171000808180688083E0910303F09104038081DD
:101720008F7D80838FEF9FEF9093EC028093EB028D
:1017300064E572E084E993E00E94C80764E572E022
:101740008EE893E00E94C80780917B00877F80939A
:101750007B0080E480937C0080917A008064809399
:101760007A0080917A0086FDFCCF609178007091BC
:101770007900072E000C880B990B61157105810506
:10178000910511F00E948A0D1092EA021092E9026E
:1017900061E08DE00E9403046AE070E080E090E088
:1017A0000E94BF058091EB029091EC028B30910575
:1017B00009F0A9C00E944304C82F882309F4F4C08B
:1017C0008A3209F081C02091920330919303809175
:1017D00098039091990328173907C1F480918E03DB
:1017E00090918F036091940370919503009709F491
:1017F000B1C06115710539F4232B09F4B9C0FC019E
:10180000808190E0B2C00E944E10AFC08091E9028A
:101810009091EA0201969093EA028093E90260E0D7
:101820000397E1F480E00E943A0784EA92E00E9484
:101830004F0761E080E00E943A078AEB92E00E9445
:101840004F0761E08DE00E94D10360ED77E080E01A
:1018500090E00E94BF050E94E908A6C080E00E94B7
:101860003A0784EA92E00E944F0761E080E00E941C
:101870003A0784EC92E00E944F0768E873E180E049
:1018800090E00E94BF0561E080E00E943A078FEC83
:1018900092E00E944F0764E572E08EE893E00E94B8
:1018A000C80760E080E00E943A0785E592E00E9468
:1018B0004F0761E080E00E943A076FE070E080E04F
:1018C00090E00E94BF0570C0833289F40E949106A7
:1018D00060E080E00E943A0784EA92E00E944F07AD
:1018E00061E080E00E943A078AED92E0A8CF682F7D
:1018F0008EE893E00E94FE0741E06C2F81E294E0C5
:101900000E94380651C08A309105A1F468EE73E058
:1019100080E090E00E94BF050E9491060E942F087F
:101920008091EB029091EC0201969093EC028093EF
:10193000EB023AC08C30910519F40E94910634C034
:1019400001969093EC028093EB0268EE73E080E0E6
:1019500090E0B7CF6115710559F0232B49F0FB01D9
:10196000808190E0919581959109892B09F04ECF66
:101970000E94910660E080E00E943A0784EA92E0CB
:101980000E944F0761E080E00E943A078CEA92E0F3
:101990000E944F071092EA021092E90264E572E099
:1019A0008EE893E00E94C8070E940D03F5CE8EE8F2
:1019B00093E00E945C0784E993E00E945C078AE957
:1019C00093E00E945C0780EA93E00E945C0785E157
:1019D00094E00E945C078BE194E00C945C078F928A
:1019E0009F92AF92BF92CF92DF92EF92FF92CF93EE
:1019F000DF93EC01688179818A819B816115710592
:101A00008105910521F464E279ED8BE597E02DE104
:101A100033EF41E050E00E94D40D49015A019B018F
:101A2000AC01A7EAB1E40E94F30D6B017C01ACEEBE
:101A3000B4EFA50194010E94010EC60ED71EE81E48
:101A4000F91EF7FE06C081E0C81AD108E10880E857
:101A5000F80AC882D982EA82FB82C701B6019F7761
:101A6000DF91CF91FF90EF90DF90CF90BF90AF903C
:101A70009F908F9008958F929F92AF92BF92CF9236
:101A8000DF92EF92FF92609120027091210280918B
:101A9000220290912302611571058105910521F4BF
:101AA00064E279ED8BE597E02DE133EF41E050E022
:101AB0000E94D40D49015A019B01AC01A7EAB1E48F
:101AC0000E94F30D6B017C01ACEEB4EFA501940113
:101AD0000E94010EC60ED71EE81EF91EF7FE06C0B4
:101AE00081E0C81AD108E10880E8F80AC092200213
:101AF000D0922102E0922202F0922302C701B601A5
:101B00009F77FF90EF90DF90CF90BF90AF909F9026
:101B10008F90089560932002709321028093220297
:101B2000909323020895BB272A3051F4992342F45D
:101B3000BDE290958095709561957F4F8F4F9F4F37
:101B40000C94A30DBB27FA01A62F6217710581051E
:101B50009105330B30FB66F0AA27660F771F881FAD
:101B6000991FAA1FA21710F0A21B63953850A9F75E
:101B7000A05DAA3308F0A95DA19336F7B111B19326
:101B80001082CA010C94C40DDC01FC01672F719115
:101B90007723E1F7329704C07C916D937083629153
:101BA000AE17BF07C8F30895052E97FB1EF40094E7
:101BB0000E94EB0D57FD07D00E94060E07FC03D0D4
:101BC0004EF40C94EB0D50954095309521953F4F78
:101BD0004F4F5F4F089590958095709561957F4F19
:101BE0008F4F9F4F08950E94280EA59F900DB49F80
:101BF000900DA49F800D911D11240895B7FF0C94A2
:101C0000F30D0E94F30D821B930B0895A1E21A2E8F
:101C1000AA1BBB1BFD010DC0AA1FBB1FEE1FFF1F90
:101C2000A217B307E407F50720F0A21BB30BE40BE0
:101C3000F50B661F771F881F991F1A9469F7609527
:101C40007095809590959B01AC01BD01CF010895E1
:101C5000A29FB001B39FC001A39F700D811D1124ED
:101C6000911DB29F700D811D1124911D0895EE0FDD
:101C7000FF1F881F8BBF0790F691E02D19940F93DB
:101C80001F93CF93DF938230910510F482E090E0B0
:101C9000E0913B04F0913C0430E020E0B0E0A0E0B3
:101CA000309799F42115310509F44AC0281B390BE6
:101CB00024303105D8F58A819B816115710589F140
:101CC000FB0193838283FE0111C040815181028117
:101CD000138148175907E0F04817590799F41097EE
:101CE00061F012960C93129713961C933296CF01C3
:101CF000DF91CF911F910F91089500933B041093B2
:101D00003C04F4CF2115310551F04217530738F048
:101D1000A901DB019A01BD01DF01F801C1CFEF018B
:101D2000F9CF90933C0480933B04CDCFFE01E20FAA
:101D3000F31F819391932250310939832883D7CFA0
:101D40002091390430913A04232B41F4209126024A
:101D50003091270230933A042093390420912402D1
:101D6000309125022115310541F42DB73EB7409140
:101D7000280250912902241B350BE0913904F0917F
:101D80003A04E217F307A0F42E1B3F0B281739077C
:101D900078F0AC014E5F5F4F2417350748F04E0FC7
:101DA0005F1F50933A0440933904819391939FCFDE
:101DB000F0E0E0E09CCFCF93DF930097E9F0FC01E7
:101DC000329713821282A0913B04B0913C04ED0142
:101DD00030E020E01097A1F420813181820F931F21
:101DE0002091390430913A042817390709F061C06D
:101DF000F0933A04E0933904DF91CF910895EA011A
:101E0000CE17DF07E8F54A815B819E014115510538
:101E1000B1F7E901FB83EA8349915991C40FD51FBA
:101E2000EC17FD0761F4808191810296840F951F64
:101E3000E90199838883828193819B838A83F0E07F
:101E4000E0E012968D919C9113970097B9F52D9132
:101E50003C911197CD010296820F931F2091390476
:101E600030913A042817390739F6309751F5109216
:101E70003C0410923B04B0933A04A0933904BCCFC5
:101E8000D383C28340815181840F951FC817D9071E
:101E900061F44E5F5F4F88819981480F591F5183CC
:101EA00040838A819B81938382832115310509F0C8
:101EB000B0CFF0933C04E0933B049ECFFD01DC01E6
:101EC000C0CF13821282D7CF4F925F926F927F92D0
:101ED0008F929F92AF92BF92CF92DF92EF92FF923A
:101EE0000F931F93CF93DF938C01009799F4CB014D
:101EF000DF91CF911F910F91FF90EF90DF90CF90E6
:101F0000BF90AF909F908F907F906F905F904F9019
:101F10000C943F0EFC01E60FF71F9C012250310983
:101F2000E217F30708F4AEC0D901CD91DC91119707
:101F3000C617D70720F1C530D10578F0CE01049738
:101F40008617970750F0C61BD70B2297C193D193E2
:101F50006D937C93CF010E94DB0EC801DF91CF917E
:101F60001F910F91FF90EF90DF90CF90BF90AF90B7
:101F70009F908F907F906F905F904F9008955B013E
:101F8000AC1ABD0A4C018C0E9D1EA0913B04B09171
:101F90003C04512C412CF12CE12C109731F580910F
:101FA000390490913A048815990509F05CC04616E9
:101FB000570608F058C0809124029091250200979E
:101FC00041F48DB79EB74091280250912902841B9D
:101FD000950BE817F90708F055C0F0933A04E09321
:101FE0003904F90171836083B8CF8D919C91119769
:101FF00012966C90129713967C901397A815B905BA
:1020000059F56C0142E0C40ED11CCA14DB0420F166
:10201000AC014A195B09DA011296159780F06282C9
:10202000738251834083D9016D937C93E114F10451
:1020300071F0D7011396FC93EE9312978ECF2296F0
:102040008C0F9D1FF90191838083F301EFCFF093F3
:102050003C04E0933B0481CF4816590608F42C0158
:102060007D01D3019ACFCB010E943F0E7C010097E6
:1020700049F0AE01B8010E944510C8010E94DB0E74
:1020800087016BCF10E000E068CFFB01DC0102C0EC
:1020900001900D9241505040D8F70895FB01DC01AA
:1020A0008D91019080190110D9F3990B0895FB01CE
:1020B000DC0101900D920020E1F7089511E0C3E4E6
:1020C000D1E000E006C0802FFE010E94370E21966D
:1020D000011DC434D10780E00807A9F7F894FFCFA9
:1020E000040A11111F1B1F1F161718191A1B1C1D7C
:1020F0003132334134353642373839432A3023447C
:102100000100000000003D04800000000000A0026B
:102110000A023702ED02680246025A02000000007D
:102120003F04FF03CE030000000049070A02F20546
:10213000F1050D0A00436F6469676F2E2E2E00476C
:10214000656E65726172206E7565766F00746F6B77
:10215000656E3F20312E536920322E4E6F00313292
:1021600033340061646D696E004269656E76656E38
:1021700069646F00477275706F352D5365636369CD
:102180006F6E4100496E677265736F00436F7272C4
:10219000656374616D656E746500426C6F71756521
:1021A00061646F00496E636F72726563746F0020C3
:1021B0002020202020202020200043616E63656CB9
:0421C00061646F00E7
:00000001FF
