:020000040000FA
:100000000C9444010C9475010C9475010C947501C9
:100010000C9475010C9475010C9475010C94750188
:100020000C9475010C9475010C9475010C94750178
:100030000C9475010C9475010C9475010C94750168
:100040000C9475010C9475010C9475010C94750158
:100050000C9475010C9475010C9475010C94C206F6
:100060000C9475010C948C060C9462060C9475012A
:100070000C9475010C9475010C9475010C94750128
:100080000C9475010C9475010C9475010C94750118
:100090000C942C060C9402060C9475010C947501BA
:1000A0000C9475010C9475010C9475010C947501F8
:1000B0000C9475010C9475010C9475010C947501E8
:1000C0000C9475010C9475010C9475010C947501D8
:1000D0000C9475010C9475010C9475010C947501C8
:1000E0000C9475010C943E020C948B020C941F032B
:1000F0000C9429030C94D5030C94D9030C94FC02A2
:100100000C94FC010C94DA010C9411030C94EE0194
:100110000C94DA030C9415030C940B030C943B031E
:100120000C94A9030C9404030C949E010C94FF09F5
:100130000C941B030C942D030C940C070C940803D3
:100140000C9436030C9400030C9431050C94CB01F1
:100150000C9423030C9437030C94F6020C94310393
:100160000C94D103000020002300260029002C005D
:100170002F00320000010000030106010901000008
:100180002100240027002A002D0030003300010147
:100190000000040107010A010000220025002800D8
:1001A0002B002E003100340002010000050108017F
:1001B0000B010505050507050808080802020202EB
:1001C0000A0A0808040404040101010101010101F3
:1001D0000303030303030303040707070C0C0C0CBE
:1001E0000C0C0C0C020202020606060606060606A7
:1001F0000B0B0B0B0B0B0B0B010210202008081034
:100200002040102040800201020108040201010286
:10021000040810204080804020100804020180045F
:1002200002018040201008040201080402010102BA
:1002300004081020408001020408102040800000C3
:100240000A0B02090C0D0E08070304010000000050
:10025000000000000000000000000000000000009E
:10026000000000000000000000001211100000005B
:10027000000000000000000000000000000000007E
:10028000000000000C07FF0911241FBECFEFD1E2D0
:10029000DEBFCDBF00E00CBF12E0A0E0B2E0EEE1B7
:1002A000FBE100E00BBF02C007900D92A439B1073B
:1002B000D9F724E0A4E9B2E001C01D92A738B20743
:1002C000E1F711E0C3E4D1E000E006C021970109A5
:1002D000802FFE010E945F0BC234D10780E0080727
:1002E000A9F70E9424080C947D0D0C940000FC01D9
:1002F000A089B18982E08C93A485B5851C92A685DE
:10030000B7858FEC8C93108EA489B58986E08C9389
:10031000A289B3898C9180618C93A289B3898C91D5
:1003200088608C93A289B3898C9180688C930288B1
:10033000F389E02D80818F7D80830895AF92BF92F5
:10034000CF92DF92EF92FF920F931F93CF93DF93A1
:100350006C017B018B01040F151FEB015E01AE18D0
:10036000BF08C017D10759F06991D601ED91FC91F2
:100370000190F081E02DC6011995892B79F7C5010F
:10038000DF91CF911F910F91FF90EF90DF90CF9071
:10039000BF90AF900895FC01538D448D252F30E020
:1003A000842F90E0821B930B541710F0CF96089582
:1003B00001970895FC01918D828D981761F0A28DAF
:1003C000AE0FBF2FB11D5D968C91928D9F5F9F7375
:1003D000928F90E008958FEF9FEF0895FC01918D2B
:1003E000828D981731F0828DE80FF11D858D90E098
:1003F00008958FEF9FEF0895FC01918D228D892F35
:1004000090E0805C9F4F821B91098F73992708951C
:100410008EE992E00E94FC0121E0892B09F420E0A2
:10042000822F08958BE393E00E94FC0121E0892B49
:1004300009F420E0822F0895FC01A48DA80FB92FA4
:10044000B11DA35ABF4F2C91848D90E001968F73FC
:100450009927848FA689B7892C93A089B1898C911B
:10046000837080648C93938D848D981306C002886A
:10047000F389E02D80818F7D80830895EF92FF9234
:100480000F931F93CF93DF93EC0181E0888F9B8DB7
:100490008C8D98131AC0E889F989808185FF15C071
:1004A0009FB7F894EE89FF896083E889F989808194
:1004B0008370806480839FBF81E090E0DF91CF9163
:1004C0001F910F91FF90EF900895F62E0B8D10E085
:1004D0000F5F1F4F0F731127E02E8C8D8E110CC0F4
:1004E0000FB607FCFACFE889F989808185FFF5CF3F
:1004F000CE010E941C02F1CFEB8DEC0FFD2FF11D00
:10050000E35AFF4FF0829FB7F8940B8FEA89FB897B
:1005100080818062CFCFCF93DF93EC01888D8823D9
:10052000B9F0AA89BB89E889F9898C9185FD03C056
:10053000808186FD0DC00FB607FCF7CF8C9185FF3B
:10054000F2CF808185FFEDCFCE010E941C02E9CF62
:10055000DF91CF91089580E090E0892B29F00E94EF
:10056000120281110E94000080E090E0892B29F0A6
:100570000E94080281110E94000080E090E0892B17
:1005800049F080E090E0892B29F00E940000811161
:100590000E94000080E090E0892B49F080E090E02C
:1005A000892B29F00E94000081110C94000008950D
:1005B0008150823108F05AC0E82FF0E08827EC51D2
:1005C000FD4F8F4F0C945F0B04030803F602FC02EF
:1005D000000336030B03110315031B031F0323033F
:1005E00029032D033603310337033B038091800039
:1005F0008F77809380000895809180008F7DF9CF60
:1006000080918000877FF5CF84B58F7784BD089572
:1006100084B58F7DFBCF8091B0008F778093B00041
:1006200008958091B0008F7DF9CF809190008F77F1
:10063000809390000895809190008F7DF9CF8091F4
:100640009000877FF5CF8091A0008F778093A000E6
:1006500008958091A0008F7DF9CF8091A000877FC1
:10066000F5CF809120018F778093200108958091AC
:1006700020018F7DF9CF80912001877FF5CF1F93D7
:10068000CF93DF93282F30E0F901E25CFD4F849196
:10069000F901E850FE4FD491F901EE54FE4FC49198
:1006A000CC23A9F0162F81110E94D802EC2FF0E084
:1006B000EE0FFF1FE856FE4FA591B4918FB7F89447
:1006C000EC91111108C0D095DE23DC938FBFDF9130
:1006D000CF911F910895DE2BF8CFCF93DF9390E059
:1006E000FC01E850FE4F24918E549E4FFC018491F2
:1006F0008823C9F090E0880F991FFC01E258FE4F53
:10070000A591B491FC01E856FE4FC591D4916111B9
:100710000DC09FB7F8948C91209582238C9388818B
:10072000282328839FBFDF91CF910895623051F431
:100730009FB7F8943C91822F809583238C93E88116
:100740002E2BEFCF8FB7F894EC912E2B2C938FBFDD
:10075000EACFCF93DF9370E0FB01E25CFD4F849121
:10076000FB01E850FE4FD4916E547E4FFB01C491C3
:10077000CC23A1F081110E94D802EC2FF0E0EE0F03
:10078000FF1FEC59FE4FA591B491EC91ED2381E050
:1007900090E009F480E0DF91CF91089580E090E04F
:1007A000FACF862F642F0C943F03862F642F0C946E
:1007B0006D03089590E080E00895CF93DF93EC01FE
:1007C00060E08E810E943F0361E08E810E943F03C2
:1007D00060E08E810E943F038BE891E00197F1F782
:1007E000DF91CF910895CF92DF92EF92FF920F9316
:1007F0001F93CF93DF936C017C0187E0E80EF11C1F
:10080000D0E0C0E0062F10E0B8010C2E02C07595B4
:1008100067950A94E2F76170F70181917F010E9468
:100820003F032196C430D10579F7C601DF91CF91FE
:100830001F910F91FF90EF90DF90CF900C94DD030C
:10084000CF92DF92EF92FF920F931F93CF93DF939C
:10085000EC01F62E642F8C810E943F038D818F3F27
:1008600019F060E00E943F030F2D10E08F8584FF98
:1008700025C06E0187E0C80ED11CF12CE12CB80117
:100880000E2C02C0759567950A94E2F76170F60127
:1008900081916F010E943F03FFEFEF1AFF0A88E08A
:1008A000E816F10461F7CE01DF91CF911F910F910E
:1008B000FF90EF90DF90CF900C94DD03B80184E0BF
:1008C000759567958A95E1F7CE010E94F3036F2D28
:1008D000CE01DF91CF911F910F91FF90EF90DF90AC
:1008E000CF900C94F30340E0682F8BE694E00C94D7
:1008F000200481E00E9473048BE39FE10197F1F7EC
:100900000895CF93DF93823029F490917A04986010
:1009100090937A0480937E0410927F0480E4809305
:10092000800480E18093810480E58093820461E00B
:1009300080916F040E946D03809170048F3F19F0C5
:1009400061E00E946D0361E0809171040E946D037B
:10095000CBE6D4E09E012B56344080917A0484FD8E
:100960000BC084E090E021962817390744F461E039
:100970008E810E946D03EECF88E090E0F4CF8BE390
:100980009DE00197F1F760E080916F040E943F03C2
:1009900060E0809171040E943F03809170048F3F5A
:1009A00019F060E00E943F0380917A0484FD34C016
:1009B00063E08BE694E00E94F303CBE4D6E4CE013F
:1009C0000197F1F763E08BE694E00E94F30321972F
:1009D000F1F763E08BE694E00E94F30383E592E095
:1009E0000197F1F762E08BE694E00E94F3038091B7
:1009F0007A0480620E94730484E080937B048CE01C
:100A00000E9473040E94790482E080937C0486E053
:100A1000DF91CF910C94730480620E9473048BE485
:100A200096E40197F1F780917A0480620E94730442
:100A300083E592E00197F1F780917A0480620E9449
:100A40007304D5CF90917E04691710F06FEF690F92
:100A5000E62FF0E0E559FB4F9489890F80680C94EC
:100A6000730441E00E94200481E090E00895FB01BE
:100A700001900020E9F73197AF01461B570BDC01CD
:100A8000ED91FC910280F381E02D19940F931F9357
:100A9000CF93DF93EC01EEEDF3E04481558160816B
:100AA00071810E949E018C0162E572E0CE010E947C
:100AB0003705800F911FDF91CF911F910F910895FE
:100AC000FC0180819181009711F00C94030C089532
:100AD0000F931F93CF93DF93EC0188819981009747
:100AE00059F02A813B812617370730F081E0DF91EA
:100AF000CF911F910F9108958B016F5F7F4F0E94DF
:100B00008C0C009759F0998388831B830A832C816E
:100B10003D81232B59F7FC011082E8CF80E0E7CF1D
:100B2000EF92FF920F931F93CF93DF93EC017B0122
:100B3000198218821B821A821D821C82FB0101907D
:100B40000020E9F731978F01061B170BB8010E94AF
:100B5000680528813981811113C02115310519F0EB
:100B6000C9010E94030C198218821D821C821B82FB
:100B70001A82DF91CF911F910F91FF90EF9008950E
:100B80001D830C83B701C901DF91CF911F910F9194
:100B9000FF90EF900C94760DEF92FF920F931F93BE
:100BA000CF93DF93EC017B01FB0101900020E9F77B
:100BB00031978F01061B170BB8010E946805288129
:100BC0003981811113C02115310519F0C9010E9425
:100BD000030C198218821D821C821B821A82DF91EB
:100BE000CF911F910F91FF90EF9008951D830C837B
:100BF000B701C901DF91CF911F910F91FF90EF9045
:100C00000C94760D1F920F920FB60F9211240BB613
:100C10000F922F933F934F935F936F937F938F9395
:100C20009F93AF93BF93EF93FF938EE992E00E945F
:100C30001C02FF91EF91BF91AF919F918F917F9196
:100C40006F915F914F913F912F910F900BBE0F903D
:100C50000FBE0F901F9018951F920F920FB60F9214
:100C600011240BB60F922F938F939F93EF93FF93C3
:100C7000E091AE02F091AF028081E091B402F09178
:100C8000B50282FD1DC090818091B7028F5F8F7386
:100C90002091B802821741F0E091B702F0E0E256ED
:100CA000FD4F958F8093B702FF91EF919F918F91A8
:100CB0002F910F900BBE0F900FBE0F901F901895A5
:100CC0008081F2CF1F920F920FB60F9211240BB6B4
:100CD0000F922F933F934F935F936F937F938F93D5
:100CE0009F93AF93BF93EF93FF938BE393E00E94A7
:100CF0001C02FF91EF91BF91AF919F918F917F91D6
:100D00006F915F914F913F912F910F900BBE0F907C
:100D10000FBE0F901F9018951F920F920FB60F9253
:100D200011240BB60F922F938F939F93EF93FF9302
:100D3000E0914B03F0914C038081E0915103F091DD
:100D4000520382FD1DC09081809154038F5F8F7389
:100D500020915503821741F0E0915403F0E0E55CE7
:100D6000FC4F958F80935403FF91EF919F918F914A
:100D70002F910F900BBE0F900FBE0F901F901895E4
:100D80008081F2CF1F920F920FB60F9211242F93F2
:100D90003F938F939F93AF93BF93809199029091CC
:100DA0009A02A0919B02B0919C023091980223E09C
:100DB000230F2D3758F50196A11DB11D20939802E0
:100DC0008093990290939A02A0939B02B0939C0205
:100DD0008091940290919502A0919602B091970211
:100DE0000196A11DB11D8093940290939502A0934A
:100DF0009602B0939702BF91AF919F918F913F91CF
:100E00002F910F900FBE0F901F90189526E8230F7B
:100E10000296A11DB11DD2CF1092A1021092A00284
:100E200048EE53E060E070E04093A2025093A302CA
:100E30006093A4027093A5028EE292E090939F02C9
:100E400080939E022DEC30E03093AB022093AA02F7
:100E50002CEC30E03093AD022093AC0228EC30E073
:100E60003093AF022093AE0229EC30E03093B10210
:100E70002093B0022AEC30E03093B3022093B20208
:100E80002EEC30E03093B5022093B4021092B702FA
:100E90001092B8021092B9021092BA0210923E0358
:100EA00010923D0340933F035093400360934103EE
:100EB0007093420390933C0380933B0385EC90E056
:100EC000909348038093470384EC90E090934A0307
:100ED0008093490380EC90E090934C0380934B0304
:100EE00081EC90E090934E0380934D0382EC90E070
:100EF0009093500380934F0386EC90E090935203BD
:100F0000809351031092540310925503109256038C
:100F10001092570310926E0410926D048AE492E0CE
:100F200090936C0480936B0487E080936F048FEF41
:100F30008093700486E08093710485E0809372044E
:100F400084E08093730483E08093740482E0809350
:100F5000750410927604109277041092780410921F
:100F6000790410927A0481E00E94810465E572E0C0
:100F700085E694E00E9490056AE572E08FE594E0D2
:100F80000E9490051092F2031092F6031092F5035E
:100F90001092F70380E492E09093F1038093F003C2
:100FA000ECE0F4E01082148213821582369684E01D
:100FB000E834F807B9F78CE092E0909353048093FB
:100FC000520488E092E0909355048093540484E0A6
:100FD000809356048093570480E192E090935104EB
:100FE000809350048AE090E09093590480935804D1
:100FF00084EF91E090935B0480935A0410925E0416
:1010000010925D0410924C0410924D0410924E0404
:1010100010924F0410925C0464E572E08AEE93E053
:101020000E94900564E572E084EE93E00E949005D2
:1010300064E572E08EED93E00E94900564E572E055
:1010400088ED93E00C949005CF93DF93CDB7DEB796
:10105000A8970FB6F894DEBF0FBECDBF789484B5C5
:10106000826084BD84B5816084BD85B5826085BDA4
:1010700085B5816085BD80916E00816080936E0032
:101080001092810080918100826080938100809124
:1010900081008160809381008091800081608093D5
:1010A00080008091B10084608093B1008091B00095
:1010B00081608093B0008091910082608093910064
:1010C0008091910081608093910080919000816077
:1010D000809390008091A10082608093A100809114
:1010E000A10081608093A1008091A0008160809325
:1010F000A0008091210182608093210180912101D3
:101100008160809321018091200181608093200182
:1011100080917A00846080937A0080917A00826066
:1011200080937A0080917A00816080937A00809128
:101130007A00806880937A001092C10082E00E9459
:10114000810480E40E94730400E012E0F8016191E0
:101150008F018BE694E00E943105F2E008301F0712
:10116000A9F70E94790482E00E9473048BE39FE157
:101170000197F1F760E082E00E94220560E08BE6D3
:1011800094E00E94310560E083E00E94220560E661
:1011900072E08BE694E00E94370560E08DE00E94EB
:1011A000220560E08BE694E00E94310561E081E079
:1011B0000E9422056BE672E08BE694E00E94370500
:1011C0008BE393E00E9477018EE992E00E94770121
:1011D00064E572E08EED93E00E94CC0564E572E078
:1011E00088ED93E00E94CC0580917B00877F8093FF
:1011F0007B0080E480937C0080917A0080648093FF
:101200007A0080917A0086FDFCCF80917800609111
:101210007900762F682F072E000C880B990B61152B
:1012200071058105910511F00E94B20A61E08DE01F
:101230000E946D0361E08AE00E946D0339E0432E55
:10124000512C612C712C43E0842E912CA12CB12CBB
:101250008BE393E00E94FC01181619060CF0C8C03D
:101260008BE393E00E94DA0180939D02813481F444
:1012700061E08AE00E943F036BE772E08BE393E05A
:101280000E94370562E572E08BE393E00E94370528
:1012900080919D02823481F460E08AE00E943F03E5
:1012A00064E872E08BE393E00E94370562E572E048
:1012B0008BE393E00E94370580919D02883609F008
:1012C00097C00E94790424E0E22EF12C0E94630A68
:1012D0001CA21BA21EA21DA218A61FA2A30192015E
:1012E0000E94FC0A2AE0AE014F5F5F4F0E94BB0ADA
:1012F000BE016F5F7F4FCE0183960E94CC05CBA0CD
:10130000DCA0C114D10419F10FA118A50115110514
:10131000F1F08091E2039091E303080F191FB801E7
:101320008EED93E00E946805882389F02091DE030A
:101330003091DF038091E2039091E303B601820FC5
:10134000931F0E94760D1093E3030093E203CE01F6
:1013500083960E94600581E0E81AF10809F0B6CF93
:1013600092E0E92EF12C0E94630AA50194010E94EB
:10137000FC0A6F5B7F4F8F4F9F4F69831A820091EA
:10138000E2031091E3030F5F1F4FB8018EED93E06E
:101390000E946805882399F02091DE033091DF03D5
:1013A0008091E2039091E303BE016F5F7F4F820F54
:1013B000931F0E94760D1093E3030093E203EA94D7
:1013C000EF28C9F48BE393E00E9446058EE992E092
:1013D0000E94460560E080E00E9422056AE872E013
:1013E0008BE694E00E94370561E080E00E942205D0
:1013F0000E94AB022DCFEE24E394F12CB4CF88ED04
:1014000093E00E9460058EED93E00E94600584EEFB
:1014100093E00E9460058AEE93E00E9460058FE5EC
:1014200094E00E94600585E694E00C9460058F923C
:101430009F92AF92BF92CF92DF92EF92FF92CF93A3
:10144000DF93EC01688179818A819B816115710547
:101450008105910521F464E279ED8BE597E02DE1BA
:1014600033EF41E050E00E94FC0A49015A019B0120
:10147000AC01A7EAB1E40E941B0B6B017C01ACEE4E
:10148000B4EFA50194010E94290BC60ED71EE81ED9
:10149000F91EF7FE06C081E0C81AD108E10880E80D
:1014A000F80AC882D982EA82FB82C701B6019F7717
:1014B000DF91CF91FF90EF90DF90CF90BF90AF90F2
:1014C0009F908F9008958F929F92AF92BF92CF92EC
:1014D000DF92EF92FF926091200270912102809141
:1014E000220290912302611571058105910521F475
:1014F00064E279ED8BE597E02DE133EF41E050E0D8
:101500000E94FC0A49015A019B01AC01A7EAB1E41F
:101510000E941B0B6B017C01ACEEB4EFA5019401A2
:101520000E94290BC60ED71EE81EF91EF7FE06C044
:1015300081E0C81AD108E10880E8F80AC0922002C8
:10154000D0922102E0922202F0922302C701B6015A
:101550009F77FF90EF90DF90CF90BF90AF909F90DC
:101560008F9008956093200270932102809322024D
:10157000909323020895BB272A3051F4992342F413
:10158000BDE290958095709561957F4F8F4F9F4FED
:101590000C94CB0ABB27FA01A62F621771058105AF
:1015A0009105330B30FB66F0AA27660F771F881F63
:1015B000991FAA1FA21710F0A21B63953850A9F714
:1015C000A05DAA3308F0A95DA19336F7B111B193DC
:1015D0001082CA010C94EC0ADC01FC01672F7191A6
:1015E0007723E1F7329704C07C916D937083629109
:1015F000AE17BF07C8F30895052E97FB1EF400949D
:101600000E94130B57FD07D00E942E0B07FC03D03E
:101610004EF40C94130B50954095309521953F4F07
:101620004F4F5F4F089590958095709561957F4FCE
:101630008F4F9F4F08950E94500BA59F900DB49F10
:10164000900DA49F800D911D11240895B7FF0C9457
:101650001B0B0E941B0B821B930B0895A1E21A2EF9
:10166000AA1BBB1BFD010DC0AA1FBB1FEE1FFF1F46
:10167000A217B307E407F50720F0A21BB30BE40B96
:10168000F50B661F771F881F991F1A9469F76095DD
:101690007095809590959B01AC01BD01CF01089597
:1016A000A29FB001B39FC001A39F700D811D1124A3
:1016B000911DB29F700D811D1124911D0895EE0F93
:1016C000FF1F881F8BBF0790F691E02D19940F9391
:1016D0001F93CF93DF938230910510F482E090E066
:1016E000E0918504F091860430E020E0B0E0A0E0D5
:1016F000309799F42115310509F44AC0281B390B9C
:1017000024303105D8F58A819B816115710589F1F5
:10171000FB0193838283FE0111C0408151810281CC
:10172000138148175907E0F04817590799F41097A3
:1017300061F012960C93129713961C933296CF0178
:10174000DF91CF911F910F9108950093850410931D
:101750008604F4CF2115310551F04217530738F0B4
:10176000A901DB019A01BD01DF01F801C1CFEF0141
:10177000F9CF9093860480938504CDCFFE01E20FCC
:10178000F31F819391932250310939832883D7CF56
:101790002091830430918404232B41F4209126026C
:1017A00030912702309384042093830420912402F3
:1017B000309125022115310541F42DB73EB74091F6
:1017C000280250912902241B350BE0918304F091EB
:1017D0008404E217F307A0F42E1B3F0B28173907E8
:1017E00078F0AC014E5F5F4F2417350748F04E0F7D
:1017F0005F1F5093840440938304819391939FCF00
:10180000F0E0E0E09CCFCF93DF930097E9F0FC019C
:10181000329713821282A0918504B0918604ED0163
:1018200030E020E01097A1F420813181820F931FD6
:1018300020918304309184042817390709F061C08E
:10184000F0938404E0938304DF91CF910895EA013B
:10185000CE17DF07E8F54A815B819E0141155105EE
:10186000B1F7E901FB83EA8349915991C40FD51F70
:10187000EC17FD0761F4808191810296840F951F1A
:10188000E90199838883828193819B838A83F0E035
:10189000E0E012968D919C9113970097B9F52D91E8
:1018A0003C911197CD010296820F931F20918304E2
:1018B000309184042817390739F6309751F5109282
:1018C000860410928504B0938404A0938304BCCF53
:1018D000D383C28340815181840F951FC817D907D4
:1018E00061F44E5F5F4F88819981480F591F518382
:1018F00040838A819B81938382832115310509F07E
:10190000B0CFF0938604E09385049ECFFD01DC0107
:10191000C0CF13821282D7CF4F925F926F927F9285
:101920008F929F92AF92BF92CF92DF92EF92FF92EF
:101930000F931F93CF93DF938C01009799F4CB0102
:10194000DF91CF911F910F91FF90EF90DF90CF909B
:10195000BF90AF909F908F907F906F905F904F90CF
:101960000C94670BFC01E60FF71F9C012250310914
:10197000E217F30708F4AEC0D901CD91DC911197BD
:10198000C617D70720F1C530D10578F0CE010497EE
:101990008617970750F0C61BD70B2297C193D19398
:1019A0006D937C93CF010E94030CC801DF91CF910E
:1019B0001F910F91FF90EF90DF90CF90BF90AF906D
:1019C0009F908F907F906F905F904F9008955B01F4
:1019D000AC1ABD0A4C018C0E9D1EA0918504B091DD
:1019E0008604512C412CF12CE12C109731F580917B
:1019F0008304909184048815990509F05CC046160B
:101A0000570608F058C08091240290912502009753
:101A100041F48DB79EB74091280250912902841B52
:101A2000950BE817F90708F055C0F0938404E0938C
:101A30008304F90171836083B8CF8D919C911197D4
:101A400012966C90129713967C901397A815B9056F
:101A500059F56C0142E0C40ED11CCA14DB0420F11C
:101A6000AC014A195B09DA011296159780F062827F
:101A7000738251834083D9016D937C93E114F10407
:101A800071F0D7011396FC93EE9312978ECF2296A6
:101A90008C0F9D1FF90191838083F301EFCFF093A9
:101AA0008604E093850481CF4816590608F42C017A
:101AB0007D01D3019ACFCB010E94670B7C01009777
:101AC00049F0AE01B8010E946D0DC8010E94030CDF
:101AD00087016BCF10E000E068CFFB01DC0102C0A2
:101AE00001900D9241505040D8F70895FB01DC0160
:101AF00001900D920020E1F7089511E0C3E4D1E0D8
:101B000000E006C0802FFE010E945F0B2196011DA0
:101B1000C434D10780E00807A9F7F894FFCF040A7E
:101B200011111F1B1F1F161718191A1B1C1D3132EC
:101B3000334134353642373839432A3023440100A3
:101B40000000000087048000000000003E029E01AB
:101B5000CB018B02FC01DA01EE0100000000D5038D
:101B6000D103A9030000000031059E01DA03D90367
:101B70000D0A00313233340061646D696E004269D0
:101B8000656E76656E69646F00477275706F352D8E
:101B900053656363696F6E4100456E6369656E648A
:101BA0006F00417061676F00436F6469676F2E2E2D
:021BB0002E0005
:020000040003F7
:10E000000D9489F10D94B2F10D94B2F10D94B2F129
:10E010000D94B2F10D94B2F10D94B2F10D94B2F1F0
:10E020000D94B2F10D94B2F10D94B2F10D94B2F1E0
:10E030000D94B2F10D94B2F10D94B2F10D94B2F1D0
:10E040000D94B2F10D94B2F10D94B2F10D94B2F1C0
:10E050000D94B2F10D94B2F10D94B2F10D94B2F1B0
:10E060000D94B2F10D94B2F10D94B2F10D94B2F1A0
:10E070000D94B2F10D94B2F10D94B2F10D94B2F190
:10E080000D94B2F10D94B2F10D94B2F10D94B2F180
:10E090000D94B2F10D94B2F10D94B2F10D94B2F170
:10E0A0000D94B2F10D94B2F10D94B2F10D94B2F160
:10E0B0000D94B2F10D94B2F10D94B2F10D94B2F150
:10E0C0000D94B2F10D94B2F10D94B2F10D94B2F140
:10E0D0000D94B2F10D94B2F10D94B2F10D94B2F130
:10E0E0000D94B2F141546D656761323536300041AF
:10E0F000726475696E6F206578706C6F72657220DE
:10E1000073746B3530305632206279204D4C530099
:10E11000426F6F746C6F616465723E004875683F52
:10E1200000436F6D70696C6564206F6E203D200048
:10E130004350552054797065202020203D20005FF9
:10E140005F4156525F415243485F5F3D2000415658
:10E1500052204C696243205665723D20004743437C
:10E160002056657273696F6E203D20004350552024
:10E1700049442020202020203D20004C6F7720663D
:10E18000757365202020203D20004869676820665F
:10E190007573652020203D200045787420667573D6
:10E1A00065202020203D20004C6F636B2066757336
:10E1B000652020203D20004D617220203720323024
:10E1C000313300312E362E3800342E332E350056A2
:10E1D00023202020414444522020206F7020636F70
:10E1E00064652020202020696E73747275637469E1
:10E1F0006F6E2061646472202020496E74657272B3
:10E20000757074006E6F20766563746F7200726A49
:10E210006D702020006A6D70200057686174207056
:10E220006F72743A00506F7274206E6F7420737541
:10E2300070706F72746564004D7573742062652030
:10E2400061206C6574746572002000577269747483
:10E25000696E672045450052656164696E672045B7
:10E26000450045452065727220636E743D00504F35
:10E27000525400303D5A65726F2061646472003FF1
:10E280003D43505520737461747300403D454550C3
:10E29000524F4D207465737400423D426C696E6B41
:10E2A000204C454400453D44756D70204545505215
:10E2B0004F4D00463D44756D7020464C415348001B
:10E2C000483D48656C70004C3D4C69737420492F83
:10E2D0004F20506F72747300513D51756974005234
:10E2E0003D44756D702052414D00563D73686F7707
:10E2F00020696E7465727275707420566563746FF0
:10E30000727300593D506F727420626C696E6B00BD
:10E310002A0011241FBECFEFD1E2DEBFCDBF01E046
:10E320000CBF12E0A0E0B2E0EEE1FDEF03E00BBFB6
:10E3300002C007900D92A030B107D9F712E0A0E01B
:10E34000B2E001C01D92AE30B107E1F70F9460F367
:10E350000D948DFE01E20EBF0FEF0DBF11241FBE05
:10E360000D9460F30D9400F020E030E040ED57E0B4
:10E3700005C0FA013197F1F72F5F3F4F2817390792
:10E38000C0F308959C01260F311DC901A0E0B0E043
:10E390002F5F3F4FABBFFC018791882361F08093D3
:10E3A000C6008091C00086FFFCCF8091C0008064D1
:10E3B0008093C000EACF08958DE08093C6008091DD
:10E3C000C00086FFFCCF8091C00080648093C000B5
:10E3D0008AE08093C6008091C00086FFFCCF8091C8
:10E3E000C00080648093C00008950F94C2F10F9420
:10E3F000DCF10895FC019081992359F09093C600B7
:10E400008091C00086FFFCCF8091C0008064809323
:10E41000C0003196992379F70895282F982F929567
:10E420009F70892F805D8A3308F0895F8093C600D2
:10E430008091C00086FFFCCF8091C00080648093F3
:10E44000C000822F8F70982F905D9A3308F0995FEB
:10E450009093C6008091C00086FFFCCF8091C000E1
:10E4600080648093C00008959C01FB01853691056E
:10E470001CF46330710594F0C90164E670E00F94F8
:10E480002EFE605D7F4F6093C6008091C00086FFC6
:10E49000FCCF8091C00080648093C0002B30310598
:10E4A00014F43297B4F0C90164E670E00F942EFEC4
:10E4B0006AE070E00F942EFE605D7F4F6093C600AF
:10E4C0008091C00086FFFCCF8091C0008064809363
:10E4D000C000C9016AE070E00F942EFEC0968093E0
:10E4E000C6008091C00086FFFCCF8091C000806490
:10E4F0008093C00008951F93182F8EE692EE60E07F
:10E500000F94C2F11093C6008091C00086FFFCCF2B
:10E510008091C00080648093C0000F94DCF11F9153
:10E5200008952F923F924F925F926F927F928F92B7
:10E530009F92AF92BF92CF92DF92EF92FF920F9392
:10E540001F93DF93CF93CDB7DEB762970FB6F894E2
:10E55000DEBF0FBECDBF382E622ECA01DB015C01CB
:10E560006D01772420E2222E2E010894411C511CBB
:10E570008BC081E0A81680E0B80681E0C80680E084
:10E58000D80628F0C601AA27BB270F940DF2BB2797
:10E59000AD2D9C2D8B2D0F940DF28A2D0F940DF225
:10E5A0002092C6008091C00086FFFCCF8091C00001
:10E5B00080648093C0009DE29093C6008091C0006B
:10E5C00086FFFCCF8091C00080648093C0002092C1
:10E5D000C6008091C00086FFFCCF8091C00080649F
:10E5E0008093C00019828601750188249924A1E0D6
:10E5F0003A1651F03A1620F0B2E03B1661F409C029
:10E600000BBFF701779007C0C7010F9477FE782EF4
:10E6100002C0F7017080872D0F940DF22092C60082
:10E620008091C00086FFFCCF8091C0008064809301
:10E63000C000872D8052F401EF70F0708F3520F408
:10E64000E40DF51D708204C0E40DF51D8EE280839B
:10E650000894E11CF11C011D111D0894811C911CE2
:10E6600090E18916910409F0C2CF80E190E0A0E02A
:10E67000B0E0A80EB91ECA1EDB1E198AC2010F9493
:10E68000FAF10F94DCF16A94662009F072CF629679
:10E690000FB6F894DEBF0FBECDBFCF91DF911F91B3
:10E6A0000F91FF90EF90DF90CF90BF90AF909F9031
:10E6B0008F907F906F905F904F903F902F90089534
:10E6C0002F923F924F925F926F927F928F929F9282
:10E6D000AF92BF92CF92DF92EF92FF920F931F9370
:10E6E000DF93CF93CDB7DEB7CD53D1400FB6F894BB
:10E6F000DEBF0FBECDBF01E20EBF0FEF0DBF94B75F
:10E70000F894A89514BE80916000886180936000A1
:10E7100010926000789493FF05C0E0910002F091A0
:10E7200001021995279A2F9A8091C00082608093E8
:10E73000C00080E18093C40088E18093C1000000A4
:10E74000EE24FF24870144E0A42EB12CCC24DD2448
:10E7500024C0C5010197F1F70894E11CF11C011DCB
:10E76000111D21E2E2162EE4F20620E0020720E06D
:10E77000120718F031E0C32ED12CC801B70127ECE5
:10E780003BE140E050E00F9441FE611571058105C9
:10E79000910519F485B1805885B98091C00087FD35
:10E7A00003C0C114D104A9F2A6014F5F5F4FC25E3E
:10E7B000DE4F59834883CE51D140C25EDE4F8881FF
:10E7C0009981CE51D140019711F00D9410FEC05D9A
:10E7D000DE4F19821882C053D14060E0C15DDE4F28
:10E7E0001882CF52D14088249924C35DDE4F19820C
:10E7F0001882CD52D140C05EDE4F188219821A8233
:10E800001B82C052D140CE5CDE4F188219821A8220
:10E810001B82C253D140EE24FF2487010BBFF701B6
:10E8200007911691C45CDE4F19830883CC53D14005
:10E830000D940BFEC25EDE4F28813981CE51D1404E
:10E840002130310509F52091C600C25EDE4F1982E4
:10E850001882CE51D14022C02F5F3F4F4F4F5F4FA4
:10E86000213082E138078AE7480780E0580780F0C6
:10E87000C45CDE4FE881F981CC53D140EF5FFF4F9C
:10E8800019F0EE27FF27099420E030E040E050E047
:10E890008091C00087FFE0CF2091C600C35DDE4FAE
:10E8A00048815981CD52D1404F5F5F4FC35DDE4FEC
:10E8B00059834883CD52D140213209F063C64A3092
:10E8C000510508F05FC60894811C911C53E0851621
:10E8D000910409F059C600E010E018C081E280936D
:10E8E000C6008091C00086FFFCCF8091C00080648C
:10E8F0008093C0002F5F3F4F2931310579F70F9486
:10E90000DCF10F5F1F4F0530110519F020E030E0FA
:10E91000E5CF10920A0210920B0210920C02109294
:10E920000D02109206021092070210920802109235
:10E930000902109202021092030210920402109235
:10E9400005028FEE90EE60E00F94F5F180E191EE1C
:10E9500060E00F94C2F18091C00087FFFCCF9091DE
:10E96000C600903608F09F759032B8F09093C600BC
:10E970008091C00086FFFCCF8091C00080648093AE
:10E98000C000A0E2A093C6008091C00086FFFCCF2B
:10E990008091C00080648093C000983409F4D7C18E
:10E9A0009934B8F4923409F459C1933458F490333B
:10E9B00019F1903308F4E3C59F33A1F1903409F0C5
:10E9C000DEC5BDC0953409F470C1963409F0D7C5D1
:10E9D00098C1923509F42BC2933538F49C3409F46C
:10E9E000F5C1913509F0CBC518C2963509F445C279
:10E9F000993509F0C4C567C483E792EE62E00F94CD
:10EA0000F5F110920602109207021092080210927D
:10EA1000090210920A0210920B0210920C0210923C
:10EA20000D0213C18FE792EE62E00F94F5F18FEEC5
:10EA300090EE60E00F94F5F181E291EE60E00F94CA
:10EA4000C2F187EB91EE60E00F94F5F180E391EE77
:10EA500060E00F94C2F184EE90EE60E00F94F5F167
:10EA60008FE391EE60E00F94C2F186E090E061E008
:10EA700070E00F9434F20F94DCF18DE591EE60E0DC
:10EA80000F94C2F189EC91EE60E00F94F5F18EE401
:10EA900091EE60E00F94C2F183EC91EE60E00F9490
:10EAA000F5F18CE691EE60E00F94C2F18EE10F94E7
:10EAB0000DF288E90F940DF281E00F940DF20F949E
:10EAC000DCF18BE791EE60E00F94C2F119E0E0E039
:10EAD000F0E010935700E4918E2F0F940DF20F94F5
:10EAE000DCF18AE891EE60E00F94C2F1E3E0F0E03F
:10EAF00010935700E4918E2F0F940DF20F94DCF1D8
:10EB000089E991EE60E00F94C2F1E2E0F0E0109349
:10EB10005700E4918E2F0F940DF20F94DCF188EAE8
:10EB200091EE60E00F94C2F1E1E0F0E01093570045
:10EB30001491812F0F940DF20F94DCF107CF8BE825
:10EB400092EE62E00F94F5F18BE492EE60E00F94A8
:10EB5000F5F10F94DCF100E010E019C0C8016F2D51
:10EB60000F947FFEFF2031F489E492EE60E00F9471
:10EB7000C2F10BC0F092C6008091C00086FFFCCFAE
:10EB80008091C00080648093C0000F5F1F4FC80158
:10EB900081519F41A0E0B0E0ABBFFC01F790BAE229
:10EBA000FB1621F0E2E000301E07C1F60F94DCF105
:10EBB0000F94DCF187E592EE60E00F94F5F10F948D
:10EBC000DCF1CC24DD2400E010E01EC0C8010F946D
:10EBD00077FEF82E882331F489E492EE60E00F94FA
:10EBE000C2F10BC08093C6008091C00086FFFCCFAD
:10EBF0008091C00080648093C000FE1419F00894D6
:10EC0000C11CD11C0F5F1F4FC80181519F41A0E063
:10EC1000B0E0ABBFFC01E790FAE2EF1621F022E092
:10EC20000030120799F60F94DCF10F94DCF182E6C4
:10EC300092EE60E00F94C2F1C60161E070E00F94C3
:10EC400034F20F94DCF10F94DCF110920202109276
:10EC50000302109204021092050278CE89E992EE26
:10EC600062E00F94F5F1279A2F9A16C02F9880E052
:10EC700090E0E0EDF7E03197F1F7019684369105E9
:10EC8000C1F72F9A80E090E0E0EDF7E03197F1F7DF
:10EC9000019684369105C1F78091C00087FFE6CFC9
:10ECA0008091C00087FFFCCF64C485EA92EE62E0E9
:10ECB0000F94F5F140910202509103026091040219
:10ECC0007091050281E020E10F9491F2809102029F
:10ECD00090910302A0910402B091050280509F4FD1
:10ECE000AF4FBF4F8093020290930302A0930402A0
:10ECF000B093050280509041A040B04008F426CE69
:10ED0000A4CF83EB92EE62E00F94F5F140910602FE
:10ED100050910702609108027091090280E020E1A1
:10ED20000F9491F28091060290910702A09108023F
:10ED3000B091090280509F4FAF4FBF4F80930602A2
:10ED400090930702A0930802B0930902FFCD80ECD4
:10ED500092EE62E00F94F5F183E792EE60E00F949B
:10ED6000F5F18FE792EE60E00F94F5F18BE892EE0B
:10ED700060E00F94F5F189E992EE60E00F94F5F10F
:10ED800085EA92EE60E00F94F5F183EB92EE60E09D
:10ED90000F94F5F180EC92EE60E00F94F5F187ECC2
:10EDA00092EE60E00F94F5F188ED92EE60E00F9442
:10EDB000F5F18FED92EE60E00F94F5F18AEE92EEB0
:10EDC00060E00F94F5F183E093EEBDCD87EC92EE19
:10EDD00062E00F94F5F181E40F947BF282E40F94EA
:10EDE0007BF283E40F947BF284E40F947BF285E45E
:10EDF0000F947BF286E40F947BF287E40F947BF20E
:10EE000088E40F947BF28AE40F947BF28BE40F94F6
:10EE10007BF28CE40F947BF299CD88ED92EE62E068
:10EE20000F94F5F1772473948824992409C48FED05
:10EE300092EE62E00F94F5F140910A0250910B02BC
:10EE400060910C0270910D0282E020E10F9491F22A
:10EE500080910A0290910B02A0910C02B0910D02D8
:10EE600080509F4FAF4FBF4F80930A0290930B0289
:10EE7000A0930C02B0930D0269CD8AEE92EE62E08F
:10EE80000F94F5F184EE90EE60E00F94F5F18FECC5
:10EE900091EE60E00F94F5F1662477244301CC5D98
:10EEA000DE4F19821882C452D140D401C301B695F5
:10EEB000A79597958795CA5DDE4F88839983AA8326
:10EEC000BB83C652D140CC5DDE4FA881B981C4520C
:10EED000D1401196CC5DDE4FB983A883C452D14096
:10EEE000CD0162E070E00F9434F2B0E2B093C6005E
:10EEF0008091C00086FFFCCF8091C0008064809329
:10EF0000C000EDE2E093C6008091C00086FFFCCF18
:10EF10008091C00080648093C000F0E2F093C6004E
:10EF20008091C00086FFFCCF8091C00080648093F8
:10EF3000C000CA5DDE4FE880F9800A811B81C6529D
:10EF4000D140BB27A12F902F8F2D0F940DF2CA5DBA
:10EF5000DE4F8881C652D1400F940DF2B0E2FB2EF5
:10EF6000F092C6008091C00086FFFCCF8091C00067
:10EF700080648093C0000DE30093C6008091C000C0
:10EF800086FFFCCF8091C00080648093C00010E2B7
:10EF90001093C6008091C00086FFFCCF8091C00016
:10EFA00080648093C0008BBEF3012791C65DDE4F65
:10EFB0002883CA52D140A22EBB24CC24DD2408943D
:10EFC000611C711C811C911C8BBEF3018791282E42
:10EFD0003324442455240894611C711C811C911C09
:10EFE0008BBEF3013791C55DDE4F3883CB52D140E4
:10EFF0000894611C711C811C911C8BBEF30147910C
:10F00000C45DDE4F4883CC52D140ADEFEA2EAFEF66
:10F01000FA2EAFEF0A2FAFEF1A2F6E0C7F1C801E57
:10F02000911E142D032DF22CEE24EA0CFB1C0C1D5A
:10F030001D1D0F940DF220E22093C6008091C000A8
:10F0400086FFFCCF8091C00080648093C000C65DC5
:10F05000DE4F8881CA52D1400F940DF230E23093D6
:10F06000C6008091C00086FFFCCF8091C000806404
:10F070008093C000C45DDE4F8881CC52D1400F9494
:10F080000DF240E24093C6008091C00086FFFCCFA5
:10F090008091C00080648093C000C55DDE4F888190
:10F0A000CB52D1400F940DF250E25093C6008091A4
:10F0B000C00086FFFCCF8091C00080648093C000B8
:10F0C0008FEFE8168FEFF80680E0080780E018075A
:10F0D00031F484E092EE60E00F94C2F1DFC0D80119
:10F0E000C7018070907CA070B0708050904CA040A0
:10F0F000B040D1F52FEF3FE340E050E0E222F322B1
:10F1000004231523CA5DDE4FA880B980CA80DB8046
:10F11000C652D140AE0CBF1CC01ED11EAA0CBB1CD7
:10F12000CC1CDD1C8EE092EE60E00F94C2F1BB2798
:10F13000A12F902F8F2D0F940DF28E2D0F940DF285
:10F1400030E23093C6008091C00086FFFCCF8091F2
:10F15000C00080648093C0004EE34093C60080915D
:10F16000C00086FFFCCF87C08EE09EEFA0E0B0E03D
:10F17000E822F9220A231B239CE0E91694E9F90608
:10F1800090E0090790E0190709F088C0C45DDE4FE0
:10F19000A881CC52D140EA2EFF2400E010E0102FCD
:10F1A0000F2DFE2CEE24C55DDE4FB881CB52D14031
:10F1B000EB0EF11C011D111DD601C501817090706F
:10F1C000A070B070DC0199278827E80EF91E0A1F8D
:10F1D0001B1F20EF30E040E050E0A222B322C42207
:10F1E000D52241E1AA0CBB1CCC1CDD1C4A95D1F7F1
:10F1F000EA0CFB1C0C1D1D1D81E090E0A0E0B0E0BE
:10F20000282239224A225B2235E1220C331C441C7D
:10F21000551C3A95D1F7E20CF31C041D151D57013E
:10F220006801AA0CBB1CCC1CDD1C85E192EE60E0E1
:10F230000F94C2F1C801AA27BB270F940DF2BB2778
:10F24000A12F902F8F2D0F940DF28E2D0F940DF274
:10F2500090E29093C6008091C00086FFFCCF809121
:10F26000C00080648093C000AEE3A093C60080918C
:10F27000C00086FFFCCF8091C00080648093C000F6
:10F28000C601AA27BB270F940DF2BB27AD2D9C2DDD
:10F290008B2D0F940DF28A2D0F940DF20F94DCF14B
:10F2A000CC5DDE4FE881F981C452D140F99709F471
:10F2B0004DCBF4E0EF2EF12C012D112D6E0C7F1CA7
:10F2C000801E911EF2CD83E093EE62E00F94F5F183
:10F2D0008AE192EE60E00F94C2F18091C00087FF56
:10F2E000FCCF1091C6001F751093C6008091C0001E
:10F2F00086FFFCCF8091C00080648093C0000F9493
:10F30000DCF1812F81548A3108F036C1163409F4BA
:10F3100095C0173490F4133409F44EC0143430F40B
:10F320001134F1F0123409F01DC130C0143409F465
:10F3300059C0153409F016C16BC01A3409F4C4C0A1
:10F340001B3438F4173409F48FC0183409F00AC19B
:10F35000A1C01B3409F4D2C01C3409F003C1E8C0B9
:10F360008FEF81B90DC082B1809582B980E090E0C5
:10F37000E0EDF7E03197F1F70196883C9105C1F790
:10F380008091C00087FFEFCF12B8EFC08FEF84B934
:10F390000DC085B1809585B980E090E0E0EDF7E0A3
:10F3A0003197F1F70196883C9105C1F78091C00033
:10F3B00087FFEFCF15B8D9C08FEF87B90DC088B1DF
:10F3C000809588B980E090E0E0EDF7E03197F1F7C3
:10F3D0000196883C9105C1F78091C00087FFEFCF6F
:10F3E00018B8C3C08FEF8AB90DC08BB180958BB9A7
:10F3F00080E090E0E0EDF7E03197F1F70196883C8E
:10F400009105C1F78091C00087FFEFCF1BB8ADC059
:10F410008FEF8DB90DC08EB180958EB980E090E0F0
:10F42000E0EDF7E03197F1F70196883C9105C1F7DF
:10F430008091C00087FFEFCF1EB897C08FEF80BBD1
:10F440000DC081B3809581BB80E090E0E0EDF7E0F6
:10F450003197F1F70196883C9105C1F78091C00082
:10F4600087FFEFCF11BA81C08FEF83BB0DC084B38C
:10F47000809584BB80E090E0E0EDF7E03197F1F714
:10F480000196883C9105C1F78091C00087FFEFCFBE
:10F4900014BA6BC08FEF809301010FC080910201FD
:10F4A00080958093020180E090E0E0EDF7E03197F5
:10F4B000F1F70196883C9105C1F78091C00087FF64
:10F4C000EDCF1092020151C08FEF809304010FC065
:10F4D0008091050180958093050180E090E0E0ED4A
:10F4E000F7E03197F1F70196883C9105C1F78091DB
:10F4F000C00087FFEDCF1092050137C08FEF8093DA
:10F5000007010FC08091080180958093080180E079
:10F5100090E0E0EDF7E03197F1F70196883C910536
:10F52000C1F78091C00087FFEDCF109208011DC088
:10F530008FEF80930A010FC080910B01809580931B
:10F540000B0180E090E0E0EDF7E03197F1F70196F4
:10F55000883C9105C1F78091C00087FFEDCF1092E4
:10F560000B0103C085E292EEEEC98091C00087FFD7
:10F57000FCCF8091C600EAC988E392EEE4C98CE131
:10F5800091EEE1C988249924933011F1943028F444
:10F59000913089F09230B8F408C0953061F195301F
:10F5A000F0F0963009F048C043C02B3109F042C951
:10F5B00091E06BE13FC96227C15DDE4F2883CF52E6
:10F5C000D14092E037C9B22FA0E0622793E032C960
:10F5D000822F90E0A82BB92B622794E02BC92E3004
:10F5E00009F039C3622795E0C05DDE4F19821882A9
:10F5F000C053D1401FC9E1E0F0E0EC0FFD1FC05D3A
:10F60000DE4F08811981C053D140E00FF11F2083E4
:10F610000F5F1F4FC05DDE4F19830883C053D14079
:10F6200062270A171B0709F005C9D80196E002C92D
:10F63000261709F010C303C0973009F0FBC87724E0
:10F640009981933109F412C19431C8F4963009F4C8
:10F65000D8C0973050F4923009F406C1933009F4C1
:10F660006DC0913009F059C253C0913109F477C08F
:10F67000923108F0BBC0903109F04FC2F5C098310B
:10F6800009F487C0993150F4953109F4EFC09531F0
:10F6900008F4C6C1963109F040C2C2C19A3109F4DA
:10F6A0006CC09A3108F491C09B3109F45BC09D3164
:10F6B00009F033C29D81903359F48F81882311F46E
:10F6C0009EE11CC0813011F091E018C098E916C08D
:10F6D000892F807591F0903539F4E0E0F0E089E011
:10F6E0008093570094910AC0983539F4E3E0F0E034
:10F6F00089E080935700949101C090E01A821B82A8
:10F700008D818C831D829E831F8227E030E009C299
:10F710001A8288E08B8381E48C8386E58D8382E581
:10F720008E8389E48F8383E5888780E589878FE5E9
:10F730008A8782E38B872BE030E0F3C18A818139AD
:10F7400041F0823941F0803911F48FE005C080E04A
:10F7500003C082E001C08AE01A828B8344C0772410
:10F76000739482C08D81882311F48EE12CC0813086
:10F7700011F081E028C088E926C01A82E1E0F0E0BB
:10F7800089E08093570084918B831C8224E030E0D1
:10F79000C8C18B81803589F48C81883039F4E2E0EE
:10F7A000F0E089E08093570084910DC0E0E0F0E044
:10F7B00089E080935700849106C0E3E0F0E089E09F
:10F7C0008093570084911A82DFCF8D81836C99E0FA
:10F7D000E1E0F0E0082E90935700E89507B600FCB2
:10F7E000FDCF1A821B8223E030E09BC180EC8A832C
:10F7F000CE5CDE4F188219821A821B82C253D1401E
:10F800008EC18A8190E0A0E0B0E0582F44273327D2
:10F8100022278B8190E0A0E0B0E0DC0199278827C7
:10F82000282B392B4A2B5B2B8D8190E0A0E0B0E098
:10F83000282B392B4A2B5B2B8C8190E0A0E0B0E089
:10F84000BA2FA92F982F8827282B392B4A2B5B2BCF
:10F85000220F331F441F551FC05EDE4F288339839C
:10F860004A835B83C052D1401A8259C13A81C95C34
:10F87000DE4F3883C753D140CA5CDE4F1882C6536F
:10F88000D1408B81C82EDD24CA5CDE4F488159816E
:10F89000C653D140C42AD52A933109F082C0CE5C28
:10F8A000DE4F88819981AA81BB81C253D1408050AB
:10F8B000904CA340B04030F583E0CE5CDE4FE88052
:10F8C000F9800A811B81C253D140F70100935B008C
:10F8D00080935700E89507B600FCFDCFCE5CDE4F65
:10F8E000088119812A813B81C253D14000501F4FAA
:10F8F0002F4F3F4FCE5CDE4F088319832A833B8313
:10F90000C253D140C05EDE4F488159816A817B81FC
:10F91000C052D140DE011B9631E08C9111962C91A2
:10F9200011971296C75CDE4F2883C953D140C85C3B
:10F93000DE4F1882C853D14090E0C85CDE4FE881AA
:10F94000F981C853D1408E2B9F2B0C01FA01609393
:10F950005B0030935700E89511244E5F5F4F6F4F67
:10F960007F4F0EEFE02E0FEFF02ECE0CDF1CC114F8
:10F97000D10499F685E0C05EDE4F088119812A81A5
:10F980003B81C052D140F80120935B008093570027
:10F99000E89507B600FCFDCF81E180935700E8951C
:10F9A00035C0C05EDE4F88819981AA81BB81C0527B
:10F9B000D140B695A795979587957C018601ABE0D8
:10F9C000AA2EB12CAC0EBD1E0BC0D5016D915D01F0
:10F9D000C7010F947FFE0894E11CF11C01501040F8
:10F9E0000115110591F7A60160E070E0440F551F65
:10F9F000661F771FC05EDE4FE880F9800A811B8199
:10FA0000C052D1404E0D5F1D601F711F1A82C05E33
:10FA1000DE4F488359836A837B83C052D1407FC0C5
:10FA2000FA80C55CDE4FF882CB53D140C65CDE4F16
:10FA30001882CA53D1408B81C82EDD24C65CDE4FAC
:10FA400008811981CA53D140C02AD12A1A828981DA
:10FA5000BE016D5F7F4F843121F59601C05EDE4FA0
:10FA6000E880F9800A811B81C052D1400BBFF701A9
:10FA700087919691DB018C9311969C936E5F7F4FDB
:10FA8000D801C7010296A11DB11DC05EDE4F88835B
:10FA90009983AA83BB83C052D14022503040F1F6F3
:10FAA00036C0C05EDE4F288139814A815B81C052F9
:10FAB000D1400894C108D108760100E010E0089414
:10FAC000C11CD11C0894E11CF11C011D111DE20E8A
:10FAD000F31E041F151F21BDBB27A52F942F832FB5
:10FAE00082BD2F5F3F4F4F4F5F4FF89A80B5DB01CC
:10FAF0008D93BD012E153F054007510761F7C05E8C
:10FB0000DE4F288339834A835B83C052D1409601FC
:10FB10002D5F3F4FFB01108204C080EC8A8322E0FE
:10FB200030E08BE18093C6008091C00086FFFCCF5F
:10FB30008091C00080648093C000C15DDE4FF88179
:10FB4000CF52D140F093C6008091C00086FFFCCF19
:10FB50008091C00080648093C000432F3093C60022
:10FB60008091C00086FFFCCF8091C00080648093AC
:10FB7000C000922F2093C6008091C00086FFFCCF6A
:10FB80008091C00080648093C0008EE08093C600A6
:10FB90008091C00086FFFCCF8091C000806480937C
:10FBA000C00065E1C15DDE4FE880CF52D1406E25D7
:10FBB00069276427FE01319610C090819093C6009A
:10FBC0008091C00086FFFCCF31968091C000806498
:10FBD0008093C0006927215030402115310569F715
:10FBE0006093C6008091C00086FFFCCF8091C0006A
:10FBF00080648093C00085B1805885B9772081F4F6
:10FC0000C15DDE4F0881CF52D1400F5FC15DDE4F35
:10FC10000883CF52D14090E0A0E0B0E00D941AF4F8
:10FC200027982F9880E090E020ED37E0F901319798
:10FC3000F1F7019684369105C9F700008091C00064
:10FC40008D7F8093C00081E180935700E895EE2777
:10FC5000FF270994FFCF90E00D941AF497FB092E2B
:10FC600007260AD077FD04D02ED006D000201AF443
:10FC7000709561957F4F0895F6F7909581959F4F08
:10FC80000895A1E21A2EAA1BBB1BFD010DC0AA1FDD
:10FC9000BB1FEE1FFF1FA217B307E407F50720F0F5
:10FCA000A21BB30BE40BF50B661F771F881F991F70
:10FCB0001A9469F760957095809590959B01AC01B9
:10FCC000BD01CF010895AA1BBB1B51E107C0AA1FAC
:10FCD000BB1FA617B70710F0A61BB70B881F991FED
:10FCE0005A95A9F780959095BC01CD010895F99991
:10FCF000FECF92BD81BDF89A992780B50895262F31
:10FD0000F999FECF1FBA92BD81BD20BD0FB6F89400
:0EFD1000FA9AF99A0FBE01960895F894FFCF63
:00000001FF
