:100000000C9444010C9475010C9475010C947501C9
:100010000C9475010C9475010C9475010C94750188
:100020000C9475010C9475010C9475010C94750178
:100030000C9475010C9475010C9475010C94750168
:100040000C9475010C9475010C9475010C94750158
:100050000C9475010C9475010C9475010C9410109E
:100060000C9475010C94DA0F0C94B00F0C9475017C
:100070000C9475010C9475010C9475010C94750128
:100080000C9475010C9475010C9475010C94750118
:100090000C947A0F0C94500F0C9475010C9475010C
:1000A0000C9475010C9475010C9475010C947501F8
:1000B0000C9475010C9475010C9475010C947501E8
:1000C0000C9475010C9475010C9475010C947501D8
:1000D0000C9475010C9475010C9475010C947501C8
:1000E0000C9475010C949D030C9497030C94201AA6
:1000F0000C94A5030C94D7030C94F0040C947A048C
:100100000C94DF020C94A1030C947B020C949D02CE
:100110000C94CA030C948F020C94BC030C94AC0393
:100120000C94C4030C94300C0C943F020C94F10416
:100130000C94DC030C94C0030C943A040C94D2038A
:100140000C94A9030C94D8030C946C020C94CE0369
:100150000C942C030C945A100C94B2030C940904C4
:100160000C94B60300002100240027002A002D0073
:100170003000330001010000040107010A01000002
:100180002200250028002B002E003100340002013F
:100190000000050108010B010000200023002600DB
:1001A00029002C002F00320000010000030106018D
:1001B00009010505050507050808080802020202ED
:1001C0000A0A0808040404040101010101010101F3
:1001D0000303030303030303040707070C0C0C0CBE
:1001E0000C0C0C0C020202020606060606060606A7
:1001F0000B0B0B0B0B0B0B0B010210202008081034
:100200002040102040800201020108040201010286
:10021000040810204080804020100804020180045F
:1002200002018040201008040201080402010102BA
:1002300004081020408001020408102040800000C3
:100240000A0B02090C0D0E08070304010000000050
:10025000000000000000000000000000000000009E
:10026000000000000000000000001211100000005B
:10027000000000000000000000000000000000007E
:10028000000000005A10201A11241FBECFEFD1E247
:10029000DEBFCDBF00E00CBF13E0A0E0B2E0E4EBB6
:1002A000FCE300E00BBF02C007900D92AE38B1072F
:1002B000D9F726E0AEE8B3E001C01D92AF31B20736
:1002C000E1F711E0C3E4D1E000E006C021970109A5
:1002D000802FFE010E94211CC234D10780E0080754
:1002E000A9F70E94E5110C94481E0C940000FC0133
:1002F000A089B18982E08C93A485B5851C92A685DE
:10030000B7858FEC8C93108EA489B58986E08C9389
:10031000A289B3898C9180618C93A289B3898C91D5
:1003200088608C93A289B3898C9180688C930288B1
:10033000F389E02D80818F7D8083089596E0899FE9
:10034000D0011124A05DBA4F90967C936E935F9775
:1003500091E091969C939197E0919D05F0919E0577
:1003600090919C05992339F0309751F0811108C084
:1003700080914C051994309719F05C968C91FACFC6
:100380000895CF92DF92EF92FF920F931F9396E022
:10039000899FF0011124E05DFA4F11A2278D30A151
:1003A0002130310551F178F02230310509F451C086
:1003B0002330310509F452C01F910F91FF90EF9047
:1003C000DF90CF9008956623B9F361E070E00E945A
:1003D0009E012FB7F8948091DA039091DB03A091EE
:1003E000DC03B091DD032FBF8093880590938905CE
:1003F000A0938A05B0938B05DFCF9FB7F894C09088
:10040000DA03D090DB03E090DC03F090DD039FBFC4
:10041000009188051091890520918A0530918B05FE
:10042000C01AD10AE20AF30A00919A0510919B05BD
:1004300030E020E00C151D052E053F0550F462E06C
:1004400070E01F910F91FF90EF90DF90CF900C9490
:100450009E016111B1CF63E070E0F3CF70E060E026
:10046000F0CFDB0114964D915C9115976D917C91C5
:10047000DC01ED91FC910280F381E02D1994AF92A3
:10048000BF92CF92DF92EF92FF920F931F93CF9381
:10049000DF936C017B018B01040F151FEB015E01E3
:1004A000AE18BF08C017D10759F06991D601ED9178
:1004B000FC910190F081E02DC6011995892B79F707
:1004C000C501DF91CF911F910F91FF90EF90DF90C9
:1004D000CF90BF90AF900895FC01538D448D252F90
:1004E00030E0842F90E0821B930B541710F0CF96CE
:1004F000089501970895FC01918D828D981761F000
:10050000A28DAE0FBF2FB11D5D968C91928D9F5F16
:100510009F73928F90E008958FEF9FEF0895FC01F5
:10052000918D828D981731F0828DE80FF11D858DA8
:1005300090E008958FEF9FEF0895FC01918D228D3B
:10054000892F90E0805C9F4F821B91098F739927C0
:1005500008958EED93E00E949D0221E0892B09F41D
:1005600020E0822F08958BE794E00E949D0221E015
:10057000892B09F420E0822F0895FC01A48DA80F97
:10058000B92FB11DA35ABF4F2C91848D90E00196D5
:100590008F739927848FA689B7892C93A089B189F5
:1005A0008C91837080648C93938D848D981306C096
:1005B0000288F389E02D80818F7D80830895EF92FA
:1005C000FF920F931F93CF93DF93EC0181E0888F0D
:1005D0009B8D8C8D98131AC0E889F989808185FFDD
:1005E00015C09FB7F894EE89FF896083E889F9897F
:1005F00080818370806480839FBF81E090E0DF9181
:10060000CF911F910F91FF90EF900895F62E0B8DD3
:1006100010E00F5F1F4F0F731127E02E8C8D8E118E
:100620000CC00FB607FCFACFE889F989808185FFF5
:10063000F5CFCE010E94BD02F1CFEB8DEC0FFD2F67
:10064000F11DE35AFF4FF0829FB7F8940B8FEA89B0
:10065000FB8980818062CFCFCF93DF93EC01888DBF
:100660008823B9F0AA89BB89E889F9898C9185FD2D
:1006700003C0808186FD0DC00FB607FCF7CF8C91BB
:1006800085FFF2CF808185FFEDCFCE010E94BD02B4
:10069000E9CFDF91CF91089580E090E0892B29F098
:1006A0000E94B30281110E94000080E090E0892B3B
:1006B00029F00E94A90281110E94000080E090E0D0
:1006C000892B49F080E090E0892B29F00E940000FE
:1006D00081110E94000080E090E0892B49F080E0C9
:1006E00090E0892B29F00E94000081110C940000F9
:1006F00008958150823108F05AC0E82FF0E0882731
:10070000EB57FC4F8F4F0C94211CA503A9039703B3
:100710009D03A103D703AC03B203B603BC03C0031C
:10072000C403CA03CE03D703D203D803DC038091EA
:1007300080008F77809380000895809180008F7D66
:10074000F9CF80918000877FF5CF84B58F7784BD06
:10075000089584B58F7DFBCF8091B0008F77809313
:10076000B00008958091B0008F7DF9CF8091900006
:100770008F77809390000895809190008F7DF9CFBE
:1007800080919000877FF5CF8091A0008F77809334
:10079000A00008958091A0008F7DF9CF8091A000E6
:1007A000877FF5CF809120018F7780932001089576
:1007B000809120018F7DF9CF80912001877FF5CF37
:1007C000CF93DF93282F30E0F901E25CFD4F849155
:1007D000F901E850FE4FD491F901EE54FE4FC49157
:1007E000CC23A1F081110E947903EC2FF0E0EE0FF1
:1007F000FF1FE856FE4FA591B491EC91ED2381E0E7
:1008000090E009F480E0DF91CF91089580E090E0DE
:10081000FACF862F0C94E0031F93CF93DF93282FFA
:1008200030E0F901E25CFD4F8491F901E850FE4FA0
:10083000D491F901EE54FE4FC491CC23A9F0162FA8
:1008400081110E947903EC2FF0E0EE0FFF1FE258B8
:10085000FE4FA591B4918FB7F894EC91111108C097
:10086000D095DE23DC938FBFDF91CF911F91089548
:10087000DE2BF8CF862F642F0C940C04CF93DF93DC
:1008800090E0FC01E850FE4F24918E549E4FFC01F5
:1008900084918823C9F090E0880F991FFC01EC59DE
:1008A000FE4FA591B491FC01E258FE4FC591D49141
:1008B00061110DC09FB7F8948C91209582238C9381
:1008C0008881282328839FBFDF91CF9108956230CC
:1008D00051F49FB7F8943C91822F809583238C9399
:1008E000E8812E2BEFCF8FB7F894EC912E2B2C9321
:1008F0008FBFEACF862F642F0C943E04865320913D
:100900007B00982F987F277F922B90937B00877096
:10091000806480937C0080917A00806480937A0068
:1009200080917A0086FDFCCF8091780090917900CB
:1009300008953FB7F8948091CC039091CD03A09196
:10094000CE03B091CF0326B5A89B05C02F3F19F069
:100950000196A11DB11D3FBFBA2FA92F982F88273F
:10096000BC01CD01620F711D811D911D42E0660F1A
:10097000771F881F991F4A95D1F708958F929F92EC
:10098000AF92BF92CF92DF92EF92FF924B015C0148
:100990000E9499046B017C010E9499046C197D09E5
:1009A0008E099F09683E734081059105A8F321E0F7
:1009B000821A9108A108B10888EEC80E83E0D81EFB
:1009C000E11CF11C81149104A104B10429F7FF90EA
:1009D000EF90DF90CF90BF90AF909F908F90089551
:1009E000089590E080E008954F925F926F927F9219
:1009F0008F929F92AF92BF92CF92DF92EF92FF922F
:100A00000F931F93CF93DF93CDB7DEB7C457D109B0
:100A10000FB6F894DEBF0FBECDBF86E30E947E0402
:100A2000BC01990F880B990B0E94491B2B013C01BB
:100A30004092C7035092C8036092C9037092CA03E0
:100A400087E30E947E04BC01990F880B990B0E94DA
:100A5000491B4B015C018092C3039092C403A09296
:100A6000C503B092C60388E30E947E04BC01990FBF
:100A7000880B990B0E94491B6B017C01C092BF033C
:100A8000D092C003E092C103F092C20389E30E94B6
:100A90007E04BC01990F880B990B0E94491B259677
:100AA0006CAF7DAF8EAF9FAF25976093BB03709304
:100AB000BC038093BD039093BE038AE30E947E042F
:100AC000BC01990F880B990B0E94491B29966CAFAA
:100AD0007DAF8EAF9FAF29976093B7037093B80334
:100AE0008093B9039093BA038BE30E947E04BC0108
:100AF000990F880B990B0E94491B2D966CAF7DAF07
:100B00008EAF9FAF2D976093B3037093B403809320
:100B1000B5039093B6038CE30E947E04BC01990F49
:100B2000880B990B0E94491B61966CAF7DAF8EAF0D
:100B30009FAF61976093AF037093B0038093B1034D
:100B40009093B2038DE30E947E04BC01990F880B41
:100B5000990B0E94491B65966CAF7DAF8EAF9FAF1E
:100B600065976093AB037093AC038093AD03909350
:100B7000AE038EE30E947E04BC01990F880B990B93
:100B80000E94491B69966CAF7DAF8EAF9FAF69978E
:100B90006093A7037093A8038093A9039093AA037B
:100BA0008FE30E947E04BC01990F880B990B0E9471
:100BB000491B6D966CAF7DAF8EAF9FAF6D97609305
:100BC000A3037093A4038093A5039093A60380E4EA
:100BD0000E947E04BC01990F880B990B0E94491B4F
:100BE000A1966CAF7DAF8EAF9FAFA19760939F032F
:100BF0007093A0038093A1039093A20381E40E94C9
:100C00007E04BC01990F880B990B0E94491BA59685
:100C10006CAF7DAF8EAF9FAFA59760939B03709332
:100C20009C0380939D0390939E0382E40E947E0424
:100C3000BC01990F880B990B0E94491BA9966CAFB8
:100C40007DAF8EAF9FAFA997609397037093980382
:100C50008093990390939A0383E40E947E04BC01DD
:100C6000990F880B990B0E94491BAD966CAF7DAF15
:100C70008EAF9FAFAD97609393037093940380936F
:100C800095039093960384E40E947E04BC01990F1F
:100C9000880B990B0E94491BE1966CAF7DAF8EAF1C
:100CA0009FAFE19760938F037093900380939103BC
:100CB0009093920385E40E947E04BC01990F880BF7
:100CC000990B0E94491BE5966CAF7DAF8EAF9FAF2D
:100CD000E59720E030E046E154E4C301B2010E9410
:100CE000421B87FF71C381E090E09A83898320E0F3
:100CF00030E046E154E4C501B4010E94421B87FF85
:100D000066C381E090E09C838B8320E030E046E185
:100D100054E4C701B6010E94421B87FF5BC381E018
:100D200090E09E838D8320E030E046E154E42596F8
:100D30006CAD7DAD8EAD9FAD25970E94421B87FFA8
:100D40004CC381E090E098878F8320E030E046E15B
:100D500054E429966CAD7DAD8EAD9FAD29970E9470
:100D6000421B87FF3DC381E090E09A87898720E09E
:100D700030E046E154E42D966CAD7DAD8EAD9FAD77
:100D80002D970E94421B87FF2EC381E090E09C8735
:100D90008B8720E030E046E154E461966CAD7DAD98
:100DA0008EAD9FAD61970E94421B87FF1FC381E0FC
:100DB00090E09E878D8720E030E046E154E4659620
:100DC0006CAD7DAD8EAD9FAD65970E94421B87FFD8
:100DD00010C381E090E0988B8F8720E030E046E1FF
:100DE00054E469966CAD7DAD8EAD9FAD69970E9460
:100DF000421B87FF01C381E090E09A8B898B20E042
:100E000030E046E154E46D966CAD7DAD8EAD9FADA6
:100E10006D970E94421B87FFF2C281E090E09C8B9D
:100E20008B8B20E030E046E154E4A1966CAD7DADC3
:100E30008EAD9FADA1970E94421B87FFE3C281E068
:100E400090E09E8B8D8B20E030E046E154E4A59647
:100E50006CAD7DAD8EAD9FADA5970E94421B87FF07
:100E6000D4C281E090E0988F8F8B20E030E046E1A3
:100E700054E4A9966CAD7DAD8EAD9FADA9970E944F
:100E8000421B87FFC5C281E090E09A8F898F20E0E6
:100E900030E046E154E4AD966CAD7DAD8EAD9FADD6
:100EA000AD970E94421B87FFB6C281E090E09C8F05
:100EB0008B8F20E030E046E154E4E1966CAD7DADEF
:100EC0008EAD9FADE1970E94421B87FFA7C281E0D4
:100ED00090E09E8F8D8F20E030E046E154E4E5966F
:100EE0006CAD7DAD8EAD9FADE5970E94421B87FF37
:100EF00098C281E090E098A38F8F01E010E086E334
:100F00000E947E04BC01990F880B990B0E94491B1B
:100F10004B015C018092C7039092C803A092C90361
:100F2000B092CA0387E30E947E04BC01990F880B2C
:100F3000990B0E94491B6B017C01C092C303D092A4
:100F4000C403E092C503F092C60388E30E947E04C6
:100F5000BC01990F880B990B0E94491B25966CAF19
:100F60007DAF8EAF9FAF25976093BF037093C00393
:100F70008093C1039093C20389E30E947E04BC0165
:100F8000990F880B990B0E94491B29966CAF7DAF76
:100F90008EAF9FAF29976093BB037093BC03809380
:100FA000BD039093BE038AE30E947E04BC01990FA7
:100FB000880B990B0E94491B2D966CAF7DAF8EAFAD
:100FC0009FAF2D976093B7037093B8038093B903D5
:100FD0009093BA038BE30E947E04BC01990F880BA7
:100FE000990B0E94491B61966CAF7DAF8EAF9FAF8E
:100FF00061976093B3037093B4038093B5039093A8
:10100000B6038CE30E947E04BC01990F880B990BF8
:101010000E94491B65966CAF7DAF8EAF9FAF659701
:101020006093AF037093B0038093B1039093B203C6
:101030008DE30E947E04BC01990F880B990B0E94DE
:10104000491B69966CAF7DAF8EAF9FAF6997609378
:10105000AB037093AC038093AD039093AE038EE328
:101060000E947E04BC01990F880B990B0E94491BBA
:101070006D966CAF7DAF8EAF9FAF6D976093A703FA
:101080007093A8038093A9039093AA038FE30E940F
:101090007E04BC01990F880B990B0E94491BA196F5
:1010A0006CAF7DAF8EAF9FAFA1976093A30370939A
:1010B000A4038093A5039093A60380E40E947E047A
:1010C000BC01990F880B990B0E94491BA5966CAF28
:1010D0007DAF8EAF9FAFA59760939F037093A003E2
:1010E0008093A1039093A20381E40E947E04BC013B
:1010F000990F880B990B0E94491BA9966CAF7DAF85
:101100008EAF9FAFA99760939B0370939C038093CE
:101110009D0390939E0382E40E947E04BC01990F7C
:10112000880B990B0E94491BAD966CAF7DAF8EAFBB
:101130009FAFAD9760939703709398038093990343
:1011400090939A0383E40E947E04BC01990F880B5C
:10115000990B0E94491BE1966CAF7DAF8EAF9FAF9C
:10116000E197609393037093940380939503909316
:10117000960384E40E947E04BC01990F880B990BAE
:101180000E94491B2B013C0140928F035092900317
:10119000609291037092920385E40E947E04BC01E8
:1011A000990F880B990B0E94491BE5966CAF7DAF98
:1011B0008EAF9FAFE59720E030E046E154E4C501F3
:1011C000B4010E94421B87FF2FC11AA309A320E08C
:1011D00030E046E154E4C701B6010E94421B87FF9C
:1011E00026C11CA30BA320E030E046E154E4259681
:1011F0006CAD7DAD8EAD9FAD25970E94421B87FFE4
:1012000019C11EA30DA320E030E046E154E4299665
:101210006CAD7DAD8EAD9FAD29970E94421B87FFBF
:101220000CC118A70FA320E030E046E154E42D964E
:101230006CAD7DAD8EAD9FAD2D970E94421B87FF9B
:10124000FFC01AA709A720E030E046E154E4619608
:101250006CAD7DAD8EAD9FAD61970E94421B87FF47
:10126000F2C01CA70BA720E030E046E154E46596ED
:101270006CAD7DAD8EAD9FAD65970E94421B87FF23
:10128000E5C01EA70DA720E030E046E154E46996D2
:101290006CAD7DAD8EAD9FAD69970E94421B87FFFF
:1012A000D8C018AB0FA720E030E046E154E46D96BB
:1012B0006CAD7DAD8EAD9FAD6D970E94421B87FFDB
:1012C000CBC01AAB09AB20E030E046E154E4A19674
:1012D0006CAD7DAD8EAD9FADA1970E94421B87FF87
:1012E000BEC01CAB0BAB20E030E046E154E4A59659
:1012F0006CAD7DAD8EAD9FADA5970E94421B87FF63
:10130000B1C01EAB0DAB20E030E046E154E4A9963D
:101310006CAD7DAD8EAD9FADA9970E94421B87FF3E
:10132000A4C018AF0FAB20E030E046E154E4AD9626
:101330006CAD7DAD8EAD9FADAD970E94421B87FF1A
:1013400097C01AAF09AF20E030E046E154E4E196DF
:101350006CAD7DAD8EAD9FADE1970E94421B87FFC6
:101360008AC01CAF0BAF20E030E046E154E4C3017B
:10137000B2010E94421B87FF81C01EAF0DAF20E06B
:1013800030E046E154E4E5966CAD7DAD8EAD9FADA9
:10139000E5970E94421B87FF74C021961FAF0EAFD6
:1013A0002197FE013196DE01919690E080E0419117
:1013B00051912D913D914217530709F067C0019655
:1013C00080319105A1F79BCD1A82198290CC1C82A5
:1013D0001B829BCC1E821D82A6CC18861F82B5CC98
:1013E0001A861986C4CC1C861B86D3CC1E861D8605
:1013F000E2CC188A1F86F1CC1A8A198A00CD1C8A81
:101400001B8A0FCD1E8A1D8A1ECD188E1F8A2DCDD8
:101410001A8E198E3CCD1C8E1B8E4BCD1E8E1D8EB2
:101420005ACD18A21F8E69CD1AA219A2D0CE1CA225
:101430001BA2D9CE1EA21DA2E6CE18A61FA2F3CED5
:101440001AA619A600CF1CA61BA60DCF1EA61DA668
:101450001ACF18AA1FA627CF1AAA19AA34CF1CAAD6
:101460001BAA41CF1EAA1DAA4ECF18AE1FAA5BCF42
:101470001AAE19AE68CF1CAE1BAE75CF1EAE1DAE38
:101480007ECF21961FAE1EAE21978BCFCC58DF4F5B
:101490000FB6F894DEBF0FBECDBFDF91CF911F9185
:1014A0000F91FF90EF90DF90CF90BF90AF909F9003
:1014B0008F907F906F905F904F900895CF92DF92C2
:1014C000EF92FF920F931F93CF93DF931F921F9280
:1014D000CDB7DEB769834A83880F991F0091010653
:1014E00010910206000F111FEBEAF5E09F012B5A45
:1014F00035402017310714F41192F8CF2981FC01EF
:10150000E555FA4F21838A81808360E08091FF0551
:101510000E940C041016110604F501501109F8017F
:10152000E555FA4FE080D090FD05C090FB0588E0BE
:10153000F82E6E2D661F6627661F8C2D0E940C04E8
:10154000EE0C61E08D2D0E940C0460E08D2D0E9458
:101550000C04FA94F110EDCFDDCF61E08091FF052E
:101560000F900F90DF91CF911F910F91FF90EF900F
:10157000DF90CF900C940C04EF92FF920F931F9387
:10158000CF937C018C0183E0000F111F8A95E1F756
:1015900005541A4FC1E0F80111928F0140E06C2F01
:1015A000C7010E945E0ACF5FC930A9F7CF911F9192
:1015B0000F91FF90EF900895CF93DF93EC0160E0DF
:1015C0008E810E940C0461E08E810E940C0460E018
:1015D0008E810E940C048BE891E00197F1F7DF9176
:1015E000CF910895CF92DF92EF92FF920F931F93C6
:1015F000CF93DF936C017C0187E0E80EF11CD0E013
:10160000C0E0062F10E0B8010C2E02C0759567955A
:101610000A94E2F76170F70181917F010E940C0446
:101620002196C430D10579F7C601DF91CF911F9182
:101630000F91FF90EF90DF90CF900C94DC0ACF9247
:10164000DF92EF92FF920F931F93CF93DF93EC0102
:10165000F62E642F8C810E940C048D818F3F19F02F
:1016600060E00E940C040F2D10E08F8584FF25C0E0
:101670006E0187E0C80ED11CF12CE12CB8010E2CB4
:1016800002C0759567950A94E2F76170F601819141
:101690006F010E940C04FFEFEF1AFF0A88E0E816C2
:1016A000F10461F7CE01DF91CF911F910F91FF906F
:1016B000EF90DF90CF900C94DC0AB80184E0759530
:1016C00067958A95E1F7CE010E94F20A6F2DCE014F
:1016D000DF91CF911F910F91FF90EF90DF90CF900E
:1016E0000C94F20A40E0682F83E096E00C941F0B04
:1016F00081E00E94720B8BE39FE10197F1F708955F
:10170000CF93DF93823029F49091120698609093E2
:101710001206809316061092170680E4809318062E
:1017200080E18093190680E580931A0661E080913C
:1017300007060E943E04809108068F3F19F061E081
:101740000E943E0461E0809109060E943E04C3E0CD
:10175000D6E09E01235036408091120684FD0BC0D6
:1017600084E090E021962817390744F461E08E81E7
:101770000E943E04EECF88E090E0F4CF8BE39DE042
:101780000197F1F760E0809107060E940C0460E089
:10179000809109060E940C04809108068F3F19F081
:1017A00060E00E940C048091120684FD34C063E066
:1017B00083E096E00E94F20ACBE4D6E4CE010197E2
:1017C000F1F763E083E096E00E94F20A2197F1F7D7
:1017D00063E083E096E00E94F20A83E592E00197DD
:1017E000F1F762E083E096E00E94F20A809112062F
:1017F00080620E94720B84E0809313068CE00E944A
:10180000720B0E94780B82E08093140686E0DF91D1
:10181000CF910C94720B80620E94720B8BE496E461
:101820000197F1F78091120680620E94720B83E5A6
:1018300092E00197F1F78091120680620E94720B8C
:10184000D5CF90911606691710F06FEF690FE62F4C
:10185000F0E0ED5FF94F9489890F80680C94720B6A
:1018600041E00E941F0B81E090E008950C94B01BB2
:10187000EF92FF920F931F93CF93DF937C01DC01D4
:1018800014960D911C91D0E0C0E011278091D003F7
:101890009091D103C017D107CCF4F7012481358191
:1018A000C217D30728F40190F081E02D309759F446
:1018B00010928E03EEE8F3E060818C0F9D1F0E9472
:1018C000360C2196E3CFEC0FFD1FF6CF800F911F52
:1018D0009093D1038093D003DF91CF911F910F910B
:1018E000FF90EF9008950C94A81B0F931F93CF9334
:1018F000DF93D0E0C0E000E810E0CE010E94730C5E
:101900008130C1F4809101069091020618161906E3
:101910008CF44091BB05C8010C2E02C095958795AB
:101920000A94E2F7482B4093BB0561E090E080E029
:101930000E945E0A2196C830D105F9F600E810E051
:10194000CE010E94730C8130C9F480910106909100
:1019500002061816190694F4CE010897980102C0E1
:10196000359527958A95E2F74091BC05422B409327
:10197000BC0562E090E080E00E945E0A2196C031E2
:10198000D105F1F6DF91CF911F910F910895FB01E1
:1019900001900020E9F73197AF01461B570BDC019E
:1019A000ED91FC910280F381E02D1994CF93DF93A8
:1019B000BC018EED93E00E943102EC0162E572E021
:1019C0008EED93E00E94C70C8C0F9D1FDF91CF918D
:1019D0000895CF93DF93682F8EED93E00E94DF028E
:1019E000EC0162E572E08EED93E00E94C70C8C0F73
:1019F0009D1FDF91CF9108958F929F92AF92BF92DA
:101A0000EF92FF920F931F93CF93DF93CDB7DEB783
:101A1000A1970FB6F894DEBF0FBECDBF7C01FA01CF
:101A2000CB0119A2223008F42AE08E010F5D1F4F6E
:101A3000822E912CB12CA12CBF01A50194010E94F2
:101A4000F01BF901CA016A300CF5605DD8016E9394
:101A50008D01232B242B252B79F790E080E0109724
:101A600021F0BD01C7010E94C70CA1960FB6F894E2
:101A7000DEBF0FBECDBFDF91CF911F910F91FF90C1
:101A8000EF90BF90AF909F908F900895695CDECFEC
:101A9000CF92DF92EF92FF920F931F93CF93DF933A
:101AA000EC016A017B01E881F9810190F081E02D70
:101AB0006DE219958C0144275527BA014C195D092F
:101AC0006E097F092AE0CE010E94FC0C800F911F55
:101AD000DF91CF911F910F91FF90EF90DF90CF900A
:101AE0000895CF93DF93AC01990F660B770B77FFC7
:101AF00010C08EED93E00E94480DEC0162E572E0AB
:101B00008EED93E00E94C70C8C0F9D1FDF91CF914B
:101B100008952AE08EED93E00E94FC0CEECFAB011D
:101B2000770F660B770B77FD0C94480D2AE00C9429
:101B3000FC0CCF93DF93BC018EED93E00E94C70CA9
:101B4000EC0162E572E08EED93E00E94C70C8C0F11
:101B50009D1FDF91CF9108950C94C70CFC01248147
:101B60003581FB014481558124173507E1F4FC01DF
:101B700080819181FB01608171810097D1F06115B5
:101B80007105A1F4232BC1F0FC01808190E008C015
:101B9000232B91F0FB01808190E091958195910933
:101BA00021E0892B09F020E0822F08950E94381E41
:101BB000F7CF6115710561F721E0F6CFFC01808157
:101BC0009181009711F00C94C51C08950F931F93F9
:101BD000CF93DF93EC0188819981009759F02A8196
:101BE0003B812617370730F081E0DF91CF911F91BD
:101BF0000F9108958B016F5F7F4F0E944E1D0097DC
:101C000059F0998388831B830A832C813D81232B80
:101C100059F7FC011082E8CF80E0E7CFEF92FF9206
:101C20000F931F93CF93DF931F921F92CDB7DEB711
:101C30008C0169831A82FC01E480F580FFEFEF1AC2
:101C4000FF0AB7010E94E60D882381F0F801208188
:101C5000318184819581BE016F5F7F4F820F931F19
:101C60000E94411EF801F582E48281E00F900F90FE
:101C7000DF91CF911F910F91FF90EF900895EF9218
:101C8000FF920F931F93CF93DF93EC017B018A01A7
:101C9000BA010E94E60D28813981811114C02115F5
:101CA000310519F0C9010E94C51C198218821D82D4
:101CB0001C821B821A82CE01DF91CF911F910F915E
:101CC000FF90EF9008951D830C83B701C9010E9416
:101CD000411EF1CFFB0101900020E9F73197AF01E0
:101CE000461B570B0C943F0E0F931F93CF93DF931C
:101CF000CDB7DEB762970FB6F894DEBF0FBECDBF8B
:101D00008C01CB01F801118210821382128215829C
:101D100014824AE0BE016F5F7F4F0E94DC1ABE0151
:101D20006F5F7F4FC8010E946A0E62960FB6F894EB
:101D3000DEBF0FBECDBFDF91CF911F910F910895F0
:101D4000FB01DC0111961C921E9213961C921E92AE
:101D5000129715961C921E9214978617970749F0B2
:101D6000608171816115710521F0448155810C9468
:101D70003F0E0895FC011182108213821282158297
:101D80001482FB0101900020E9F73197AF01461B57
:101D9000570B0C943F0E5F926F927F928F929F929F
:101DA000AF92BF92CF92DF92EF92FF920F931F9369
:101DB000CF93DF9300D000D0CDB7DEB75C013B01FD
:101DC00064E572E0CE0101960E94BA0E00E110E0D7
:101DD0008090D0039090D103081519050CF05EC0D7
:101DE000C8010E94730C68019FEFC91AD90A8E3787
:101DF00009F052C076018E149F0499F0C7010E9429
:101E0000730C582E682FCE0101960E940E0EEAE246
:101E10005E1238C0CE0101960E94D60CC5010E9408
:101E2000D60CB501CE0101960E94AE0D882371F14A
:101E30008D819E810196800F911FF3019183808394
:101E4000025011091093D3030093D20311E0CE0185
:101E500001960E94DE0D812F26960FB6F894DEBF04
:101E60000FBECDBFDF91CF911F910F91FF90EF90EB
:101E7000DF90CF90BF90AF909F908F907F906F90AA
:101E80005F900895FFEFEF1AFF0AB5CF64E572E0A7
:101E9000CE0101960E946A0E86019ACF10E0D7CF3C
:101EA0001F920F920FB60F9211240BB60F922F9321
:101EB0003F934F935F936F937F938F939F93AF93D2
:101EC000BF93EF93FF938EED93E00E94BD02FF91CD
:101ED000EF91BF91AF919F918F917F916F915F91A2
:101EE0004F913F912F910F900BBE0F900FBE0F900F
:101EF0001F9018951F920F920FB60F9211240BB6D8
:101F00000F922F938F939F93EF93FF93E091EE03A4
:101F1000F091EF038081E091F403F091F50382FDED
:101F20001DC090818091F7038F5F8F732091F8031C
:101F3000821741F0E091F703F0E0E252FC4F958FF9
:101F40008093F703FF91EF919F918F912F910F90C5
:101F50000BBE0F900FBE0F901F9018958081F2CF8F
:101F60001F920F920FB60F9211240BB60F922F9360
:101F70003F934F935F936F937F938F939F93AF9311
:101F8000BF93EF93FF938BE794E00E94BD02FF9114
:101F9000EF91BF91AF919F918F917F916F915F91E1
:101FA0004F913F912F910F900BBE0F900FBE0F904E
:101FB0001F9018951F920F920FB60F9211240BB617
:101FC0000F922F938F939F93EF93FF93E0918B0446
:101FD000F0918C048081E0919104F091920482FD53
:101FE0001DC09081809194048F5F8F732091950420
:101FF000821741F0E0919404F0E0E558FB4F958F93
:1020000080939404FF91EF919F918F912F910F9066
:102010000BBE0F900FBE0F901F9018958081F2CFCE
:102020001F920F920FB60F9211242F933F938F930D
:102030009F93AF93BF938091DA039091DB03A091BC
:10204000DC03B091DD033091CB0323E0230F2D3768
:1020500058F50196A11DB11D2093CB038093DA039F
:102060009093DB03A093DC03B093DD038091CC035A
:102070009091CD03A091CE03B091CF030196A11D05
:10208000B11D8093CC039093CD03A093CE03B09366
:10209000CF03BF91AF919F918F913F912F910F905F
:1020A0000FBE0F901F90189526E8230F0296A11DD2
:1020B000B11DD2CFCF93DF931092E1031092E003D2
:1020C00048EE53E060E070E04093E2035093E30396
:1020D0006093E4037093E5038EE292E09093DF0354
:1020E0008093DE032DEC30E03093EB032093EA0382
:1020F0002CEC30E03093ED032093EC0328EC30E03F
:102100003093EF032093EE0329EC30E03093F1039A
:102110002093F0032AEC30E03093F3032093F20392
:102120002EEC30E03093F5032093F4031092F70384
:102130001092F8031092F9031092FA0310927E04A1
:1021400010927D0440937F04509380046093810437
:102150007093820490937C0480937B0485EC90E0E0
:10216000909388048093870484EC90E090938A0491
:102170008093890480EC90E090938C0480938B048E
:1021800081EC90E090938E0480938D0482EC90E03B
:102190009093900480938F0486EC90E09093920447
:1021A00080939104109294041092950410929604D6
:1021B0001092970410920606109205068AE492E0A7
:1021C000909304068093030687E0809307068FEFC1
:1021D0008093080686E08093090685E080930A06CE
:1021E00084E080930B0683E080930C0682E080936A
:1021F0000D0610920E0610920F0610921006109205
:1022000011061092120681E00E94800BC3E3D0E019
:10221000D093FC05C093FB0585E390E09093FE0509
:102220008093FD0584E390E0909300068093FF0582
:1022300081E090E0909302068093010661E083E3E1
:102240000E943E0461E08091FD050E943E0461E031
:102250008091FF050E943E0461E08091FF050E948D
:102260000C04D093FC05C093FB05EBEBF5E08BEF82
:1022700095E011928E179F07E1F7D0E0C0E08091C2
:10228000010690910206C817D90774F540E06FE087
:10229000CE010E945E0A8091010690910206C81745
:1022A000D9072CF447E06BE0CE010E945E0A40E0C3
:1022B00069E0CE010E945E0A8091010690910206BB
:1022C000C817D9071CF4CE010E94BC0A80910106F0
:1022D00090910206C817D9072CF440E06CE0CE01BB
:1022E0000E945E0A2196CBCF65E572E085EA95E013
:1022F0000E94BA0E6AE572E08FE995E00E94BA0E7C
:10230000109232051092360510923505109237055D
:1023100080E492E09093310580933005ECE4F5E0A1
:1023200088E895E0108214821382158236968E1703
:102330009F07C1F78CE092E09093930580939205FC
:1023400088E092E0909395058093940584E08093D3
:1023500096058093970580E192E090939105809394
:1023600090058AE090E0909399058093980584EF1A
:1023700091E090939B0580939A0510929E05109290
:102380009D0510928C0510928D0510928E0510926D
:102390008F0510929C0564E572E08AE295E00E9448
:1023A000BA0E64E572E084E295E00E94BA0E64E53C
:1023B00072E08EE195E00E94BA0E64E572E088E179
:1023C00095E0DF91CF910C94BA0ECF93DF93CDB708
:1023D000DEB7E0970FB6F894DEBF0FBECDBF78949E
:1023E00084B5826084BD84B5816084BD85B582601A
:1023F00085BD85B5816085BD80916E0081608093CB
:102400006E00109281008091810082608093810033
:102410008091810081608093810080918000816043
:10242000809380008091B10084608093B10080919E
:10243000B00081608093B0008091910082608093B1
:102440009100809191008160809391008091900033
:102450008160809390008091A10082608093A100B0
:102460008091A10081608093A1008091A000816093
:102470008093A0008091210182608093210180914E
:1024800021018160809321018091200181608093EE
:10249000200180917A00846080937A0080917A0094
:1024A000826080937A0080917A00816080937A00C4
:1024B00080917A00806880937A001092C10082E057
:1024C0000E94800B80E40E94720B00E012E078E032
:1024D000E72E72E0F72EF80161918F0183E096E01C
:1024E0000E94300CE016F106B1F70E94780B82E0F2
:1024F0000E94720B8BE39FE10197F1F760E082E0AD
:102500000E94210C60E083E096E00E94300C60E0C5
:1025100083E00E94210C60E672E083E096E00E9476
:10252000AC0D60E08DE00E94210C60E083E096E05D
:102530000E94300C61E081E00E94210C6BE672E0A9
:1025400083E096E00E94AC0D8BE794E00E94770157
:102550008EED93E00E9477018FEF9FEF9093D90368
:102560008093D80364E572E08EE195E00E946A0EE4
:1025700064E572E088E195E00E946A0E86E30E94BD
:102580007E04BC01990F880B990B611571058105BB
:10259000910511F00E94D31A1092D6031092D50320
:1025A00061E08DE00E943E0461E08AE00E943E040A
:1025B0001092D40310E000E060E0C8010E94360CE5
:1025C0000F5F1F4F00311105B9F760E1E62EF12CC6
:1025D0006FEFC7010E94360CFFEFEF1AFF0A85E686
:1025E000E816F104A9F780910106909102061816E9
:1025F000190634F441E06CE090E080E00E945E0A4D
:1026000080910106909102061816190634F44FE0E5
:102610006AE090E080E00E945E0A8091010690915D
:1026200002061816190624F490E080E00E94BC0A05
:102630000E94750CC8010E94730C8F3F09F052C0B4
:102640001093D1030093D0038091D0039091D103D4
:102650000E94710D53E0452E512C612C712C8091FC
:10266000D8039091D9038B30910509F043C060E005
:1026700080E00E94210C6BE772E083E096E00E940C
:10268000AC0D61E080E00E94210C65E872E083E01F
:1026900096E00E94AC0D8BE794E00E949D02181614
:1026A0001906ECF48BE794E00E947B028093D70339
:1026B0008334A9F40E94780B60E080E00E94210C32
:1026C0006EE872E083E096E00E94AC0D8091D80342
:1026D0009091D90301969093D9038093D8030E94D7
:1026E0004C03BDCF0F5F1F4F011594E0190709F090
:1026F000A1CFAACF8A30910559F468EE73E080E04B
:1027000090E00E94BE040E94780B8BE090E0E3CF43
:102710008C30910509F014C28BE794E00E949D0271
:1027200018161906E4F68BE794E00E947B0280936A
:10273000D7030E94E90C8091D7038C3609F003C1BE
:102740000E94780B6AE070E080E090E00E94BE0496
:1027500064E572E0CE0189960E94BA0E18AA1FA6FF
:10276000BB24B394DD24D3948BE794E00E949D02B4
:10277000892B09F489C08BE794E00E947B02182F13
:10278000DD2091F3682FCE0189960E940E0E1A3239
:1027900059F7BB2019F1BE01675D7F4FCE0101964D
:1027A0000E94A00EBE01615D7F4FCE0101960E9486
:1027B000CB0ED82ECE0101960E94DE0DDD2039F021
:1027C0006AE070E080E090E00E94BE04B12C64E515
:1027D00072E0CE0189960E946A0EC6CFEFA4F8A8D7
:1027E000BE01675D7F4FCE0183960E94A00ECE0191
:1027F00083960E94D60C4FA158A570E060E02AE0B5
:102800008EED93E00E94FC0C62E572E08EED93E0A9
:102810000E94C70CC7010E94710D64E572E0CE01F1
:1028200001960E94BA0E87018FA198A58E0D9F1D5B
:102830000817190738F5C8010E94730CC82E0E94AA
:10284000E90C6C2DCE0101960E940E0EEAE2CE1626
:1028500019F00F5F1F4FE8CFCE0101960E94D60CF2
:10286000BE016D5D7F4FCE0101960E94AE0D8823A3
:1028700081F3CE0101960E94DE0DCE0183960E9467
:10288000DE0D72CFD12CF5CFDD20F1F168E972E0D9
:102890008BE794E00E94AC0D8AE992E00E94990DCA
:1028A00060E080E00E94210C6FE972E083E096E036
:1028B0000E94AC0D61E080E00E94210C65EA72E0AC
:1028C00083E096E00E94AC0D60ED77E080E090E060
:1028D0000E94BE040091D2031091D303C8010E944C
:1028E000730C61E0680FC8010E94360C8091D80318
:1028F0009091D90301969093D9038093D803CE0188
:1029000089960E94DE0DEBCE6DEA72E08BE794E0D3
:102910000E94AC0D8FEA92E00E94990D60E080E089
:102920000E94210C6FE972E083E096E00E94AC0DFA
:1029300061E080E00E94210C63EB72E083E096E0AE
:102940000E94AC0DDCCF823709F0C9CE0E94780B13
:102950006AE070E080E090E00E94BE0464E572E00E
:10296000CE0183960E94BA0E1AA619A610E000E0C6
:10297000EE24E394FF24F3948BE794E00E949D02FD
:10298000892B09F48CC08BE794E00E947B02D82E3F
:10299000FF2091F30F5F1F4F682FCE0183960E9497
:1029A0000E0EFAE2DF12E8CFEE2009F465C009301E
:1029B00011050CF05FC0BE016D5D7F4FCE01019629
:1029C0000E94A00EBE01675D7F4FCE0101960E945E
:1029D000CB0EF82ECE0101960E94DE0DF11049C0FB
:1029E00061E08091D0039091D1030E94360C8091D8
:1029F000D0039091D10301969093D1038093D0039B
:102A000060E00E94360C0091D0031091D1030F5F5B
:102A10001F4F1093D1030093D003C8010E94A81B3D
:102A20008E3721F06EE7C8010E94B01B8091D00361
:102A30009091D10301969093D1038093D003BE016E
:102A40006D5D7F4FCE0101960E94A00ECE010196D2
:102A50000E94380CCE0101960E94DE0D64E572E002
:102A6000CE0183960E946A0EFE2CE12C10E000E05D
:102A700083CFEF2CF12C80CF06301105DCF7BE019F
:102A80006D5D7F4FCE0101960E94A00ECE01019692
:102A90000E94380CCE0101960E94DE0D6DCFFF2002
:102AA00081F168E972E08BE794E00E94AC0D8AE95D
:102AB00092E00E94990D60E080E00E94210C6CEB96
:102AC00072E083E096E00E94AC0D61E080E00E943D
:102AD000210C65EA72E083E096E00E94AC0D60EDA7
:102AE00077E080E090E00E94BE048091D80390914E
:102AF000D90301969093D9038093D803CE0183968E
:102B000000CF6DEA72E08BE794E00E94AC0D8FEA93
:102B100092E00E94990D60E080E00E94210C6CEB35
:102B200072E083E096E00E94AC0D61E080E00E94DC
:102B3000210C63EB72E083E096E00E94AC0DDECFE7
:102B40008D30910509F03FC38BE794E00E949D0210
:102B5000181619060CF0C3CD8BE794E00E947B0297
:102B60008093D703883609F00AC30E94780B60E08F
:102B70008DE00E940C0464E572E08EE195E00E9415
:102B80006A0E64E572E088E195E00E946A0E109298
:102B9000D6031092D50344E0E42EF12C0E94841A4F
:102BA0001CA21BA21EA21DA218A61FA229E030E093
:102BB00040E050E00E94BE1B2AE0AE014F5F5F4F35
:102BC0000E94E71ABE016F5F7F4FCE0183960E947D
:102BD0006A0ECBA0DCA0C114D10419F10FA118A575
:102BE00001151105F1F08091220590912305080F40
:102BF000191FB8018EE195E00E94E60D882389F047
:102C000020911E0530911F0580912205909123058A
:102C1000B601820F931F0E94411E1093230500935B
:102C20002205CE0183960E94DE0D81E0E81AF108AC
:102C300009F0B4CF0E94841AA30192010E94BE1B26
:102C40006F5B7F4F8F4F9F4F8EE195E00E940E0E7E
:102C50000E94841AA30192010E94BE1B6F5B7F4FEA
:102C60008F4F9F4F8EE195E00E940E0E6EE175E052
:102C70008BE794E00E9431028EE195E00E94D60C31
:102C800060E080E00E94210C65EC72E083E096E059
:102C90000E94AC0D61E080E00E94210C6AE070E0CF
:102CA00080E090E00E94BE0436E0832E8BE794E043
:102CB0000E949D0218161906CCF19924939481E084
:102CC00080939C058FB7F8944091DA035091DB0311
:102CD0006091DC037091DD038FBF80918C05909132
:102CE0008D05A0918E05B0918F05481B590B6A0B7D
:102CF0007B0B8091980590919905B0E0A0E0841736
:102D00009507A607B70708F046C110E08091960521
:102D10001817C8F5E0919205F0919305E10FF11DA8
:102D200062E080810E943E041F5FF0CF8BE794E059
:102D30000E947B028093D703853709F0BECFECE079
:102D4000F0E0F093D903E093D8030E94780B60E0A1
:102D500080E00E94210C6FEC72E083E096E00E941C
:102D6000AC0D61E080E00E94210C66ED72E083E032
:102D700096E00E94AC0D60ED77E080E090E00E946C
:102D8000BE04912C9CCF312C80919705381608F009
:102D900063C0E32CF12CE0919405F0919505EE0DC4
:102DA000FF1D61E080810E943E04E0919405F09156
:102DB0009505EE0DFF1D60E080810E940C0481E00E
:102DC00090E0A0E0B0E0032C04C0880F991FAA1F78
:102DD000BB1F0A94D2F75C016C01C094D094212CE3
:102DE00080919605281608F5022D10E0E0919205D5
:102DF000F0919305E00FF11F80810E94E0030C5FCA
:102E00001F4F000F111FF801E05DFA4F892B41F4AD
:102E1000808191818A299B29918380832394E0CFAB
:102E2000808191818C219D21F7CFE0919405F091D3
:102E30009505EE0DFF1D61E080810E940C048091DC
:102E4000940590919505E80EF91E60E0F7018081E8
:102E50000E943E04339498CF90E3E92E95E0F92E3A
:102E60008701F801878D90A1892B31F4148E8FEFA3
:102E70009FEF968F858F11A20A5F1F4F95E00C364A
:102E8000190779F7D12C80919605D81608F052C011
:102E9000C12CAD2CB12CAA0CBB1CF501E85CFA4F7F
:102EA0005F0120919705C21608F042C0F5016081CC
:102EB00071810C2C02C0769567950A94E2F7D29E38
:102EC000900111242C0D311DE0E3F5E080E0458DEB
:102ED000568D2417350709F44BC28F5F36968A301A
:102EE000B1F760FF23C0E0E3F5E090E080E0448DBF
:102EF000411117C0E0919005F0919105E20FF31F89
:102F00004081889EF001899EF00D1124E05DFA4F0A
:102F1000448F368F258F10A2178E61E00E94C10169
:102F200005C0019636968A30910509F7C394B9CF4A
:102F3000D394A9CF80E0F70191A19111892FF6E0F8
:102F4000EF0EF11C0E151F05B1F79FB7F8944091D5
:102F5000DA035091DB036091DC037091DD039FBFC6
:102F600040938C0550938D0560938E0570938F056B
:102F7000882389F080915105882369F080914F055D
:102F800090915005019739F410914C05111106C02C
:102F900091108CCEA4CB10929C05FACF1A3209F076
:102FA000C7C06EE175E088E195E00E94AE0D882310
:102FB00009F458C00E94780B60E080E00E94210C68
:102FC00060EE72E083E096E00E94AC0D61E080E08C
:102FD0000E94210C68EE72E083E096E00E94AC0D46
:102FE0001092D6031092D50364E572E088E195E073
:102FF0000E946A0E6CE073E08BE794E00E94AC0DD7
:103000008091D8039091D90301969093D90380932E
:10301000D8036CED75E080E090E00E94BE048091E2
:10302000D2039091D30301960E94730C1CA21BA2A1
:103030001EA21DA218A61FA24AE0BE016F5F7F4F0D
:1030400090E00E94181BBE016F5F7F4FCE018396F8
:103050000E946A0EBE016D5D7F4F8BE794E00E9477
:1030600031024CCD8091D5039091D6030196909377
:10307000D6038093D50360E00397F1F480E00E94CB
:10308000210C60EE72E083E096E00E94AC0D61E0FE
:1030900080E00E94210C66EF72E083E096E00E94DF
:1030A000AC0D60E073E08BE794E00E94AC0D61E052
:1030B0008DE00E940C0413CB80E00E94210C60EE96
:1030C00072E083E096E00E94AC0D61E080E00E9437
:1030D000210C6AE073E083E096E00E94AC0D65E1AC
:1030E00073E08BE794E00E94AC0D60E47FE180E048
:1030F00090E00E94BE040E94780B64E572E088E1D3
:1031000095E00E946A0E60E080E00E94210C65EC70
:1031100072E083E096E00E94AC0D61E080E00E94E6
:10312000210C6FE070E080E090E00E94BE0430CFA0
:103130001332C9F40E94780B60E080E00E94210CF9
:1031400060EE72E083E096E00E94AC0D61E080E00A
:103150000E94210C60E273E083E096E00E94AC0DD7
:103160006AE273E0A0CF612F88E195E00E940E0E25
:1031700041E0612F83E096E00E941F0B09CF853765
:1031800009F0ADCA0E94780B60E080E00E94210C3B
:103190006FEC72E083E096E00E94AC0D61E080E0AD
:1031A0000E94210C66ED72E083E096E00E94AC0D77
:1031B0008CE090E09093D9038093D80360ED77E0A2
:1031C00080E090E07EC08E30910509F0C3C08BE7AF
:1031D00094E00E949D02181619060CF080CA8BE735
:1031E00094E00E947B028093D703813639F50E94D8
:1031F000780B60E080E00E94210C64E373E083E0E0
:1032000096E00E94AC0D10E000E0C8010E94730C33
:1032100078019FEFE91AF90A882309F4ABC0870106
:103220000031110591F787E793E00E94990D6DE752
:1032300073E08BE794E00E94AC0DD2C0803709F0B8
:103240004FC00E94780B60E080E00E94210C62E495
:1032500073E083E096E00E94AC0D8091D2039091E0
:10326000D30301960E94730C082F10E0011511057D
:1032700059F1B8018BE794E00E948F0D0E94780B02
:1032800060E080E00E94210C60E573E083E096E05E
:103290000E94AC0D61E080E00E94210C6EE573E0BD
:1032A00083E096E00E94AC0D61E08BE00E94210C6F
:1032B000B80183E096E00E948F0D6FE070E080E03F
:1032C00090E00E94BE040BCAC8010E94730C8823C0
:1032D00009F489C00F5F1F4F00311105A9F7A3CF73
:1032E000853709F0FCC98CE090E09093D903809376
:1032F000D8030E94780B60E080E00E94210C6FEC04
:1033000072E083E096E00E94AC0D61E080E00E94F4
:10331000210C66ED72E083E096E00E94AC0D809196
:10332000D403882309F44ACF8091D2039091D30328
:1033300001960E94730C60E090E00E94360C809130
:10334000D2039091D30360E001960E94360C0E9454
:10335000F40434CF8A3091050CF0C1C901969093E2
:10336000D9038093D8036AE070E080E090E0A9CFB1
:103370006170D4CDB701CE0101960E94740EC701D1
:103380000E94710D61E0C8010E94360C8091D20349
:103390009091D3036E2D01960E94360CBE016F5F93
:1033A0007F4F8BE794E00E9431020E94780B60E02F
:1033B00080E00E94210C6AE673E083E096E00E94C0
:1033C000AC0D61E087E00E94210CBE016F5F7F4F72
:1033D00083E096E00E943102CE0101960E94DE0D4C
:1033E0000E94750C6ACF81E08093D4030E94F4049C
:1033F0007C018C010F5F1F4FB801CE0101960E9426
:10340000740EC8010E94710D61E0C7010E94360C64
:103410008091D2039091D303602F01960E94360CC5
:10342000BE016F5F7F4F8BE794E00E9431020E94E4
:10343000780B60E080E00E94210C60E873E0BDCF73
:1034400088E195E00E94DE0D8EE195E00E94DE0DA0
:1034500084E295E00E94DE0D8AE295E00E94DE0D96
:103460008FE995E00E94DE0D85EA95E00C94DE0D73
:103470008F929F92AF92BF92CF92DF92EF92FF9284
:10348000CF93DF93EC01688179818A819B816115FB
:1034900071058105910521F464E279ED8BE597E0F2
:1034A0002DE133EF41E050E00E94BE1B49015A017B
:1034B0009B01AC01A7EAB1E40E94DD1B6B017C011A
:1034C000ACEEB4EFA50194010E94EB1BC60ED71E13
:1034D000E81EF91EF7FE06C081E0C81AD108E1080F
:1034E00080E8F80AC882D982EA82FB82C701B60165
:1034F0009F77DF91CF91FF90EF90DF90CF90BF90BB
:10350000AF909F908F9008958F929F92AF92BF92AD
:10351000CF92DF92EF92FF92609120027091210290
:103520008091220290912302611571058105910518
:1035300021F464E279ED8BE597E02DE133EF41E092
:1035400050E00E94BE1B49015A019B01AC01A7EA51
:10355000B1E40E94DD1B6B017C01ACEEB4EFA50170
:1035600094010E94EB1BC60ED71EE81EF91EF7FE43
:1035700006C081E0C81AD108E10880E8F80AC092C4
:103580002002D0922102E0922202F0922302C7018F
:10359000B6019F77FF90EF90DF90CF90BF90AF90F4
:1035A0009F908F90089560932002709321028093E2
:1035B0002202909323020895BB274A3031F49923C5
:1035C00022F4BDE2909581959F4F0C94191BBB2767
:1035D0002A3051F4992342F4BDE29095809570957C
:1035E00061957F4F8F4F9F4F0C94F71ABB27FA01BD
:1035F000A62F6217710581059105330B30FB66F02C
:10360000AA27660F771F881F991FAA1FA21710F0FD
:10361000A21B63953850A9F7A05DAA3308F0A95DF5
:10362000A19336F7B111B1931082CA010C94321BE9
:10363000BB27FB015527AA27880F991FAA1FA4178C
:1036400010F0A41B83955051B9F7A05DAA3308F080
:10365000A95DA193009779F7B111B1931192CB01B4
:103660000C94321BDC01FC01672F71917723E1F789
:10367000329704C07C916D9370836291AE17BF073F
:10368000C8F308950E94841B08F481E00895E8942B
:1036900009C097FB3EF490958095709561957F4F9A
:1036A0008F4F9F4F9923A9F0F92F96E9BB27939548
:1036B000F695879577956795B795F111F8CFFAF458
:1036C000BB0F11F460FF1BC06F5F7F4F8F4F9F4F89
:1036D00016C0882311F096E911C0772321F09EE8E7
:1036E000872F762F05C0662371F096E8862F70E04D
:1036F00060E02AF09A95660F771F881FDAF7880F27
:103700009695879597F90895990F0008550FAA0B7C
:10371000E0E8FEEF16161706E807F907C0F01216E4
:103720001306E407F50798F0621B730B840B950BE7
:1037300039F40A2661F0232B242B252B21F408953C
:103740000A2609F4A140A6958FEF811D811D0895D9
:10375000F999FECF92BD81BDF89A992780B5089559
:10376000262FF999FECF1FBA92BD81BD20BD0FB69D
:10377000F894FA9AF99A0FBE01960895052E97FBD0
:103780001EF400940E94D51B57FD07D00E94F01B29
:1037900007FC03D04EF40C94D51B50954095309502
:1037A00021953F4F4F4F5F4F0895909580957095AD
:1037B00061957F4F8F4F9F4F08950E94121CA59FC8
:1037C000900DB49F900DA49F800D911D112408951C
:1037D000B7FF0C94DD1B0E94DD1B821B930B089529
:1037E000A1E21A2EAA1BBB1BFD010DC0AA1FBB1F05
:1037F000EE1FFF1FA217B307E407F50720F0A21B77
:10380000B30BE40BF50B661F771F881F991F1A94E3
:1038100069F760957095809590959B01AC01BD010D
:10382000CF010895A29FB001B39FC001A39F700D67
:10383000811D1124911DB29F700D811D1124911DB8
:103840000895EE0FFF1F881F8BBF0790F691E02DA4
:1038500019940F931F93CF93DF938230910510F447
:1038600082E090E0E0911D06F0911E0630E020E03D
:10387000B0E0A0E0309799F42115310509F44AC071
:10388000281B390B24303105D8F58A819B816115BD
:10389000710589F1FB0193838283FE0111C0408190
:1038A00051810281138148175907E0F048175907E1
:1038B00099F4109761F012960C93129713961C933B
:1038C0003296CF01DF91CF911F910F910895009310
:1038D0001D0610931E06F4CF2115310551F0421735
:1038E000530738F0A901DB019A01BD01DF01F8019E
:1038F000C1CFEF01F9CF90931E0680931D06CDCF67
:10390000FE01E20FF31F8193919322503109398315
:103910002883D7CF20911B0630911C06232B41F41E
:10392000209126023091270230931C0620931B061B
:1039300020912402309125022115310541F42DB743
:103940003EB74091280250912902241B350BE0918B
:103950001B06F0911C06E217F307A0F42E1B3F0B89
:103960002817390778F0AC014E5F5F4F24173507F1
:1039700048F04E0F5F1F50931C0640931B06819327
:1039800091939FCFF0E0E0E09CCFCF93DF9300973F
:10399000E9F0FC01329713821282A0911D06B091CA
:1039A0001E06ED0130E020E01097A1F42081318166
:1039B000820F931F20911B0630911C062817390790
:1039C00009F061C0F0931C06E0931B06DF91CF91D4
:1039D0000895EA01CE17DF07E8F54A815B819E0171
:1039E00041155105B1F7E901FB83EA8349915991EA
:1039F000C40FD51FEC17FD0761F4808191810296F9
:103A0000840F951FE90199838883828193819B8329
:103A10008A83F0E0E0E012968D919C9113970097D5
:103A2000B9F52D913C911197CD010296820F931F0C
:103A300020911B0630911C062817390739F630975C
:103A400051F510921E0610921D06B0931C06A0930D
:103A50001B06BCCFD383C28340815181840F951F45
:103A6000C817D90761F44E5F5F4F88819981480F6D
:103A7000591F518340838A819B81938382832115BF
:103A8000310509F0B0CFF0931E06E0931D069ECFDE
:103A9000FD01DC01C0CF13821282D7CF4F925F921B
:103AA0006F927F928F929F92AF92BF92CF92DF924E
:103AB000EF92FF920F931F93CF93DF938C010097A8
:103AC00099F4CB01DF91CF911F910F91FF90EF906F
:103AD000DF90CF90BF90AF909F908F907F906F902E
:103AE0005F904F900C94291CFC01E60FF71F9C017E
:103AF00022503109E217F30708F4AEC0D901CD9185
:103B0000DC911197C617D70720F1C530D10578F0A1
:103B1000CE0104978617970750F0C61BD70B229744
:103B2000C193D1936D937C93CF010E94C51CC801B2
:103B3000DF91CF911F910F91FF90EF90DF90CF9089
:103B4000BF90AF909F908F907F906F905F904F90BD
:103B500008955B01AC1ABD0A4C018C0E9D1EA0910C
:103B60001D06B0911E06512C412CF12CE12C109712
:103B700031F580911B0690911C068815990509F076
:103B80005CC04616570608F058C0809124029091F8
:103B90002502009741F48DB79EB7409128025091BD
:103BA0002902841B950BE817F90708F055C0F0931C
:103BB0001C06E0931B06F90171836083B8CF8D91D9
:103BC0009C91119712966C90129713967C90139774
:103BD000A815B90559F56C0142E0C40ED11CCA14F0
:103BE000DB0420F1AC014A195B09DA011296159742
:103BF00080F06282738251834083D9016D937C93FC
:103C0000E114F10471F0D7011396FC93EE9312972F
:103C10008ECF22968C0F9D1FF90191838083F30133
:103C2000EFCFF0931E06E0931D0681CF481659068C
:103C300008F42C017D01D3019ACFCB010E94291CED
:103C40007C01009749F0AE01B8010E942F1EC80107
:103C50000E94C51C87016BCF10E000E068CFFB011C
:103C6000DC0102C001900D9241505040D8F70895F8
:103C7000FB01DC018D91019080190110D9F3990BA2
:103C80000895FB01DC0101900D920020E1F70895F9
:103C900011E0C3E4D1E000E006C0802FFE010E94E5
:103CA000211C2196011DC434D10780E00807A9F723
:043CB000F894FFCFB6
:103CB400040A11111F1B1F1F161718191A1B1C1D8C
:103CC4003132334134353642373839432A3023448C
:103CD4000100000000001F06800000000000DF0259
:103CE4003F026C022C039D027B028F020000000045
:103CF4007A043A04090400000000300C3F02F10485
:103D0400F0040D0A00313233340061646D696E00D1
:103D14004269656E76656E69646F00477275706F8F
:103D2400352D53656363696F6E4100457370657229
:103D3400616E646F00436F6E6578696F6E00436FE8
:103D44006E65637461646F0062006269656E006C25
:103D54006F67696E00457869746F736F006D006DED
:103D6400616C0044656E656761646F0052656769E4
:103D74007374726F00436F6469676F2E2E2E005345
:103D8400616C69646100636F6E20457869746F00CB
:103D9400496E677265736F00436F72726563746115
:103DA4006D656E746500426C6F71756561646F005A
:103DB400626C6F71756561646F00496E636F7272D6
:103DC4006563746F00696E636F72726563746F000C
:103DD40043616E63656C61646F0063616E63656CFF
:103DE40061646F00526573657276616E646F2E2E26
:103DF4002E00506172717565616E646F2E2E2E00F7
:103E040050617271756561646F20656E2000526542
:103E14007365727661646F3A2000526573657276D9
:103E240061646F20656E00566163696F006E6F0098
:0E3E340050617271756561646F20656E0000EB
:00000001FF
