:100000000C942E010C945F010C945F010C945F0121
:100010000C945F010C945F010C945F010C945F01E0
:100020000C945F010C945F010C945F010C945F01D0
:100030000C945F010C945F010C945F010C945F01C0
:100040000C945F010C945F010C945F010C945F01B0
:100050000C945F010C945F010C945F010C940D05EE
:100060000C945F010C94D7040C94AD040C945F01C4
:100070000C945F010C945F010C945F010C945F0180
:100080000C945F010C945F010C945F010C945F0170
:100090000C945F010C945F010C945F010C945F0160
:1000A0000C945F010C945F010C945F010C945F0150
:1000B0000C945F010C945F010C945F010C945F0140
:1000C0000C945F010C945F010C945F010C945F0130
:1000D0000C945F010C945F010C945F010C945F0120
:1000E0000C945F010C9463020C942C030C94300369
:1000F0000C9403030C9410030C9428030C941E031B
:100100000C9480010C94D0010C9465030C94BC01F8
:100110000C94E4020C941A030C943A030C94FB0222
:100120000C9414030C9416020C9457050C94A70419
:100130000C9466030C9436030C94FF020C94DE01BD
:100140000C94AD010C9422030C940A030C94070345
:100150000C94E90200000A0B02090C0D0E080703BB
:10016000040100000000000000000000000000008A
:10017000000000000000000000000000000000007F
:10018000121110000000000000000000000000003C
:100190000000000000000000000000002200250018
:1001A00028002B002E003100340002010000050160
:1001B00008010B0100002100240027002A002D0067
:1001C0003000330001010000040107010A010505A8
:1001D0000505070508080808020202020A0A0808BD
:1001E00004040404010101010101010103030303EB
:1001F00003030303040707070C0C0C0C0C0C0C0C7A
:100200000202020206060606060606060B0B0B0B8A
:100210000B0B0B0B010210202008081020401020AF
:1002200040800201020108040201010204081020BA
:1002300040808040201008040201800402018040B8
:100240002010080402010804020101020408102021
:1002500040800102040810204080570511241FBE71
:10026000CFEFD1E2DEBFCDBF00E00CBF12E0A0E0D7
:10027000B2E0E6E6FDE000E00BBF02C007900D92A1
:10028000A033B107D9F722E0A0E3B2E001C01D928C
:10029000AE3EB207E1F711E0CEE2D1E000E006C0E9
:1002A00021970109802FFE010E94A906CD32D107B6
:1002B00080E00807A9F70E94A1050C94B1060C94F0
:1002C000000090E0FC01EC5EFD4F249182539E4FB4
:1002D000FC018491882399F090E0880F991FFC011C
:1002E000EC54FE4FA591B491FC01E656FE4F85916A
:1002F00094918FB7F894EC91E22BEC938FBF089513
:10030000AF92BF92CF92DF92EF92FF920F931F9323
:10031000CF93DF936C017B018B01040F151FEB0161
:100320005E01AE18BF08C017D10759F06991D60118
:10033000ED91FC910190F081E02DC6011995892B7A
:1003400079F7C501DF91CF911F910F91FF90EF9049
:10035000DF90CF90BF90AF900895FC01538D448DF6
:10036000252F30E0842F90E0821B930B541710F060
:10037000CF96089501970895FC01918D828D98176D
:1003800061F0A28DAE0FBF2FB11D5D968C91928D45
:100390009F5F9F73928F90E008958FEF9FEF089576
:1003A000FC01918D828D981731F0828DE80FF11D3F
:1003B000858D90E008958FEF9FEF0895FC01918D5A
:1003C000228D892F90E0805C9F4F821B91098F7353
:1003D0009927089589E392E00E94DE0121E0892BAC
:1003E00009F420E0822F0895FC01A48DA80FB92FF5
:1003F000B11DA35ABF4F2C91848D90E001968F734D
:100400009927848FA689B7892C93A089B1898C916B
:10041000837080648C93938D848D981306C00288BA
:10042000F389E02D80818F7D80830895EF92FF9284
:100430000F931F93CF93DF93EC0181E0888F9B8D07
:100440008C8D98131AC0E889F989808185FF15C0C1
:100450009FB7F894EE89FF896083E889F9898081E4
:100460008370806480839FBF81E090E0DF91CF91B3
:100470001F910F91FF90EF900895F62E0B8D10E0D5
:100480000F5F1F4F0F731127E02E8C8D8E110CC044
:100490000FB607FCFACFE889F989808185FFF5CF8F
:1004A000CE010E94F401F1CFEB8DEC0FFD2FF11D79
:1004B000E35AFF4FF0829FB7F8940B8FEA89FB89CC
:1004C00080818062CFCFCF93DF93EC01888D88232A
:1004D000B9F0AA89BB89E889F9898C9185FD03C0A7
:1004E000808186FD0DC00FB607FCF7CF8C9185FF8C
:1004F000F2CF808185FFEDCFCE010E94F401E9CFDC
:10050000DF91CF91089580E090E0892B29F00E943F
:10051000EA0181110E94000080E090E0892B49F0FF
:1005200080E090E0892B29F00E94000081110E9458
:10053000000080E090E0892B49F080E090E0892B7A
:1005400029F00E94000081110E94000080E090E0EC
:10055000892B49F080E090E0892B29F00E9400006F
:1005600081110C9400000895282F30E0F901EC5A15
:10057000FE4F9491F901EC5EFD4F449122533E4FA2
:10058000F9012491222309F435C0992311F19150E6
:100590009231F8F4E92FF0E08827EE52FD4F8F4FAB
:1005A0000C94A90603030703E402FB02FF02E9021D
:1005B0000A03100314031A031E03220328032C0347
:1005C000E902300336033A03809180008F778093ED
:1005D0008000E22FF0E0EE0FFF1FE656FE4FA591E0
:1005E000B4918FB7F894EC91611148C040954E23B7
:1005F0004C938FBF0895809180008F7DE8CF8091CC
:100600008000877FE4CF84B58F7784BDE2CF84B547
:100610008F7DFBCF8091B0008F778093B000D9CFD2
:100620008091B0008F7DF9CF809190008F7780937B
:100630009000CFCF809190008F7DF9CF8091900076
:10064000877FF5CF8091A0008F778093A000C1CFE6
:100650008091A0008F7DF9CF8091A000877FF5CF9A
:10066000809120018F7780932001B3CF809120016A
:100670008F7DF9CF80912001877FF5CF4E2BB8CFAA
:100680003FB7F8948091350290913602A0913702DD
:10069000B091380226B5A89B05C02F3F19F00196EE
:1006A000A11DB11D3FBFBA2FA92F982F8827BC01CC
:1006B000CD01620F711D811D911D42E0660F771FF4
:1006C000881F991F4A95D1F70895089590E080E01A
:1006D0000895CF93DF93EC0160E08E810E94B40215
:1006E00061E08E810E94B40260E08E810E94B402BB
:1006F0008BE891E00197F1F7DF91CF910895CF92C8
:10070000DF92EF92FF920F931F93CF93DF936C01D1
:100710007C0187E0E80EF11CD0E0C0E0062F10E07D
:10072000B8010C2E02C0759567950A94E2F76170C6
:10073000F70181917F010E94B4022196C430D10556
:1007400079F7C601DF91CF911F910F91FF90EF9044
:10075000DF90CF900C946903CF92DF92EF92FF92DB
:100760000F931F93CF93DF93EC01F62E642F8C81B0
:100770000E94B4028D818F3F19F060E00E94B402A4
:100780000F2D10E08F8584FF25C06E0187E0C80E15
:10079000D11CF12CE12CB8010E2C02C07595679587
:1007A0000A94E2F76170F60181916F010E94B40230
:1007B000FFEFEF1AFF0A88E0E816F10461F7CE01B7
:1007C000DF91CF911F910F91FF90EF90DF90CF902D
:1007D0000C946903B80184E0759567958A95E1F7F3
:1007E000CE010E947F036F2DCE01DF91CF911F912B
:1007F0000F91FF90EF90DF90CF900C947F0340E03B
:10080000682F86ED92E00C94AC03CF93DF93823097
:1008100029F49091E50298609093E5028093E902B3
:100820001092EA0280E48093EB0280E18093EC0274
:1008300080E58093ED028091DA020E94610180914F
:10084000DB028F3F11F00E9461018091DC020E9467
:100850006101C6EDD2E09E01265D32408091E50245
:1008600084FD0AC084E090E02196281739073CF403
:100870008E810E946101EFCF88E090E0F5CF8BE39D
:100880009DE00197F1F760E08091DA020E94B402E6
:1008900060E08091DC020E94B4028091DB028F3F15
:1008A00019F060E00E94B4028091E50284FD39C035
:1008B00063E086ED92E00E947F03CBE4D6E4CE01B4
:1008C0000197F1F763E086ED92E00E947F032197A4
:1008D000F1F763E086ED92E00E947F0383E592E00A
:1008E0000197F1F762E086ED92E00E947F0380912C
:1008F000E50280620E94FF0384E08093E6028CE0C0
:100900000E94FF0381E00E94FF038BE39FE10197B8
:10091000F1F782E08093E70286E0DF91CF910C94BB
:10092000FF0380620E94FF038BE496E40197F1F7D6
:100930008091E50280620E94FF0383E592E00197C7
:10094000F1F78091E50280620E94FF03D0CF41E081
:100950000E94AC0381E090E008951F920F920FB6C1
:100960000F9211240BB60F922F933F934F935F93E7
:100970006F937F938F939F93AF93BF93EF93FF9367
:1009800089E392E00E94F401FF91EF91BF91AF9152
:100990009F918F917F916F915F914F913F912F9197
:1009A0000F900BBE0F900FBE0F901F9018951F92C7
:1009B0000F920FB60F9211240BB60F922F938F93B5
:1009C0009F93EF93FF93E0914902F0914A02808157
:1009D000E0914F02F091500282FD1DC09081809104
:1009E00052028F5F8F7320915302821741F0E09182
:1009F0005202F0E0E75CFD4F958F80935202FF9129
:100A0000EF919F918F912F910F900BBE0F900FBE82
:100A10000F901F9018958081F2CF1F920F920FB602
:100A20000F9211242F933F938F939F93AF93BF9374
:100A30008091310290913202A0913302B091340240
:100A40003091300223E0230F2D3758F50196A11D78
:100A5000B11D209330028093310290933202A09313
:100A60003302B09334028091350290913602A09106
:100A70003702B09138020196A11DB11D8093350255
:100A800090933602A0933702B0933802BF91AF9192
:100A90009F918F913F912F910F900FBE0F901F90BC
:100AA000189526E8230F0296A11DB11DD2CFE9E3C8
:100AB000F2E01382128288EE93E0A0E0B0E084833B
:100AC0009583A683B78384E092E09183808385EC4D
:100AD00090E09587848784EC90E09787868780EC08
:100AE00090E0918B808B81EC90E0938B828B82ECF9
:100AF00090E0958B848B86EC90E0978B868B118EA3
:100B0000128E138E148EE6EDF2E01382128286E1CD
:100B100092E09183808387E084838FEF858386E0F2
:100B2000868385E0878384E0808783E0818782E015
:100B300082871386148615861686178681E00C94A4
:100B40000504789484B5826084BD84B5816084BDD9
:100B500085B5826085BD85B5816085BD80916E005B
:100B6000816080936E00109281008091810082608C
:100B700080938100809181008160809381008091C9
:100B800080008160809380008091B10084608093B8
:100B9000B1008091B00081608093B000809191009D
:100BA0008260809391008091910081608093910098
:100BB000809190008160809390008091A10082607C
:100BC0008093A1008091A10081608093A100809119
:100BD000A00081608093A0008091210182608093B9
:100BE0002101809121018160809321018091200168
:100BF00081608093200180917A00846080937A00E4
:100C000080917A00826080937A0080917A0081607E
:100C100080937A0080917A00806880937A001092A5
:100C2000C10082E00E94050481E00E94FF03CBE343
:100C3000DFE1CE010197F1F782E00E94FF032197E7
:100C4000F1F7E1E08091E9028111E0E0E195F0E067
:100C5000EA52FD4F848980680E94FF0344E050E01F
:100C60006EE172E086ED92E00E948001E091E9027F
:100C7000E23008F06CC0E150F0E0EA52FD4F8489A8
:100C800080680E94FF034CE050E063E272E086ED72
:100C900092E00E948001E0914902F0914A0282E0D4
:100CA0008083E0914502F09146021082E091470274
:100CB000F09148028FEC808310925102E0914D0236
:100CC000F0914E0286E08083E0914B02F0914C025D
:100CD000808180618083E0914B02F0914C028081A1
:100CE00088608083E0914B02F0914C0280818068A3
:100CF0008083E0914B02F0914C0280818F7D808354
:100D00000E9440036B017C018AE0882E912CA12C6B
:100D1000B12C0E9440036C197D098E099F09683E21
:100D2000734081059105A8F321E0821A9108A1087A
:100D3000B10888EEC80E83E0D81EE11CF11C8114B6
:100D40009104A104B10429F70E948302D9CFE1E004
:100D500093CFEE0FFF1F881F8BBF0790F691E02DFA
:060D60001994F894FFCF86
:100D66000000000016028001AD016302DE01BC0135
:100D7600D00100000000A704800166036503484F08
:100D86004C4100496E696369616E646F2E2E2E00B8
:00000001FF
