:020000040000FA
:100000000C9444010C9475010C9475010C947501C9
:100010000C9475010C9475010C9475010C94750188
:100020000C9475010C9475010C9475010C94750178
:100030000C9475010C9475010C9475010C94750168
:100040000C9475010C9475010C9475010C94750158
:100050000C9475010C9475010C9475010C948B092A
:100060000C9475010C9455090C942B090C94750192
:100070000C9475010C9475010C9475010C94750128
:100080000C9475010C9475010C9475010C94750118
:100090000C9475010C9475010C9475010C94750108
:1000A0000C9475010C9475010C9475010C947501F8
:1000B0000C9475010C9475010C9475010C947501E8
:1000C0000C9475010C9475010C9475010C947501D8
:1000D0000C9475010C9475010C9475010C947501C8
:1000E0000C9475010C9449070C9466030C94FF035F
:1000F0000C946A030C94F1050C9493030C94ED0298
:100100000C946E030C9437020C947B030C945A02EB
:100110000C9446020C949C030C9477030C943F04BB
:100120000C945C030C9497030C94F2050C94D50981
:100130000C94CE030C949D030C9481030C946802E0
:100140000C9462030C9489030C948F030C940A02A0
:100150000C94A0020C9485030C94D70C0C9471039E
:100160000C94A10300002100240027002A002D0088
:100170003000330001010000040107010A01000002
:100180002200250028002B002E003100340002013F
:100190000000050108010B010000200023002600DB
:1001A00029002C002F00320000010000030106018D
:1001B00009010505050507050808080802020202ED
:1001C0000A0A0808040404040101010101010101F3
:1001D0000303030303030303040707070C0C0C0CBE
:1001E0000C0C0C0C020202020606060606060606A7
:1001F0000B0B0B0B0B0B0B0B010210202008081034
:100200002040102040800201020108040201010286
:10021000040810204080804020100804020180045F
:1002200002018040201008040201080402010102BA
:1002300004081020408001020408102040800000C3
:100240000A0B02090C0D0E08070304010000000050
:10025000000000000000000000000000000000009E
:10026000000000000000000000001211100000005B
:10027000000000000000000000000000000000007E
:1002800000000000D509D70C11241FBECFEFD1E22A
:10029000DEBFCDBF00E00CBF12E0A0E0B2E0E0EEB8
:1002A000F0E200E00BBF02C007900D92A43EB10740
:1002B000D9F724E0A4EEB2E001C01D92AD33B2073D
:1002C000E1F711E0C3E4D1E000E006C021970109A5
:1002D000802FFE010E94370EC234D10780E008074C
:1002E000A9F70E94B10A0C945E100C94000096E0ED
:1002F000899FD0011124AA55BC4F90967C936E9390
:100300005F9791E091969C939197E0911304F091FF
:10031000140490911204992339F0309751F081110F
:1003200008C08091C2031994309719F05C968C91A3
:10033000FACF0895CF92DF92EF92FF920F931F931F
:1003400096E0899FF0011124EA55FC4F11A2278DF8
:1003500030A12130310551F178F02230310509F416
:1003600051C02330310509F452C01F910F91FF9005
:10037000EF90DF90CF9008956623B9F361E070E0CD
:100380000E9477012FB7F8948091ED029091EE02D0
:10039000A091EF02B091F0022FBF8093FE039093E3
:1003A000FF03A0930004B0930104DFCF9FB7F8943C
:1003B000C090ED02D090EE02E090EF02F090F002DB
:1003C0009FBF0091FE031091FF0320910004309124
:1003D0000104C01AD10AE20AF30A00911004109134
:1003E000110430E020E00C151D052E053F0550F4EA
:1003F00062E070E01F910F91FF90EF90DF90CF903F
:100400000C9477016111B1CF63E070E0F3CF70E03D
:1004100060E0F0CFAF92BF92CF92DF92EF92FF9267
:100420000F931F93CF93DF936C017B018B01040F1C
:10043000151FEB015E01AE18BF08C017D10759F0B8
:100440006991D601ED91FC910190F081E02DC601FA
:100450001995892B79F7C501DF91CF911F910F91E4
:10046000FF90EF90DF90CF90BF90AF900895FC0188
:10047000538D448D252F30E0842F90E0821B930B09
:10048000541710F0CF96089501970895FC01918DAF
:10049000828D981761F0A28DAE0FBF2FB11D5D96B2
:1004A0008C91928D9F5F9F73928F90E008958FEF54
:1004B0009FEF0895FC01918D828D981731F0828D08
:1004C000E80FF11D858D90E008958FEF9FEF08955F
:1004D000FC01918D228D892F90E0805C9F4F821BC3
:1004E00091098F739927089581EF92E00E94680225
:1004F00021E0892B09F420E0822F0895FC01A48DCE
:10050000A80FB92FB11DA35ABF4F2C91848D90E035
:1005100001968F739927848FA689B7892C93A08918
:10052000B1898C91837080648C93938D848D9813A2
:1005300006C00288F389E02D80818F7D8083089535
:10054000EF92FF920F931F93CF93DF93EC0181E023
:10055000888F9B8D8C8D98131AC0E889F9898081CA
:1005600085FF15C09FB7F894EE89FF896083E889FD
:10057000F98980818370806480839FBF81E090E0EF
:10058000DF91CF911F910F91FF90EF900895F62E7C
:100590000B8D10E00F5F1F4F0F731127E02E8C8D16
:1005A0008E110CC00FB607FCFACFE889F98980815B
:1005B00085FFF5CFCE010E947E02F1CFEB8DEC0FCF
:1005C000FD2FF11DE35AFF4FF0829FB7F8940B8F78
:1005D000EA89FB8980818062CFCFCF93DF93EC01E2
:1005E000888D8823B9F0AA89BB89E889F9898C911B
:1005F00085FD03C0808186FD0DC00FB607FCF7CFD7
:100600008C9185FFF2CF808185FFEDCFCE010E94D6
:100610007E02E9CFDF91CF91089580E090E0892BB1
:1006200029F00E94740281110E94000080E090E095
:10063000892B49F080E090E0892B29F00E9400008E
:1006400081110E94000080E090E0892B49F080E059
:1006500090E0892B29F00E94000081110E94000087
:1006600080E090E0892B49F080E090E0892B29F030
:100670000E94000081110C94000008958150823185
:1006800008F05AC0E82FF0E08827E65BFC4F8F4F58
:100690000C94370E6A036E035C03620366039C03CB
:1006A000710377037B038103850389038F0393031E
:1006B0009C0397039D03A103809180008F77809313
:1006C00080000895809180008F7DF9CF8091800017
:1006D000877FF5CF84B58F7784BD089584B58F7DEE
:1006E000FBCF8091B0008F778093B0000895809108
:1006F000B0008F7DF9CF809190008F77809390002C
:100700000895809190008F7DF9CF80919000877F30
:10071000F5CF8091A0008F778093A00008958091FD
:10072000A0008F7DF9CF8091A000877FF5CF8091C9
:1007300020018F77809320010895809120018F7D83
:10074000F9CF80912001877FF5CFCF93DF93282FBA
:1007500030E0F901E25CFD4F8491F901E850FE4F71
:10076000D491F901EE54FE4FC491CC23A1F0811134
:100770000E943E03EC2FF0E0EE0FFF1FE856FE4F05
:10078000A591B491EC91ED2381E090E009F480E033
:10079000DF91CF91089580E090E0FACF862F0C94FE
:1007A000A5031F93CF93DF93282F30E0F901E25C7C
:1007B000FD4F8491F901E850FE4FD491F901EE54B8
:1007C000FE4FC491CC23A9F0162F81110E943E0345
:1007D000EC2FF0E0EE0FFF1FE258FE4FA591B49111
:1007E0008FB7F894EC91111108C0D095DE23DC93FB
:1007F0008FBFDF91CF911F910895DE2BF8CF862F09
:10080000642F0C94D103CF93DF9390E0FC01E85068
:10081000FE4F24918E549E4FFC0184918823C9F091
:1008200090E0880F991FFC01EC59FE4FA591B491FF
:10083000FC01E258FE4FC591D49161110DC09FB7E4
:10084000F8948C91209582238C9388812823288387
:100850009FBFDF91CF910895623051F49FB7F89414
:100860003C91822F809583238C93E8812E2BEFCFB0
:100870008FB7F894EC912E2B2C938FBFEACF862F55
:10088000642F0C9403046F927F928F929F92AF9289
:10089000BF92CF92DF92EF92FF920F931F93CF936D
:1008A000DF9381E0809312048FB7F8944091ED02BA
:1008B0005091EE026091EF027091F0028FBF809133
:1008C000020490910304A0910404B0910504481B14
:1008D000590B6A0B7B0B80910E0490910F04B0E0D2
:1008E000A0E084179507A607B70708F01DC1C0E070
:1008F00080910C04C81760F4E0910804F091090499
:10090000EC0FF11D62E080810E940304CF5FF0CF05
:10091000712C812C912C5401839480910D047816B4
:1009200008F05FC0072D10E0E0910A04F0910B047D
:10093000E00FF11F61E080810E940304E0910A044E
:10094000F0910B04E00FF11F60E080810E94D10361
:10095000D501C401072C04C0880F991FAA1FBB1F13
:100960000A94D2F76C017C01E094F094612C8091A0
:100970000C046816F8F4C62DD0E0E0910804F0915C
:100980000904EC0FFD1F80810E94A5032496CC0F63
:10099000DD1FCA55DC4F892B41F4888199818C2950
:1009A0009D29998388836394E2CF888199818E21E0
:1009B0009F21F7CFE0910A04F0910B04E00FF11FA3
:1009C00061E080810E94D10380910A0490910B0420
:1009D000080F191F60E0F80180810E9403047394DE
:1009E0009CCFC6EAD3E0FE018FEF9FEF278D30A1A9
:1009F000232B21F4148E968F858F11A2369623E037
:100A0000E23EF20799F7F12C96E0D92E80910C0482
:100A1000F81608F050C0E12C0F2D10E0000F111F48
:100A200002551C4F20910D04E21608F042C0F80157
:100A3000608171810E2C02C0769567950A94E2F769
:100A4000F29E900111242E0D311DE6EAF3E080E0C4
:100A5000458D568D2417350709F46AC08F5F369689
:100A60008A30B1F760FF23C0E6EAF3E090E080E06F
:100A7000448D411117C0E0910604F0910704E20F84
:100A8000F31F4081D89EF001D99EF00D1124EA5544
:100A9000FC4F448F368F258F10A2178E61E00E9485
:100AA0009A0105C0019636968A30910509F7E394BC
:100AB000B9CFF394ABCF80E099A19111892F2696FD
:100AC000F3E0C23EDF07C1F79FB7F8944091ED0213
:100AD0005091EE026091EF027091F0029FBF40933F
:100AE0000204509303046093040470930504882364
:100AF000D9F08091C7038823B9F08091C503909104
:100B0000C603019789F48091C203DF91CF911F91B1
:100B10000F91FF90EF90DF90CF90BF90AF909F909C
:100B20008F907F906F9008951092120480E0EDCF27
:100B30006170B5CF3FB7F8948091E5029091E602DD
:100B4000A091E702B091E80226B5A89B05C02F3F0F
:100B500019F00196A11DB11D3FBFBA2FA92F982FE3
:100B60008827BC01CD01620F711D811D911D42E0DE
:100B7000660F771F881F991F4A95D1F708958F92A6
:100B80009F92AF92BF92CF92DF92EF92FF924B0172
:100B90005C010E949A056B017C010E949A056C1908
:100BA0007D098E099F09683E734081059105A8F370
:100BB00021E0821A9108A108B10888EEC80E83E0EE
:100BC000D81EE11CF11C81149104A104B10429F781
:100BD000FF90EF90DF90CF90BF90AF909F908F905D
:100BE0000895089590E080E00895CF93DF93EC019D
:100BF00060E08E810E94D10361E08E810E94D1036A
:100C000060E08E810E94D1038BE891E00197F1F7BB
:100C1000DF91CF910895CF92DF92EF92FF920F93E1
:100C20001F93CF93DF936C017C0187E0E80EF11CEA
:100C3000D0E0C0E0062F10E0B8010C2E02C0759580
:100C400067950A94E2F76170F70181917F010E9434
:100C5000D1032196C430D10579F7C601DF91CF9138
:100C60001F910F91FF90EF90DF90CF900C94F505BE
:100C7000CF92DF92EF92FF920F931F93CF93DF9368
:100C8000EC01F62E642F8C810E94D1038D818F3F61
:100C900019F060E00E94D1030F2D10E08F8584FFD2
:100CA00025C06E0187E0C80ED11CF12CE12CB801E3
:100CB0000E2C02C0759567950A94E2F76170F601F3
:100CC00081916F010E94D103FFEFEF1AFF0A88E0C4
:100CD000E816F10461F7CE01DF91CF911F910F91DA
:100CE000FF90EF90DF90CF900C94F505B80184E071
:100CF000759567958A95E1F7CE010E940B066F2DD9
:100D0000CE01DF91CF911F910F91FF90EF90DF9077
:100D1000CF900C940B0640E0682F81E294E00C9495
:100D2000380681E00E948B068BE39FE10197F1F783
:100D30000895CF93DF93823029F490913004986026
:100D400090933004809334041092350480E48093AF
:100D5000360480E18093370480E58093380461E0B5
:100D6000809125040E940304809126048F3F19F08E
:100D700061E00E94030461E0809127040E94030463
:100D8000C1E2D4E09E01215234408091300484FDC0
:100D90000BC084E090E021962817390744F461E005
:100DA0008E810E940304EECF88E090E0F4CF8BE3C5
:100DB0009DE00197F1F760E0809125040E94D10346
:100DC00060E0809127040E94D103809126048F3F28
:100DD00019F060E00E94D1038091300484FD34C09A
:100DE00063E081E294E00E940B06CBE4D6E4CE01FE
:100DF0000197F1F763E081E294E00E940B062197EE
:100E0000F1F763E081E294E00E940B0683E592E053
:100E10000197F1F762E081E294E00E940B06809175
:100E2000300480620E948B0684E0809331048CE061
:100E30000E948B060E94910682E08093320486E035
:100E4000DF91CF910C948B0680620E948B068BE41D
:100E500096E40197F1F78091300480620E948B063E
:100E600083E592E00197F1F78091300480620E945F
:100E70008B06D5CF90913404691710F06FEF690F8E
:100E8000E62FF0E0EF5DFB4F9489890F80680C94AA
:100E90008B0641E00E94380681E090E00895FC0155
:100EA00001900020E9F73197AF01481B590BBC01B5
:100EB00081E294E00C940A02FC0180819181009708
:100EC00011F00C94DB0E08950F931F93CF93DF93D3
:100ED000EC0188819981009759F02A813B8126177E
:100EE000370730F081E0DF91CF911F910F91089586
:100EF0008B016F5F7F4F0E94640F009759F09983B9
:100F000088831B830A832C813D81232B59F7FC01A5
:100F10001082E8CF80E0E7CFEF92FF920F931F930C
:100F2000CF93DF93EC017B01198218821B821A8216
:100F30001D821C82FB0101900020E9F731978F018F
:100F4000061B170BB8010E946407288139818111A3
:100F500013C02115310519F0C9010E94DB0E198259
:100F600018821D821C821B821A82DF91CF911F91F1
:100F70000F91FF90EF9008951D830C83B701C90175
:100F8000DF91CF911F910F91FF90EF900C9457102C
:100F9000EF92FF920F931F93CF93DF93EC017B01AE
:100FA000FB0101900020E9F731978F01061B170B19
:100FB000B8010E94640728813981811113C021156D
:100FC000310519F0C9010E94DB0E198218821D82B9
:100FD0001C821B821A82DF91CF911F910F91FF908B
:100FE000EF9008951D830C83B701C901DF91CF9164
:100FF0001F910F91FF90EF900C945710EF92FF927A
:101000000F931F93CF93DF931F921F92CDB7DEB73D
:101010008C0169831A82FC01E480F580FFEFEF1AEE
:10102000FF0AB7010E946407882381F0F80120813C
:10103000318184819581BE016F5F7F4F820F931F45
:101040000E945710F801F582E48281E00F900F9022
:10105000DF91CF911F910F91FF90EF9008958F92A4
:101060009F92AF92BF92CF92DF92EF92FF920F9337
:101070001F93CF93DF93CDB7DEB7A8970FB6F89441
:10108000DEBF0FBECDBF34E0E32EF12C49E0842E4D
:10109000912CA12CB12C0E943B0D1CA21BA21EA2C4
:1010A0001DA218A61FA2A50194010E94D40D2AE03A
:1010B000AE014F5F5F4F0E94930DBE016F5F7F4F88
:1010C000CE0183960E94C807CBA0DCA0C114D10436
:1010D00019F10FA118A501151105F1F080919803E0
:1010E00090919903080F191FB80184E993E00E94B9
:1010F0006407882389F020919403309195038091AF
:10110000980390919903B601820F931F0E94571084
:101110001093990300939803CE0183960E945C0775
:1011200081E0E81AF10809F0B6CF0E943B0D23E0F8
:10113000C22ED12CE12CF12CA70196010E94D40DD6
:101140006F5B7F4F8F4F9F4F84E993E00E94FE07B4
:101150000E943B0DA70196010E94D40D6F5B7F4F4B
:101160008F4F9F4F84E993E00E94FE0740919803C0
:1011700050919903609194037091950381EF92E0EF
:101180000E940A0242E050E062E572E081EF92E0E4
:101190000E940A0260E080E00E943A0785E592E042
:1011A0000E944F0761E080E00E943A07A8960FB6C0
:1011B000F894DEBF0FBECDBFDF91CF911F910F918D
:1011C000FF90EF90DF90CF90BF90AF909F908F9067
:1011D000089560E080E00E943A078FE592E00E9467
:1011E0004F0761E080E00E943A078DE692E00E949E
:1011F0004F070E9443048823E1F38133F1F40E94F6
:10120000910664E572E084E993E00E94C8071092B9
:10121000EA021092E90260E08DE00E94D1036FE0E3
:1012200070E080E090E00E94BF058091EB02909119
:10123000EC020C9779F00C942F088233D1F68CE0F5
:1012400090E09093EC028093EB0260E08DE00E94CE
:10125000D103EBCF08951F920F920FB60F92112476
:101260000BB60F922F933F934F935F936F937F93A0
:101270008F939F93AF93BF93EF93FF9381EF92E090
:101280000E947E02FF91EF91BF91AF919F918F914C
:101290007F916F915F914F913F912F910F900BBE76
:1012A0000F900FBE0F901F9018951F920F920FB6C0
:1012B0000F9211240BB60F922F938F939F93EF935E
:1012C000FF93E0910103F09102038081E091070315
:1012D000F091080382FD1DC0908180910A038F5F09
:1012E0008F7320910B03821741F0E0910A03F0E025
:1012F000EF50FD4F958F80930A03FF91EF919F91DF
:101300008F912F910F900BBE0F900FBE0F901F90DB
:1013100018958081F2CF1F920F920FB60F92112471
:101320002F933F938F939F93AF93BF938091ED0241
:101330009091EE02A091EF02B091F0023091E402A0
:1013400023E0230F2D3758F50196A11DB11D2093E1
:10135000E4028093ED029093EE02A093EF02B0932B
:10136000F0028091E5029091E602A091E702B0912F
:10137000E8020196A11DB11D8093E5029093E6025B
:10138000A093E702B093E802BF91AF919F918F9134
:101390003F912F910F900FBE0F901F90189526E848
:1013A000230F0296A11DB11DD2CF1092F40210920C
:1013B000F30288EE93E0A0E0B0E08093F502909312
:1013C000F602A093F702B093F8028EE292E09093B7
:1013D000F2028093F10285EC90E09093FE028093FC
:1013E000FD0284EC90E0909300038093FF0280EC78
:1013F00090E0909302038093010381EC90E090933E
:1014000004038093030382EC90E09093060380939F
:10141000050386EC90E090930803809307031092F5
:101420000A0310920B0310920C0310920D031092FA
:101430002404109223048AE492E09093220480937F
:10144000210487E0809325048FEF8093260486E0B3
:101450008093270485E08093280484E08093290406
:1014600083E080932A0482E080932B0410922C0462
:1014700010922D0410922E0410922F04109230041A
:1014800081E00E9499066EE772E08BE194E00E9491
:101490008C0763E872E085E194E00E948C0710926B
:1014A000A8031092AC031092AB031092AD0380E43A
:1014B00092E09093A7038093A603E2ECF3E01082FE
:1014C000148213821582369683E0EE3FF807B9F74F
:1014D0008CE092E0909309048093080488E092E005
:1014E00090930B0480930A0484E080930C0480930F
:1014F0000D0480E192E090930704809306048AE053
:1015000090E090930F0480930E0484EF91E0909309
:10151000110480931004109214041092130410927A
:101520000204109203041092040410920504109215
:10153000120464E572E080EA93E00E948C0764E59F
:1015400072E08AE993E00E948C0764E572E084E926
:1015500093E00E948C0764E572E08EE893E00C94BF
:101560008C07789484B5826084BD84B5816084BD25
:1015700085B5826085BD85B5816085BD80916E0031
:10158000816080936E001092810080918100826062
:10159000809381008091810081608093810080919F
:1015A00080008160809380008091B100846080938E
:1015B000B1008091B00081608093B0008091910073
:1015C000826080939100809191008160809391006E
:1015D000809190008160809390008091A100826052
:1015E0008093A1008091A10081608093A1008091EF
:1015F000A00081608093A00080912101826080938F
:10160000210180912101816080932101809120013D
:1016100081608093200180917A00846080937A00B9
:1016200080917A00826080937A0080917A00816054
:1016300080937A0080917A00806880937A0010927B
:10164000C10082E00E94990680E40E948B06C0E0FF
:10165000D2E0699181E294E00E94490782E0C830BB
:10166000D807B9F70E94910682E00E948B068BE3AF
:101670009FE10197F1F760E082E00E943A0760E0A5
:1016800081E294E00E94490760E083E00E943A070B
:1016900089E892E00E944F0760E08DE00E943A07DF
:1016A00060E081E294E00E94490761E081E00E94ED
:1016B0003A0784E992E00E944F07E0910103F0911C
:1016C000020382E08083E091FD02F091FE0210822D
:1016D000E091FF02F09100038FEC808310920903E8
:1016E000E0910503F091060386E08083E091030317
:1016F000F0910403808180618083E0910303F09185
:101700000403808188608083E0910303F0910403E7
:10171000808180688083E0910303F09104038081DD
:101720008F7D80838FEF9FEF9093EC028093EB028D
:1017300064E572E084E993E00E94C80764E572E022
:101740008EE893E00E94C80780917B00877F80939A
:101750007B0080E480937C0080917A008064809399
:101760007A0080917A0086FDFCCF609178007091BC
:101770007900072E000C880B990B61157105810506
:10178000910511F00E948A0D1092EA021092E9026E
:1017900061E08DE00E9403046AE070E080E090E088
:1017A0000E94BF058091EB029091EC028B30910575
:1017B00009F0A9C00E944304C82F882309F4F4C08B
:1017C0008A3209F081C02091920330919303809175
:1017D00098039091990328173907C1F480918E03DB
:1017E00090918F036091940370919503009709F491
:1017F000B1C06115710539F4232B09F4B9C0FC019E
:10180000808190E0B2C00E944E10AFC08091E9028A
:101810009091EA0201969093EA028093E90260E0D7
:101820000397E1F480E00E943A0784EA92E00E9484
:101830004F0761E080E00E943A078AEB92E00E9445
:101840004F0761E08DE00E94D10360ED77E080E01A
:1018500090E00E94BF050E94E908A6C080E00E94B7
:101860003A0784EA92E00E944F0761E080E00E941C
:101870003A0784EC92E00E944F0768E873E180E049
:1018800090E00E94BF0561E080E00E943A078FEC83
:1018900092E00E944F0764E572E08EE893E00E94B8
:1018A000C80760E080E00E943A0785E592E00E9468
:1018B0004F0761E080E00E943A076FE070E080E04F
:1018C00090E00E94BF0570C0833289F40E949106A7
:1018D00060E080E00E943A0784EA92E00E944F07AD
:1018E00061E080E00E943A078AED92E0A8CF682F7D
:1018F0008EE893E00E94FE0741E06C2F81E294E0C5
:101900000E94380651C08A309105A1F468EE73E058
:1019100080E090E00E94BF050E9491060E942F087F
:101920008091EB029091EC0201969093EC028093EF
:10193000EB023AC08C30910519F40E94910634C034
:1019400001969093EC028093EB0268EE73E080E0E6
:1019500090E0B7CF6115710559F0232B49F0FB01D9
:10196000808190E0919581959109892B09F04ECF66
:101970000E94910660E080E00E943A0784EA92E0CB
:101980000E944F0761E080E00E943A078CEA92E0F3
:101990000E944F071092EA021092E90264E572E099
:1019A0008EE893E00E94C8070E940D03F5CE8EE8F2
:1019B00093E00E945C0784E993E00E945C078AE957
:1019C00093E00E945C0780EA93E00E945C0785E157
:1019D00094E00E945C078BE194E00C945C078F928A
:1019E0009F92AF92BF92CF92DF92EF92FF92CF93EE
:1019F000DF93EC01688179818A819B816115710592
:101A00008105910521F464E279ED8BE597E02DE104
:101A100033EF41E050E00E94D40D49015A019B018F
:101A2000AC01A7EAB1E40E94F30D6B017C01ACEEBE
:101A3000B4EFA50194010E94010EC60ED71EE81E48
:101A4000F91EF7FE06C081E0C81AD108E10880E857
:101A5000F80AC882D982EA82FB82C701B6019F7761
:101A6000DF91CF91FF90EF90DF90CF90BF90AF903C
:101A70009F908F9008958F929F92AF92BF92CF9236
:101A8000DF92EF92FF92609120027091210280918B
:101A9000220290912302611571058105910521F4BF
:101AA00064E279ED8BE597E02DE133EF41E050E022
:101AB0000E94D40D49015A019B01AC01A7EAB1E48F
:101AC0000E94F30D6B017C01ACEEB4EFA501940113
:101AD0000E94010EC60ED71EE81EF91EF7FE06C0B4
:101AE00081E0C81AD108E10880E8F80AC092200213
:101AF000D0922102E0922202F0922302C701B601A5
:101B00009F77FF90EF90DF90CF90BF90AF909F9026
:101B10008F90089560932002709321028093220297
:101B2000909323020895BB272A3051F4992342F45D
:101B3000BDE290958095709561957F4F8F4F9F4F37
:101B40000C94A30DBB27FA01A62F6217710581051E
:101B50009105330B30FB66F0AA27660F771F881FAD
:101B6000991FAA1FA21710F0A21B63953850A9F75E
:101B7000A05DAA3308F0A95DA19336F7B111B19326
:101B80001082CA010C94C40DDC01FC01672F719115
:101B90007723E1F7329704C07C916D937083629153
:101BA000AE17BF07C8F30895052E97FB1EF40094E7
:101BB0000E94EB0D57FD07D00E94060E07FC03D0D4
:101BC0004EF40C94EB0D50954095309521953F4F78
:101BD0004F4F5F4F089590958095709561957F4F19
:101BE0008F4F9F4F08950E94280EA59F900DB49F80
:101BF000900DA49F800D911D11240895B7FF0C94A2
:101C0000F30D0E94F30D821B930B0895A1E21A2E8F
:101C1000AA1BBB1BFD010DC0AA1FBB1FEE1FFF1F90
:101C2000A217B307E407F50720F0A21BB30BE40BE0
:101C3000F50B661F771F881F991F1A9469F7609527
:101C40007095809590959B01AC01BD01CF010895E1
:101C5000A29FB001B39FC001A39F700D811D1124ED
:101C6000911DB29F700D811D1124911D0895EE0FDD
:101C7000FF1F881F8BBF0790F691E02D19940F93DB
:101C80001F93CF93DF938230910510F482E090E0B0
:101C9000E0913B04F0913C0430E020E0B0E0A0E0B3
:101CA000309799F42115310509F44AC0281B390BE6
:101CB00024303105D8F58A819B816115710589F140
:101CC000FB0193838283FE0111C040815181028117
:101CD000138148175907E0F04817590799F41097EE
:101CE00061F012960C93129713961C933296CF01C3
:101CF000DF91CF911F910F91089500933B041093B2
:101D00003C04F4CF2115310551F04217530738F048
:101D1000A901DB019A01BD01DF01F801C1CFEF018B
:101D2000F9CF90933C0480933B04CDCFFE01E20FAA
:101D3000F31F819391932250310939832883D7CFA0
:101D40002091390430913A04232B41F4209126024A
:101D50003091270230933A042093390420912402D1
:101D6000309125022115310541F42DB73EB7409140
:101D7000280250912902241B350BE0913904F0917F
:101D80003A04E217F307A0F42E1B3F0B281739077C
:101D900078F0AC014E5F5F4F2417350748F04E0FC7
:101DA0005F1F50933A0440933904819391939FCFDE
:101DB000F0E0E0E09CCFCF93DF930097E9F0FC01E7
:101DC000329713821282A0913B04B0913C04ED0142
:101DD00030E020E01097A1F420813181820F931F21
:101DE0002091390430913A042817390709F061C06D
:101DF000F0933A04E0933904DF91CF910895EA011A
:101E0000CE17DF07E8F54A815B819E014115510538
:101E1000B1F7E901FB83EA8349915991C40FD51FBA
:101E2000EC17FD0761F4808191810296840F951F64
:101E3000E90199838883828193819B838A83F0E07F
:101E4000E0E012968D919C9113970097B9F52D9132
:101E50003C911197CD010296820F931F2091390476
:101E600030913A042817390739F6309751F5109216
:101E70003C0410923B04B0933A04A0933904BCCFC5
:101E8000D383C28340815181840F951FC817D9071E
:101E900061F44E5F5F4F88819981480F591F5183CC
:101EA00040838A819B81938382832115310509F0C8
:101EB000B0CFF0933C04E0933B049ECFFD01DC01E6
:101EC000C0CF13821282D7CF4F925F926F927F92D0
:101ED0008F929F92AF92BF92CF92DF92EF92FF923A
:101EE0000F931F93CF93DF938C01009799F4CB014D
:101EF000DF91CF911F910F91FF90EF90DF90CF90E6
:101F0000BF90AF909F908F907F906F905F904F9019
:101F10000C943F0EFC01E60FF71F9C012250310983
:101F2000E217F30708F4AEC0D901CD91DC91119707
:101F3000C617D70720F1C530D10578F0CE01049738
:101F40008617970750F0C61BD70B2297C193D193E2
:101F50006D937C93CF010E94DB0EC801DF91CF917E
:101F60001F910F91FF90EF90DF90CF90BF90AF90B7
:101F70009F908F907F906F905F904F9008955B013E
:101F8000AC1ABD0A4C018C0E9D1EA0913B04B09171
:101F90003C04512C412CF12CE12C109731F580910F
:101FA000390490913A048815990509F05CC04616E9
:101FB000570608F058C0809124029091250200979E
:101FC00041F48DB79EB74091280250912902841B9D
:101FD000950BE817F90708F055C0F0933A04E09321
:101FE0003904F90171836083B8CF8D919C91119769
:101FF00012966C90129713967C901397A815B905BA
:1020000059F56C0142E0C40ED11CCA14DB0420F166
:10201000AC014A195B09DA011296159780F06282C9
:10202000738251834083D9016D937C93E114F10451
:1020300071F0D7011396FC93EE9312978ECF2296F0
:102040008C0F9D1FF90191838083F301EFCFF093F3
:102050003C04E0933B0481CF4816590608F42C0158
:102060007D01D3019ACFCB010E943F0E7C010097E6
:1020700049F0AE01B8010E944510C8010E94DB0E74
:1020800087016BCF10E000E068CFFB01DC0102C0EC
:1020900001900D9241505040D8F70895FB01DC01AA
:1020A0008D91019080190110D9F3990B0895FB01CE
:1020B000DC0101900D920020E1F7089511E0C3E4E6
:1020C000D1E000E006C0802FFE010E94370E21966D
:1020D000011DC434D10780E00807A9F7F894FFCFA9
:1020E000040A11111F1B1F1F161718191A1B1C1D7C
:1020F0003132334134353642373839432A3023447C
:102100000100000000003D04800000000000A0026B
:102110000A023702ED02680246025A02000000007D
:102120003F04FF03CE030000000049070A02F20546
:10213000F1050D0A00436F6469676F2E2E2E00476C
:10214000656E65726172206E7565766F00746F6B77
:10215000656E3F20312E536920322E4E6F00313292
:1021600033340061646D696E004269656E76656E38
:1021700069646F00477275706F352D5365636369CD
:102180006F6E4100496E677265736F00436F7272C4
:10219000656374616D656E746500426C6F71756521
:1021A00061646F00496E636F72726563746F0020C3
:1021B0002020202020202020200043616E63656CB9
:0421C00061646F00E7
:020000040003F7
:10E000000D9489F10D94B2F10D94B2F10D94B2F129
:10E010000D94B2F10D94B2F10D94B2F10D94B2F1F0
:10E020000D94B2F10D94B2F10D94B2F10D94B2F1E0
:10E030000D94B2F10D94B2F10D94B2F10D94B2F1D0
:10E040000D94B2F10D94B2F10D94B2F10D94B2F1C0
:10E050000D94B2F10D94B2F10D94B2F10D94B2F1B0
:10E060000D94B2F10D94B2F10D94B2F10D94B2F1A0
:10E070000D94B2F10D94B2F10D94B2F10D94B2F190
:10E080000D94B2F10D94B2F10D94B2F10D94B2F180
:10E090000D94B2F10D94B2F10D94B2F10D94B2F170
:10E0A0000D94B2F10D94B2F10D94B2F10D94B2F160
:10E0B0000D94B2F10D94B2F10D94B2F10D94B2F150
:10E0C0000D94B2F10D94B2F10D94B2F10D94B2F140
:10E0D0000D94B2F10D94B2F10D94B2F10D94B2F130
:10E0E0000D94B2F141546D656761323536300041AF
:10E0F000726475696E6F206578706C6F72657220DE
:10E1000073746B3530305632206279204D4C530099
:10E11000426F6F746C6F616465723E004875683F52
:10E1200000436F6D70696C6564206F6E203D200048
:10E130004350552054797065202020203D20005FF9
:10E140005F4156525F415243485F5F3D2000415658
:10E1500052204C696243205665723D20004743437C
:10E160002056657273696F6E203D20004350552024
:10E1700049442020202020203D20004C6F7720663D
:10E18000757365202020203D20004869676820665F
:10E190007573652020203D200045787420667573D6
:10E1A00065202020203D20004C6F636B2066757336
:10E1B000652020203D20004D617220203720323024
:10E1C000313300312E362E3800342E332E350056A2
:10E1D00023202020414444522020206F7020636F70
:10E1E00064652020202020696E73747275637469E1
:10E1F0006F6E2061646472202020496E74657272B3
:10E20000757074006E6F20766563746F7200726A49
:10E210006D702020006A6D70200057686174207056
:10E220006F72743A00506F7274206E6F7420737541
:10E2300070706F72746564004D7573742062652030
:10E2400061206C6574746572002000577269747483
:10E25000696E672045450052656164696E672045B7
:10E26000450045452065727220636E743D00504F35
:10E27000525400303D5A65726F2061646472003FF1
:10E280003D43505520737461747300403D454550C3
:10E29000524F4D207465737400423D426C696E6B41
:10E2A000204C454400453D44756D70204545505215
:10E2B0004F4D00463D44756D7020464C415348001B
:10E2C000483D48656C70004C3D4C69737420492F83
:10E2D0004F20506F72747300513D51756974005234
:10E2E0003D44756D702052414D00563D73686F7707
:10E2F00020696E7465727275707420566563746FF0
:10E30000727300593D506F727420626C696E6B00BD
:10E310002A0011241FBECFEFD1E2DEBFCDBF01E046
:10E320000CBF12E0A0E0B2E0EEE1FDEF03E00BBFB6
:10E3300002C007900D92A030B107D9F712E0A0E01B
:10E34000B2E001C01D92AE30B107E1F70F9460F367
:10E350000D948DFE01E20EBF0FEF0DBF11241FBE05
:10E360000D9460F30D9400F020E030E040ED57E0B4
:10E3700005C0FA013197F1F72F5F3F4F2817390792
:10E38000C0F308959C01260F311DC901A0E0B0E043
:10E390002F5F3F4FABBFFC018791882361F08093D3
:10E3A000C6008091C00086FFFCCF8091C0008064D1
:10E3B0008093C000EACF08958DE08093C6008091DD
:10E3C000C00086FFFCCF8091C00080648093C000B5
:10E3D0008AE08093C6008091C00086FFFCCF8091C8
:10E3E000C00080648093C00008950F94C2F10F9420
:10E3F000DCF10895FC019081992359F09093C600B7
:10E400008091C00086FFFCCF8091C0008064809323
:10E41000C0003196992379F70895282F982F929567
:10E420009F70892F805D8A3308F0895F8093C600D2
:10E430008091C00086FFFCCF8091C00080648093F3
:10E44000C000822F8F70982F905D9A3308F0995FEB
:10E450009093C6008091C00086FFFCCF8091C000E1
:10E4600080648093C00008959C01FB01853691056E
:10E470001CF46330710594F0C90164E670E00F94F8
:10E480002EFE605D7F4F6093C6008091C00086FFC6
:10E49000FCCF8091C00080648093C0002B30310598
:10E4A00014F43297B4F0C90164E670E00F942EFEC4
:10E4B0006AE070E00F942EFE605D7F4F6093C600AF
:10E4C0008091C00086FFFCCF8091C0008064809363
:10E4D000C000C9016AE070E00F942EFEC0968093E0
:10E4E000C6008091C00086FFFCCF8091C000806490
:10E4F0008093C00008951F93182F8EE692EE60E07F
:10E500000F94C2F11093C6008091C00086FFFCCF2B
:10E510008091C00080648093C0000F94DCF11F9153
:10E5200008952F923F924F925F926F927F928F92B7
:10E530009F92AF92BF92CF92DF92EF92FF920F9392
:10E540001F93DF93CF93CDB7DEB762970FB6F894E2
:10E55000DEBF0FBECDBF382E622ECA01DB015C01CB
:10E560006D01772420E2222E2E010894411C511CBB
:10E570008BC081E0A81680E0B80681E0C80680E084
:10E58000D80628F0C601AA27BB270F940DF2BB2797
:10E59000AD2D9C2D8B2D0F940DF28A2D0F940DF225
:10E5A0002092C6008091C00086FFFCCF8091C00001
:10E5B00080648093C0009DE29093C6008091C0006B
:10E5C00086FFFCCF8091C00080648093C0002092C1
:10E5D000C6008091C00086FFFCCF8091C00080649F
:10E5E0008093C00019828601750188249924A1E0D6
:10E5F0003A1651F03A1620F0B2E03B1661F409C029
:10E600000BBFF701779007C0C7010F9477FE782EF4
:10E6100002C0F7017080872D0F940DF22092C60082
:10E620008091C00086FFFCCF8091C0008064809301
:10E63000C000872D8052F401EF70F0708F3520F408
:10E64000E40DF51D708204C0E40DF51D8EE280839B
:10E650000894E11CF11C011D111D0894811C911CE2
:10E6600090E18916910409F0C2CF80E190E0A0E02A
:10E67000B0E0A80EB91ECA1EDB1E198AC2010F9493
:10E68000FAF10F94DCF16A94662009F072CF629679
:10E690000FB6F894DEBF0FBECDBFCF91DF911F91B3
:10E6A0000F91FF90EF90DF90CF90BF90AF909F9031
:10E6B0008F907F906F905F904F903F902F90089534
:10E6C0002F923F924F925F926F927F928F929F9282
:10E6D000AF92BF92CF92DF92EF92FF920F931F9370
:10E6E000DF93CF93CDB7DEB7CD53D1400FB6F894BB
:10E6F000DEBF0FBECDBF01E20EBF0FEF0DBF94B75F
:10E70000F894A89514BE80916000886180936000A1
:10E7100010926000789493FF05C0E0910002F091A0
:10E7200001021995279A2F9A8091C00082608093E8
:10E73000C00080E18093C40088E18093C1000000A4
:10E74000EE24FF24870144E0A42EB12CCC24DD2448
:10E7500024C0C5010197F1F70894E11CF11C011DCB
:10E76000111D21E2E2162EE4F20620E0020720E06D
:10E77000120718F031E0C32ED12CC801B70127ECE5
:10E780003BE140E050E00F9441FE611571058105C9
:10E79000910519F485B1805885B98091C00087FD35
:10E7A00003C0C114D104A9F2A6014F5F5F4FC25E3E
:10E7B000DE4F59834883CE51D140C25EDE4F8881FF
:10E7C0009981CE51D140019711F00D9410FEC05D9A
:10E7D000DE4F19821882C053D14060E0C15DDE4F28
:10E7E0001882CF52D14088249924C35DDE4F19820C
:10E7F0001882CD52D140C05EDE4F188219821A8233
:10E800001B82C052D140CE5CDE4F188219821A8220
:10E810001B82C253D140EE24FF2487010BBFF701B6
:10E8200007911691C45CDE4F19830883CC53D14005
:10E830000D940BFEC25EDE4F28813981CE51D1404E
:10E840002130310509F52091C600C25EDE4F1982E4
:10E850001882CE51D14022C02F5F3F4F4F4F5F4FA4
:10E86000213082E138078AE7480780E0580780F0C6
:10E87000C45CDE4FE881F981CC53D140EF5FFF4F9C
:10E8800019F0EE27FF27099420E030E040E050E047
:10E890008091C00087FFE0CF2091C600C35DDE4FAE
:10E8A00048815981CD52D1404F5F5F4FC35DDE4FEC
:10E8B00059834883CD52D140213209F063C64A3092
:10E8C000510508F05FC60894811C911C53E0851621
:10E8D000910409F059C600E010E018C081E280936D
:10E8E000C6008091C00086FFFCCF8091C00080648C
:10E8F0008093C0002F5F3F4F2931310579F70F9486
:10E90000DCF10F5F1F4F0530110519F020E030E0FA
:10E91000E5CF10920A0210920B0210920C02109294
:10E920000D02109206021092070210920802109235
:10E930000902109202021092030210920402109235
:10E9400005028FEE90EE60E00F94F5F180E191EE1C
:10E9500060E00F94C2F18091C00087FFFCCF9091DE
:10E96000C600903608F09F759032B8F09093C600BC
:10E970008091C00086FFFCCF8091C00080648093AE
:10E98000C000A0E2A093C6008091C00086FFFCCF2B
:10E990008091C00080648093C000983409F4D7C18E
:10E9A0009934B8F4923409F459C1933458F490333B
:10E9B00019F1903308F4E3C59F33A1F1903409F0C5
:10E9C000DEC5BDC0953409F470C1963409F0D7C5D1
:10E9D00098C1923509F42BC2933538F49C3409F46C
:10E9E000F5C1913509F0CBC518C2963509F445C279
:10E9F000993509F0C4C567C483E792EE62E00F94CD
:10EA0000F5F110920602109207021092080210927D
:10EA1000090210920A0210920B0210920C0210923C
:10EA20000D0213C18FE792EE62E00F94F5F18FEEC5
:10EA300090EE60E00F94F5F181E291EE60E00F94CA
:10EA4000C2F187EB91EE60E00F94F5F180E391EE77
:10EA500060E00F94C2F184EE90EE60E00F94F5F167
:10EA60008FE391EE60E00F94C2F186E090E061E008
:10EA700070E00F9434F20F94DCF18DE591EE60E0DC
:10EA80000F94C2F189EC91EE60E00F94F5F18EE401
:10EA900091EE60E00F94C2F183EC91EE60E00F9490
:10EAA000F5F18CE691EE60E00F94C2F18EE10F94E7
:10EAB0000DF288E90F940DF281E00F940DF20F949E
:10EAC000DCF18BE791EE60E00F94C2F119E0E0E039
:10EAD000F0E010935700E4918E2F0F940DF20F94F5
:10EAE000DCF18AE891EE60E00F94C2F1E3E0F0E03F
:10EAF00010935700E4918E2F0F940DF20F94DCF1D8
:10EB000089E991EE60E00F94C2F1E2E0F0E0109349
:10EB10005700E4918E2F0F940DF20F94DCF188EAE8
:10EB200091EE60E00F94C2F1E1E0F0E01093570045
:10EB30001491812F0F940DF20F94DCF107CF8BE825
:10EB400092EE62E00F94F5F18BE492EE60E00F94A8
:10EB5000F5F10F94DCF100E010E019C0C8016F2D51
:10EB60000F947FFEFF2031F489E492EE60E00F9471
:10EB7000C2F10BC0F092C6008091C00086FFFCCFAE
:10EB80008091C00080648093C0000F5F1F4FC80158
:10EB900081519F41A0E0B0E0ABBFFC01F790BAE229
:10EBA000FB1621F0E2E000301E07C1F60F94DCF105
:10EBB0000F94DCF187E592EE60E00F94F5F10F948D
:10EBC000DCF1CC24DD2400E010E01EC0C8010F946D
:10EBD00077FEF82E882331F489E492EE60E00F94FA
:10EBE000C2F10BC08093C6008091C00086FFFCCFAD
:10EBF0008091C00080648093C000FE1419F00894D6
:10EC0000C11CD11C0F5F1F4FC80181519F41A0E063
:10EC1000B0E0ABBFFC01E790FAE2EF1621F022E092
:10EC20000030120799F60F94DCF10F94DCF182E6C4
:10EC300092EE60E00F94C2F1C60161E070E00F94C3
:10EC400034F20F94DCF10F94DCF110920202109276
:10EC50000302109204021092050278CE89E992EE26
:10EC600062E00F94F5F1279A2F9A16C02F9880E052
:10EC700090E0E0EDF7E03197F1F7019684369105E9
:10EC8000C1F72F9A80E090E0E0EDF7E03197F1F7DF
:10EC9000019684369105C1F78091C00087FFE6CFC9
:10ECA0008091C00087FFFCCF64C485EA92EE62E0E9
:10ECB0000F94F5F140910202509103026091040219
:10ECC0007091050281E020E10F9491F2809102029F
:10ECD00090910302A0910402B091050280509F4FD1
:10ECE000AF4FBF4F8093020290930302A0930402A0
:10ECF000B093050280509041A040B04008F426CE69
:10ED0000A4CF83EB92EE62E00F94F5F140910602FE
:10ED100050910702609108027091090280E020E1A1
:10ED20000F9491F28091060290910702A09108023F
:10ED3000B091090280509F4FAF4FBF4F80930602A2
:10ED400090930702A0930802B0930902FFCD80ECD4
:10ED500092EE62E00F94F5F183E792EE60E00F949B
:10ED6000F5F18FE792EE60E00F94F5F18BE892EE0B
:10ED700060E00F94F5F189E992EE60E00F94F5F10F
:10ED800085EA92EE60E00F94F5F183EB92EE60E09D
:10ED90000F94F5F180EC92EE60E00F94F5F187ECC2
:10EDA00092EE60E00F94F5F188ED92EE60E00F9442
:10EDB000F5F18FED92EE60E00F94F5F18AEE92EEB0
:10EDC00060E00F94F5F183E093EEBDCD87EC92EE19
:10EDD00062E00F94F5F181E40F947BF282E40F94EA
:10EDE0007BF283E40F947BF284E40F947BF285E45E
:10EDF0000F947BF286E40F947BF287E40F947BF20E
:10EE000088E40F947BF28AE40F947BF28BE40F94F6
:10EE10007BF28CE40F947BF299CD88ED92EE62E068
:10EE20000F94F5F1772473948824992409C48FED05
:10EE300092EE62E00F94F5F140910A0250910B02BC
:10EE400060910C0270910D0282E020E10F9491F22A
:10EE500080910A0290910B02A0910C02B0910D02D8
:10EE600080509F4FAF4FBF4F80930A0290930B0289
:10EE7000A0930C02B0930D0269CD8AEE92EE62E08F
:10EE80000F94F5F184EE90EE60E00F94F5F18FECC5
:10EE900091EE60E00F94F5F1662477244301CC5D98
:10EEA000DE4F19821882C452D140D401C301B695F5
:10EEB000A79597958795CA5DDE4F88839983AA8326
:10EEC000BB83C652D140CC5DDE4FA881B981C4520C
:10EED000D1401196CC5DDE4FB983A883C452D14096
:10EEE000CD0162E070E00F9434F2B0E2B093C6005E
:10EEF0008091C00086FFFCCF8091C0008064809329
:10EF0000C000EDE2E093C6008091C00086FFFCCF18
:10EF10008091C00080648093C000F0E2F093C6004E
:10EF20008091C00086FFFCCF8091C00080648093F8
:10EF3000C000CA5DDE4FE880F9800A811B81C6529D
:10EF4000D140BB27A12F902F8F2D0F940DF2CA5DBA
:10EF5000DE4F8881C652D1400F940DF2B0E2FB2EF5
:10EF6000F092C6008091C00086FFFCCF8091C00067
:10EF700080648093C0000DE30093C6008091C000C0
:10EF800086FFFCCF8091C00080648093C00010E2B7
:10EF90001093C6008091C00086FFFCCF8091C00016
:10EFA00080648093C0008BBEF3012791C65DDE4F65
:10EFB0002883CA52D140A22EBB24CC24DD2408943D
:10EFC000611C711C811C911C8BBEF3018791282E42
:10EFD0003324442455240894611C711C811C911C09
:10EFE0008BBEF3013791C55DDE4F3883CB52D140E4
:10EFF0000894611C711C811C911C8BBEF30147910C
:10F00000C45DDE4F4883CC52D140ADEFEA2EAFEF66
:10F01000FA2EAFEF0A2FAFEF1A2F6E0C7F1C801E57
:10F02000911E142D032DF22CEE24EA0CFB1C0C1D5A
:10F030001D1D0F940DF220E22093C6008091C000A8
:10F0400086FFFCCF8091C00080648093C000C65DC5
:10F05000DE4F8881CA52D1400F940DF230E23093D6
:10F06000C6008091C00086FFFCCF8091C000806404
:10F070008093C000C45DDE4F8881CC52D1400F9494
:10F080000DF240E24093C6008091C00086FFFCCFA5
:10F090008091C00080648093C000C55DDE4F888190
:10F0A000CB52D1400F940DF250E25093C6008091A4
:10F0B000C00086FFFCCF8091C00080648093C000B8
:10F0C0008FEFE8168FEFF80680E0080780E018075A
:10F0D00031F484E092EE60E00F94C2F1DFC0D80119
:10F0E000C7018070907CA070B0708050904CA040A0
:10F0F000B040D1F52FEF3FE340E050E0E222F322B1
:10F1000004231523CA5DDE4FA880B980CA80DB8046
:10F11000C652D140AE0CBF1CC01ED11EAA0CBB1CD7
:10F12000CC1CDD1C8EE092EE60E00F94C2F1BB2798
:10F13000A12F902F8F2D0F940DF28E2D0F940DF285
:10F1400030E23093C6008091C00086FFFCCF8091F2
:10F15000C00080648093C0004EE34093C60080915D
:10F16000C00086FFFCCF87C08EE09EEFA0E0B0E03D
:10F17000E822F9220A231B239CE0E91694E9F90608
:10F1800090E0090790E0190709F088C0C45DDE4FE0
:10F19000A881CC52D140EA2EFF2400E010E0102FCD
:10F1A0000F2DFE2CEE24C55DDE4FB881CB52D14031
:10F1B000EB0EF11C011D111DD601C501817090706F
:10F1C000A070B070DC0199278827E80EF91E0A1F8D
:10F1D0001B1F20EF30E040E050E0A222B322C42207
:10F1E000D52241E1AA0CBB1CCC1CDD1C4A95D1F7F1
:10F1F000EA0CFB1C0C1D1D1D81E090E0A0E0B0E0BE
:10F20000282239224A225B2235E1220C331C441C7D
:10F21000551C3A95D1F7E20CF31C041D151D57013E
:10F220006801AA0CBB1CCC1CDD1C85E192EE60E0E1
:10F230000F94C2F1C801AA27BB270F940DF2BB2778
:10F24000A12F902F8F2D0F940DF28E2D0F940DF274
:10F2500090E29093C6008091C00086FFFCCF809121
:10F26000C00080648093C000AEE3A093C60080918C
:10F27000C00086FFFCCF8091C00080648093C000F6
:10F28000C601AA27BB270F940DF2BB27AD2D9C2DDD
:10F290008B2D0F940DF28A2D0F940DF20F94DCF14B
:10F2A000CC5DDE4FE881F981C452D140F99709F471
:10F2B0004DCBF4E0EF2EF12C012D112D6E0C7F1CA7
:10F2C000801E911EF2CD83E093EE62E00F94F5F183
:10F2D0008AE192EE60E00F94C2F18091C00087FF56
:10F2E000FCCF1091C6001F751093C6008091C0001E
:10F2F00086FFFCCF8091C00080648093C0000F9493
:10F30000DCF1812F81548A3108F036C1163409F4BA
:10F3100095C0173490F4133409F44EC0143430F40B
:10F320001134F1F0123409F01DC130C0143409F465
:10F3300059C0153409F016C16BC01A3409F4C4C0A1
:10F340001B3438F4173409F48FC0183409F00AC19B
:10F35000A1C01B3409F4D2C01C3409F003C1E8C0B9
:10F360008FEF81B90DC082B1809582B980E090E0C5
:10F37000E0EDF7E03197F1F70196883C9105C1F790
:10F380008091C00087FFEFCF12B8EFC08FEF84B934
:10F390000DC085B1809585B980E090E0E0EDF7E0A3
:10F3A0003197F1F70196883C9105C1F78091C00033
:10F3B00087FFEFCF15B8D9C08FEF87B90DC088B1DF
:10F3C000809588B980E090E0E0EDF7E03197F1F7C3
:10F3D0000196883C9105C1F78091C00087FFEFCF6F
:10F3E00018B8C3C08FEF8AB90DC08BB180958BB9A7
:10F3F00080E090E0E0EDF7E03197F1F70196883C8E
:10F400009105C1F78091C00087FFEFCF1BB8ADC059
:10F410008FEF8DB90DC08EB180958EB980E090E0F0
:10F42000E0EDF7E03197F1F70196883C9105C1F7DF
:10F430008091C00087FFEFCF1EB897C08FEF80BBD1
:10F440000DC081B3809581BB80E090E0E0EDF7E0F6
:10F450003197F1F70196883C9105C1F78091C00082
:10F4600087FFEFCF11BA81C08FEF83BB0DC084B38C
:10F47000809584BB80E090E0E0EDF7E03197F1F714
:10F480000196883C9105C1F78091C00087FFEFCFBE
:10F4900014BA6BC08FEF809301010FC080910201FD
:10F4A00080958093020180E090E0E0EDF7E03197F5
:10F4B000F1F70196883C9105C1F78091C00087FF64
:10F4C000EDCF1092020151C08FEF809304010FC065
:10F4D0008091050180958093050180E090E0E0ED4A
:10F4E000F7E03197F1F70196883C9105C1F78091DB
:10F4F000C00087FFEDCF1092050137C08FEF8093DA
:10F5000007010FC08091080180958093080180E079
:10F5100090E0E0EDF7E03197F1F70196883C910536
:10F52000C1F78091C00087FFEDCF109208011DC088
:10F530008FEF80930A010FC080910B01809580931B
:10F540000B0180E090E0E0EDF7E03197F1F70196F4
:10F55000883C9105C1F78091C00087FFEDCF1092E4
:10F560000B0103C085E292EEEEC98091C00087FFD7
:10F57000FCCF8091C600EAC988E392EEE4C98CE131
:10F5800091EEE1C988249924933011F1943028F444
:10F59000913089F09230B8F408C0953061F195301F
:10F5A000F0F0963009F048C043C02B3109F042C951
:10F5B00091E06BE13FC96227C15DDE4F2883CF52E6
:10F5C000D14092E037C9B22FA0E0622793E032C960
:10F5D000822F90E0A82BB92B622794E02BC92E3004
:10F5E00009F039C3622795E0C05DDE4F19821882A9
:10F5F000C053D1401FC9E1E0F0E0EC0FFD1FC05D3A
:10F60000DE4F08811981C053D140E00FF11F2083E4
:10F610000F5F1F4FC05DDE4F19830883C053D14079
:10F6200062270A171B0709F005C9D80196E002C92D
:10F63000261709F010C303C0973009F0FBC87724E0
:10F640009981933109F412C19431C8F4963009F4C8
:10F65000D8C0973050F4923009F406C1933009F4C1
:10F660006DC0913009F059C253C0913109F477C08F
:10F67000923108F0BBC0903109F04FC2F5C098310B
:10F6800009F487C0993150F4953109F4EFC09531F0
:10F6900008F4C6C1963109F040C2C2C19A3109F4DA
:10F6A0006CC09A3108F491C09B3109F45BC09D3164
:10F6B00009F033C29D81903359F48F81882311F46E
:10F6C0009EE11CC0813011F091E018C098E916C08D
:10F6D000892F807591F0903539F4E0E0F0E089E011
:10F6E0008093570094910AC0983539F4E3E0F0E034
:10F6F00089E080935700949101C090E01A821B82A8
:10F700008D818C831D829E831F8227E030E009C299
:10F710001A8288E08B8381E48C8386E58D8382E581
:10F720008E8389E48F8383E5888780E589878FE5E9
:10F730008A8782E38B872BE030E0F3C18A818139AD
:10F7400041F0823941F0803911F48FE005C080E04A
:10F7500003C082E001C08AE01A828B8344C0772410
:10F76000739482C08D81882311F48EE12CC0813086
:10F7700011F081E028C088E926C01A82E1E0F0E0BB
:10F7800089E08093570084918B831C8224E030E0D1
:10F79000C8C18B81803589F48C81883039F4E2E0EE
:10F7A000F0E089E08093570084910DC0E0E0F0E044
:10F7B00089E080935700849106C0E3E0F0E089E09F
:10F7C0008093570084911A82DFCF8D81836C99E0FA
:10F7D000E1E0F0E0082E90935700E89507B600FCB2
:10F7E000FDCF1A821B8223E030E09BC180EC8A832C
:10F7F000CE5CDE4F188219821A821B82C253D1401E
:10F800008EC18A8190E0A0E0B0E0582F44273327D2
:10F8100022278B8190E0A0E0B0E0DC0199278827C7
:10F82000282B392B4A2B5B2B8D8190E0A0E0B0E098
:10F83000282B392B4A2B5B2B8C8190E0A0E0B0E089
:10F84000BA2FA92F982F8827282B392B4A2B5B2BCF
:10F85000220F331F441F551FC05EDE4F288339839C
:10F860004A835B83C052D1401A8259C13A81C95C34
:10F87000DE4F3883C753D140CA5CDE4F1882C6536F
:10F88000D1408B81C82EDD24CA5CDE4F488159816E
:10F89000C653D140C42AD52A933109F082C0CE5C28
:10F8A000DE4F88819981AA81BB81C253D1408050AB
:10F8B000904CA340B04030F583E0CE5CDE4FE88052
:10F8C000F9800A811B81C253D140F70100935B008C
:10F8D00080935700E89507B600FCFDCFCE5CDE4F65
:10F8E000088119812A813B81C253D14000501F4FAA
:10F8F0002F4F3F4FCE5CDE4F088319832A833B8313
:10F90000C253D140C05EDE4F488159816A817B81FC
:10F91000C052D140DE011B9631E08C9111962C91A2
:10F9200011971296C75CDE4F2883C953D140C85C3B
:10F93000DE4F1882C853D14090E0C85CDE4FE881AA
:10F94000F981C853D1408E2B9F2B0C01FA01609393
:10F950005B0030935700E89511244E5F5F4F6F4F67
:10F960007F4F0EEFE02E0FEFF02ECE0CDF1CC114F8
:10F97000D10499F685E0C05EDE4F088119812A81A5
:10F980003B81C052D140F80120935B008093570027
:10F99000E89507B600FCFDCF81E180935700E8951C
:10F9A00035C0C05EDE4F88819981AA81BB81C0527B
:10F9B000D140B695A795979587957C018601ABE0D8
:10F9C000AA2EB12CAC0EBD1E0BC0D5016D915D01F0
:10F9D000C7010F947FFE0894E11CF11C01501040F8
:10F9E0000115110591F7A60160E070E0440F551F65
:10F9F000661F771FC05EDE4FE880F9800A811B8199
:10FA0000C052D1404E0D5F1D601F711F1A82C05E33
:10FA1000DE4F488359836A837B83C052D1407FC0C5
:10FA2000FA80C55CDE4FF882CB53D140C65CDE4F16
:10FA30001882CA53D1408B81C82EDD24C65CDE4FAC
:10FA400008811981CA53D140C02AD12A1A828981DA
:10FA5000BE016D5F7F4F843121F59601C05EDE4FA0
:10FA6000E880F9800A811B81C052D1400BBFF701A9
:10FA700087919691DB018C9311969C936E5F7F4FDB
:10FA8000D801C7010296A11DB11DC05EDE4F88835B
:10FA90009983AA83BB83C052D14022503040F1F6F3
:10FAA00036C0C05EDE4F288139814A815B81C052F9
:10FAB000D1400894C108D108760100E010E0089414
:10FAC000C11CD11C0894E11CF11C011D111DE20E8A
:10FAD000F31E041F151F21BDBB27A52F942F832FB5
:10FAE00082BD2F5F3F4F4F4F5F4FF89A80B5DB01CC
:10FAF0008D93BD012E153F054007510761F7C05E8C
:10FB0000DE4F288339834A835B83C052D1409601FC
:10FB10002D5F3F4FFB01108204C080EC8A8322E0FE
:10FB200030E08BE18093C6008091C00086FFFCCF5F
:10FB30008091C00080648093C000C15DDE4FF88179
:10FB4000CF52D140F093C6008091C00086FFFCCF19
:10FB50008091C00080648093C000432F3093C60022
:10FB60008091C00086FFFCCF8091C00080648093AC
:10FB7000C000922F2093C6008091C00086FFFCCF6A
:10FB80008091C00080648093C0008EE08093C600A6
:10FB90008091C00086FFFCCF8091C000806480937C
:10FBA000C00065E1C15DDE4FE880CF52D1406E25D7
:10FBB00069276427FE01319610C090819093C6009A
:10FBC0008091C00086FFFCCF31968091C000806498
:10FBD0008093C0006927215030402115310569F715
:10FBE0006093C6008091C00086FFFCCF8091C0006A
:10FBF00080648093C00085B1805885B9772081F4F6
:10FC0000C15DDE4F0881CF52D1400F5FC15DDE4F35
:10FC10000883CF52D14090E0A0E0B0E00D941AF4F8
:10FC200027982F9880E090E020ED37E0F901319798
:10FC3000F1F7019684369105C9F700008091C00064
:10FC40008D7F8093C00081E180935700E895EE2777
:10FC5000FF270994FFCF90E00D941AF497FB092E2B
:10FC600007260AD077FD04D02ED006D000201AF443
:10FC7000709561957F4F0895F6F7909581959F4F08
:10FC80000895A1E21A2EAA1BBB1BFD010DC0AA1FDD
:10FC9000BB1FEE1FFF1FA217B307E407F50720F0F5
:10FCA000A21BB30BE40BF50B661F771F881F991F70
:10FCB0001A9469F760957095809590959B01AC01B9
:10FCC000BD01CF010895AA1BBB1B51E107C0AA1FAC
:10FCD000BB1FA617B70710F0A61BB70B881F991FED
:10FCE0005A95A9F780959095BC01CD010895F99991
:10FCF000FECF92BD81BDF89A992780B50895262F31
:10FD0000F999FECF1FBA92BD81BD20BD0FB6F89400
:0EFD1000FA9AF99A0FBE01960895F894FFCF63
:00000001FF
