:100000000C9444010C9475010C9475010C947501C9
:100010000C9475010C9475010C9475010C94750188
:100020000C9475010C9475010C9475010C94750178
:100030000C9475010C9475010C9475010C94750168
:100040000C9475010C9475010C9475010C94750158
:100050000C9475010C9475010C9475010C94C206F6
:100060000C9475010C948C060C9462060C9475012A
:100070000C9475010C9475010C9475010C94750128
:100080000C9475010C9475010C9475010C94750118
:100090000C942C060C9402060C9475010C947501BA
:1000A0000C9475010C9475010C9475010C947501F8
:1000B0000C9475010C9475010C9475010C947501E8
:1000C0000C9475010C9475010C9475010C947501D8
:1000D0000C9475010C9475010C9475010C947501C8
:1000E0000C9475010C943E020C948B020C941F032B
:1000F0000C9429030C94D5030C94D9030C94FC02A2
:100100000C94FC010C94DA010C9411030C94EE0194
:100110000C94DA030C9415030C940B030C943B031E
:100120000C94A9030C9404030C949E010C94FF09F5
:100130000C941B030C942D030C940C070C940803D3
:100140000C9436030C9400030C9431050C94CB01F1
:100150000C9423030C9437030C94F6020C94310393
:100160000C94D103000020002300260029002C005D
:100170002F00320000010000030106010901000008
:100180002100240027002A002D0030003300010147
:100190000000040107010A010000220025002800D8
:1001A0002B002E003100340002010000050108017F
:1001B0000B010505050507050808080802020202EB
:1001C0000A0A0808040404040101010101010101F3
:1001D0000303030303030303040707070C0C0C0CBE
:1001E0000C0C0C0C020202020606060606060606A7
:1001F0000B0B0B0B0B0B0B0B010210202008081034
:100200002040102040800201020108040201010286
:10021000040810204080804020100804020180045F
:1002200002018040201008040201080402010102BA
:1002300004081020408001020408102040800000C3
:100240000A0B02090C0D0E08070304010000000050
:10025000000000000000000000000000000000009E
:10026000000000000000000000001211100000005B
:10027000000000000000000000000000000000007E
:10028000000000000C07FF0911241FBECFEFD1E2D0
:10029000DEBFCDBF00E00CBF12E0A0E0B2E0EEE1B7
:1002A000FBE100E00BBF02C007900D92A439B1073B
:1002B000D9F724E0A4E9B2E001C01D92A738B20743
:1002C000E1F711E0C3E4D1E000E006C021970109A5
:1002D000802FFE010E945F0BC234D10780E0080727
:1002E000A9F70E9424080C947D0D0C940000FC01D9
:1002F000A089B18982E08C93A485B5851C92A685DE
:10030000B7858FEC8C93108EA489B58986E08C9389
:10031000A289B3898C9180618C93A289B3898C91D5
:1003200088608C93A289B3898C9180688C930288B1
:10033000F389E02D80818F7D80830895AF92BF92F5
:10034000CF92DF92EF92FF920F931F93CF93DF93A1
:100350006C017B018B01040F151FEB015E01AE18D0
:10036000BF08C017D10759F06991D601ED91FC91F2
:100370000190F081E02DC6011995892B79F7C5010F
:10038000DF91CF911F910F91FF90EF90DF90CF9071
:10039000BF90AF900895FC01538D448D252F30E020
:1003A000842F90E0821B930B541710F0CF96089582
:1003B00001970895FC01918D828D981761F0A28DAF
:1003C000AE0FBF2FB11D5D968C91928D9F5F9F7375
:1003D000928F90E008958FEF9FEF0895FC01918D2B
:1003E000828D981731F0828DE80FF11D858D90E098
:1003F00008958FEF9FEF0895FC01918D228D892F35
:1004000090E0805C9F4F821B91098F73992708951C
:100410008EE992E00E94FC0121E0892B09F420E0A2
:10042000822F08958BE393E00E94FC0121E0892B49
:1004300009F420E0822F0895FC01A48DA80FB92FA4
:10044000B11DA35ABF4F2C91848D90E001968F73FC
:100450009927848FA689B7892C93A089B1898C911B
:10046000837080648C93938D848D981306C002886A
:10047000F389E02D80818F7D80830895EF92FF9234
:100480000F931F93CF93DF93EC0181E0888F9B8DB7
:100490008C8D98131AC0E889F989808185FF15C071
:1004A0009FB7F894EE89FF896083E889F989808194
:1004B0008370806480839FBF81E090E0DF91CF9163
:1004C0001F910F91FF90EF900895F62E0B8D10E085
:1004D0000F5F1F4F0F731127E02E8C8D8E110CC0F4
:1004E0000FB607FCFACFE889F989808185FFF5CF3F
:1004F000CE010E941C02F1CFEB8DEC0FFD2FF11D00
:10050000E35AFF4FF0829FB7F8940B8FEA89FB897B
:1005100080818062CFCFCF93DF93EC01888D8823D9
:10052000B9F0AA89BB89E889F9898C9185FD03C056
:10053000808186FD0DC00FB607FCF7CF8C9185FF3B
:10054000F2CF808185FFEDCFCE010E941C02E9CF62
:10055000DF91CF91089580E090E0892B29F00E94EF
:10056000120281110E94000080E090E0892B29F0A6
:100570000E94080281110E94000080E090E0892B17
:1005800049F080E090E0892B29F00E940000811161
:100590000E94000080E090E0892B49F080E090E02C
:1005A000892B29F00E94000081110C94000008950D
:1005B0008150823108F05AC0E82FF0E08827EC51D2
:1005C000FD4F8F4F0C945F0B04030803F602FC02EF
:1005D000000336030B03110315031B031F0323033F
:1005E00029032D033603310337033B038091800039
:1005F0008F77809380000895809180008F7DF9CF60
:1006000080918000877FF5CF84B58F7784BD089572
:1006100084B58F7DFBCF8091B0008F778093B00041
:1006200008958091B0008F7DF9CF809190008F77F1
:10063000809390000895809190008F7DF9CF8091F4
:100640009000877FF5CF8091A0008F778093A000E6
:1006500008958091A0008F7DF9CF8091A000877FC1
:10066000F5CF809120018F778093200108958091AC
:1006700020018F7DF9CF80912001877FF5CF1F93D7
:10068000CF93DF93282F30E0F901E25CFD4F849196
:10069000F901E850FE4FD491F901EE54FE4FC49198
:1006A000CC23A9F0162F81110E94D802EC2FF0E084
:1006B000EE0FFF1FE856FE4FA591B4918FB7F89447
:1006C000EC91111108C0D095DE23DC938FBFDF9130
:1006D000CF911F910895DE2BF8CFCF93DF9390E059
:1006E000FC01E850FE4F24918E549E4FFC018491F2
:1006F0008823C9F090E0880F991FFC01E258FE4F53
:10070000A591B491FC01E856FE4FC591D4916111B9
:100710000DC09FB7F8948C91209582238C9388818B
:10072000282328839FBFDF91CF910895623051F431
:100730009FB7F8943C91822F809583238C93E88116
:100740002E2BEFCF8FB7F894EC912E2B2C938FBFDD
:10075000EACFCF93DF9370E0FB01E25CFD4F849121
:10076000FB01E850FE4FD4916E547E4FFB01C491C3
:10077000CC23A1F081110E94D802EC2FF0E0EE0F03
:10078000FF1FEC59FE4FA591B491EC91ED2381E050
:1007900090E009F480E0DF91CF91089580E090E04F
:1007A000FACF862F642F0C943F03862F642F0C946E
:1007B0006D03089590E080E00895CF93DF93EC01FE
:1007C00060E08E810E943F0361E08E810E943F03C2
:1007D00060E08E810E943F038BE891E00197F1F782
:1007E000DF91CF910895CF92DF92EF92FF920F9316
:1007F0001F93CF93DF936C017C0187E0E80EF11C1F
:10080000D0E0C0E0062F10E0B8010C2E02C07595B4
:1008100067950A94E2F76170F70181917F010E9468
:100820003F032196C430D10579F7C601DF91CF91FE
:100830001F910F91FF90EF90DF90CF900C94DD030C
:10084000CF92DF92EF92FF920F931F93CF93DF939C
:10085000EC01F62E642F8C810E943F038D818F3F27
:1008600019F060E00E943F030F2D10E08F8584FF98
:1008700025C06E0187E0C80ED11CF12CE12CB80117
:100880000E2C02C0759567950A94E2F76170F60127
:1008900081916F010E943F03FFEFEF1AFF0A88E08A
:1008A000E816F10461F7CE01DF91CF911F910F910E
:1008B000FF90EF90DF90CF900C94DD03B80184E0BF
:1008C000759567958A95E1F7CE010E94F3036F2D28
:1008D000CE01DF91CF911F910F91FF90EF90DF90AC
:1008E000CF900C94F30340E0682F8BE694E00C94D7
:1008F000200481E00E9473048BE39FE10197F1F7EC
:100900000895CF93DF93823029F490917A04986010
:1009100090937A0480937E0410927F0480E4809305
:10092000800480E18093810480E58093820461E00B
:1009300080916F040E946D03809170048F3F19F0C5
:1009400061E00E946D0361E0809171040E946D037B
:10095000CBE6D4E09E012B56344080917A0484FD8E
:100960000BC084E090E021962817390744F461E039
:100970008E810E946D03EECF88E090E0F4CF8BE390
:100980009DE00197F1F760E080916F040E943F03C2
:1009900060E0809171040E943F03809170048F3F5A
:1009A00019F060E00E943F0380917A0484FD34C016
:1009B00063E08BE694E00E94F303CBE4D6E4CE013F
:1009C0000197F1F763E08BE694E00E94F30321972F
:1009D000F1F763E08BE694E00E94F30383E592E095
:1009E0000197F1F762E08BE694E00E94F3038091B7
:1009F0007A0480620E94730484E080937B048CE01C
:100A00000E9473040E94790482E080937C0486E053
:100A1000DF91CF910C94730480620E9473048BE485
:100A200096E40197F1F780917A0480620E94730442
:100A300083E592E00197F1F780917A0480620E9449
:100A40007304D5CF90917E04691710F06FEF690F92
:100A5000E62FF0E0E559FB4F9489890F80680C94EC
:100A6000730441E00E94200481E090E00895FB01BE
:100A700001900020E9F73197AF01461B570BDC01CD
:100A8000ED91FC910280F381E02D19940F931F9357
:100A9000CF93DF93EC01EEEDF3E04481558160816B
:100AA00071810E949E018C0162E572E0CE010E947C
:100AB0003705800F911FDF91CF911F910F910895FE
:100AC000FC0180819181009711F00C94030C089532
:100AD0000F931F93CF93DF93EC0188819981009747
:100AE00059F02A813B812617370730F081E0DF91EA
:100AF000CF911F910F9108958B016F5F7F4F0E94DF
:100B00008C0C009759F0998388831B830A832C816E
:100B10003D81232B59F7FC011082E8CF80E0E7CF1D
:100B2000EF92FF920F931F93CF93DF93EC017B0122
:100B3000198218821B821A821D821C82FB0101907D
:100B40000020E9F731978F01061B170BB8010E94AF
:100B5000680528813981811113C02115310519F0EB
:100B6000C9010E94030C198218821D821C821B82FB
:100B70001A82DF91CF911F910F91FF90EF9008950E
:100B80001D830C83B701C901DF91CF911F910F9194
:100B9000FF90EF900C94760DEF92FF920F931F93BE
:100BA000CF93DF93EC017B01FB0101900020E9F77B
:100BB00031978F01061B170BB8010E946805288129
:100BC0003981811113C02115310519F0C9010E9425
:100BD000030C198218821D821C821B821A82DF91EB
:100BE000CF911F910F91FF90EF9008951D830C837B
:100BF000B701C901DF91CF911F910F91FF90EF9045
:100C00000C94760D1F920F920FB60F9211240BB613
:100C10000F922F933F934F935F936F937F938F9395
:100C20009F93AF93BF93EF93FF938EE992E00E945F
:100C30001C02FF91EF91BF91AF919F918F917F9196
:100C40006F915F914F913F912F910F900BBE0F903D
:100C50000FBE0F901F9018951F920F920FB60F9214
:100C600011240BB60F922F938F939F93EF93FF93C3
:100C7000E091AE02F091AF028081E091B402F09178
:100C8000B50282FD1DC090818091B7028F5F8F7386
:100C90002091B802821741F0E091B702F0E0E256ED
:100CA000FD4F958F8093B702FF91EF919F918F91A8
:100CB0002F910F900BBE0F900FBE0F901F901895A5
:100CC0008081F2CF1F920F920FB60F9211240BB6B4
:100CD0000F922F933F934F935F936F937F938F93D5
:100CE0009F93AF93BF93EF93FF938BE393E00E94A7
:100CF0001C02FF91EF91BF91AF919F918F917F91D6
:100D00006F915F914F913F912F910F900BBE0F907C
:100D10000FBE0F901F9018951F920F920FB60F9253
:100D200011240BB60F922F938F939F93EF93FF9302
:100D3000E0914B03F0914C038081E0915103F091DD
:100D4000520382FD1DC09081809154038F5F8F7389
:100D500020915503821741F0E0915403F0E0E55CE7
:100D6000FC4F958F80935403FF91EF919F918F914A
:100D70002F910F900BBE0F900FBE0F901F901895E4
:100D80008081F2CF1F920F920FB60F9211242F93F2
:100D90003F938F939F93AF93BF93809199029091CC
:100DA0009A02A0919B02B0919C023091980223E09C
:100DB000230F2D3758F50196A11DB11D20939802E0
:100DC0008093990290939A02A0939B02B0939C0205
:100DD0008091940290919502A0919602B091970211
:100DE0000196A11DB11D8093940290939502A0934A
:100DF0009602B0939702BF91AF919F918F913F91CF
:100E00002F910F900FBE0F901F90189526E8230F7B
:100E10000296A11DB11DD2CF1092A1021092A00284
:100E200048EE53E060E070E04093A2025093A302CA
:100E30006093A4027093A5028EE292E090939F02C9
:100E400080939E022DEC30E03093AB022093AA02F7
:100E50002CEC30E03093AD022093AC0228EC30E073
:100E60003093AF022093AE0229EC30E03093B10210
:100E70002093B0022AEC30E03093B3022093B20208
:100E80002EEC30E03093B5022093B4021092B702FA
:100E90001092B8021092B9021092BA0210923E0358
:100EA00010923D0340933F035093400360934103EE
:100EB0007093420390933C0380933B0385EC90E056
:100EC000909348038093470384EC90E090934A0307
:100ED0008093490380EC90E090934C0380934B0304
:100EE00081EC90E090934E0380934D0382EC90E070
:100EF0009093500380934F0386EC90E090935203BD
:100F0000809351031092540310925503109256038C
:100F10001092570310926E0410926D048AE492E0CE
:100F200090936C0480936B0487E080936F048FEF41
:100F30008093700486E08093710485E0809372044E
:100F400084E08093730483E08093740482E0809350
:100F5000750410927604109277041092780410921F
:100F6000790410927A0481E00E94810465E572E0C0
:100F700085E694E00E9490056AE572E08FE594E0D2
:100F80000E9490051092F2031092F6031092F5035E
:100F90001092F70380E492E09093F1038093F003C2
:100FA000ECE0F4E01082148213821582369684E01D
:100FB000E834F807B9F78CE092E0909353048093FB
:100FC000520488E092E0909355048093540484E0A6
:100FD000809356048093570480E192E090935104EB
:100FE000809350048AE090E09093590480935804D1
:100FF00084EF91E090935B0480935A0410925E0416
:1010000010925D0410924C0410924D0410924E0404
:1010100010924F0410925C0464E572E08AEE93E053
:101020000E94900564E572E084EE93E00E949005D2
:1010300064E572E08EED93E00E94900564E572E055
:1010400088ED93E00C949005CF93DF93CDB7DEB796
:10105000A8970FB6F894DEBF0FBECDBF789484B5C5
:10106000826084BD84B5816084BD85B5826085BDA4
:1010700085B5816085BD80916E00816080936E0032
:101080001092810080918100826080938100809124
:1010900081008160809381008091800081608093D5
:1010A00080008091B10084608093B1008091B00095
:1010B00081608093B0008091910082608093910064
:1010C0008091910081608093910080919000816077
:1010D000809390008091A10082608093A100809114
:1010E000A10081608093A1008091A0008160809325
:1010F000A0008091210182608093210180912101D3
:101100008160809321018091200181608093200182
:1011100080917A00846080937A0080917A00826066
:1011200080937A0080917A00816080937A00809128
:101130007A00806880937A001092C10082E00E9459
:10114000810480E40E94730400E012E0F8016191E0
:101150008F018BE694E00E943105F2E008301F0712
:10116000A9F70E94790482E00E9473048BE39FE157
:101170000197F1F760E082E00E94220560E08BE6D3
:1011800094E00E94310560E083E00E94220560E661
:1011900072E08BE694E00E94370560E08DE00E94EB
:1011A000220560E08BE694E00E94310561E081E079
:1011B0000E9422056BE672E08BE694E00E94370500
:1011C0008BE393E00E9477018EE992E00E94770121
:1011D00064E572E08EED93E00E94CC0564E572E078
:1011E00088ED93E00E94CC0580917B00877F8093FF
:1011F0007B0080E480937C0080917A0080648093FF
:101200007A0080917A0086FDFCCF80917800609111
:101210007900762F682F072E000C880B990B61152B
:1012200071058105910511F00E94B20A61E08DE01F
:101230000E946D0361E08AE00E946D0339E0432E55
:10124000512C612C712C43E0842E912CA12CB12CBB
:101250008BE393E00E94FC01181619060CF0C8C03D
:101260008BE393E00E94DA0180939D02813481F444
:1012700061E08AE00E943F036BE772E08BE393E05A
:101280000E94370562E572E08BE393E00E94370528
:1012900080919D02823481F460E08AE00E943F03E5
:1012A00064E872E08BE393E00E94370562E572E048
:1012B0008BE393E00E94370580919D02883609F008
:1012C00097C00E94790424E0E22EF12C0E94630A68
:1012D0001CA21BA21EA21DA218A61FA2A30192015E
:1012E0000E94FC0A2AE0AE014F5F5F4F0E94BB0ADA
:1012F000BE016F5F7F4FCE0183960E94CC05CBA0CD
:10130000DCA0C114D10419F10FA118A50115110514
:10131000F1F08091E2039091E303080F191FB801E7
:101320008EED93E00E946805882389F02091DE030A
:101330003091DF038091E2039091E303B601820FC5
:10134000931F0E94760D1093E3030093E203CE01F6
:1013500083960E94600581E0E81AF10809F0B6CF93
:1013600092E0E92EF12C0E94630AA50194010E94EB
:10137000FC0A6F5B7F4F8F4F9F4F69831A820091EA
:10138000E2031091E3030F5F1F4FB8018EED93E06E
:101390000E946805882399F02091DE033091DF03D5
:1013A0008091E2039091E303BE016F5F7F4F820F54
:1013B000931F0E94760D1093E3030093E203EA94D7
:1013C000EF28C9F48BE393E00E9446058EE992E092
:1013D0000E94460560E080E00E9422056AE872E013
:1013E0008BE694E00E94370561E080E00E942205D0
:1013F0000E94AB022DCFEE24E394F12CB4CF88ED04
:1014000093E00E9460058EED93E00E94600584EEFB
:1014100093E00E9460058AEE93E00E9460058FE5EC
:1014200094E00E94600585E694E00C9460058F923C
:101430009F92AF92BF92CF92DF92EF92FF92CF93A3
:10144000DF93EC01688179818A819B816115710547
:101450008105910521F464E279ED8BE597E02DE1BA
:1014600033EF41E050E00E94FC0A49015A019B0120
:10147000AC01A7EAB1E40E941B0B6B017C01ACEE4E
:10148000B4EFA50194010E94290BC60ED71EE81ED9
:10149000F91EF7FE06C081E0C81AD108E10880E80D
:1014A000F80AC882D982EA82FB82C701B6019F7717
:1014B000DF91CF91FF90EF90DF90CF90BF90AF90F2
:1014C0009F908F9008958F929F92AF92BF92CF92EC
:1014D000DF92EF92FF926091200270912102809141
:1014E000220290912302611571058105910521F475
:1014F00064E279ED8BE597E02DE133EF41E050E0D8
:101500000E94FC0A49015A019B01AC01A7EAB1E41F
:101510000E941B0B6B017C01ACEEB4EFA5019401A2
:101520000E94290BC60ED71EE81EF91EF7FE06C044
:1015300081E0C81AD108E10880E8F80AC0922002C8
:10154000D0922102E0922202F0922302C701B6015A
:101550009F77FF90EF90DF90CF90BF90AF909F90DC
:101560008F9008956093200270932102809322024D
:10157000909323020895BB272A3051F4992342F413
:10158000BDE290958095709561957F4F8F4F9F4FED
:101590000C94CB0ABB27FA01A62F621771058105AF
:1015A0009105330B30FB66F0AA27660F771F881F63
:1015B000991FAA1FA21710F0A21B63953850A9F714
:1015C000A05DAA3308F0A95DA19336F7B111B193DC
:1015D0001082CA010C94EC0ADC01FC01672F7191A6
:1015E0007723E1F7329704C07C916D937083629109
:1015F000AE17BF07C8F30895052E97FB1EF400949D
:101600000E94130B57FD07D00E942E0B07FC03D03E
:101610004EF40C94130B50954095309521953F4F07
:101620004F4F5F4F089590958095709561957F4FCE
:101630008F4F9F4F08950E94500BA59F900DB49F10
:10164000900DA49F800D911D11240895B7FF0C9457
:101650001B0B0E941B0B821B930B0895A1E21A2EF9
:10166000AA1BBB1BFD010DC0AA1FBB1FEE1FFF1F46
:10167000A217B307E407F50720F0A21BB30BE40B96
:10168000F50B661F771F881F991F1A9469F76095DD
:101690007095809590959B01AC01BD01CF01089597
:1016A000A29FB001B39FC001A39F700D811D1124A3
:1016B000911DB29F700D811D1124911D0895EE0F93
:1016C000FF1F881F8BBF0790F691E02D19940F9391
:1016D0001F93CF93DF938230910510F482E090E066
:1016E000E0918504F091860430E020E0B0E0A0E0D5
:1016F000309799F42115310509F44AC0281B390B9C
:1017000024303105D8F58A819B816115710589F1F5
:10171000FB0193838283FE0111C0408151810281CC
:10172000138148175907E0F04817590799F41097A3
:1017300061F012960C93129713961C933296CF0178
:10174000DF91CF911F910F9108950093850410931D
:101750008604F4CF2115310551F04217530738F0B4
:10176000A901DB019A01BD01DF01F801C1CFEF0141
:10177000F9CF9093860480938504CDCFFE01E20FCC
:10178000F31F819391932250310939832883D7CF56
:101790002091830430918404232B41F4209126026C
:1017A00030912702309384042093830420912402F3
:1017B000309125022115310541F42DB73EB74091F6
:1017C000280250912902241B350BE0918304F091EB
:1017D0008404E217F307A0F42E1B3F0B28173907E8
:1017E00078F0AC014E5F5F4F2417350748F04E0F7D
:1017F0005F1F5093840440938304819391939FCF00
:10180000F0E0E0E09CCFCF93DF930097E9F0FC019C
:10181000329713821282A0918504B0918604ED0163
:1018200030E020E01097A1F420813181820F931FD6
:1018300020918304309184042817390709F061C08E
:10184000F0938404E0938304DF91CF910895EA013B
:10185000CE17DF07E8F54A815B819E0141155105EE
:10186000B1F7E901FB83EA8349915991C40FD51F70
:10187000EC17FD0761F4808191810296840F951F1A
:10188000E90199838883828193819B838A83F0E035
:10189000E0E012968D919C9113970097B9F52D91E8
:1018A0003C911197CD010296820F931F20918304E2
:1018B000309184042817390739F6309751F5109282
:1018C000860410928504B0938404A0938304BCCF53
:1018D000D383C28340815181840F951FC817D907D4
:1018E00061F44E5F5F4F88819981480F591F518382
:1018F00040838A819B81938382832115310509F07E
:10190000B0CFF0938604E09385049ECFFD01DC0107
:10191000C0CF13821282D7CF4F925F926F927F9285
:101920008F929F92AF92BF92CF92DF92EF92FF92EF
:101930000F931F93CF93DF938C01009799F4CB0102
:10194000DF91CF911F910F91FF90EF90DF90CF909B
:10195000BF90AF909F908F907F906F905F904F90CF
:101960000C94670BFC01E60FF71F9C012250310914
:10197000E217F30708F4AEC0D901CD91DC911197BD
:10198000C617D70720F1C530D10578F0CE010497EE
:101990008617970750F0C61BD70B2297C193D19398
:1019A0006D937C93CF010E94030CC801DF91CF910E
:1019B0001F910F91FF90EF90DF90CF90BF90AF906D
:1019C0009F908F907F906F905F904F9008955B01F4
:1019D000AC1ABD0A4C018C0E9D1EA0918504B091DD
:1019E0008604512C412CF12CE12C109731F580917B
:1019F0008304909184048815990509F05CC046160B
:101A0000570608F058C08091240290912502009753
:101A100041F48DB79EB74091280250912902841B52
:101A2000950BE817F90708F055C0F0938404E0938C
:101A30008304F90171836083B8CF8D919C911197D4
:101A400012966C90129713967C901397A815B9056F
:101A500059F56C0142E0C40ED11CCA14DB0420F11C
:101A6000AC014A195B09DA011296159780F062827F
:101A7000738251834083D9016D937C93E114F10407
:101A800071F0D7011396FC93EE9312978ECF2296A6
:101A90008C0F9D1FF90191838083F301EFCFF093A9
:101AA0008604E093850481CF4816590608F42C017A
:101AB0007D01D3019ACFCB010E94670B7C01009777
:101AC00049F0AE01B8010E946D0DC8010E94030CDF
:101AD00087016BCF10E000E068CFFB01DC0102C0A2
:101AE00001900D9241505040D8F70895FB01DC0160
:101AF00001900D920020E1F7089511E0C3E4D1E0D8
:101B000000E006C0802FFE010E945F0B2196011DA0
:0E1B1000C434D10780E00807A9F7F894FFCF8E
:101B1E00040A11111F1B1F1F161718191A1B1C1D43
:101B2E003132334134353642373839432A30234443
:101B3E0001000000000087048000000000003E024B
:101B4E009E01CB018B02FC01DA01EE0100000000C8
:101B5E00D503D103A9030000000031059E01DA036D
:101B6E00D9030D0A00313233340061646D696E00A1
:101B7E004269656E76656E69646F00477275706F47
:101B8E00352D53656363696F6E4100456E636965FC
:101B9E006E646F00417061676F00436F6469676FB9
:041BAE002E2E2E00A9
:00000001FF
