:020000040000FA
:100000000C9444010C9475010C9475010C947501C9
:100010000C9475010C9475010C9475010C94750188
:100020000C9475010C9475010C9475010C94750178
:100030000C9475010C9475010C9475010C94750168
:100040000C9475010C9475010C9475010C94750158
:100050000C9475010C9475010C9475010C94CB10E3
:100060000C9475010C9495100C946B100C94750104
:100070000C9475010C9475010C9475010C94750128
:100080000C9475010C9475010C9475010C94750118
:100090000C9435100C940B100C9475010C94750194
:1000A0000C9475010C9475010C9475010C947501F8
:1000B0000C9475010C9475010C9475010C947501E8
:1000C0000C9475010C9475010C9475010C947501D8
:1000D0000C9475010C9475010C9475010C947501C8
:1000E0000C9475010C949D020C943F020C946C02CC
:1000F0000C9497030C947A040C94B6030C94B203FA
:100100000C947B020C945E1C0C942C030C94A9039D
:100110000C943A040C94010D0C94F0040C94CA0352
:100120000C94D8030C9415110C94BC030C94A503E7
:100130000C94CE030C94DC030C94DF020C940904A1
:100140000C94C0030C94D7030C94AC030C94A1033F
:100150000C94D2030C94C4030C948F020C949D0352
:100160000C94F10400002100240027002A002D0037
:100170003000330001010000040107010A01000002
:100180002200250028002B002E003100340002013F
:100190000000050108010B010000200023002600DB
:1001A00029002C002F00320000010000030106018D
:1001B00009010505050507050808080802020202ED
:1001C0000A0A0808040404040101010101010101F3
:1001D0000303030303030303040707070C0C0C0CBE
:1001E0000C0C0C0C020202020606060606060606A7
:1001F0000B0B0B0B0B0B0B0B010210202008081034
:100200002040102040800201020108040201010286
:10021000040810204080804020100804020180045F
:1002200002018040201008040201080402010102BA
:1002300004081020408001020408102040800000C3
:100240000A0B02090C0D0E08070304010000000050
:10025000000000000000000000000000000000009E
:10026000000000000000000000001211100000005B
:10027000000000000000000000000000000000007E
:100280000000000015115E1C11241FBECFEFD1E24B
:10029000DEBFCDBF00E00CBF13E0A0E0B2E0E0E3C2
:1002A000F1E400E00BBF02C007900D92A03FB10740
:1002B000D9F726E0A0EFB3E001C01D92A738B2073E
:1002C000E1F711E0C3E4D1E000E006C021970109A5
:1002D000802FFE010E945F1EC234D10780E0080714
:1002E000A9F70E94A0120C9486200C940000FC0137
:1002F000A089B18982E08C93A485B5851C92A685DE
:10030000B7858FEC8C93108EA489B58986E08C9389
:10031000A289B3898C9180618C93A289B3898C91D5
:1003200088608C93A289B3898C9180688C930288B1
:10033000F389E02D80818F7D8083089596E0899FE9
:10034000D0011124A856BA4F90967C936E935F9774
:1003500091E091969C939197E0910506F0910606A5
:1003600090910406992339F0309751F0811108C01B
:100370008091B4051994309719F05C968C91FACF5E
:100380000895CF92DF92EF92FF920F931F9396E022
:10039000899FF0011124E856FA4F11A2278D30A150
:1003A0002130310551F178F02230310509F451C086
:1003B0002330310509F452C01F910F91FF90EF9047
:1003C000DF90CF9008956623B9F361E070E00E945A
:1003D0009E012FB7F8948091420490914304A0911C
:1003E0004404B09145042FBF8093F0059093F1052C
:1003F000A093F205B093F305DFCF9FB7F894C090B8
:100400004204D0904304E0904404F09045049FBF20
:100410000091F0051091F1052091F2053091F3055E
:10042000C01AD10AE20AF30A0091020610910306EB
:1004300030E020E00C151D052E053F0550F462E06C
:1004400070E01F910F91FF90EF90DF90CF900C9490
:100450009E016111B1CF63E070E0F3CF70E060E026
:10046000F0CFDB0114964D915C9115976D917C91C5
:10047000DC01ED91FC910280F381E02D1994AF92A3
:10048000BF92CF92DF92EF92FF920F931F93CF9381
:10049000DF936C017B018B01040F151FEB015E01E3
:1004A000AE18BF08C017D10759F06991D601ED9178
:1004B000FC910190F081E02DC6011995892B79F707
:1004C000C501DF91CF911F910F91FF90EF90DF90C9
:1004D000CF90BF90AF900895FC01538D448D252F90
:1004E00030E0842F90E0821B930B541710F0CF96CE
:1004F000089501970895FC01918D828D981761F000
:10050000A28DAE0FBF2FB11D5D968C91928D9F5F16
:100510009F73928F90E008958FEF9FEF0895FC01F5
:10052000918D828D981731F0828DE80FF11D858DA8
:1005300090E008958FEF9FEF0895FC01918D228D3B
:10054000892F90E0805C9F4F821B91098F739927C0
:10055000089586E494E00E949D0221E0892B09F42D
:1005600020E0822F089583EE94E00E949D0221E016
:10057000892B09F420E0822F0895FC01A48DA80F97
:10058000B92FB11DA35ABF4F2C91848D90E00196D5
:100590008F739927848FA689B7892C93A089B189F5
:1005A0008C91837080648C93938D848D981306C096
:1005B0000288F389E02D80818F7D80830895EF92FA
:1005C000FF920F931F93CF93DF93EC0181E0888F0D
:1005D0009B8D8C8D98131AC0E889F989808185FFDD
:1005E00015C09FB7F894EE89FF896083E889F9897F
:1005F00080818370806480839FBF81E090E0DF9181
:10060000CF911F910F91FF90EF900895F62E0B8DD3
:1006100010E00F5F1F4F0F731127E02E8C8D8E118E
:100620000CC00FB607FCFACFE889F989808185FFF5
:10063000F5CFCE010E94BD02F1CFEB8DEC0FFD2F67
:10064000F11DE35AFF4FF0829FB7F8940B8FEA89B0
:10065000FB8980818062CFCFCF93DF93EC01888DBF
:100660008823B9F0AA89BB89E889F9898C9185FD2D
:1006700003C0808186FD0DC00FB607FCF7CF8C91BB
:1006800085FFF2CF808185FFEDCFCE010E94BD02B4
:10069000E9CFDF91CF91089580E090E0892B29F098
:1006A0000E94B30281110E94000080E090E0892B3B
:1006B00029F00E94A90281110E94000080E090E0D0
:1006C000892B49F080E090E0892B29F00E940000FE
:1006D00081110E94000080E090E0892B49F080E0C9
:1006E00090E0892B29F00E94000081110C940000F9
:1006F00008958150823108F05AC0E82FF0E0882731
:10070000EB57FC4F8F4F0C945F1EA503A903970373
:100710009D03A103D703AC03B203B603BC03C0031C
:10072000C403CA03CE03D703D203D803DC038091EA
:1007300080008F77809380000895809180008F7D66
:10074000F9CF80918000877FF5CF84B58F7784BD06
:10075000089584B58F7DFBCF8091B0008F77809313
:10076000B00008958091B0008F7DF9CF8091900006
:100770008F77809390000895809190008F7DF9CFBE
:1007800080919000877FF5CF8091A0008F77809334
:10079000A00008958091A0008F7DF9CF8091A000E6
:1007A000877FF5CF809120018F7780932001089576
:1007B000809120018F7DF9CF80912001877FF5CF37
:1007C000CF93DF93282F30E0F901E25CFD4F849155
:1007D000F901E850FE4FD491F901EE54FE4FC49157
:1007E000CC23A1F081110E947903EC2FF0E0EE0FF1
:1007F000FF1FE856FE4FA591B491EC91ED2381E0E7
:1008000090E009F480E0DF91CF91089580E090E0DE
:10081000FACF862F0C94E0031F93CF93DF93282FFA
:1008200030E0F901E25CFD4F8491F901E850FE4FA0
:10083000D491F901EE54FE4FC491CC23A9F0162FA8
:1008400081110E947903EC2FF0E0EE0FFF1FE258B8
:10085000FE4FA591B4918FB7F894EC91111108C097
:10086000D095DE23DC938FBFDF91CF911F91089548
:10087000DE2BF8CF862F642F0C940C04CF93DF93DC
:1008800090E0FC01E850FE4F24918E549E4FFC01F5
:1008900084918823C9F090E0880F991FFC01EC59DE
:1008A000FE4FA591B491FC01E258FE4FC591D49141
:1008B00061110DC09FB7F8948C91209582238C9381
:1008C0008881282328839FBFDF91CF9108956230CC
:1008D00051F49FB7F8943C91822F809583238C9399
:1008E000E8812E2BEFCF8FB7F894EC912E2B2C9321
:1008F0008FBFEACF862F642F0C943E04865320913D
:100900007B00982F987F277F922B90937B00877096
:10091000806480937C0080917A00806480937A0068
:1009200080917A0086FDFCCF8091780090917900CB
:1009300008953FB7F8948091320490913304A091C8
:100940003404B091350426B5A89B05C02F3F19F09B
:100950000196A11DB11D3FBFBA2FA92F982F88273F
:10096000BC01CD01620F711D811D911D42E0660F1A
:10097000771F881F991F4A95D1F708958F929F92EC
:10098000AF92BF92CF92DF92EF92FF924B015C0148
:100990000E9499046B017C010E9499046C197D09E5
:1009A0008E099F09683E734081059105A8F321E0F7
:1009B000821A9108A108B10888EEC80E83E0D81EFB
:1009C000E11CF11C81149104A104B10429F7FF90EA
:1009D000EF90DF90CF90BF90AF909F908F90089551
:1009E000089590E080E00895CF93DF9360E08FE179
:1009F0000E940C0460E080E20E940C0460E081E24E
:100A00000E940C0461E082E20E940C0464EF71E039
:100A100080E090E00E94BE04C0912F04D091300489
:100A200060E08FE10E940C0460E080E20E940C0410
:100A300061E081E20E940C0460E082E20E940C040A
:100A400064EF71E080E090E00E94BE0460E08FE11E
:100A50000E940C0461E080E20E940C0460E081E2EC
:100A60000E940C0460E082E20E940C0464EF71E0DA
:100A700080E090E00E94BE0461E08FE10E940C04DF
:100A800060E080E20E940C0460E081E20E940C04BD
:100A900060E082E20E940C0464EF71E080E090E08C
:100AA0000E94BE042496D0933004C0932F04649710
:100AB00051F481E090E090933904809338041092CF
:100AC000300410922F04DF91CF9108950F931F935C
:100AD000CF93DF93CAE2D2E002E010E068818AE0BF
:100AE0000E940C046A818BE00E940C046C818CE0F3
:100AF0000E940C046E818DE00E940C0464EF71E092
:100B000080E090E00E94BE0480912D0490912E041C
:100B1000019690932E0480932D04449741F41093F2
:100B200039040093380410922E0410922D04289654
:100B300082E0CA34D80791F6DF91CF911F910F91CF
:100B400008954F925F926F927F928F929F92AF9291
:100B5000BF92CF92DF92EF92FF920F931F93CF93AA
:100B6000DF93CDB7DEB7C457D1090FB6F894DEBF17
:100B70000FBECDBF86E30E947E04BC01990F880B97
:100B8000990B0E94871D2B013C0140922904509231
:100B90002A0460922B0470922C0487E30E947E0446
:100BA000BC01990F880B990B0E94871D4B015C01BA
:100BB0008092250490922604A0922704B0922804E3
:100BC00088E30E947E04BC01990F880B990B0E9458
:100BD000871D6B017C01C0922104D0922204E09217
:100BE0002304F092240489E30E947E04BC01990F3F
:100BF000880B990B0E94871D25966CAF7DAF8EAF39
:100C00009FAF259760931D0470931E0480931F046B
:100C1000909320048AE30E947E04BC01990F880B04
:100C2000990B0E94871D29966CAF7DAF8EAF9FAF49
:100C300029976093190470931A0480931B0490936E
:100C40001C048BE30E947E04BC01990F880B990B56
:100C50000E94871D2D966CAF7DAF8EAF9FAF2D97F5
:100C600060931504709316048093170490931804EE
:100C70008CE30E947E04BC01990F880B990B0E94A3
:100C8000871D61966CAF7DAF8EAF9FAF619760930C
:100C900011047093120480931304909314048DE351
:100CA0000E947E04BC01990F880B990B0E94871D3E
:100CB00065966CAF7DAF8EAF9FAF659760930D0467
:100CC00070930E0480930F04909310048EE30E949F
:100CD0007E04BC01990F880B990B0E94871D6996B1
:100CE0006CAF7DAF8EAF9FAF69976093090470932F
:100CF0000A0480930B0490930C048FE30E947E04FB
:100D0000BC01990F880B990B0E94871D6D966CAFE3
:100D10007DAF8EAF9FAF6D9760930504709306040F
:100D2000809307049093080480E40E947E04BC0131
:100D3000990F880B990B0E94871DA1966CAF7DAF10
:100D40008EAF9FAFA19760930104709302048093CC
:100D500003049093040481E40E947E04BC01990F73
:100D6000880B990B0E94871DA5966CAF7DAF8EAF47
:100D70009FAFA5976093FD037093FE038093FF03DD
:100D80009093000482E40E947E04BC01990F880BBA
:100D9000990B0E94871DA9966CAF7DAF8EAF9FAF58
:100DA000A9976093F9037093FA038093FB039093E0
:100DB000FC0383E40E947E04BC01990F880B990B0D
:100DC0000E94871DAD966CAF7DAF8EAF9FAFAD9784
:100DD0006093F5037093F6038093F7039093F80301
:100DE00084E40E947E04BC01990F880B990B0E9439
:100DF000871DE1966CAF7DAF8EAF9FAFE19760939B
:100E0000F1037093F2038093F3039093F40385E46A
:100E10000E947E04BC01990F880B990B0E94871DCC
:100E2000E5966CAF7DAF8EAF9FAFE59720E030E0E9
:100E300046E154E4C301B2010E94801D87FF71C3E3
:100E400081E090E09A83898320E030E046E154E439
:100E5000C501B4010E94801D87FF66C381E090E058
:100E60009C838B8320E030E046E154E4C701B60167
:100E70000E94801D87FF5BC381E090E09E838D838D
:100E800020E030E046E154E425966CAD7DAD8EADBA
:100E90009FAD25970E94801D87FF4CC381E090E0A5
:100EA00098878F8320E030E046E154E429966CADCA
:100EB0007DAD8EAD9FAD29970E94801D87FF3DC3FC
:100EC00081E090E09A87898720E030E046E154E4B1
:100ED0002D966CAD7DAD8EAD9FAD2D970E94801D82
:100EE00087FF2EC381E090E09C878B8720E030E075
:100EF00046E154E461966CAD7DAD8EAD9FAD6197DA
:100F00000E94801D87FF1FC381E090E09E878D8730
:100F100020E030E046E154E465966CAD7DAD8EADE9
:100F20009FAD65970E94801D87FF10C381E090E010
:100F3000988B8F8720E030E046E154E469966CADF1
:100F40007DAD8EAD9FAD69970E94801D87FF01C367
:100F500081E090E09A8B898B20E030E046E154E418
:100F60006D966CAD7DAD8EAD9FAD6D970E94801D71
:100F700087FFF2C281E090E09C8B8B8B20E030E019
:100F800046E154E4A1966CAD7DAD8EAD9FADA197C9
:100F90000E94801D87FFE3C281E090E09E8B8D8BD5
:100FA00020E030E046E154E4A5966CAD7DAD8EAD19
:100FB0009FADA5970E94801D87FFD4C281E090E07D
:100FC000988F8F8B20E030E046E154E4A9966CAD19
:100FD0007DAD8EAD9FADA9970E94801D87FFC5C2D4
:100FE00081E090E09A8F898F20E030E046E154E480
:100FF000AD966CAD7DAD8EAD9FADAD970E94801D61
:1010000087FFB6C281E090E09C8F8B8F20E030E0BC
:1010100046E154E4E1966CAD7DAD8EAD9FADE197B8
:101020000E94801D87FFA7C281E090E09E8F8D8F78
:1010300020E030E046E154E4E5966CAD7DAD8EAD48
:101040009FADE5970E94801D87FF98C281E090E0E8
:1010500098A38F8F01E010E086E30E947E04BC011C
:10106000990F880B990B0E94871D4B015C018092A0
:10107000290490922A04A0922B04B0922C0487E3B6
:101080000E947E04BC01990F880B990B0E94871D5A
:101090006B017C01C0922504D0922604E0922704C3
:1010A000F092280488E30E947E04BC01990F880B0B
:1010B000990B0E94871D25966CAF7DAF8EAF9FAFB9
:1010C00025976093210470932204809323049093C6
:1010D000240489E30E947E04BC01990F880B990BBC
:1010E0000E94871D29966CAF7DAF8EAF9FAF299769
:1010F00060931D0470931E0480931F04909320043A
:101100008AE30E947E04BC01990F880B990B0E9410
:10111000871D2D966CAF7DAF8EAF9FAF2D976093DF
:10112000190470931A0480931B0490931C048BE39E
:101130000E947E04BC01990F880B990B0E94871DA9
:1011400061966CAF7DAF8EAF9FAF619760931504D2
:101150007093160480931704909318048CE30E94F4
:101160007E04BC01990F880B990B0E94871D659620
:101170006CAF7DAF8EAF9FAF659760931104709396
:10118000120480931304909314048DE30E947E0450
:10119000BC01990F880B990B0E94871D69966CAF53
:1011A0007DAF8EAF9FAF699760930D0470930E046F
:1011B00080930F04909310048EE30E947E04BC0180
:1011C000990F880B990B0E94871D6D966CAF7DAFB0
:1011D0008EAF9FAF6D976093090470930A0480935C
:1011E0000B0490930C048FE30E947E04BC01990FC2
:1011F000880B990B0E94871DA1966CAF7DAF8EAFB7
:101200009FAFA19760930504709306048093070431
:101210009093080480E40E947E04BC01990F880B1F
:10122000990B0E94871DA5966CAF7DAF8EAF9FAFC7
:10123000A597609301047093020480930304909334
:10124000040481E40E947E04BC01990F880B990B71
:101250000E94871DA9966CAF7DAF8EAF9FAFA997F7
:101260006093FD037093FE038093FF03909300044B
:1012700082E40E947E04BC01990F880B990B0E94A6
:10128000871DAD966CAF7DAF8EAF9FAFAD9760936E
:10129000F9037093FA038093FB039093FC0383E4B8
:1012A0000E947E04BC01990F880B990B0E94871D38
:1012B000E1966CAF7DAF8EAF9FAFE1976093F50382
:1012C0007093F6038093F7039093F80384E40E94ED
:1012D0007E04BC01990F880B990B0E94871D2B017E
:1012E0003C014092F1035092F2036092F30370923A
:1012F000F40385E40E947E04BC01990F880B990BCE
:101300000E94871DE5966CAF7DAF8EAF9FAFE597CE
:1013100020E030E046E154E4C501B4010E94801DA4
:1013200087FF2FC11AA309A320E030E046E154E46F
:10133000C701B6010E94801D87FF26C11CA30BA315
:1013400020E030E046E154E425966CAD7DAD8EADF5
:101350009FAD25970E94801D87FF19C11EA30DA375
:1013600020E030E046E154E429966CAD7DAD8EADD1
:101370009FAD29970E94801D87FF0CC118A70FA35E
:1013800020E030E046E154E42D966CAD7DAD8EADAD
:101390009FAD2D970E94801D87FFFFC01AA709A748
:1013A00020E030E046E154E461966CAD7DAD8EAD59
:1013B0009FAD61970E94801D87FFF2C01CA70BA7FD
:1013C00020E030E046E154E465966CAD7DAD8EAD35
:1013D0009FAD65970E94801D87FFE5C01EA70DA7E2
:1013E00020E030E046E154E469966CAD7DAD8EAD11
:1013F0009FAD69970E94801D87FFD8C018AB0FA7CB
:1014000020E030E046E154E46D966CAD7DAD8EADEC
:101410009FAD6D970E94801D87FFCBC01AAB09ABB3
:1014200020E030E046E154E4A1966CAD7DAD8EAD98
:101430009FADA1970E94801D87FFBEC01CAB0BAB68
:1014400020E030E046E154E4A5966CAD7DAD8EAD74
:101450009FADA5970E94801D87FFB1C01EAB0DAB4D
:1014600020E030E046E154E4A9966CAD7DAD8EAD50
:101470009FADA9970E94801D87FFA4C018AF0FAB36
:1014800020E030E046E154E4AD966CAD7DAD8EAD2C
:101490009FADAD970E94801D87FF97C01AAF09AF1F
:1014A00020E030E046E154E4E1966CAD7DAD8EADD8
:1014B0009FADE1970E94801D87FF8AC01CAF0BAFD4
:1014C00020E030E046E154E4C301B2010E94801DF7
:1014D00087FF81C01EAF0DAF20E030E046E154E44D
:1014E000E5966CAD7DAD8EAD9FADE5970E94801DFC
:1014F00087FF74C021961FAF0EAF2197FE01319672
:10150000DE01919690E080E0419151912D913D91C5
:101510004217530709F067C0019680319105A1F782
:101520009BCD1A82198290CC1C821B829BCC1E827E
:101530001D82A6CC18861F82B5CC1A861986C4CC0B
:101540001C861B86D3CC1E861D86E2CC188A1F867D
:10155000F1CC1A8A198A00CD1C8A1B8A0FCD1E8AEB
:101560001D8A1ECD188E1F8A2DCD1A8E198E3CCD48
:101570001C8E1B8E4BCD1E8E1D8E5ACD18A21F8E1B
:1015800069CD1AA219A2D0CE1CA21BA2D9CE1EA22E
:101590001DA2E6CE18A61FA2F3CE1AA619A600CF4A
:1015A0001CA61BA60DCF1EA61DA61ACF18AA1FA6E5
:1015B00027CF1AAA19AA34CF1CAA1BAA41CF1EAA48
:1015C0001DAA4ECF18AE1FAA5BCF1AAE19AE68CFB8
:1015D0001CAE1BAE75CF1EAE1DAE7ECF21961FAECC
:1015E0001EAE21978BCFCC58DF4F0FB6F894DEBFDD
:1015F0000FBECDBFDF91CF911F910F91FF90EF9064
:10160000DF90CF90BF90AF909F908F907F906F9022
:101610005F904F900895CF92DF92EF92FF920F93D9
:101620001F93CF93DF931F921F92CDB7DEB76983CD
:101630004A83880F991F0091690610916A06000F6E
:10164000111FE3E1F6E09F012351364020173107D7
:1016500014F41192F8CF2981FC01ED5EF94F21833A
:101660008A81808360E0809167060E940C041016D6
:10167000110604F501501109F801ED5EF94FE08003
:10168000D0906506C090630688E0F82E6E2D661F28
:101690006627661F8C2D0E940C04EE0C61E08D2DD8
:1016A0000E940C0460E08D2D0E940C04FA94F1104D
:1016B000EDCFDDCF61E0809167060F900F90DF9155
:1016C000CF911F910F91FF90EF90DF90CF900C94EE
:1016D0000C04EF92FF920F931F93CF937C018C0128
:1016E00083E0000F111F8A95E1F70D5D194FC1E0EE
:1016F000F80111928F0140E06C2FC7010E940B0B83
:10170000CF5FC930A9F7CF911F910F91FF90EF9054
:1017100008952091690630916A0612161306E4F4C2
:1017200068307105CCF420E830E002C0359527958B
:101730006A95E2F7FC01ED5EF94F5089442349F0C8
:10174000252B208B61E0680F408990E080E00C94AD
:101750000B0B20952523F5CF0895CF93DF93EC0154
:1017600060E08E810E940C0461E08E810E940C0476
:1017700060E08E810E940C048BE891E00197F1F704
:10178000DF91CF910895CF92DF92EF92FF920F9366
:101790001F93CF93DF936C017C0187E0E80EF11C6F
:1017A000D0E0C0E0062F10E0B8010C2E02C0759505
:1017B00067950A94E2F76170F70181917F010E94B9
:1017C0000C042196C430D10579F7C601DF91CF9181
:1017D0001F910F91FF90EF90DF90CF900C94AD0B85
:1017E000CF92DF92EF92FF920F931F93CF93DF93ED
:1017F000EC01F62E642F8C810E940C048D818F3FAA
:1018000019F060E00E940C040F2D10E08F8584FF1A
:1018100025C06E0187E0C80ED11CF12CE12CB80167
:101820000E2C02C0759567950A94E2F76170F60177
:1018300081916F010E940C04FFEFEF1AFF0A88E00C
:10184000E816F10461F7CE01DF91CF911F910F915E
:10185000FF90EF90DF90CF900C94AD0BB80184E037
:10186000759567958A95E1F7CE010E94C30B6F2DA0
:10187000CE01DF91CF911F910F91FF90EF90DF90FC
:10188000CF900C94C30B40E0682F8BE696E00C944D
:10189000F00B81E00E94430C8BE39FE10197F1F78D
:1018A0000895CF93DF93823029F490917A0698605F
:1018B00090937A0680937E0610927F0680E4809350
:1018C000800680E18093810680E58093820661E056
:1018D00080916F060E943E04809170068F3F19F040
:1018E00061E00E943E0461E0809171060E943E0426
:1018F000CBE6D6E09E012B56364080917A0684FDD9
:101900000BC084E090E021962817390744F461E089
:101910008E810E943E04EECF88E090E0F4CF8BE30E
:101920009DE00197F1F760E080916F060E940C0442
:1019300060E0809171060E940C04809170068F3FD8
:1019400019F060E00E940C0480917A0684FD34C096
:1019500063E08BE696E00E94C30BCBE4D6E4CE01B5
:101960000197F1F763E08BE696E00E94C30B2197A5
:10197000F1F763E08BE696E00E94C30B83E592E00B
:101980000197F1F762E08BE696E00E94C30B80912D
:101990007A0680620E94430C84E080937B068CE090
:1019A0000E94430C0E94490C82E080937C0686E0F2
:1019B000DF91CF910C94430C80620E94430C8BE426
:1019C00096E40197F1F780917A0680620E94430CB9
:1019D00083E592E00197F1F780917A0680620E9498
:1019E000430CD5CF90917E06691710F06FEF690F09
:1019F000E62FF0E0E559F94F9489890F80680C943F
:101A0000430C41E00E94F00B81E090E00895FB015F
:101A100001900020E9F73197AF01461B570BDC011D
:101A2000ED91FC910280F381E02D1994CF93DF9327
:101A3000BC0186E494E00E943102EC0162E772E0AE
:101A400086E494E00E94070D8C0F9D1FDF91CF91DB
:101A50000895CF93DF93682F86E494E00E94DF021D
:101A6000EC0162E772E086E494E00E94070D8C0FBF
:101A70009D1FDF91CF9108958F929F92AF92BF9259
:101A8000EF92FF920F931F93CF93DF93CDB7DEB703
:101A9000A1970FB6F894DEBF0FBECDBF7C01FA014F
:101AA000CB0119A2223008F42AE08E010F5D1F4FEE
:101AB000822E912CB12CA12CBF01A50194010E9472
:101AC0002E1EF901CA016A300CF5605DD8016E93D3
:101AD0008D01232B242B252B79F790E080E01097A4
:101AE00021F0BD01C7010E94070DA1960FB6F89421
:101AF000DEBF0FBECDBFDF91CF911F910F91FF9041
:101B0000EF90BF90AF909F908F900895695CDECF6B
:101B1000CF92DF92EF92FF920F931F93CF93DF93B9
:101B2000EC016A017B01E881F9810190F081E02DEF
:101B30006DE219958C0144275527BA014C195D09AE
:101B40006E097F092AE0CE010E943C0D800F911F93
:101B5000DF91CF911F910F91FF90EF90DF90CF9089
:101B60000895CF93DF93AC01990F660B770B77FF46
:101B700010C086E494E00E94880DEC0162E772E0F8
:101B800086E494E00E94070D8C0F9D1FDF91CF919A
:101B900008952AE086E494E00E943C0DEECFAB016C
:101BA000770F660B770B77FD0C94880D2AE00C9469
:101BB0003C0DCF93DF93BC0186E494E00E94070DB7
:101BC000EC0162E772E086E494E00E94070D8C0F5E
:101BD0009D1FDF91CF9108950C94070DFC0180812A
:101BE0009181009711F00C94031F08950C94EE1D41
:101BF000EF92FF920F931F93CF93DF937C01DC0151
:101C000014960D911C91D0E0C0E01127809136040C
:101C100090913704C017D107CCF4F70124813581A6
:101C2000C217D30728F40190F081E02D309759F4C2
:101C30001092F003E0EFF3E060818C0F9D1F0E9493
:101C4000F60D2196E3CFEC0FFD1FF6CF800F911F0D
:101C50009093370480933604DF91CF911F910F91B9
:101C6000FF90EF9008950C94E61DCF93DF93D0E0A2
:101C7000C0E0CE010E94330E41E0813009F040E027
:101C8000BE0190E080E00E94890B2196C830D1050A
:101C900081F7CE010E94330E813079F441E0BE011C
:101CA0006850710981E090E00E94890B2196C03153
:101CB000D10579F7DF91CF91089540E0BE0190E022
:101CC00080E0F2CFFC0124813581FB014481558104
:101CD00024173507E1F4FC0180819181FB016081CB
:101CE00071810097D1F061157105A1F4232BC1F02A
:101CF000FC01808190E008C0232B91F0FB018081E2
:101D000090E091958195910921E0892B09F020E0DF
:101D1000822F08950E947620F7CF6115710561F733
:101D200021E0F6CF0F931F93CF93DF93EC018881CF
:101D30009981009759F02A813B812617370730F0A7
:101D400081E0DF91CF911F910F9108958B016F5F1B
:101D50007F4F0E948C1F009759F0998388831B83C3
:101D60000A832C813D81232B59F7FC011082E8CF97
:101D700080E0E7CFEF92FF920F931F93CF93DF9313
:101D80006115710541F480E0DF91CF911F910F91B2
:101D9000FF90EF90089541155105B1F07B01EC01E2
:101DA0000C811D81040F151FB8010E94920E88231B
:101DB00051F3288139818C819D81B701820F931F56
:101DC0000E947F201D830C8381E0DECFCF93DF93C1
:101DD0001F921F92CDB7DEB769831A8241E050E0AF
:101DE000BE016F5F7F4F0E94BA0E0F900F90DF9180
:101DF000CF910895EF92FF920F931F93CF93DF93AC
:101E0000EC017B018A01BA010E94920E288139817E
:101E1000811114C02115310519F0C9010E94031F59
:101E2000198218821D821C821B821A82CE01DF91C8
:101E3000CF911F910F91FF90EF9008951D830C8318
:101E4000B701C9010E947F20F1CFFB010190002062
:101E5000E9F73197AF01461B570B0C94FA0E0F931D
:101E60001F93CF93DF93CDB7DEB762970FB6F89489
:101E7000DEBF0FBECDBF8C01CB01F80111821082F5
:101E800013821282158214824AE0BE016F5F7F4F77
:101E90000E941A1DBE016F5F7F4FC8010E94250F6F
:101EA00062960FB6F894DEBF0FBECDBFDF91CF9123
:101EB0001F910F910895FB01DC0111961C921E9257
:101EC00013961C921E92129715961C921E921497AE
:101ED0008617970749F0608171816115710521F0BE
:101EE000448155810C94FA0E0895FC0111821082F0
:101EF0001382128215821482FB0101900020E9F7FF
:101F00003197AF01461B570B0C94FA0E5F926F92FC
:101F10007F928F929F92AF92BF92CF92DF92EF9279
:101F2000FF920F931F93CF93DF9300D000D0CDB7D4
:101F3000DEB75C013B0164E772E0CE0101960E94CE
:101F4000750F00E110E0809036049090370408157A
:101F500019050CF05EC0C8010E94330E68019FEFA6
:101F6000C91AD90A8E3709F052C076018E149F041F
:101F700099F0C7010E94330E582E682FCE010196AA
:101F80000E94E60EEAE25E1238C0CE0101960E947F
:101F9000160DC5010E94160DB501CE0101960E94D5
:101FA000620E882371F18D819E810196800F911FB1
:101FB000F301918380830250110910933B04009335
:101FC0003A0411E0CE0101960E94EE0D812F269673
:101FD0000FB6F894DEBF0FBECDBFDF91CF911F913A
:101FE0000F91FF90EF90DF90CF90BF90AF909F90B8
:101FF0008F907F906F905F900895FFEFEF1AFF0A28
:10200000B5CF64E772E0CE0101960E94250F8601EC
:102010009ACF10E0D7CF1F920F920FB60F921124D4
:102020000BB60F922F933F934F935F936F937F93D2
:102030008F939F93AF93BF93EF93FF9386E494E0C6
:102040000E94BD02FF91EF91BF91AF919F918F913F
:102050007F916F915F914F913F912F910F900BBEA8
:102060000F900FBE0F901F9018951F920F920FB6F2
:102070000F9211240BB60F922F938F939F93EF9390
:10208000FF93E0915604F09157048081E0915C0445
:10209000F0915D0482FD1DC0908180915F048F5F8F
:1020A0008F7320916004821741F0E0915F04F0E0AB
:1020B000EA5BFB4F958F80935F04FF91EF919F91B7
:1020C0008F912F910F900BBE0F900FBE0F901F900E
:1020D00018958081F2CF1F920F920FB60F921124A4
:1020E0000BB60F922F933F934F935F936F937F9312
:1020F0008F939F93AF93BF93EF93FF9383EE94E0FF
:102100000E94BD02FF91EF91BF91AF919F918F917E
:102110007F916F915F914F913F912F910F900BBEE7
:102120000F900FBE0F901F9018951F920F920FB631
:102130000F9211240BB60F922F938F939F93EF93CF
:10214000FF93E091F304F091F4048081E091F904AD
:10215000F091FA0482FD1DC090818091FC048F5F94
:102160008F732091FD04821741F0E091FC04F0E0B0
:10217000ED51FB4F958F8093FC04FF91EF919F9160
:102180008F912F910F900BBE0F900FBE0F901F904D
:1021900018958081F2CF1F920F920FB60F921124E3
:1021A0002F933F938F939F93AF93BF93809142045C
:1021B00090914304A0914404B091450430913104BE
:1021C00023E0230F2D3758F50196A11DB11D209353
:1021D00031048093420490934304A0934404B09349
:1021E00045048091320490913304A0913404B0915D
:1021F00035040196A11DB11D8093320490933304E0
:10220000A0933404B0933504BF91AF919F918F9107
:102210003F912F910F900FBE0F901F90189526E8B9
:10222000230F0296A11DB11DD2CFCF93DF93109241
:1022300049041092480448EE53E060E070E0409397
:102240004A0450934B0460934C0470934D048EE405
:1022500092E090934704809346042DEC30E0309355
:102260005304209352042CEC30E030935504209317
:10227000540428EC30E0309357042093560429ECA2
:1022800030E030935904209358042AEC30E0309326
:102290005B0420935A042EEC30E030935D042093CD
:1022A0005C0410925F04109260041092610410921A
:1022B00062041092E6041092E5044093E704509300
:1022C000E8046093E9047093EA049093E404809333
:1022D000E30485EC90E09093F0048093EF0484ECA9
:1022E00090E09093F2048093F10480EC90E090935E
:1022F000F4048093F30481EC90E09093F6048093CF
:10230000F50482EC90E09093F8048093F70486EC57
:1023100090E09093FA048093F9041092FC041092D8
:10232000FD041092FE041092FF0410926E061092AB
:102330006D068AE692E090936C0680936B0687E0C8
:1023400080936F068FEF8093700686E0809371060E
:1023500085E08093720684E08093730683E0809327
:10236000740682E0809375061092760610927706C6
:10237000109278061092790610927A0681E00E94F7
:10238000510CC3E3D0E0D0936406C093630685E3A9
:1023900090E0909366068093650684E390E09093C6
:1023A00068068093670681E090E090936A068093C8
:1023B000690661E083E30E943E0461E08091650666
:1023C0000E943E0461E0809167060E943E0461E045
:1023D000809167060E940C04D0936406C093630644
:1023E000E3E2F6E083E696E011928E179F07E1F7AD
:1023F000D0E0C0E08091690690916A06C817D907BD
:1024000074F540E06FE0CE010E940B0B80916906ED
:1024100090916A06C817D9072CF447E06BE0CE010B
:102420000E940B0B40E069E0CE010E940B0B8091F3
:10243000690690916A06C817D9071CF4CE010E945C
:10244000690B8091690690916A06C817D9072CF428
:1024500040E06CE0CE010E940B0B2196CBCF65E7EC
:1024600072E08DE096E00E94750F6AE772E087E007
:1024700096E00E94750F10929A0510929E05109298
:102480009D0510929F0580E692E0909399058093B8
:102490009805E4EBF5E080EF95E01082148213825A
:1024A000158236968E179F07C1F78CE092E09093C5
:1024B000FB058093FA0588E092E09093FD058093F8
:1024C000FC0584E08093FE058093FF0580E192E0A7
:1024D0009093F9058093F8058AE090E090930106C7
:1024E0008093000684EF91E09093030680930206A8
:1024F00010920606109205061092F4051092F5054A
:102500001092F6051092F7051092040664E772E047
:1025100082E995E00E94750F64E772E08CE895E02F
:102520000E94750F64E772E086E895E00E94750FDF
:1025300064E772E080E895E0DF91CF910C94750F2D
:10254000CF93DF93CDB7DEB7E1970FB6F894DEBF38
:102550000FBECDBF789484B5826084BD84B58160A0
:1025600084BD85B5826085BD85B5816085BD80915E
:102570006E00816080936E001092810080918100D6
:1025800082608093810080918100816080938100CE
:10259000809180008160809380008091B100846090
:1025A0008093B1008091B00081608093B0008091F1
:1025B000910082608093910080919100816080936E
:1025C0009100809190008160809390008091A100A3
:1025D00082608093A1008091A10081608093A1001E
:1025E0008091A00081608093A00080912101826091
:1025F000809321018091210181608093210180914C
:10260000200181608093200180917A008460809312
:102610007A0080917A00826080937A0080917A00BB
:10262000816080937A0080917A00806880937A003C
:102630001092C10082E00E94510C80E40E94430C81
:1026400000E012E048E0E42E42E0F42EF80161914F
:102650008F018BE696E00E94010DE016F106B1F7BE
:102660000E94490C82E00E94430C8BE39FE101979A
:10267000F1F760E082E00E94F20C60E08BE696E009
:102680000E94010D60E083E00E94F20C60E872E0BD
:102690008BE696E00E94EC0D60E08DE00E94F20C6B
:1026A00060E08BE696E00E94010D61E081E00E940F
:1026B000F20C6BE872E08BE696E00E94EC0D83EE84
:1026C00094E00E94770186E494E00E9477018FEF06
:1026D0009FEF909341048093400464E772E086E8A2
:1026E00095E00E94250F64E772E080E895E00E9483
:1026F000250F86E30E947E04BC01990F880B990B7D
:10270000611571058105910511F00E94111D10924E
:102710003E0410923D0461E089E00E943E0461E0C5
:102720008AE00E943E0410923C0481E090E0909385
:1027300039048093380483EE94E00E94770161E0CD
:102740008AE00E943E0461E08BE00E943E0461E06A
:102750008CE00E943E0461E08DE00E943E0461E056
:102760008FE10E943E0461E080E20E943E0461E04D
:1027700081E20E943E0461E082E20E943E04809178
:10278000690690916A061816190634F441E06CE067
:1027900090E080E00E940B0B8091690690916A06A0
:1027A0001816190634F44FE06AE090E080E00E94C9
:1027B0000B0B8091690690916A061816190624F48D
:1027C00090E080E00E94690B0E94350E00E110E06D
:1027D000C8010E94330E8F3F09F05CC0109337048C
:1027E0000093360480E190E090933B0480933A0498
:1027F00080913604909137040E94B10D7E0159E218
:10280000E50EF11C33E0432E512C612C712C80918C
:102810004004909141048B30910509F043C060E081
:1028200080E00E94F20C6BE972E08BE696E00E9479
:10283000EC0D61E080E00E94F20C65EA72E08BE64C
:1028400096E00E94EC0D83EE94E00E949D02181623
:102850001906ECF483EE94E00E947B0280933F041F
:102860008334A9F40E94490C60E080E00E94F20CDD
:102870006EEA72E08BE696E00E94EC0D80914004D7
:1028800090914104019690934104809340040E94EA
:102890004C03BDCF0F5F1F4F0115F4E01F0709F078
:1028A00097CFA0CF8A30910559F468EE73E080E0AD
:1028B00090E00E94BE040E94490C8BE090E0E3CFC0
:1028C0008C30910509F05BC283EE94E00E949D027A
:1028D00018161906E4F683EE94E00E947B028093BA
:1028E0003F040E94290D80913F048C3609F046C1B7
:1028F0000E94490C6AE070E080E090E00E94BE0413
:1029000064E772E0C7010E94750F18AA1FA6D12CB8
:1029100099249394BB24B39483EE94E00E949D0287
:10292000892B09F408C183EE94E00E947B02182FE2
:10293000BB2091F3682FC7010E94E60E1A3261F79F
:102940000DA51EA50115110579F068EB72E089A5AA
:102950009AA50E947620892B39F464E772E0C701BA
:102960000E94250FDB2CD8CFDD2009F46DC0012B90
:10297000D9F56FEB72E083EE94E00E94EC0D81ECF0
:1029800092E00E94D90D60E080E00E94F20C66ECBB
:1029900072E08BE696E00E94EC0D61E080E00E9420
:1029A000F20C6CEC72E08BE696E00E94EC0D60EDB0
:1029B00077E080E090E00E94BE0400913A0410911C
:1029C0003B04C8010E94330E61E0680FC8010E94F9
:1029D000F60D80914004909141040196909341043A
:1029E00080934004C701A9C164ED72E089A59AA54E
:1029F0000E947620892B09F0BCCF6AE772E083EE53
:102A000094E00E94EC0D60E080E00E94F20C60E82F
:102A100072E08BE696E00E94EC0D61E080E00E949F
:102A2000F20C6AED72E08BE696E00E94EC0D8FE00E
:102A300090E0909341048093400464EF71E080E063
:102A400090E00E94BE04CECF992001F1B701CE01E3
:102A500001960E945B0FBE01615D7F4FCE01019622
:102A60000E94860FB82ECE0101960E94EE0DBB206B
:102A700039F06AE070E080E090E00E94BE04912CA2
:102A800064E772E0C7010E94250F46CFCFA4D8A803
:102A9000B701CE0183960E945B0FCE0183960E9400
:102AA000160D4FA158A570E060E02AE086E494E09E
:102AB0000E943C0D62E772E086E494E00E94070DFC
:102AC000C6010E94B10D64E772E0CE0101960E943A
:102AD000750F86018FA198A58C0D9D1D08171907EC
:102AE00040F5C8010E94330EA82E0E94290D6A2DC0
:102AF000CE0101960E94E60E8AE2A81619F00F5F39
:102B00001F4FE8CFCE0101960E94160DBE016D5DEC
:102B10007F4FCE0101960E94620E882381F3CE0181
:102B200001960E94EE0DCE0183960E94EE0DD12CEF
:102B3000F3CEB12CF4CFD11060CFB1101ACF68EE24
:102B400072E083EE94E00E94EC0D8AEE92E00E9427
:102B5000D90D60E080E00E94F20C66EC72E08BE63A
:102B600096E00E94EC0D61E080E00E94F20C6EEEB7
:102B700072E08BE696E00E94EC0D34CF823709F0CC
:102B800086CE0E94490C6AE070E080E090E00E94EE
:102B9000BE0464E772E0CE0183960E94750F1AA608
:102BA00019A610E000E0CC24C394DD24D39483EE76
:102BB00094E00E949D02892B09F48EC083EE94E07C
:102BC0000E947B02B82EDD2091F30F5F1F4F682F0C
:102BD000CE0183960E94E60E9AE2B912E8CFCC208D
:102BE00009F467C0093011050CF061C0BE016D5DCC
:102BF0007F4FCE0101960E945B0FB701CE01019677
:102C00000E94860FD82ECE0101960E94EE0DD110A3
:102C10004DC0809136049091370490933B0480938B
:102C20003A0461E00E94F60D8091360490913704D9
:102C30000196909337048093360460E00E94F60D6D
:102C400000913604109137040F5F1F4F1093370423
:102C500000933604C8010E94E61D8E3721F06EE70E
:102C6000C8010E94EE1D80913604909137040196B0
:102C70009093370480933604BE016D5D7F4FCE0183
:102C800001960E945B0FCE0101960E94F80DCE01C5
:102C900001960E94EE0D64E772E0CE0183960E94D9
:102CA000250FDC2CC12C10E000E081CFCD2CD12CE5
:102CB0007ECF06301105DCF7BE016D5D7F4FCE0182
:102CC00001960E945B0FCE0101960E94F80DCE0185
:102CD00001960E94EE0D6BCFDD2091F16FEB72E05B
:102CE00083EE94E00E94EC0D81EC92E00E94D90DFD
:102CF00060E080E00E94F20C67EF72E08BE696E005
:102D00000E94EC0D61E080E00E94F20C6CEC72E03D
:102D10008BE696E00E94EC0D60ED77E080E090E0BD
:102D20000E94BE04809140049091410401969093CA
:102D3000410480934004CE0183960E94EE0DA7CDFE
:102D400068EE72E083EE94E00E94EC0D8AEE92E071
:102D50000E94D90D60E080E00E94F20C67EF72E003
:102D60008BE696E00E94EC0D61E080E00E94F20CA0
:102D70006EEE72E08BE696E00E94EC0DDCCF8D30BB
:102D8000910509F038C383EE94E00E949D02181665
:102D900019060CF07CCD83EE94E00E947B028093B8
:102DA0003F04883609F003C30E94490C60E089E0C3
:102DB0000E940C0464E772E086E895E00E94250F0B
:102DC00064E772E080E895E00E94250F10923E04CF
:102DD00010923D0404E010E00E94C21C1CA21BA241
:102DE0001EA21DA218A61FA229E030E040E050E07C
:102DF0000E94FC1D2AE0AE014F5F5F4F0E94251D1F
:102E0000BE016F5F7F4FCE0183960E94250F4FA1B9
:102E100058A56BA17CA186E895E00E94BA0ECE0170
:102E200083960E94EE0D01501109B1F60E94C21C5A
:102E3000A30192010E94FC1D6F5B7F4F8F4F9F4F3C
:102E400086E895E00E94E60E0E94C21CA301920152
:102E50000E94FC1D6F5B7F4F8F4F9F4F86E895E070
:102E60000E94E60E66E875E083EE94E00E9431026F
:102E700086E895E00E94160D60E080E00E94F20C6A
:102E800060E073E08BE696E00E94EC0D61E080E08C
:102E90000E94F20C6AE070E080E090E00E94BE04C4
:102EA00083EE94E00E949D0218161906CCF1F1E021
:102EB000F9AB81E0809304068FB7F8944091420407
:102EC0005091430460914404709145048FBF8091F8
:102ED000F4059091F505A091F605B091F705481B12
:102EE000590B6A0B7B0B8091000690910106B0E0B4
:102EF000A0E084179507A607B70708F048C110E0BF
:102F00008091FE051817C8F5E091FA05F091FB05D0
:102F1000E10FF11D62E080810E943E041F5FF0CF4F
:102F200083EE94E00E947B0280933F04853709F092
:102F3000BECF8CE090E090934104809340040E94C7
:102F4000490C60E080E00E94F20C6AE073E08BE6DE
:102F500096E00E94EC0D61E080E00E94F20C61E1DD
:102F600073E08BE696E00E94EC0D60ED77E080E088
:102F700090E00E94BE0419AA9CCF312C8091FF05DD
:102F8000381608F063C0C32CD12CE091FC05F091F9
:102F9000FD05EC0DFD1D61E080810E943E04E09185
:102FA000FC05F091FD05EC0DFD1D60E080810E94A7
:102FB0000C0481E090E0A0E0B0E0032C04C0880F96
:102FC000991FAA1FBB1F0A94D2F74C015C01A09461
:102FD000B094212C8091FE05281608F5022D10E0F2
:102FE000E091FA05F091FB05E00FF11F80810E944E
:102FF000E0030C5F1F4F000F111FF801E856FA4F56
:10300000892B41F48081918188299929918380833A
:103010002394E0CF808191818A219B21F7CFE09199
:10302000FC05F091FD05EC0DFD1D61E080810E9425
:103030000C048091FC059091FD05C80ED91E60E03E
:10304000F60180810E943E04339498CF98E9C92EFE
:1030500095E0D92E8601F801878D90A1892B31F456
:10306000148E8FEF9FEF968F858F11A20A5F1F4FEF
:1030700095E0043D190779F7B12C8091FE05B8164B
:1030800008F053C0A12C8B2C912C880C991CF401B6
:10309000E056FA4F4F012091FF05A21608F043C0F9
:1030A000F401608171810A2C02C0769567950A94BB
:1030B000E2F7B29E900111242A0D311DE8E9F5E0F6
:1030C00080E0458D568D2417350709F4D1C38F5FF5
:1030D00036968A30B1F760FF24C0E8E9F5E090E069
:1030E00080E0448D411118C0E091F805F091F90598
:1030F000E20FF31F408156E0589FF001599FF00DF9
:103100001124E856FA4F448F368F258F10A2178E60
:1031100061E00E94C10105C0019636968A30910592
:1031200001F7A394B8CFB394A8CF80E0F60191A1A2
:103130009111892FF6E0CF0ED11C0C151D05B1F7AA
:103140009FB7F89440914204509143046091440425
:10315000709145049FBF4093F4055093F50560932B
:10316000F6057093F705882391F08091B9058823BF
:1031700071F08091B7059091B805019741F41091D5
:10318000B405111107C0E9A9E1118ACE80CB1092D4
:103190000406F9CF1A3209F0E3C066E875E080E86A
:1031A00095E00E94620E882309F474C00E94490CC5
:1031B00060E080E00E94F20C6BE173E08BE696E049
:1031C0000E94EC0D61E080E00E94F20C63E273E08B
:1031D0008BE696E00E94EC0D10923E0410923D04A6
:1031E00064E772E080E895E00E94250F809140043A
:1031F0009091410401969093410480934004809102
:103200003A0490913B0401960E94330E1CA21BA22B
:103210001EA21DA218A61FA24AE0BE016F5F7F4F2B
:1032200090E00E94561DBE016F5F7F4FCE018396D6
:103230000E94250F61E373E0CE0101960E94750F95
:103240004FA158A56BA17CA1CE0101960E94BA0E98
:1032500081110CC089819A81009711F00E94031F8F
:103260001A8219821E821D821C821B82BE016F5F20
:103270007F4FC7010E945B0FCE0101960E94EE0DA9
:10328000CE0183960E94EE0DB70183EE94E00E947A
:103290003102A8CB80913D0490913E040196909319
:1032A0003E0480933D0460E00397F1F480E00E94C7
:1032B000F20C6BE173E08BE696E00E94EC0D61E0AE
:1032C00080E00E94F20C6BE373E08BE696E00E94D4
:1032D000EC0D65E473E083EE94E00E94EC0D61E098
:1032E00089E00E940C04D3CA80E00E94F20C6BE1DA
:1032F00073E08BE696E00E94EC0D61E080E00E94B6
:10330000F20C61E573E08BE696E00E94EC0D6CE553
:1033100073E083EE94E00E94EC0D60E47FE180E0D6
:1033200090E00E94BE040E94490C64E772E080E8CD
:1033300095E00E94250F60E080E00E94F20C60E0C2
:1033400073E08BE696E00E94EC0D61E080E00E9465
:10335000F20C6FE070E080E090E00E94BE0413CFBA
:103360001332C9F40E94490C60E080E00E94F20C24
:103370006BE173E08BE696E00E94EC0D61E080E08B
:103380000E94F20C69E673E08BE696E00E94EC0D79
:1033900063E773E0A0CF612F80E895E00E94E60E1E
:1033A00041E0612F8BE696E00E94F00BECCE853772
:1033B00009F06DCA0E94490C60E080E00E94F20CA6
:1033C0006AE073E08BE696E00E94EC0D61E080E03D
:1033D0000E94F20C61E173E08BE696E00E94EC0D36
:1033E0008CE090E0909341048093400460ED77E09E
:1033F00080E090E0A1C08E30910509F077C183EEA6
:1034000094E00E949D02181619060CF040CA83EE43
:1034100094E00E947B0280933F04813661F50E9414
:10342000490C60E080E00E94F20C6FE773E08BE6ED
:1034300096E00E94EC0D68EE73E080E090E00E9460
:10344000BE04D12CC12CC6010E94330E86010F5F31
:103450001F4F882309F40EC268010031110599F746
:1034600087EE93E00E94D90D6DEE73E083EE94E059
:103470000E94EC0DC6C0803709F0C6C00E94490CFE
:1034800060E080E00E94F20C6DE873E08BE696E06D
:103490000E94EC0D80913A0490913B0401960E94A9
:1034A000330E082F10E00115110509F448C0809172
:1034B000380490913904019719F40E946605F7CFFA
:1034C00068E873E180E090E00E94BE0480913804D7
:1034D00090913904029719F40E94F404F7CF0E94E6
:1034E000A1050E94490C60E080E00E94F20C6BE9AB
:1034F00073E08BE696E00E94EC0D61E080E00E94B4
:10350000F20C69EA73E08BE696E00E94EC0D61E054
:103510008BE00E94F20CB8018BE696E00E94CF0D82
:10352000B80183EE94E00E94CF0D81E080933C04CB
:103530006FE070E080E090E00E94BE04A8C9C8017E
:103540000E94330E882331F00F5F1F4F00311105A9
:10355000B1F786CF8091380490913904019719F41E
:103560000E946605F7CF68E873E180E090E00E9472
:10357000BE048091380490913904029719F40E9496
:10358000F404F7CF81E080933C040E94A1056C0114
:103590008C010F5F1F4FB801CE0101960E942F0FC3
:1035A000C8010E94B10D61E0C6010E94F60D809134
:1035B0003A0490913B04602F01960E94F60DBE01E3
:1035C0006F5F7F4F83EE94E00E9431020E94490CAE
:1035D00060E080E00E94F20C65EB73E08BE696E021
:1035E0000E94EC0D61E087E00E94F20CBE016F5F6B
:1035F0007F4F8BE696E00E943102CE0101960E9439
:10360000EE0D0E94350E94CF8537E9F48CE090E002
:1036100090934104809340040E94490C60E080E054
:103620000E94F20C6AE073E08BE696E00E94EC0DDB
:1036300061E080E00E94F20C61E173E08BE696E0CD
:103640000E94EC0DD3CE833709F021C980913C0450
:10365000882309F444C080913A0490913B04019678
:103660000E94330E60E08150990B0E94F60D80910C
:103670003A0490913B0460E001960E94F60D0E948E
:10368000A1058091380490913904019719F40E94A2
:103690006605F7CF68E873E180E090E00E94BE0421
:1036A0008091380490913904029719F40E94F4042F
:1036B000F7CF0E94490C60E080E00E94F20C62ECBF
:1036C00073E08BE696E00E94EC0D61E080E00E94E2
:1036D000F20C6DEC73E08BE696E00E94EC0D0E941C
:1036E000350E68EE73E080E090E026CF8F309105D4
:1036F00009F0B0C083EE94E00E949D0218161906EE
:103700000CF0C5C883EE94E00E947B0280933F04D6
:103710008D3609F085C0809136049091370440972A
:1037200001F364E772E0CE0183960E94750F64E7AF
:1037300072E0CE0101960E94750F00E110E08091C9
:10374000360490913704081719070CF052C0C801CD
:103750000E94330E0F5F1F4F8E3789F7C801039702
:103760000E94330E4AE0B70190E00E941A1DF70153
:1037700001900020E9F73197AF014E195F09B701B9
:10378000CE0101960E94BA0E44E050E065ED73E070
:10379000CE0101960E94BA0E680180913604909184
:1037A0003704C816D9065CF6C6010E94330E8A3269
:1037B000B9F44FA158A56BA17CA1CE0101960E943E
:1037C000BA0E41E050E069E373E0CE0101960E9439
:1037D000BA0E64E772E0CE0183960E94250FAFCF48
:1037E000682FCE0183960E94E60E8FEFC81AD80A82
:1037F000D4CFBE016F5F7F4F83EE94E00E94310211
:10380000BE016F5F7F4F86E494E00E943102CE01DB
:1038100001960E94EE0DCE0183960E94EE0D61CFBF
:10382000853609F034C80E94490C60E080E00E94AF
:10383000F20C6AE073E08BE696E00E94EC0D61E02A
:1038400080E00E94F20C6AED72E08BE696E00E9446
:10385000EC0D1DC88A3091050CF019C801969093A3
:103860004104809340046AE070E080E090E064CE20
:1038700061704FCCB801CE0101960E942F0FC80194
:103880000E94B10D61E0C6010E94F60D80913A04DC
:1038900090913B04602F01960E94F60DBE016F5F70
:1038A0007F4F83EE94E00E9431020E94490C60E059
:1038B00080E00E94F20C6AED73E090CE80E895E023
:1038C0000E94EE0D86E895E00E94EE0D8CE895E0F2
:1038D0000E94EE0D82E995E00E94EE0D87E096E0F1
:1038E0000E94EE0D8DE096E00C94EE0D8F929F926B
:1038F000AF92BF92CF92DF92EF92FF92CF93DF937E
:10390000EC01688179818A819B816115710581054E
:10391000910521F464E279ED8BE597E02DE133EF39
:1039200041E050E00E94FC1D49015A019B01AC019D
:10393000A7EAB1E40E941B1E6B017C01ACEEB4EF60
:10394000A50194010E94291EC60ED71EE81EF91E6D
:10395000F7FE06C081E0C81AD108E10880E8F80A3D
:10396000C882D982EA82FB82C701B6019F77DF91C4
:10397000CF91FF90EF90DF90CF90BF90AF909F904E
:103980008F9008958F929F92AF92BF92CF92DF92C5
:10399000EF92FF92609120027091210280912202A9
:1039A00090912302611571058105910521F464E26E
:1039B00079ED8BE597E02DE133EF41E050E00E9497
:1039C000FC1D49015A019B01AC01A7EAB1E40E9428
:1039D0001B1E6B017C01ACEEB4EFA50194010E94AB
:1039E000291EC60ED71EE81EF91EF7FE06C081E08E
:1039F000C81AD108E10880E8F80AC0922002D092E3
:103A00002102E0922202F0922302C701B6019F77C1
:103A1000FF90EF90DF90CF90BF90AF909F908F90EE
:103A20000895609320027093210280932202909364
:103A300023020895BB274A3031F4992322F4BDE2D2
:103A4000909581959F4F0C94571DBB272A3051F4B8
:103A5000992342F4BDE290958095709561957F4FD2
:103A60008F4F9F4F0C94351DBB27FA01A62F62176D
:103A7000710581059105330B30FB66F0AA27660FAF
:103A8000771F881F991FAA1FA21710F0A21B63950A
:103A90003850A9F7A05DAA3308F0A95DA19336F7C5
:103AA000B111B1931082CA010C94701DBB27FB01A8
:103AB0005527AA27880F991FAA1FA41710F0A41B27
:103AC00083955051B9F7A05DAA3308F0A95DA19381
:103AD000009779F7B111B1931192CB010C94701D3D
:103AE000DC01FC01672F71917723E1F7329704C065
:103AF0007C916D9370836291AE17BF07C8F30895F0
:103B00000E94C21D08F481E00895E89409C097FB63
:103B10003EF490958095709561957F4F8F4F9F4FA4
:103B20009923A9F0F92F96E9BB279395F6958795E8
:103B300077956795B795F111F8CFFAF4BB0F11F4AB
:103B400060FF1BC06F5F7F4F8F4F9F4F16C0882352
:103B500011F096E911C0772321F09EE8872F762F88
:103B600005C0662371F096E8862F70E060E02AF0C9
:103B70009A95660F771F881FDAF7880F96958795B5
:103B800097F90895990F0008550FAA0BE0E8FEEF8A
:103B900016161706E807F907C0F012161306E40711
:103BA000F50798F0621B730B840B950B39F40A260A
:103BB00061F0232B242B252B21F408950A2609F4E8
:103BC000A140A6958FEF811D811D0895F999FECF23
:103BD00092BD81BDF89A992780B50895262FF9994D
:103BE000FECF1FBA92BD81BD20BD0FB6F894FA9AE0
:103BF000F99A0FBE01960895052E97FB1EF40094C6
:103C00000E94131E57FD07D00E942E1E07FC03D0F2
:103C10004EF40C94131E50954095309521953F4FCE
:103C20004F4F5F4F089590958095709561957F4FA8
:103C30008F4F9F4F08950E94501EA59F900DB49FD7
:103C4000900DA49F800D911D11240895B7FF0C9431
:103C50001B1E0E941B1E821B930B0895A1E21A2EAD
:103C6000AA1BBB1BFD010DC0AA1FBB1FEE1FFF1F20
:103C7000A217B307E407F50720F0A21BB30BE40B70
:103C8000F50B661F771F881F991F1A9469F76095B7
:103C90007095809590959B01AC01BD01CF01089571
:103CA000A29FB001B39FC001A39F700D811D11247D
:103CB000911DB29F700D811D1124911D0895EE0F6D
:103CC000FF1F881F8BBF0790F691E02D19940F936B
:103CD0001F93CF93DF938230910510F482E090E040
:103CE000E0918506F091860630E020E0B0E0A0E0AB
:103CF000309799F42115310509F44AC0281B390B76
:103D000024303105D8F58A819B816115710589F1CF
:103D1000FB0193838283FE0111C0408151810281A6
:103D2000138148175907E0F04817590799F410977D
:103D300061F012960C93129713961C933296CF0152
:103D4000DF91CF911F910F910895009385061093F5
:103D50008606F4CF2115310551F04217530738F08C
:103D6000A901DB019A01BD01DF01F801C1CFEF011B
:103D7000F9CF9093860680938506CDCFFE01E20FA2
:103D8000F31F819391932250310939832883D7CF30
:103D90002091830630918406232B41F42091260242
:103DA00030912702309384062093830620912402C9
:103DB000309125022115310541F42DB73EB74091D0
:103DC000280250912902241B350BE0918306F091C3
:103DD0008406E217F307A0F42E1B3F0B28173907C0
:103DE00078F0AC014E5F5F4F2417350748F04E0F57
:103DF0005F1F5093840640938306819391939FCFD6
:103E0000F0E0E0E09CCFCF93DF930097E9F0FC0176
:103E1000329713821282A0918506B0918606ED0139
:103E200030E020E01097A1F420813181820F931FB0
:103E300020918306309184062817390709F061C064
:103E4000F0938406E0938306DF91CF910895EA0111
:103E5000CE17DF07E8F54A815B819E0141155105C8
:103E6000B1F7E901FB83EA8349915991C40FD51F4A
:103E7000EC17FD0761F4808191810296840F951FF4
:103E8000E90199838883828193819B838A83F0E00F
:103E9000E0E012968D919C9113970097B9F52D91C2
:103EA0003C911197CD010296820F931F20918306BA
:103EB000309184062817390739F6309751F510925A
:103EC000860610928506B0938406A0938306BCCF25
:103ED000D383C28340815181840F951FC817D907AE
:103EE00061F44E5F5F4F88819981480F591F51835C
:103EF00040838A819B81938382832115310509F058
:103F0000B0CFF0938606E09385069ECFFD01DC01DD
:103F1000C0CF13821282D7CF4F925F926F927F925F
:103F20008F929F92AF92BF92CF92DF92EF92FF92C9
:103F30000F931F93CF93DF938C01009799F4CB01DC
:103F4000DF91CF911F910F91FF90EF90DF90CF9075
:103F5000BF90AF909F908F907F906F905F904F90A9
:103F60000C94671EFC01E60FF71F9C0122503109DB
:103F7000E217F30708F4AEC0D901CD91DC91119797
:103F8000C617D70720F1C530D10578F0CE010497C8
:103F90008617970750F0C61BD70B2297C193D19372
:103FA0006D937C93CF010E94031FC801DF91CF91D5
:103FB0001F910F91FF90EF90DF90CF90BF90AF9047
:103FC0009F908F907F906F905F904F9008955B01CE
:103FD000AC1ABD0A4C018C0E9D1EA0918506B091B5
:103FE0008606512C412CF12CE12C109731F5809153
:103FF0008306909184068815990509F05CC04616E1
:10400000570608F058C0809124029091250200972D
:1040100041F48DB79EB74091280250912902841B2C
:10402000950BE817F90708F055C0F0938406E09364
:104030008306F90171836083B8CF8D919C911197AC
:1040400012966C90129713967C901397A815B90549
:1040500059F56C0142E0C40ED11CCA14DB0420F1F6
:10406000AC014A195B09DA011296159780F0628259
:10407000738251834083D9016D937C93E114F104E1
:1040800071F0D7011396FC93EE9312978ECF229680
:104090008C0F9D1FF90191838083F301EFCFF09383
:1040A0008606E093850681CF4816590608F42C0150
:1040B0007D01D3019ACFCB010E94671E7C0100973E
:1040C00049F0AE01B8010E946D20C8010E94031F93
:1040D00087016BCF10E000E068CFFB01DC0102C07C
:1040E00001900D9241505040D8F70895FB01DC013A
:1040F0008D91019080190110D9F3990B0895FB015E
:10410000DC0101900D920020E1F7089511E0C3E475
:10411000D1E000E006C0802FFE010E945F1E2196C4
:10412000011DC434D10780E00807A9F7F894FFCF38
:10413000040A11111F1B1F1F161718191A1B1C1D0B
:104140003132334134353642373839432A3023440B
:10415000010000000000870680000100010000004F
:10416000000000000100010000000000000001004C
:104170000100010000000000010000000000DF025B
:104180003F026C022C039D027B028F0200000000A4
:104190007A043A04090400000000010D3F02F10412
:1041A000F0040D0A00313233340061646D696E0031
:1041B0004269656E76656E69646F00477275706FEF
:1041C000352D53656363696F6E4100457370657289
:1041D000616E646F00436F6E6578696F6E00436F48
:1041E0006E65637461646F0061646D696E2A00625C
:1041F000006269656E006C6F67696E00457869746E
:104200006F736F00313233342A0041646D696E6917
:1042100073747261646F72006D006D616C0044654F
:104220006E656761646F00526567697374726F00D1
:10423000436F6469676F2E2E2E0053616C69646151
:1042400000636F6E20457869746F00496E67726510
:10425000736F00436F7272656374616D656E746530
:1042600000636F72726563746F2C00426C6F7175BE
:104270006561646F00626C6F71756561646F2C308D
:1042800000496E636F72726563746F00696E636F6D
:1042900072726563746F2C300043616E63656C618C
:1042A000646F0063616E63656C61646F2C300052F3
:1042B0006573657276616E646F2E2E2E005061728A
:1042C000717565616E646F2E2E2E0050617271756E
:1042D0006561646F20656E2000526573657276615A
:1042E000646F3A200050617271756561646F20657A
:1042F0006E0053616C6964612064656C005061728A
:104300007175656F00202D202000526573657276EF
:1043100061646F20656E00566163696F006E6F00A7
:020000040003F7
:10E000000D9489F10D94B2F10D94B2F10D94B2F129
:10E010000D94B2F10D94B2F10D94B2F10D94B2F1F0
:10E020000D94B2F10D94B2F10D94B2F10D94B2F1E0
:10E030000D94B2F10D94B2F10D94B2F10D94B2F1D0
:10E040000D94B2F10D94B2F10D94B2F10D94B2F1C0
:10E050000D94B2F10D94B2F10D94B2F10D94B2F1B0
:10E060000D94B2F10D94B2F10D94B2F10D94B2F1A0
:10E070000D94B2F10D94B2F10D94B2F10D94B2F190
:10E080000D94B2F10D94B2F10D94B2F10D94B2F180
:10E090000D94B2F10D94B2F10D94B2F10D94B2F170
:10E0A0000D94B2F10D94B2F10D94B2F10D94B2F160
:10E0B0000D94B2F10D94B2F10D94B2F10D94B2F150
:10E0C0000D94B2F10D94B2F10D94B2F10D94B2F140
:10E0D0000D94B2F10D94B2F10D94B2F10D94B2F130
:10E0E0000D94B2F141546D656761323536300041AF
:10E0F000726475696E6F206578706C6F72657220DE
:10E1000073746B3530305632206279204D4C530099
:10E11000426F6F746C6F616465723E004875683F52
:10E1200000436F6D70696C6564206F6E203D200048
:10E130004350552054797065202020203D20005FF9
:10E140005F4156525F415243485F5F3D2000415658
:10E1500052204C696243205665723D20004743437C
:10E160002056657273696F6E203D20004350552024
:10E1700049442020202020203D20004C6F7720663D
:10E18000757365202020203D20004869676820665F
:10E190007573652020203D200045787420667573D6
:10E1A00065202020203D20004C6F636B2066757336
:10E1B000652020203D20004D617220203720323024
:10E1C000313300312E362E3800342E332E350056A2
:10E1D00023202020414444522020206F7020636F70
:10E1E00064652020202020696E73747275637469E1
:10E1F0006F6E2061646472202020496E74657272B3
:10E20000757074006E6F20766563746F7200726A49
:10E210006D702020006A6D70200057686174207056
:10E220006F72743A00506F7274206E6F7420737541
:10E2300070706F72746564004D7573742062652030
:10E2400061206C6574746572002000577269747483
:10E25000696E672045450052656164696E672045B7
:10E26000450045452065727220636E743D00504F35
:10E27000525400303D5A65726F2061646472003FF1
:10E280003D43505520737461747300403D454550C3
:10E29000524F4D207465737400423D426C696E6B41
:10E2A000204C454400453D44756D70204545505215
:10E2B0004F4D00463D44756D7020464C415348001B
:10E2C000483D48656C70004C3D4C69737420492F83
:10E2D0004F20506F72747300513D51756974005234
:10E2E0003D44756D702052414D00563D73686F7707
:10E2F00020696E7465727275707420566563746FF0
:10E30000727300593D506F727420626C696E6B00BD
:10E310002A0011241FBECFEFD1E2DEBFCDBF01E046
:10E320000CBF12E0A0E0B2E0EEE1FDEF03E00BBFB6
:10E3300002C007900D92A030B107D9F712E0A0E01B
:10E34000B2E001C01D92AE30B107E1F70F9460F367
:10E350000D948DFE01E20EBF0FEF0DBF11241FBE05
:10E360000D9460F30D9400F020E030E040ED57E0B4
:10E3700005C0FA013197F1F72F5F3F4F2817390792
:10E38000C0F308959C01260F311DC901A0E0B0E043
:10E390002F5F3F4FABBFFC018791882361F08093D3
:10E3A000C6008091C00086FFFCCF8091C0008064D1
:10E3B0008093C000EACF08958DE08093C6008091DD
:10E3C000C00086FFFCCF8091C00080648093C000B5
:10E3D0008AE08093C6008091C00086FFFCCF8091C8
:10E3E000C00080648093C00008950F94C2F10F9420
:10E3F000DCF10895FC019081992359F09093C600B7
:10E400008091C00086FFFCCF8091C0008064809323
:10E41000C0003196992379F70895282F982F929567
:10E420009F70892F805D8A3308F0895F8093C600D2
:10E430008091C00086FFFCCF8091C00080648093F3
:10E44000C000822F8F70982F905D9A3308F0995FEB
:10E450009093C6008091C00086FFFCCF8091C000E1
:10E4600080648093C00008959C01FB01853691056E
:10E470001CF46330710594F0C90164E670E00F94F8
:10E480002EFE605D7F4F6093C6008091C00086FFC6
:10E49000FCCF8091C00080648093C0002B30310598
:10E4A00014F43297B4F0C90164E670E00F942EFEC4
:10E4B0006AE070E00F942EFE605D7F4F6093C600AF
:10E4C0008091C00086FFFCCF8091C0008064809363
:10E4D000C000C9016AE070E00F942EFEC0968093E0
:10E4E000C6008091C00086FFFCCF8091C000806490
:10E4F0008093C00008951F93182F8EE692EE60E07F
:10E500000F94C2F11093C6008091C00086FFFCCF2B
:10E510008091C00080648093C0000F94DCF11F9153
:10E5200008952F923F924F925F926F927F928F92B7
:10E530009F92AF92BF92CF92DF92EF92FF920F9392
:10E540001F93DF93CF93CDB7DEB762970FB6F894E2
:10E55000DEBF0FBECDBF382E622ECA01DB015C01CB
:10E560006D01772420E2222E2E010894411C511CBB
:10E570008BC081E0A81680E0B80681E0C80680E084
:10E58000D80628F0C601AA27BB270F940DF2BB2797
:10E59000AD2D9C2D8B2D0F940DF28A2D0F940DF225
:10E5A0002092C6008091C00086FFFCCF8091C00001
:10E5B00080648093C0009DE29093C6008091C0006B
:10E5C00086FFFCCF8091C00080648093C0002092C1
:10E5D000C6008091C00086FFFCCF8091C00080649F
:10E5E0008093C00019828601750188249924A1E0D6
:10E5F0003A1651F03A1620F0B2E03B1661F409C029
:10E600000BBFF701779007C0C7010F9477FE782EF4
:10E6100002C0F7017080872D0F940DF22092C60082
:10E620008091C00086FFFCCF8091C0008064809301
:10E63000C000872D8052F401EF70F0708F3520F408
:10E64000E40DF51D708204C0E40DF51D8EE280839B
:10E650000894E11CF11C011D111D0894811C911CE2
:10E6600090E18916910409F0C2CF80E190E0A0E02A
:10E67000B0E0A80EB91ECA1EDB1E198AC2010F9493
:10E68000FAF10F94DCF16A94662009F072CF629679
:10E690000FB6F894DEBF0FBECDBFCF91DF911F91B3
:10E6A0000F91FF90EF90DF90CF90BF90AF909F9031
:10E6B0008F907F906F905F904F903F902F90089534
:10E6C0002F923F924F925F926F927F928F929F9282
:10E6D000AF92BF92CF92DF92EF92FF920F931F9370
:10E6E000DF93CF93CDB7DEB7CD53D1400FB6F894BB
:10E6F000DEBF0FBECDBF01E20EBF0FEF0DBF94B75F
:10E70000F894A89514BE80916000886180936000A1
:10E7100010926000789493FF05C0E0910002F091A0
:10E7200001021995279A2F9A8091C00082608093E8
:10E73000C00080E18093C40088E18093C1000000A4
:10E74000EE24FF24870144E0A42EB12CCC24DD2448
:10E7500024C0C5010197F1F70894E11CF11C011DCB
:10E76000111D21E2E2162EE4F20620E0020720E06D
:10E77000120718F031E0C32ED12CC801B70127ECE5
:10E780003BE140E050E00F9441FE611571058105C9
:10E79000910519F485B1805885B98091C00087FD35
:10E7A00003C0C114D104A9F2A6014F5F5F4FC25E3E
:10E7B000DE4F59834883CE51D140C25EDE4F8881FF
:10E7C0009981CE51D140019711F00D9410FEC05D9A
:10E7D000DE4F19821882C053D14060E0C15DDE4F28
:10E7E0001882CF52D14088249924C35DDE4F19820C
:10E7F0001882CD52D140C05EDE4F188219821A8233
:10E800001B82C052D140CE5CDE4F188219821A8220
:10E810001B82C253D140EE24FF2487010BBFF701B6
:10E8200007911691C45CDE4F19830883CC53D14005
:10E830000D940BFEC25EDE4F28813981CE51D1404E
:10E840002130310509F52091C600C25EDE4F1982E4
:10E850001882CE51D14022C02F5F3F4F4F4F5F4FA4
:10E86000213082E138078AE7480780E0580780F0C6
:10E87000C45CDE4FE881F981CC53D140EF5FFF4F9C
:10E8800019F0EE27FF27099420E030E040E050E047
:10E890008091C00087FFE0CF2091C600C35DDE4FAE
:10E8A00048815981CD52D1404F5F5F4FC35DDE4FEC
:10E8B00059834883CD52D140213209F063C64A3092
:10E8C000510508F05FC60894811C911C53E0851621
:10E8D000910409F059C600E010E018C081E280936D
:10E8E000C6008091C00086FFFCCF8091C00080648C
:10E8F0008093C0002F5F3F4F2931310579F70F9486
:10E90000DCF10F5F1F4F0530110519F020E030E0FA
:10E91000E5CF10920A0210920B0210920C02109294
:10E920000D02109206021092070210920802109235
:10E930000902109202021092030210920402109235
:10E9400005028FEE90EE60E00F94F5F180E191EE1C
:10E9500060E00F94C2F18091C00087FFFCCF9091DE
:10E96000C600903608F09F759032B8F09093C600BC
:10E970008091C00086FFFCCF8091C00080648093AE
:10E98000C000A0E2A093C6008091C00086FFFCCF2B
:10E990008091C00080648093C000983409F4D7C18E
:10E9A0009934B8F4923409F459C1933458F490333B
:10E9B00019F1903308F4E3C59F33A1F1903409F0C5
:10E9C000DEC5BDC0953409F470C1963409F0D7C5D1
:10E9D00098C1923509F42BC2933538F49C3409F46C
:10E9E000F5C1913509F0CBC518C2963509F445C279
:10E9F000993509F0C4C567C483E792EE62E00F94CD
:10EA0000F5F110920602109207021092080210927D
:10EA1000090210920A0210920B0210920C0210923C
:10EA20000D0213C18FE792EE62E00F94F5F18FEEC5
:10EA300090EE60E00F94F5F181E291EE60E00F94CA
:10EA4000C2F187EB91EE60E00F94F5F180E391EE77
:10EA500060E00F94C2F184EE90EE60E00F94F5F167
:10EA60008FE391EE60E00F94C2F186E090E061E008
:10EA700070E00F9434F20F94DCF18DE591EE60E0DC
:10EA80000F94C2F189EC91EE60E00F94F5F18EE401
:10EA900091EE60E00F94C2F183EC91EE60E00F9490
:10EAA000F5F18CE691EE60E00F94C2F18EE10F94E7
:10EAB0000DF288E90F940DF281E00F940DF20F949E
:10EAC000DCF18BE791EE60E00F94C2F119E0E0E039
:10EAD000F0E010935700E4918E2F0F940DF20F94F5
:10EAE000DCF18AE891EE60E00F94C2F1E3E0F0E03F
:10EAF00010935700E4918E2F0F940DF20F94DCF1D8
:10EB000089E991EE60E00F94C2F1E2E0F0E0109349
:10EB10005700E4918E2F0F940DF20F94DCF188EAE8
:10EB200091EE60E00F94C2F1E1E0F0E01093570045
:10EB30001491812F0F940DF20F94DCF107CF8BE825
:10EB400092EE62E00F94F5F18BE492EE60E00F94A8
:10EB5000F5F10F94DCF100E010E019C0C8016F2D51
:10EB60000F947FFEFF2031F489E492EE60E00F9471
:10EB7000C2F10BC0F092C6008091C00086FFFCCFAE
:10EB80008091C00080648093C0000F5F1F4FC80158
:10EB900081519F41A0E0B0E0ABBFFC01F790BAE229
:10EBA000FB1621F0E2E000301E07C1F60F94DCF105
:10EBB0000F94DCF187E592EE60E00F94F5F10F948D
:10EBC000DCF1CC24DD2400E010E01EC0C8010F946D
:10EBD00077FEF82E882331F489E492EE60E00F94FA
:10EBE000C2F10BC08093C6008091C00086FFFCCFAD
:10EBF0008091C00080648093C000FE1419F00894D6
:10EC0000C11CD11C0F5F1F4FC80181519F41A0E063
:10EC1000B0E0ABBFFC01E790FAE2EF1621F022E092
:10EC20000030120799F60F94DCF10F94DCF182E6C4
:10EC300092EE60E00F94C2F1C60161E070E00F94C3
:10EC400034F20F94DCF10F94DCF110920202109276
:10EC50000302109204021092050278CE89E992EE26
:10EC600062E00F94F5F1279A2F9A16C02F9880E052
:10EC700090E0E0EDF7E03197F1F7019684369105E9
:10EC8000C1F72F9A80E090E0E0EDF7E03197F1F7DF
:10EC9000019684369105C1F78091C00087FFE6CFC9
:10ECA0008091C00087FFFCCF64C485EA92EE62E0E9
:10ECB0000F94F5F140910202509103026091040219
:10ECC0007091050281E020E10F9491F2809102029F
:10ECD00090910302A0910402B091050280509F4FD1
:10ECE000AF4FBF4F8093020290930302A0930402A0
:10ECF000B093050280509041A040B04008F426CE69
:10ED0000A4CF83EB92EE62E00F94F5F140910602FE
:10ED100050910702609108027091090280E020E1A1
:10ED20000F9491F28091060290910702A09108023F
:10ED3000B091090280509F4FAF4FBF4F80930602A2
:10ED400090930702A0930802B0930902FFCD80ECD4
:10ED500092EE62E00F94F5F183E792EE60E00F949B
:10ED6000F5F18FE792EE60E00F94F5F18BE892EE0B
:10ED700060E00F94F5F189E992EE60E00F94F5F10F
:10ED800085EA92EE60E00F94F5F183EB92EE60E09D
:10ED90000F94F5F180EC92EE60E00F94F5F187ECC2
:10EDA00092EE60E00F94F5F188ED92EE60E00F9442
:10EDB000F5F18FED92EE60E00F94F5F18AEE92EEB0
:10EDC00060E00F94F5F183E093EEBDCD87EC92EE19
:10EDD00062E00F94F5F181E40F947BF282E40F94EA
:10EDE0007BF283E40F947BF284E40F947BF285E45E
:10EDF0000F947BF286E40F947BF287E40F947BF20E
:10EE000088E40F947BF28AE40F947BF28BE40F94F6
:10EE10007BF28CE40F947BF299CD88ED92EE62E068
:10EE20000F94F5F1772473948824992409C48FED05
:10EE300092EE62E00F94F5F140910A0250910B02BC
:10EE400060910C0270910D0282E020E10F9491F22A
:10EE500080910A0290910B02A0910C02B0910D02D8
:10EE600080509F4FAF4FBF4F80930A0290930B0289
:10EE7000A0930C02B0930D0269CD8AEE92EE62E08F
:10EE80000F94F5F184EE90EE60E00F94F5F18FECC5
:10EE900091EE60E00F94F5F1662477244301CC5D98
:10EEA000DE4F19821882C452D140D401C301B695F5
:10EEB000A79597958795CA5DDE4F88839983AA8326
:10EEC000BB83C652D140CC5DDE4FA881B981C4520C
:10EED000D1401196CC5DDE4FB983A883C452D14096
:10EEE000CD0162E070E00F9434F2B0E2B093C6005E
:10EEF0008091C00086FFFCCF8091C0008064809329
:10EF0000C000EDE2E093C6008091C00086FFFCCF18
:10EF10008091C00080648093C000F0E2F093C6004E
:10EF20008091C00086FFFCCF8091C00080648093F8
:10EF3000C000CA5DDE4FE880F9800A811B81C6529D
:10EF4000D140BB27A12F902F8F2D0F940DF2CA5DBA
:10EF5000DE4F8881C652D1400F940DF2B0E2FB2EF5
:10EF6000F092C6008091C00086FFFCCF8091C00067
:10EF700080648093C0000DE30093C6008091C000C0
:10EF800086FFFCCF8091C00080648093C00010E2B7
:10EF90001093C6008091C00086FFFCCF8091C00016
:10EFA00080648093C0008BBEF3012791C65DDE4F65
:10EFB0002883CA52D140A22EBB24CC24DD2408943D
:10EFC000611C711C811C911C8BBEF3018791282E42
:10EFD0003324442455240894611C711C811C911C09
:10EFE0008BBEF3013791C55DDE4F3883CB52D140E4
:10EFF0000894611C711C811C911C8BBEF30147910C
:10F00000C45DDE4F4883CC52D140ADEFEA2EAFEF66
:10F01000FA2EAFEF0A2FAFEF1A2F6E0C7F1C801E57
:10F02000911E142D032DF22CEE24EA0CFB1C0C1D5A
:10F030001D1D0F940DF220E22093C6008091C000A8
:10F0400086FFFCCF8091C00080648093C000C65DC5
:10F05000DE4F8881CA52D1400F940DF230E23093D6
:10F06000C6008091C00086FFFCCF8091C000806404
:10F070008093C000C45DDE4F8881CC52D1400F9494
:10F080000DF240E24093C6008091C00086FFFCCFA5
:10F090008091C00080648093C000C55DDE4F888190
:10F0A000CB52D1400F940DF250E25093C6008091A4
:10F0B000C00086FFFCCF8091C00080648093C000B8
:10F0C0008FEFE8168FEFF80680E0080780E018075A
:10F0D00031F484E092EE60E00F94C2F1DFC0D80119
:10F0E000C7018070907CA070B0708050904CA040A0
:10F0F000B040D1F52FEF3FE340E050E0E222F322B1
:10F1000004231523CA5DDE4FA880B980CA80DB8046
:10F11000C652D140AE0CBF1CC01ED11EAA0CBB1CD7
:10F12000CC1CDD1C8EE092EE60E00F94C2F1BB2798
:10F13000A12F902F8F2D0F940DF28E2D0F940DF285
:10F1400030E23093C6008091C00086FFFCCF8091F2
:10F15000C00080648093C0004EE34093C60080915D
:10F16000C00086FFFCCF87C08EE09EEFA0E0B0E03D
:10F17000E822F9220A231B239CE0E91694E9F90608
:10F1800090E0090790E0190709F088C0C45DDE4FE0
:10F19000A881CC52D140EA2EFF2400E010E0102FCD
:10F1A0000F2DFE2CEE24C55DDE4FB881CB52D14031
:10F1B000EB0EF11C011D111DD601C501817090706F
:10F1C000A070B070DC0199278827E80EF91E0A1F8D
:10F1D0001B1F20EF30E040E050E0A222B322C42207
:10F1E000D52241E1AA0CBB1CCC1CDD1C4A95D1F7F1
:10F1F000EA0CFB1C0C1D1D1D81E090E0A0E0B0E0BE
:10F20000282239224A225B2235E1220C331C441C7D
:10F21000551C3A95D1F7E20CF31C041D151D57013E
:10F220006801AA0CBB1CCC1CDD1C85E192EE60E0E1
:10F230000F94C2F1C801AA27BB270F940DF2BB2778
:10F24000A12F902F8F2D0F940DF28E2D0F940DF274
:10F2500090E29093C6008091C00086FFFCCF809121
:10F26000C00080648093C000AEE3A093C60080918C
:10F27000C00086FFFCCF8091C00080648093C000F6
:10F28000C601AA27BB270F940DF2BB27AD2D9C2DDD
:10F290008B2D0F940DF28A2D0F940DF20F94DCF14B
:10F2A000CC5DDE4FE881F981C452D140F99709F471
:10F2B0004DCBF4E0EF2EF12C012D112D6E0C7F1CA7
:10F2C000801E911EF2CD83E093EE62E00F94F5F183
:10F2D0008AE192EE60E00F94C2F18091C00087FF56
:10F2E000FCCF1091C6001F751093C6008091C0001E
:10F2F00086FFFCCF8091C00080648093C0000F9493
:10F30000DCF1812F81548A3108F036C1163409F4BA
:10F3100095C0173490F4133409F44EC0143430F40B
:10F320001134F1F0123409F01DC130C0143409F465
:10F3300059C0153409F016C16BC01A3409F4C4C0A1
:10F340001B3438F4173409F48FC0183409F00AC19B
:10F35000A1C01B3409F4D2C01C3409F003C1E8C0B9
:10F360008FEF81B90DC082B1809582B980E090E0C5
:10F37000E0EDF7E03197F1F70196883C9105C1F790
:10F380008091C00087FFEFCF12B8EFC08FEF84B934
:10F390000DC085B1809585B980E090E0E0EDF7E0A3
:10F3A0003197F1F70196883C9105C1F78091C00033
:10F3B00087FFEFCF15B8D9C08FEF87B90DC088B1DF
:10F3C000809588B980E090E0E0EDF7E03197F1F7C3
:10F3D0000196883C9105C1F78091C00087FFEFCF6F
:10F3E00018B8C3C08FEF8AB90DC08BB180958BB9A7
:10F3F00080E090E0E0EDF7E03197F1F70196883C8E
:10F400009105C1F78091C00087FFEFCF1BB8ADC059
:10F410008FEF8DB90DC08EB180958EB980E090E0F0
:10F42000E0EDF7E03197F1F70196883C9105C1F7DF
:10F430008091C00087FFEFCF1EB897C08FEF80BBD1
:10F440000DC081B3809581BB80E090E0E0EDF7E0F6
:10F450003197F1F70196883C9105C1F78091C00082
:10F4600087FFEFCF11BA81C08FEF83BB0DC084B38C
:10F47000809584BB80E090E0E0EDF7E03197F1F714
:10F480000196883C9105C1F78091C00087FFEFCFBE
:10F4900014BA6BC08FEF809301010FC080910201FD
:10F4A00080958093020180E090E0E0EDF7E03197F5
:10F4B000F1F70196883C9105C1F78091C00087FF64
:10F4C000EDCF1092020151C08FEF809304010FC065
:10F4D0008091050180958093050180E090E0E0ED4A
:10F4E000F7E03197F1F70196883C9105C1F78091DB
:10F4F000C00087FFEDCF1092050137C08FEF8093DA
:10F5000007010FC08091080180958093080180E079
:10F5100090E0E0EDF7E03197F1F70196883C910536
:10F52000C1F78091C00087FFEDCF109208011DC088
:10F530008FEF80930A010FC080910B01809580931B
:10F540000B0180E090E0E0EDF7E03197F1F70196F4
:10F55000883C9105C1F78091C00087FFEDCF1092E4
:10F560000B0103C085E292EEEEC98091C00087FFD7
:10F57000FCCF8091C600EAC988E392EEE4C98CE131
:10F5800091EEE1C988249924933011F1943028F444
:10F59000913089F09230B8F408C0953061F195301F
:10F5A000F0F0963009F048C043C02B3109F042C951
:10F5B00091E06BE13FC96227C15DDE4F2883CF52E6
:10F5C000D14092E037C9B22FA0E0622793E032C960
:10F5D000822F90E0A82BB92B622794E02BC92E3004
:10F5E00009F039C3622795E0C05DDE4F19821882A9
:10F5F000C053D1401FC9E1E0F0E0EC0FFD1FC05D3A
:10F60000DE4F08811981C053D140E00FF11F2083E4
:10F610000F5F1F4FC05DDE4F19830883C053D14079
:10F6200062270A171B0709F005C9D80196E002C92D
:10F63000261709F010C303C0973009F0FBC87724E0
:10F640009981933109F412C19431C8F4963009F4C8
:10F65000D8C0973050F4923009F406C1933009F4C1
:10F660006DC0913009F059C253C0913109F477C08F
:10F67000923108F0BBC0903109F04FC2F5C098310B
:10F6800009F487C0993150F4953109F4EFC09531F0
:10F6900008F4C6C1963109F040C2C2C19A3109F4DA
:10F6A0006CC09A3108F491C09B3109F45BC09D3164
:10F6B00009F033C29D81903359F48F81882311F46E
:10F6C0009EE11CC0813011F091E018C098E916C08D
:10F6D000892F807591F0903539F4E0E0F0E089E011
:10F6E0008093570094910AC0983539F4E3E0F0E034
:10F6F00089E080935700949101C090E01A821B82A8
:10F700008D818C831D829E831F8227E030E009C299
:10F710001A8288E08B8381E48C8386E58D8382E581
:10F720008E8389E48F8383E5888780E589878FE5E9
:10F730008A8782E38B872BE030E0F3C18A818139AD
:10F7400041F0823941F0803911F48FE005C080E04A
:10F7500003C082E001C08AE01A828B8344C0772410
:10F76000739482C08D81882311F48EE12CC0813086
:10F7700011F081E028C088E926C01A82E1E0F0E0BB
:10F7800089E08093570084918B831C8224E030E0D1
:10F79000C8C18B81803589F48C81883039F4E2E0EE
:10F7A000F0E089E08093570084910DC0E0E0F0E044
