:100000000C9444010C9475010C9475010C947501C9
:100010000C9475010C9475010C9475010C94750188
:100020000C9475010C9475010C9475010C94750178
:100030000C9475010C9475010C9475010C94750168
:100040000C9475010C9475010C9475010C94750158
:100050000C9475010C9475010C9475010C94CD07EA
:100060000C9475010C9497070C946D070C94750112
:100070000C9475010C9475010C9475010C94750128
:100080000C9475010C9475010C9475010C94750118
:100090000C9437070C940D070C9475010C947501A2
:1000A0000C9475010C9475010C9475010C947501F8
:1000B0000C9475010C9475010C9475010C947501E8
:1000C0000C9475010C9475010C9475010C947501D8
:1000D0000C9475010C9475010C9475010C947501C8
:1000E0000C9475010C94C8040C946C040C94FB03E0
:1000F0000C94B2030C94BC030C94C7040C948F03AF
:100100000C94C4030C94A8030C94CA030C94B60377
:100110000C94C0030C94460E0C941F060C948102A0
:100120000C9431020C949B030C942C040C948903C2
:100130000C94D1020C945E020C948F020C941E035A
:100140000C9497030C94CE030C9417080C94A403FE
:100150000C94C9030C946D020C949E030C949303AD
:100160000C94AE0300002100240027002A002D007B
:100170003000330001010000040107010A01000002
:100180002200250028002B002E003100340002013F
:100190000000050108010B010000200023002600DB
:1001A00029002C002F00320000010000030106018D
:1001B00009010505050507050808080802020202ED
:1001C0000A0A0808040404040101010101010101F3
:1001D0000303030303030303040707070C0C0C0CBE
:1001E0000C0C0C0C020202020606060606060606A7
:1001F0000B0B0B0B0B0B0B0B010210202008081034
:100200002040102040800201020108040201010286
:10021000040810204080804020100804020180045F
:1002200002018040201008040201080402010102BA
:1002300004081020408001020408102040800000C3
:100240000A0B02090C0D0E08070304010000000050
:10025000000000000000000000000000000000009E
:10026000000000000000000000001211100000005B
:10027000000000000000000000000000000000007E
:10028000000000001708460E11241FBECFEFD1E278
:10029000DEBFCDBF00E00CBF12E0A0E0B2E0EAEEAE
:1002A000F3E200E00BBF02C007900D92A63FB1073A
:1002B000D9F724E0A6EFB2E001C01D92A03FB2073B
:1002C000E1F711E0C3E4D1E000E006C021970109A5
:1002D000802FFE010E94BC0FC234D10780E00807C6
:1002E000A9F70E942F090C94E3110C940000FC0163
:1002F000A089B18982E08C93A485B5851C92A685DE
:10030000B7858FEC8C93108EA489B58986E08C9389
:10031000A289B3898C9180618C93A289B3898C91D5
:1003200088608C93A289B3898C9180688C930288B1
:10033000F389E02D80818F7D8083089596E0899FE9
:10034000D0011124A75ABB4F90967C936E935F9770
:1003500091E091969C939197E091C604F091C70427
:100360009091C504992339F0309751F0811108C05C
:10037000809175041994309719F05C968C91FACF9E
:100380000895CF92DF92EF92FF920F931F9396E022
:10039000899FF0011124E75AFB4F11A2278D30A14C
:1003A0002130310551F178F02230310509F451C086
:1003B0002330310509F452C01F910F91FF90EF9047
:1003C000DF90CF9008956623B9F361E070E00E945A
:1003D0009E012FB7F8948091030390910403A0919C
:1003E0000503B09106032FBF8093B1049093B2042C
:1003F000A093B304B093B404DFCF9FB7F894C09038
:100400000303D0900403E0900503F09006039FBF20
:100410000091B1041091B2042091B3043091B4045E
:10042000C01AD10AE20AF30A0091C3041091C4046D
:1004300030E020E00C151D052E053F0550F462E06C
:1004400070E01F910F91FF90EF90DF90CF900C9490
:100450009E016111B1CF63E070E0F3CF70E060E026
:10046000F0CFAF92BF92CF92DF92EF92FF920F93B5
:100470001F93CF93DF936C017B018B01040F151F3A
:10048000EB015E01AE18BF08C017D10759F06991A2
:10049000D601ED91FC910190F081E02DC6011995F6
:1004A000892B79F7C501DF91CF911F910F91FF90B3
:1004B000EF90DF90CF90BF90AF900895FC01538DE7
:1004C000448D252F30E0842F90E0821B930B54172E
:1004D00010F0CF96089501970895FC01918D828DBB
:1004E000981761F0A28DAE0FBF2FB11D5D968C9154
:1004F000928D9F5F9F73928F90E008958FEF9FEF93
:100500000895FC01918D828D981731F0828DE80F4E
:10051000F11D858D90E008958FEF9FEF0895FC0108
:10052000918D228D892F90E0805C9F4F821B9109D5
:100530008F739927089587E093E00E948F0221E04E
:10054000892B09F420E0822F089584EA93E00E9429
:100550008F0221E0892B09F420E0822F0895FC010D
:10056000A48DA80FB92FB11DA35ABF4F2C91848D14
:1005700090E001968F739927848FA689B7892C9371
:10058000A089B1898C91837080648C93938D848DC4
:10059000981306C00288F389E02D80818F7D8083C7
:1005A0000895EF92FF920F931F93CF93DF93EC0187
:1005B00081E0888F9B8D8C8D98131AC0E889F9890A
:1005C000808185FF15C09FB7F894EE89FF8960830D
:1005D000E889F98980818370806480839FBF81E08E
:1005E00090E0DF91CF911F910F91FF90EF900895D0
:1005F000F62E0B8D10E00F5F1F4F0F731127E02EAB
:100600008C8D8E110CC00FB607FCFACFE889F989E2
:10061000808185FFF5CFCE010E94AF02F1CFEB8D37
:10062000EC0FFD2FF11DE35AFF4FF0829FB7F894B6
:100630000B8FEA89FB8980818062CFCFCF93DF93D4
:10064000EC01888D8823B9F0AA89BB89E889F989EA
:100650008C9185FD03C0808186FD0DC00FB607FC1F
:10066000F7CF8C9185FFF2CF808185FFEDCFCE0152
:100670000E94AF02E9CFDF91CF91089580E090E032
:10068000892B29F00E94A50281110E94000080E0C0
:1006900090E0892B29F00E949B0281110E940000AA
:1006A00080E090E0892B49F080E090E0892B29F0F0
:1006B0000E94000081110E94000080E090E0892BE0
:1006C00049F080E090E0892B29F00E940000811120
:1006D0000C94000008958150823108F05AC0E82F30
:1006E000F0E08827E958FC4F8F4F0C94BC0F97031C
:1006F0009B0389038F039303C9039E03A403A803E9
:10070000AE03B203B603BC03C003C903C403CA03E8
:10071000CE03809180008F77809380000895809130
:1007200080008F7DF9CF80918000877FF5CF84B5E1
:100730008F7784BD089584B58F7DFBCF8091B00005
:100740008F778093B00008958091B0008F7DF9CFAE
:10075000809190008F778093900008958091900011
:100760008F7DF9CF80919000877FF5CF8091A00099
:100770008F778093A00008958091A0008F7DF9CF9E
:100780008091A000877FF5CF809120018F778093A3
:1007900020010895809120018F7DF9CF8091200163
:1007A000877FF5CFCF93DF93282F30E0F901E25C0C
:1007B000FD4F8491F901E850FE4FD491F901EE54B8
:1007C000FE4FC491CC23A1F081110E946B03EC2F4A
:1007D000F0E0EE0FFF1FE856FE4FA591B491EC91AB
:1007E000ED2381E090E009F480E0DF91CF9108955E
:1007F00080E090E0FACF862F0C94D2031F93CF9322
:10080000DF93282F30E0F901E25CFD4F8491F9017C
:10081000E850FE4FD491F901EE54FE4FC491CC2321
:10082000A9F0162F81110E946B03EC2FF0E0EE0F60
:10083000FF1FE258FE4FA591B4918FB7F894EC9149
:10084000111108C0D095DE23DC938FBFDF91CF91CB
:100850001F910895DE2BF8CF862F642F0C94FE0392
:10086000CF93DF9390E0FC01E850FE4F24918E542B
:100870009E4FFC0184918823C9F090E0880F991F56
:10088000FC01EC59FE4FA591B491FC01E258FE4FDA
:10089000C591D49161110DC09FB7F8948C912095AA
:1008A00082238C938881282328839FBFDF91CF9157
:1008B0000895623051F49FB7F8943C91822F80954F
:1008C00083238C93E8812E2BEFCF8FB7F894EC9194
:1008D0002E2B2C938FBFEACF862F642F0C943004DD
:1008E0003FB7F8948091F7029091F802A091F90235
:1008F000B091FA0226B5A89B05C02F3F19F00196CA
:10090000A11DB11D3FBFBA2FA92F982F8827BC0169
:10091000CD01620F711D811D911D42E0660F771F91
:10092000881F991F4A95D1F708958F929F92AF9291
:10093000BF92CF92DF92EF92FF924B015C010E9437
:1009400070046B017C010E9470046C197D098E0992
:100950009F09683E734081059105A8F321E0821A42
:100960009108A108B10888EEC80E83E0D81EE11CEA
:10097000F11C81149104A104B10429F7FF90EF90B8
:10098000DF90CF90BF90AF909F908F900895089583
:1009900090E080E00895CF93DF93EC0160E08E81DA
:1009A0000E94FE0361E08E810E94FE0360E08E8162
:1009B0000E94FE038BE891E00197F1F7DF91CF9160
:1009C0000895CF92DF92EF92FF920F931F93CF93F0
:1009D000DF936C017C0187E0E80EF11CD0E0C0E001
:1009E000062F10E0B8010C2E02C0759567950A9489
:1009F000E2F76170F70181917F010E94FE03219669
:100A0000C430D10579F7C601DF91CF911F910F91C5
:100A1000FF90EF90DF90CF900C94CB04CF92DF92B9
:100A2000EF92FF920F931F93CF93DF93EC01F62E7B
:100A3000642F8C810E94FE038D818F3F19F060E04E
:100A40000E94FE030F2D10E08F8584FF25C06E01EC
:100A500087E0C80ED11CF12CE12CB8010E2C02C08D
:100A6000759567950A94E2F76170F60181916F01BF
:100A70000E94FE03FFEFEF1AFF0A88E0E816F10478
:100A800061F7CE01DF91CF911F910F91FF90EF9011
:100A9000DF90CF900C94CB04B80184E075956795F6
:100AA0008A95E1F7CE010E94E1046F2DCE01DF911E
:100AB000CF911F910F91FF90EF90DF90CF900C940A
:100AC000E10440E0682F84ED94E00C940E0581E091
:100AD0000E9461058BE39FE10197F1F70895CF93A1
:100AE000DF93823029F49091E30498609093E304BB
:100AF0008093E7041092E80480E48093E90480E1A5
:100B00008093EA0480E58093EB0461E08091D8044F
:100B10000E9430048091D9048F3F19F061E00E9457
:100B2000300461E08091DA040E943004C4EDD4E026
:100B30009E01245D34408091E30484FD0BC084E079
:100B400090E021962817390744F461E08E810E94D5
:100B50003004EECF88E090E0F4CF8BE39DE0019786
:100B6000F1F760E08091D8040E94FE0360E080917C
:100B7000DA040E94FE038091D9048F3F19F060E0EF
:100B80000E94FE038091E30484FD34C063E084EDA1
:100B900094E00E94E104CBE4D6E4CE010197F1F7A2
:100BA00063E084ED94E00E94E1042197F1F763E0B3
:100BB00084ED94E00E94E10483E592E00197F1F76F
:100BC00062E084ED94E00E94E1048091E30480629D
:100BD0000E94610584E08093E4048CE00E9461053A
:100BE0000E94670582E08093E50486E0DF91CF9163
:100BF0000C94610580620E9461058BE496E4019784
:100C0000F1F78091E30480620E94610583E592E040
:100C10000197F1F78091E30480620E946105D5CFCE
:100C20009091E704691710F06FEF690FE62FF0E07D
:100C3000EC52FB4F9489890F80680C94610541E068
:100C40000E940E0581E090E00895FC018081918171
:100C5000009711F00C9460100895FB0101900020A2
:100C6000E9F73197AF01461B570BDC01ED91FC9181
:100C70000280F381E02D1994BC0184ED94E00C9482
:100C80002D060F931F93CF93DF93EC01E7E4F4E07D
:100C900044815581608171810E9431028C0162E53D
:100CA00072E0CE010E942D06800F911FDF91CF913F
:100CB0001F910F910895CF93DF93BC0184EA93E0D5
:100CC0000E942D06EC0162E572E084EA93E00E9446
:100CD0002D068C0F9D1FDF91CF9108950F931F93C9
:100CE000CF93DF93EC0188819981009759F02A8195
:100CF0003B812617370730F081E0DF91CF911F91BC
:100D00000F9108958B016F5F7F4F0E94E91000974C
:100D100059F0998388831B830A832C813D81232B7F
:100D200059F7FC011082E8CF80E0E7CFEF92FF9205
:100D30000F931F93CF93DF931F921F92CDB7DEB710
:100D40008C0169831A82FC01E480F580FFEFEF1AC1
:100D5000FF0AB7010E946E06882381F0F801208106
:100D6000318184819581BE016F5F7F4F820F931F18
:100D70000E94DC11F801F582E48281E00F900F906F
:100D8000DF91CF911F910F91FF90EF900895EF9217
:100D9000FF920F931F93CF93DF93EC017B018A01A6
:100DA000BA010E946E0628813981811114C0211573
:100DB000310519F0C9010E946010198218821D8244
:100DC0001C821B821A82CE01DF91CF911F910F915D
:100DD000FF90EF9008951D830C83B701C9010E9415
:100DE000DC11F1CFFB0101900020E9F73197AF0151
:100DF000461B570B0C94C706FC011182108213820C
:100E0000128215821482FB0101900020E9F73197CC
:100E1000AF01461B570B0C94C7061F920F920FB6DB
:100E20000F9211240BB60F922F933F934F935F9322
:100E30006F937F938F939F93AF93BF93EF93FF93A2
:100E400087E093E00E94AF02FF91EF91BF91AF91D5
:100E50009F918F917F916F915F914F913F912F91D2
:100E60000F900BBE0F900FBE0F901F9018951F9202
:100E70000F920FB60F9211240BB60F922F938F93F0
:100E80009F93EF93FF93E0911703F09118038081F4
:100E9000E0911D03F0911E0382FD1DC090818091A1
:100EA00020038F5F8F7320912103821741F0E0911F
:100EB0002003F0E0E95FFC4F958F80932003FF91C2
:100EC000EF919F918F912F910F900BBE0F900FBEBE
:100ED0000F901F9018958081F2CF1F920F920FB63E
:100EE0000F9211240BB60F922F933F934F935F9362
:100EF0006F937F938F939F93AF93BF93EF93FF93E2
:100F000084EA93E00E94AF02FF91EF91BF91AF910D
:100F10009F918F917F916F915F914F913F912F9111
:100F20000F900BBE0F900FBE0F901F9018951F9241
:100F30000F920FB60F9211240BB60F922F938F932F
:100F40009F93EF93FF93E091B403F091B5038081F9
:100F5000E091BA03F091BB0382FD1DC090818091A6
:100F6000BD038F5F8F732091BE03821741F0E09124
:100F7000BD03F0E0EC55FC4F958F8093BD03FF91CE
:100F8000EF919F918F912F910F900BBE0F900FBEFD
:100F90000F901F9018958081F2CF1F920F920FB67D
:100FA0000F9211242F933F938F939F93AF93BF93EF
:100FB0008091030390910403A0910503B09106036F
:100FC0003091F60223E0230F2D3758F50196A11D2D
:100FD000B11D2093F6028093030390930403A09322
:100FE0000503B09306038091F7029091F802A09157
:100FF000F902B091FA020196A11DB11D8093F7028A
:101000009093F802A093F902B093FA02BF91AF91C6
:101010009F918F913F912F910F900FBE0F901F9036
:10102000189526E8230F0296A11DB11DD2CF10926C
:101030000A031092090348EE53E060E070E0409329
:101040000B0350930C0360930D0370930E038EE219
:1010500092E090930803809307032DEC30E03093E7
:101060001403209313032CEC30E0309316032093E9
:10107000150328EC30E0309318032093170329EC74
:1010800030E030931A03209319032AEC30E03093B8
:101090001C0320931B032EEC30E030931E0320939F
:1010A0001D0310922003109221031092220310922C
:1010B00023031092A7031092A6034093A803509312
:1010C000A9036093AA037093AB039093A503809345
:1010D000A40385EC90E09093B1038093B00384EC7B
:1010E00090E09093B3038093B20380EC90E09093F0
:1010F000B5038093B40381EC90E09093B7038093A1
:10110000B60382EC90E09093B9038093B80386EC29
:1011100090E09093BB038093BA031092BD031092AA
:10112000BE031092BF031092C0031092D704109216
:10113000D6048AE492E09093D5048093D40487E0A7
:101140008093D8048FEF8093D90486E08093DA04EB
:1011500085E08093DB0484E08093DC0483E080936B
:10116000DD0482E08093DE041092DF041092E0043C
:101170001092E1041092E2041092E30481E00E94D4
:101180006F0565E572E08EEC94E00E94FC066AE56E
:1011900072E088EC94E00E94FC0610925B041092CE
:1011A0005F0410925E041092600480E492E09093D9
:1011B0005A0480935904E5E7F4E010821482138204
:1011C0001582369684E0E13BF807B9F78CE092E0AF
:1011D0009093BC048093BB0488E092E09093BE049B
:1011E0008093BD0484E08093BF048093C00480E1B9
:1011F00092E09093BA048093B9048AE090E09093CF
:10120000C2048093C10484EF91E09093C40480935E
:10121000C3041092C7041092C6041092B504109231
:10122000B6041092B7041092B8041092C50464E595
:1012300072E083E594E00E94FC0664E572E08DE4D0
:1012400094E00E94FC0664E572E087E494E00E946A
:10125000FC0664E572E081E494E00C94FC06CF9314
:10126000DF93CDB7DEB7A8970FB6F894DEBF0FBEF9
:10127000CDBF789484B5826084BD84B5816084BD1F
:1012800085B5826085BD85B5816085BD80916E0024
:10129000816080936E001092810080918100826055
:1012A0008093810080918100816080938100809192
:1012B00080008160809380008091B1008460809381
:1012C000B1008091B00081608093B0008091910066
:1012D0008260809391008091910081608093910061
:1012E000809190008160809390008091A100826045
:1012F0008093A1008091A10081608093A1008091E2
:10130000A00081608093A000809121018260809381
:101310002101809121018160809321018091200130
:1013200081608093200180917A00846080937A00AC
:1013300080917A00826080937A0080917A00816047
:1013400080937A0080917A00806880937A0010926E
:10135000C10082E00E946F0580E40E94610500E008
:1013600012E0E8E0EE2EE2E0FE2EF80161918F013E
:1013700084ED94E00E941F06E016F106B1F70E948A
:10138000670582E00E9461058BE39FE10197F1F719
:1013900060E082E00E94100660E084ED94E00E942C
:1013A0001F0660E083E00E94100680E692E00E9443
:1013B0003C0660E08DE00E94100660E084ED94E061
:1013C0000E941F0661E081E00E9410068BE692E019
:1013D0000E943C0684EA93E00E94770187E093E054
:1013E0000E9477018FEF9FEF909302038093010398
:1013F00064E572E087E494E00E94F20664E572E03E
:1014000081E494E00E94F20680917B00877F8093C4
:101410007B0080E480937C0080917A0080648093DC
:101420007A0080917A0086FDFCCF609178007091FF
:101430007900072E000C880B990B61157105810549
:10144000910511F00E94F90E1092FF021092FE0217
:1014500061E08DE00E94300461E08AE00E94300487
:1014600010E000E0C8010E94430F8F3F21F4109369
:10147000FD020093FC020F5F1F4F0115F4E01F07F0
:1014800089F7C090FC02D090FD020D2C000CEE08F4
:10149000FF08F7FE70C06DE287E093E00E94D10282
:1014A00022273327A9012C193D094E095F0919A2EA
:1014B0008E010F5D1F4F7AE0C72ED12CE12CF12C4D
:1014C000CA01B901A70196010E948B0F605DF80166
:1014D00062938F01211531054105510589F70115E9
:1014E000110529F0B80187E093E00E942D0662E51E
:1014F00072E087E093E00E942D0653E0452E512CC8
:10150000612C712C80910103909102038B30910525
:1015100009F04CC060E080E00E9410068BE792E08A
:101520000E943C0661E080E00E94100685E892E09F
:101530000E943C0684EA93E00E948F021816190666
:101540000CF05BC084EA93E00E946D02809300037C
:10155000833409F052C00E94670560E080E00E9479
:1015600010068EE892E00E943C0680910103909163
:101570000203019628C0A701960119A28E010F5DF2
:101580001F4F6AE0C62ED12CE12CF12CCA01B90103
:10159000A70196010E948B0F605DF80162938F0195
:1015A000211531054105510589F799CF8A309105FB
:1015B00079F468EE73E080E090E00E9495040E9468
:1015C00067058BE090E0909302038093010315C0C0
:1015D0008C30910509F07BC084EA93E00E948F0271
:1015E0001816190654F484EA93E00E946D02809361
:1015F00000038C3629F40E9467050E943E0382CFC7
:101600008237D9F70E94670564E572E0CE018396C0
:101610000E94FC0684EA93E00E948F02892B09F461
:1016200051C084EA93E00E946D02182F809300035A
:10163000682FCE0183960E9496061A3259F71A82B5
:1016400019821C821B821E821D826BA17CA16115E6
:10165000710531F04FA158A5CE0101960E94C70631
:101660000D811E81F12CE12C11278091FC029091BB
:10167000FD02E016F106CCF42D813E81E216F30660
:1016800020F4E981FA81309769F41092FB02EBEFC4
:10169000F2E060818E0D9F1D0E944B0FFFEFEF1A4D
:1016A000FF0AE3CFEE0DFF1DF4CF080F191F0F5FE8
:1016B0001F4F1093FD020093FC02CE0101960E9481
:1016C0002506A8CFCE0183960E94250696CF8D30A1
:1016D000910509F09CC284EA93E00E948F021816DB
:1016E00019060CF08ACF84EA93E00E946D02809381
:1016F0000003883609F07DC260E08DE00E94FE03A1
:1017000064E572E087E494E00E94F20664E572E02A
:1017100081E494E00E94F2061092FF021092FE0211
:1017200044E0E42EF12C0E94AA0E1CA21BA21EA2D1
:101730001DA218A61FA229E030E040E050E00E9460
:10174000590F2AE0AE014F5F5F4F0E94020FBE01AA
:101750006F5F7F4FCE0183960E94F206CBA0DCA084
:10176000C114D10419F10FA118A501151105F1F04B
:1017700080914B0490914C04080F191FB80187E425
:1017800094E00E946E06882389F0209147043091EE
:10179000480480914B0490914C04B601820F931F32
:1017A0000E94DC1110934C0400934B04CE018396ED
:1017B0000E94250681E0E81AF10809F0B4CF0E94E2
:1017C000AA0EA30192010E94590F6F5B7F4F8F4FAA
:1017D0009F4F87E494E00E9496060E94AA0EA30100
:1017E00092010E94590F6F5B7F4F8F4F9F4F87E48D
:1017F00094E00E94960684EA93E00E94410687E006
:1018000093E00E94410660E080E00E94100688E9B3
:1018100092E00E943C0661E080E00E9410062224D3
:10182000239436E0832E2092C5048FB7F89440911C
:1018300003035091040360910503709106038FBF69
:101840008091B5049091B604A091B704B091B8040A
:10185000481B590B6A0B7B0B8091C1049091C20409
:10186000B0E0A0E084179507A607B707E0F610E000
:101870008091BF04181760F4E091BB04F091BC04A0
:10188000E10FF11D62E080810E9430041F5FF0CF04
:10189000912C8091C004981608F063C0E92CF12CBB
:1018A000E091BD04F091BE04EE0DFF1D61E080816A
:1018B0000E943004E091BD04F091BE04EE0DFF1DC6
:1018C00060E080810E94FE0381E090E0A0E0B0E053
:1018D000092C04C0880F991FAA1FBB1F0A94D2F7B6
:1018E0005C016C01C094D094312C8091BF043816F7
:1018F00008F5032D10E0E091BB04F091BC04E00F6B
:10190000F11F80810E94D2030C5F1F4F000F111F37
:10191000F801E75AFB4F892B41F4808191818A2994
:101920009B29918380833394E0CF808191818C21A6
:101930009D21F7CFE091BD04F091BE04EE0DFF1D97
:1019400061E080810E94FE038091BD049091BE04FD
:10195000E80EF91E60E0F70180810E943004939444
:1019600098CF99E5E92E94E0F92E8701F801878D4B
:1019700090A1892B31F4148E8FEF9FEF968F858F76
:1019800011A20A5F1F4FE5E9F4E0E017F10771F7D4
:10199000D12C8091BF04D81608F052C0C12CAD2CB8
:1019A000B12CAA0CBB1CC5018F599B4F5C01209127
:1019B000C004C21608F042C0F501608171810C2C90
:1019C00002C0769567950A94E2F7D29E90011124A1
:1019D0002C0D311DE9E5F4E080E0458D568D24178E
:1019E000350709F422C18F5F36968A30B1F760FF60
:1019F00023C0E9E5F4E090E080E0448D411117C098
:101A0000E091B904F091BA04E20FF31F4081889E7F
:101A1000F001899EF00D1124E75AFB4F448F368F59
:101A2000258F10A2178E61E00E94C10105C00196AA
:101A300036968A30910509F7C394B9CFD394A9CFCC
:101A400080E0F70191A19111892FF6E0EF0EF11CD2
:101A5000E016F106B1F79FB7F89440910303509157
:101A6000040360910503709106039FBF4093B50482
:101A70005093B6046093B7047093B804882309F4B4
:101A8000D2CE80917A04882309F4CDCE8091780457
:101A900090917904019709F0C6CE10917504112335
:101AA00009F4C1CE1A3209F081C020914504309169
:101AB000460480914B0490914C0428173907C1F4D7
:101AC00080914104909142046091470470914804D0
:101AD000009709F4ACC06115710539F4232B09F4A2
:101AE000B4C0FC01808190E0ADC00E94D311AAC0B7
:101AF0008091FE029091FF0201969093FF028093E5
:101B0000FE0260E00397F1F480E00E94100682EA92
:101B100092E00E943C0661E080E00E94100688EBA3
:101B200092E00E943C0682EC92E00E945B0661E03B
:101B30008DE00E94FE0368E873E180E090E00E947F
:101B400095045BCD80E00E94100682EA92E00E943C
:101B50003C0661E080E00E9410068CEC92E00E945E
:101B60003C0687ED92E00E945B0660E47FE180E046
:101B700090E00E9495040E94670564E572E081E4AC
:101B800094E00E94F20660E080E00E94100688E97E
:101B900092E00E943C0661E080E00E9410066FE047
:101BA00070E080E090E00E9495043DCE1332A9F4ED
:101BB0000E94670560E080E00E94100682EA92E0E1
:101BC0000E943C0661E080E00E94100682EE92E0F6
:101BD0000E943C068CEE92E0A8CF612F81E494E055
:101BE0000E94960641E0612F84ED94E00E940E056C
:101BF0001ACE853709F001CD8BE090E09093020377
:101C00008093010360ED77E080E090E098CF8A3028
:101C100091050CF0F2CC019690930203809301039E
:101C200068EE73E080E090E08ACF6170FDCE6115D0
:101C3000710559F0232B49F0FB01808190E09195CB
:101C400081959109892B09F053CF0E94670560E0C7
:101C500080E00E94100682EA92E00E943C0661E069
:101C600080E00E9410068AEA92E00E943C061092F0
:101C7000FF021092FE0264E572E081E494E00E94AB
:101C8000F2068EEC92E00E945B066FCC81E494E059
:101C90000E94250687E494E00E9425068DE494E0E6
:101CA0000E94250683E594E00E94250688EC94E0D6
:101CB0000E9425068EEC94E00C9425068F929F924C
:101CC000AF92BF92CF92DF92EF92FF92CF93DF93CA
:101CD000EC01688179818A819B816115710581059B
:101CE000910521F464E279ED8BE597E02DE133EF86
:101CF00041E050E00E94590F49015A019B01AC019B
:101D0000A7EAB1E40E94780F6B017C01ACEEB4EF5E
:101D1000A50194010E94860FC60ED71EE81EF91E6B
:101D2000F7FE06C081E0C81AD108E10880E8F80A89
:101D3000C882D982EA82FB82C701B6019F77DF9110
:101D4000CF91FF90EF90DF90CF90BF90AF909F909A
:101D50008F9008958F929F92AF92BF92CF92DF9211
:101D6000EF92FF92609120027091210280912202F5
:101D700090912302611571058105910521F464E2BA
:101D800079ED8BE597E02DE133EF41E050E00E94E3
:101D9000590F49015A019B01AC01A7EAB1E40E9425
:101DA000780F6B017C01ACEEB4EFA50194010E94A9
:101DB000860FC60ED71EE81EF91EF7FE06C081E08C
:101DC000C81AD108E10880E8F80AC0922002D0922F
:101DD0002102E0922202F0922302C701B6019F770E
:101DE000FF90EF90DF90CF90BF90AF909F908F903B
:101DF00008956093200270932102809322029093B1
:101E000023020895BB272A3051F4992342F4BDE2FE
:101E100090958095709561957F4F8F4F9F4F0C9453
:101E2000120FBB27FA01A62F6217710581059105D4
:101E3000330B30FB66F0AA27660F771F881F991FA8
:101E4000AA1FA21710F0A21B63953850A9F7A05D36
:101E5000AA3308F0A95DA19336F7B111B1931082AE
:101E6000CA010C94330FDC01FC01672F71917723B9
:101E7000E1F7329704C07C916D9370836291AE1745
:101E8000BF07C8F30895F999FECF92BD81BDF89AB6
:101E9000992780B50895262FF999FECF1FBA92BDD4
:101EA00081BD20BD0FB6F894FA9AF99A0FBE01963B
:101EB0000895052E97FB1EF400940E94700F57FDA5
:101EC00007D00E948B0F07FC03D04EF40C94700FC8
:101ED00050954095309521953F4F4F4F5F4F089556
:101EE00090958095709561957F4F8F4F9F4F089586
:101EF0000E94AD0FA59F900DB49F900DA49F800DE3
:101F0000911D11240895B7FF0C94780F0E94780F4B
:101F1000821B930B0895A1E21A2EAA1BBB1BFD0185
:101F20000DC0AA1FBB1FEE1FFF1FA217B307E407B8
:101F3000F50720F0A21BB30BE40BF50B661F771F10
:101F4000881F991F1A9469F76095709580959095F0
:101F50009B01AC01BD01CF010895A29FB001B39FC9
:101F6000C001A39F700D811D1124911DB29F700DA2
:101F7000811D1124911D0895EE0FFF1F881F8BBF37
:101F80000790F691E02D19940F931F93CF93DF9351
:101F90008230910510F482E090E0E091EE04F0913F
:101FA000EF0430E020E0B0E0A0E0309799F4211594
:101FB000310509F44AC0281B390B24303105D8F506
:101FC0008A819B816115710589F1FB01938382836D
:101FD000FE0111C0408151810281138148175907C8
:101FE000E0F04817590799F4109761F012960C9396
:101FF000129713961C933296CF01DF91CF911F91C8
:102000000F9108950093EE041093EF04F4CF21157F
:10201000310551F04217530738F0A901DB019A014D
:10202000BD01DF01F801C1CFEF01F9CF9093EF04BB
:102030008093EE04CDCFFE01E20FF31F81939193C5
:102040002250310939832883D7CF2091EC04309175
:10205000ED04232B41F42091260230912702309386
:10206000ED042093EC0420912402309125022115E7
:10207000310541F42DB73EB7409128025091290215
:10208000241B350BE091EC04F091ED04E217F3070B
:10209000A0F42E1B3F0B2817390778F0AC014E5FD8
:1020A0005F4F2417350748F04E0F5F1F5093ED0424
:1020B0004093EC04819391939FCFF0E0E0E09CCFBC
:1020C000CF93DF930097E9F0FC01329713821282DD
:1020D000A091EE04B091EF04ED0130E020E0109704
:1020E000A1F420813181820F931F2091EC04309163
:1020F000ED042817390709F061C0F093ED04E0936F
:10210000EC04DF91CF910895EA01CE17DF07E8F5DF
:102110004A815B819E0141155105B1F7E901FB83BD
:10212000EA8349915991C40FD51FEC17FD0761F45B
:10213000808191810296840F951FE901998388839C
:10214000828193819B838A83F0E0E0E012968D91F7
:102150009C9113970097B9F52D913C911197CD0162
:102160000296820F931F2091EC043091ED04281702
:10217000390739F6309751F51092EF041092EE04BA
:10218000B093ED04A093EC04BCCFD383C283408111
:102190005181840F951FC817D90761F44E5F5F4FB7
:1021A00088819981480F591F518340838A819B817F
:1021B000938382832115310509F0B0CFF093EF04AA
:1021C000E093EE049ECFFD01DC01C0CF13821282AA
:1021D000D7CF4F925F926F927F928F929F92AF92E2
:1021E000BF92CF92DF92EF92FF920F931F93CF9304
:1021F000DF938C01009799F4CB01DF91CF911F9170
:102200000F91FF90EF90DF90CF90BF90AF909F9095
:102210008F907F906F905F904F900C94C40FFC0153
:10222000E60FF71F9C0122503109E217F30708F46B
:10223000AEC0D901CD91DC911197C617D70720F117
:10224000C530D10578F0CE0104978617970750F076
:10225000C61BD70B2297C193D1936D937C93CF016B
:102260000E946010C801DF91CF911F910F91FF90E4
:10227000EF90DF90CF90BF90AF909F908F907F9026
:102280006F905F904F9008955B01AC1ABD0A4C01AE
:102290008C0E9D1EA091EE04B091EF04512C412CA8
:1022A000F12CE12C109731F58091EC049091ED0424
:1022B0008815990509F05CC04616570608F058C005
:1022C0008091240290912502009741F48DB79EB72A
:1022D0004091280250912902841B950BE817F907B9
:1022E00008F055C0F093ED04E093EC04F90171831C
:1022F0006083B8CF8D919C91119712966C90129734
:1023000013967C901397A815B90559F56C0142E016
:10231000C40ED11CCA14DB0420F1AC014A195B09BC
:10232000DA011296159780F062827382518340839E
:10233000D9016D937C93E114F10471F0D7011396E8
:10234000FC93EE9312978ECF22968C0F9D1FF9016E
:1023500091838083F301EFCFF093EF04E093EE04D9
:1023600081CF4816590608F42C017D01D3019ACF7C
:10237000CB010E94C40F7C01009749F0AE01B80167
:102380000E94CA11C8010E94601087016BCF10E043
:1023900000E068CFFB01DC0102C001900D924150CA
:1023A0005040D8F70895FB01DC018D910190801910
:1023B0000110D9F3990B0895FB01DC0101900D92F6
:1023C0000020E1F7089511E0C3E4D1E000E006C089
:1023D000802FFE010E94BC0F2196011DC434D1073D
:0A23E00080E00807A9F7F894FFCF8A
:1023EA00040A11111F1B1F1F161718191A1B1C1D6F
:1023FA003132334134353642373839432A3023446F
:10240A00010000000000F004800000000000D1027A
:10241A0031025E021E038F026D028102000000007B
:10242A006C042C04FB03000000001F063102C804E0
:10243A00C7040D0A00313233340061646D696E00DD
:10244A004269656E76656E69646F00477275706F72
:10245A00352D53656363696F6E410045737065720C
:10246A00616E646F00436F6E6578696F6E00436FCB
:10247A006E65637461646F00436F6469676F2E2EC3
:10248A002E00496E677265736F00436F72726563DF
:10249A0074616D656E746500426C6F717565616417
:1024AA006F00626C6F71756561646F00496E636F6E
:1024BA0072726563746F00696E636F7272656374BA
:1024CA006F0043616E63656C61646F0063616E6384
:0624DA00656C61646F00F7
:00000001FF
