:100000000C9444010C9475010C9475010C947501C9
:100010000C9475010C9475010C9475010C94750188
:100020000C9475010C9475010C9475010C94750178
:100030000C9475010C9475010C9475010C94750168
:100040000C9475010C9475010C9475010C94750158
:100050000C9475010C9475010C9475010C945F0956
:100060000C9475010C9429090C94FF080C947501EB
:100070000C9475010C9475010C9475010C94750128
:100080000C9475010C9475010C9475010C94750118
:100090000C94C9080C949F080C9475010C9475017C
:1000A0000C9475010C9475010C9475010C947501F8
:1000B0000C9475010C9475010C9475010C947501E8
:1000C0000C9475010C9475010C9475010C947501D8
:1000D0000C9475010C9475010C9475010C947501C8
:1000E0000C9475010C94BC030C94C9030C94C804C3
:1000F0000C948F020C94C7040C947A110C9489030D
:100100000C94A8030C941F060C949E030C94D1022B
:100110000C94A9090C942C040C945E020C94AE036C
:100120000C949B030C94CE030C946C040C949303DA
:100130000C948F030C94CA030C94B2030C946D02BC
:100140000C94C0030C94A4030C941E030C94810221
:100150000C9431020C94B6030C94FB030C9497039B
:100160000C94C40300002100240027002A002D0065
:100170003000330001010000040107010A01000002
:100180002200250028002B002E003100340002013F
:100190000000050108010B010000200023002600DB
:1001A00029002C002F00320000010000030106018D
:1001B00009010505050507050808080802020202ED
:1001C0000A0A0808040404040101010101010101F3
:1001D0000303030303030303040707070C0C0C0CBE
:1001E0000C0C0C0C020202020606060606060606A7
:1001F0000B0B0B0B0B0B0B0B010210202008081034
:100200002040102040800201020108040201010286
:10021000040810204080804020100804020180045F
:1002200002018040201008040201080402010102BA
:1002300004081020408001020408102040800000C3
:100240000A0B02090C0D0E08070304010000000050
:10025000000000000000000000000000000000009E
:10026000000000000000000000001211100000005B
:10027000000000000000000000000000000000007E
:1002800000000000A9097A1111241FBECFEFD1E2AE
:10029000DEBFCDBF00E00CBF13E0A0E0B2E0E2E5BE
:1002A000FAE200E00BBF02C007900D92A433B10741
:1002B000D9F725E0A4E3B3E001C01D92AE32B20746
:1002C000E1F711E0C3E4D1E000E006C021970109A5
:1002D000802FFE010E94F012C234D10780E008078F
:1002E000A9F70E94C10A0C9417150C940000FC0198
:1002F000A089B18982E08C93A485B5851C92A685DE
:10030000B7858FEC8C93108EA489B58986E08C9389
:10031000A289B3898C9180618C93A289B3898C91D5
:1003200088608C93A289B3898C9180688C930288B1
:10033000F389E02D80818F7D8083089596E0899FE9
:10034000D0011124A956BB4F90967C936E935F9772
:1003500091E091969C939197E0910405F0910505A9
:1003600090910305992339F0309751F0811108C01D
:100370008091B3041994309719F05C968C91FACF60
:100380000895CF92DF92EF92FF920F931F9396E022
:10039000899FF0011124E956FB4F11A2278D30A14E
:1003A0002130310551F178F02230310509F451C086
:1003B0002330310509F452C01F910F91FF90EF9047
:1003C000DF90CF9008956623B9F361E070E00E945A
:1003D0009E012FB7F8948091410390914203A09120
:1003E0004303B09144032FBF8093EF049093F00434
:1003F000A093F104B093F204DFCF9FB7F894C090BC
:100400004103D0904203E0904303F09044039FBF28
:100410000091EF041091F0042091F1043091F20466
:10042000C01AD10AE20AF30A0091010510910205EF
:1004300030E020E00C151D052E053F0550F462E06C
:1004400070E01F910F91FF90EF90DF90CF900C9490
:100450009E016111B1CF63E070E0F3CF70E060E026
:10046000F0CFAF92BF92CF92DF92EF92FF920F93B5
:100470001F93CF93DF936C017B018B01040F151F3A
:10048000EB015E01AE18BF08C017D10759F06991A2
:10049000D601ED91FC910190F081E02DC6011995F6
:1004A000892B79F7C501DF91CF911F910F91FF90B3
:1004B000EF90DF90CF90BF90AF900895FC01538DE7
:1004C000448D252F30E0842F90E0821B930B54172E
:1004D00010F0CF96089501970895FC01918D828DBB
:1004E000981761F0A28DAE0FBF2FB11D5D968C9154
:1004F000928D9F5F9F73928F90E008958FEF9FEF93
:100500000895FC01918D828D981731F0828DE80F4E
:10051000F11D858D90E008958FEF9FEF0895FC0108
:10052000918D228D892F90E0805C9F4F821B9109D5
:100530008F739927089585E493E00E948F0221E04C
:10054000892B09F420E0822F089582EE93E00E9427
:100550008F0221E0892B09F420E0822F0895FC010D
:10056000A48DA80FB92FB11DA35ABF4F2C91848D14
:1005700090E001968F739927848FA689B7892C9371
:10058000A089B1898C91837080648C93938D848DC4
:10059000981306C00288F389E02D80818F7D8083C7
:1005A0000895EF92FF920F931F93CF93DF93EC0187
:1005B00081E0888F9B8D8C8D98131AC0E889F9890A
:1005C000808185FF15C09FB7F894EE89FF8960830D
:1005D000E889F98980818370806480839FBF81E08E
:1005E00090E0DF91CF911F910F91FF90EF900895D0
:1005F000F62E0B8D10E00F5F1F4F0F731127E02EAB
:100600008C8D8E110CC00FB607FCFACFE889F989E2
:10061000808185FFF5CFCE010E94AF02F1CFEB8D37
:10062000EC0FFD2FF11DE35AFF4FF0829FB7F894B6
:100630000B8FEA89FB8980818062CFCFCF93DF93D4
:10064000EC01888D8823B9F0AA89BB89E889F989EA
:100650008C9185FD03C0808186FD0DC00FB607FC1F
:10066000F7CF8C9185FFF2CF808185FFEDCFCE0152
:100670000E94AF02E9CFDF91CF91089580E090E032
:10068000892B29F00E94A50281110E94000080E0C0
:1006900090E0892B29F00E949B0281110E940000AA
:1006A00080E090E0892B49F080E090E0892B29F0F0
:1006B0000E94000081110E94000080E090E0892BE0
:1006C00049F080E090E0892B29F00E940000811120
:1006D0000C94000008958150823108F05AC0E82F30
:1006E000F0E08827E958FC4F8F4F0C94F0129703E5
:1006F0009B0389038F039303C9039E03A403A803E9
:10070000AE03B203B603BC03C003C903C403CA03E8
:10071000CE03809180008F77809380000895809130
:1007200080008F7DF9CF80918000877FF5CF84B5E1
:100730008F7784BD089584B58F7DFBCF8091B00005
:100740008F778093B00008958091B0008F7DF9CFAE
:10075000809190008F778093900008958091900011
:100760008F7DF9CF80919000877FF5CF8091A00099
:100770008F778093A00008958091A0008F7DF9CF9E
:100780008091A000877FF5CF809120018F778093A3
:1007900020010895809120018F7DF9CF8091200163
:1007A000877FF5CFCF93DF93282F30E0F901E25C0C
:1007B000FD4F8491F901E850FE4FD491F901EE54B8
:1007C000FE4FC491CC23A1F081110E946B03EC2F4A
:1007D000F0E0EE0FFF1FE856FE4FA591B491EC91AB
:1007E000ED2381E090E009F480E0DF91CF9108955E
:1007F00080E090E0FACF862F0C94D2031F93CF9322
:10080000DF93282F30E0F901E25CFD4F8491F9017C
:10081000E850FE4FD491F901EE54FE4FC491CC2321
:10082000A9F0162F81110E946B03EC2FF0E0EE0F60
:10083000FF1FE258FE4FA591B4918FB7F894EC9149
:10084000111108C0D095DE23DC938FBFDF91CF91CB
:100850001F910895DE2BF8CF862F642F0C94FE0392
:10086000CF93DF9390E0FC01E850FE4F24918E542B
:100870009E4FFC0184918823C9F090E0880F991F56
:10088000FC01EC59FE4FA591B491FC01E258FE4FDA
:10089000C591D49161110DC09FB7F8948C912095AA
:1008A00082238C938881282328839FBFDF91CF9157
:1008B0000895623051F49FB7F8943C91822F80954F
:1008C00083238C93E8812E2BEFCF8FB7F894EC9194
:1008D0002E2B2C938FBFEACF862F642F0C943004DD
:1008E0003FB7F8948091360390913703A091380375
:1008F000B091390326B5A89B05C02F3F19F001968A
:10090000A11DB11D3FBFBA2FA92F982F8827BC0169
:10091000CD01620F711D811D911D42E0660F771F91
:10092000881F991F4A95D1F708958F929F92AF9291
:10093000BF92CF92DF92EF92FF924B015C010E9437
:1009400070046B017C010E9470046C197D098E0992
:100950009F09683E734081059105A8F321E0821A42
:100960009108A108B10888EEC80E83E0D81EE11CEA
:10097000F11C81149104A104B10429F7FF90EF90B8
:10098000DF90CF90BF90AF909F908F900895089583
:1009900090E080E00895CF93DF93EC0160E08E81DA
:1009A0000E94FE0361E08E810E94FE0360E08E8162
:1009B0000E94FE038BE891E00197F1F7DF91CF9160
:1009C0000895CF92DF92EF92FF920F931F93CF93F0
:1009D000DF936C017C0187E0E80EF11CD0E0C0E001
:1009E000062F10E0B8010C2E02C0759567950A9489
:1009F000E2F76170F70181917F010E94FE03219669
:100A0000C430D10579F7C601DF91CF911F910F91C5
:100A1000FF90EF90DF90CF900C94CB04CF92DF92B9
:100A2000EF92FF920F931F93CF93DF93EC01F62E7B
:100A3000642F8C810E94FE038D818F3F19F060E04E
:100A40000E94FE030F2D10E08F8584FF25C06E01EC
:100A500087E0C80ED11CF12CE12CB8010E2C02C08D
:100A6000759567950A94E2F76170F60181916F01BF
:100A70000E94FE03FFEFEF1AFF0A88E0E816F10478
:100A800061F7CE01DF91CF911F910F91FF90EF9011
:100A9000DF90CF900C94CB04B80184E075956795F6
:100AA0008A95E1F7CE010E94E1046F2DCE01DF911E
:100AB000CF911F910F91FF90EF90DF90CF900C940A
:100AC000E10440E0682F82E195E00C940E0581E09E
:100AD0000E9461058BE39FE10197F1F70895CF93A1
:100AE000DF93823029F4909121059860909321053D
:100AF000809325051092260580E48093270580E1E8
:100B00008093280580E58093290561E08091160592
:100B10000E943004809117058F3F19F061E00E9418
:100B2000300461E0809118050E943004C2E1D5E0F4
:100B30009E01225135408091210584FD0BC084E047
:100B400090E021962817390744F461E08E810E94D5
:100B50003004EECF88E090E0F4CF8BE39DE0019786
:100B6000F1F760E0809116050E94FE0360E080913D
:100B700018050E94FE03809117058F3F19F060E071
:100B80000E94FE038091210584FD34C063E082E170
:100B900095E00E94E104CBE4D6E4CE010197F1F7A1
:100BA00063E082E195E00E94E1042197F1F763E0C0
:100BB00082E195E00E94E10483E592E00197F1F77C
:100BC00062E082E195E00E94E1048091210580626B
:100BD0000E94610584E0809322058CE00E946105FB
:100BE0000E94670582E08093230586E0DF91CF9124
:100BF0000C94610580620E9461058BE496E4019784
:100C0000F1F78091210580620E94610583E592E001
:100C10000197F1F78091210580620E946105D5CF8F
:100C200090912505691710F06FEF690FE62FF0E03E
:100C3000EE5EFA4F9489890F80680C94610541E05B
:100C40000E940E0581E090E00895EF92FF920F93CD
:100C50001F93CF93DF937C01DC0114960D911C91BF
:100C6000D0E0C0E0112780913A0390913B03C01778
:100C7000D107CCF4F70124813581C217D30728F4BA
:100C80000190F081E02D309759F410923403E4E3A1
:100C9000F3E060818C0F9D1F0E947F122196E3CFAD
:100CA000EC0FFD1FF6CF800F911F90933B038093B5
:100CB0003A03DF91CF911F910F91FF90EF9008952C
:100CC000FB0101900020E9F73197AF01461B570B5C
:100CD000DC01ED91FC910280F381E02D1994CF931A
:100CE000DF93682F85E493E00E94D102EC0162E576
:100CF00072E085E493E00E9460068C0F9D1FDF91F7
:100D0000CF9108958F929F92AF92BF920F931F93AE
:100D1000CF93DF93CDB7DEB7A1970FB6F894DEBFC0
:100D20000FBECDBF19A2423008F44AE08E010F5D1C
:100D30001F4F842E912CB12CA12CA50194010E944F
:100D4000BF12E62FB901CA01EA3004F5E05DD8010F
:100D5000EE938D01232B242B252B79F790E080E057
:100D6000109729F0BD0185E493E00E946006A196EA
:100D70000FB6F894DEBF0FBECDBFDF91CF911F91AC
:100D80000F91BF90AF909F908F900895E95CDFCF57
:100D9000CF92DF92EF92FF92CF93DF936C01990F86
:100DA000EE08FF08F7FE21C06DE285E493E00E94A3
:100DB000D102EC0166277727CB016C197D098E09DA
:100DC0009F094AE00E948206C80FD91F62E572E0BF
:100DD00085E493E00E9460068C0F9D1FDF91CF9108
:100DE000FF90EF90DF90CF9008954AE0C701B601E1
:100DF0000E948206EC01EACFCF93DF93BC0185E429
:100E000093E00E946006EC0162E572E085E493E005
:100E10000E9460068C0F9D1FDF91CF9108950F9364
:100E20001F93CF93DF93EC01FB01448155816081D7
:100E300071810E9431028C0162E572E0CE010E9454
:100E40006006800F911FDF91CF911F910F91089540
:100E50000C946006FC0124813581FB01448155819D
:100E600024173507E1F4FC0180819181FB01608149
:100E700071810097D1F061157105A1F4232BC1F0A8
:100E8000FC01808190E008C0232B91F0FB01808160
:100E900090E091958195910921E0892B09F020E05E
:100EA000822F08950E940715F7CF6115710561F72C
:100EB00021E0F6CFFC0180819181009711F00C9424
:100EC000941308950F931F93CF93DF93EC018881C0
:100ED0009981009759F02A813B812617370730F016
:100EE00081E0DF91CF911F910F9108958B016F5F8A
:100EF0007F4F0E941D14009759F0998388831B83AC
:100F00000A832C813D81232B59F7FC011082E8CF05
:100F100080E0E7CFEF92FF920F931F93CF93DF9381
:100F20001F921F92CDB7DEB78C0169831A82FC0134
:100F3000E480F580FFEFEF1AFF0AB7010E94620715
:100F4000882381F0F8012081318184819581BE015F
:100F50006F5F7F4F820F931F0E941015F801F5827B
:100F6000E48281E00F900F90DF91CF911F910F915C
:100F7000FF90EF900895EF92FF920F931F93CF93FE
:100F8000DF93EC017B018A01BA010E94620728818C
:100F90003981811114C02115310519F0C9010E9450
:100FA0009413198218821D821C821B821A82CE0120
:100FB000DF91CF911F910F91FF90EF9008951D83C6
:100FC0000C83B701C9010E941015F1CFFB010190FC
:100FD0000020E9F73197AF01461B570B0C94BB0774
:100FE000FB01DC0111961C921E9213961C921E921C
:100FF000129715961C921E9214978617970749F020
:10100000608171816115710521F0448155810C94D5
:10101000BB070895FC01118210821382128215828F
:101020001482FB0101900020E9F73197AF01461BC4
:10103000570B0C94BB075F926F927F928F929F9297
:10104000AF92BF92CF92DF92EF92FF920F931F93D6
:10105000CF93DF9300D000D0CDB7DEB75C013B016A
:1010600064E572E0CE0101960E940A0810E000E0FB
:1010700080903A0390903B03081519050CF05DC071
:10108000C8010E94771268019FEFC91AD90A8E37EA
:1010900009F051C076018E149F04C1F0C7010E946F
:1010A0007712582E682FCE0101960E948A07EAE235
:1010B0005E1237C0BE016F5F7F4F85E493E00E94F0
:1010C0000F07B50185E493E00E940F07B501CE013B
:1010D00001960E942A07882341F18D819E81019605
:1010E000080F191FF3011183008311E0CE0101964F
:1010F0000E945A07812F26960FB6F894DEBF0FBEC6
:10110000CDBFDF91CF911F910F91FF90EF90DF90B6
:10111000CF90BF90AF909F908F907F906F905F9097
:101120000895FFEFEF1AFF0AB6CF64E572E0CE0133
:1011300001960E94E60786019BCF10E0D7CF1F9251
:101140000F920FB60F9211240BB60F922F933F936D
:101150004F935F936F937F938F939F93AF93BF93BF
:10116000EF93FF9385E493E00E94AF02FF91EF912C
:10117000BF91AF919F918F917F916F915F914F91AF
:101180003F912F910F900BBE0F900FBE0F901F90AD
:1011900018951F920F920FB60F9211240BB60F9253
:1011A0002F938F939F93EF93FF93E0915503F091CB
:1011B00056038081E0915B03F0915C0382FD1DC0CA
:1011C000908180915E038F5F8F7320915F03821700
:1011D00041F0E0915E03F0E0EB5BFC4F958F809374
:1011E0005E03FF91EF919F918F912F910F900BBE16
:1011F0000F900FBE0F901F9018958081F2CF1F9215
:101200000F920FB60F9211240BB60F922F933F93AC
:101210004F935F936F937F938F939F93AF93BF93FE
:10122000EF93FF9382EE93E00E94AF02FF91EF9164
:10123000BF91AF919F918F917F916F915F914F91EE
:101240003F912F910F900BBE0F900FBE0F901F90EC
:1012500018951F920F920FB60F9211240BB60F9292
:101260002F938F939F93EF93FF93E091F203F0916D
:10127000F3038081E091F803F091F90382FD1DC032
:1012800090818091FB038F5F8F732091FC03821705
:1012900041F0E091FB03F0E0EE51FC4F958F80931D
:1012A000FB03FF91EF919F918F912F910F900BBEB8
:1012B0000F900FBE0F901F9018958081F2CF1F9254
:1012C0000F920FB60F9211242F933F938F939F93FA
:1012D000AF93BF938091410390914203A091430348
:1012E000B09144033091350323E0230F2D3758F597
:1012F0000196A11DB11D2093350380934103909366
:101300004203A0934303B09344038091360390912A
:101310003703A0913803B09139030196A11DB11D87
:101320008093360390933703A0933803B093390327
:10133000BF91AF919F918F913F912F910F900FBED1
:101340000F901F90189526E8230F0296A11DB11D3E
:10135000D2CF109248031092470348EE53E060E06A
:1013600070E04093490350934A0360934B0370939A
:101370004C038EE292E090934603809345032DEC5C
:1013800030E030935203209351032CEC30E0309343
:1013900054032093530328EC30E0309356032093FA
:1013A000550329EC30E030935803209357032AEC7F
:1013B00030E030935A03209359032EEC30E0309301
:1013C0005C0320935B0310925E0310925F03109204
:1013D0006003109261031092E5031092E4034093BE
:1013E000E6035093E7036093E8037093E903909357
:1013F000E3038093E20385EC90E09093EF03809306
:10140000EE0384EC90E09093F1038093F00380EC82
:1014100090E09093F3038093F20381EC90E090933B
:10142000F5038093F40382EC90E09093F7038093AC
:10143000F60386EC90E09093F9038093F803109202
:10144000FB031092FC031092FD031092FE03109216
:101450001505109214058AE492E090931305809389
:10146000120587E0809316058FEF8093170586E0BD
:101470008093180585E08093190584E080931A0510
:1014800083E080931B0582E080931C0510921D056C
:1014900010921E0510921F05109220051092210532
:1014A00081E00E946F0565E572E08CE095E00E94A6
:1014B0000A086AE572E086E095E00E940A08109248
:1014C000990410929D0410929C0410929E0480E452
:1014D00092E09093980480939704E3EBF4E01082F9
:1014E000148213821582369684E0EF3EF807B9F72E
:1014F0008CE092E09093FA048093F90488E092E003
:101500009093FC048093FB0484E08093FD0480931B
:10151000FE0480E192E09093F8048093F7048AE05F
:1015200090E0909300058093FF0484EF91E0909306
:101530000205809301051092050510920405109292
:10154000F3041092F4041092F5041092F604109231
:10155000030564E572E081E994E00E940A0864E50D
:1015600072E08BE894E00E940A0864E572E085E886
:1015700094E00E940A0864E572E08FE794E00C941E
:101580000A08CF93DF93CDB7DEB7E0970FB6F89494
:10159000DEBF0FBECDBF789484B5826084BD84B5B4
:1015A000816084BD85B5826085BD85B5816085BD5E
:1015B00080916E00816080936E0010928100809116
:1015C000810082608093810080918100816080939E
:1015D0008100809180008160809380008091B100C3
:1015E00084608093B1008091B00081608093B000EE
:1015F0008091910082608093910080919100816040
:101600008093910080919000816080939000809100
:10161000A10082608093A1008091A10081608093ED
:10162000A1008091A00081608093A00080912101A1
:10163000826080932101809121018160809321014A
:101640008091200181608093200180917A008460E4
:1016500080937A0080917A00826080937A008091F2
:101660007A00816080937A0080917A00806880930C
:101670007A001092C10082E00E946F0580E40E940F
:10168000610500E012E0F80161918F0182E195E0CF
:101690000E941F06F2E008301F07A9F70E946705A5
:1016A00082E00E9461058BE39FE10197F1F760E022
:1016B00082E00E94100660E082E195E00E941F0631
:1016C00060E083E00E94100660E672E082E195E04F
:1016D0000E94280760E08DE00E94100660E082E131
:1016E00095E00E941F0661E081E00E9410066BE613
:1016F00072E082E195E00E94280782EE93E00E946A
:10170000770185E493E00E9477018FEF9FEF90933C
:10171000400380933F0364E572E085E894E00E9413
:10172000E60764E572E08FE794E00E94E6078091A7
:101730007B00877F80937B0080E480937C00809196
:101740007A00806480937A0080917A0086FDFCCFD5
:101750008091780060917900762F682F072E000C19
:10176000880B990B611571058105910511F00E9497
:101770002D1210923D0310923C0361E08DE00E9417
:10178000300461E08AE00E94300400E110E0C8010A
:101790000E9477128F3F09F04EC010933B030093D5
:1017A0003A0380913A0390913B030E94C80653E0AC
:1017B000452E512C612C712C80913F039091400358
:1017C0008B30910509F03FC060E080E00E94100678
:1017D0006BE772E082E195E00E94280761E080E01B
:1017E0000E94100665E872E082E195E00E942807F9
:1017F00082EE93E00E948F02181619060CF023C1A6
:1018000082EE93E00E946D0280933E03833409F0E0
:101810001AC10E94670560E080E00E9410066EE831
:1018200072E082E195E00E94280780913F03909149
:101830004003019615C00F5F1F4F011584E0180784
:1018400009F0A5CFAECF8A30910579F468EE73E048
:1018500080E090E00E9495040E9467058BE090E094
:101860009093400380933F03EEC08C30910509F0C4
:10187000EDC182EE93E00E948F02181619060CF05B
:10188000E2C082EE93E00E946D0280933E030E94CC
:101890006F0680913E038C3609F0F7C00E94670501
:1018A0006AE070E080E090E00E94950464E572E0F8
:1018B000CE0189960E940A0818AA1FA6BB24B394D9
:1018C000DD24D39482EE93E00E948F02892B09F4E9
:1018D0008DC082EE93E00E946D02182FDD2091F3FF
:1018E000682FCE0189960E948A071A3259F7BB20C9
:1018F00019F1BE01675D7F4FCE0101960E94F0078E
:10190000BE01615D7F4FCE0101960E941B08D82E5B
:10191000CE0101960E945A07DD2039F06AE070E09E
:1019200080E090E00E949504B12C64E572E0CE0165
:1019300089960E94E607C6CFEFA4F8A8BE01675DAE
:101940007F4FCE0183960E94F007BE016D5D7F4FF1
:1019500085E493E00E940F076FA178A590E080E0F6
:101960004AE00E94820662E572E085E493E00E940C
:101970006006C7010E94C80664E572E0CE010196C8
:101980000E940A0887018FA198A58E0D9F1D081738
:10199000190750F5C8010E947712C82E0E946F06E1
:1019A0006C2DCE0101960E948A079AE2C91619F0A1
:1019B0000F5F1F4FE8CFBE016F5F7F4F85E493E05D
:1019C0000E940F07BE016D5D7F4FCE0101960E9400
:1019D0002A07882369F3CE0101960E945A07CE0197
:1019E00083960E945A076ECFD12CF5CFDD2071F17E
:1019F00068E972E082EE93E00E9428078AE992E0AB
:101A00000E94FC0660E080E00E9410066FE972E030
:101A100082E195E00E94280761E080E00E941006C4
:101A200065EA72E082E195E00E94280780913F0319
:101A30009091400301969093400380933F03CE0121
:101A400089960E945A070E943E03B6CE6DEA72E064
:101A500082EE93E00E9428078FEA92E00E94FC0643
:101A600060E080E00E9410066FE972E082E195E09C
:101A70000E94280761E080E00E94100663EB72E09C
:101A800082E195E00E942807DACF8237E1F60E94D2
:101A900067056AE070E080E090E00E94950464E5EC
:101AA00072E0CE0183960E940A081AA619A6EE24B7
:101AB000E39411E082EE93E00E948F02892B09F4F7
:101AC0007AC082EE93E00E946D02082F112391F3F9
:101AD000682FCE0183960E948A070A3259F7BE0109
:101AE0006D5D7F4FCE010196EE2009F458C00E9433
:101AF000F007BE01675D7F4FCE0101960E941B0873
:101B0000F82ECE0101960E945A0710E0F11045C050
:101B100061E080913A0390913B030E947F12809193
:101B20003A0390913B03019690933B0380933A03D1
:101B300060E00E947F1200913A0310913B030F5F17
:101B40001F4F10933B0300933A03C8010E94771282
:101B50008E3721F06EE7C8010E947F1280913A0310
:101B600090913B03019690933B0380933A03BE010F
:101B70006D5D7F4FCE0101960E94F007CE01019668
:101B80000E942506CE0101960E945A0764E572E084
:101B9000CE0183960E94E6071E2DEF2C8BCF0E946C
:101BA000F007CE0101960E942506CE0101960E9403
:101BB0005A07F12CF2CF112351F168E972E082EE5D
:101BC00093E00E9428078AE992E00E94FC0660E008
:101BD00080E00E9410066CEB72E082E195E00E94CA
:101BE000280761E080E00E94100665EA72E082E169
:101BF00095E00E94280780913F0390914003019651
:101C00009093400380933F03CE0183961ACF6DEAF1
:101C100072E082EE93E00E9428078FEA92E00E9431
:101C2000FC0660E080E00E9410066CEB72E082E14E
:101C300095E00E94280761E080E00E94100663EBB7
:101C400072E082E195E00E942807DECF8D30910599
:101C500009F00FC382EE93E00E948F021816190656
:101C60000CF0F1CE82EE93E00E946D0280933E0371
:101C7000883609F0D8C20E94670560E08DE00E94B6
:101C8000FE0364E572E085E894E00E94E60764E5FF
:101C900072E08FE794E00E94E60710923D031092F5
:101CA0003C0344E0E42EF12C0E94DE111CA21BA296
:101CB0001EA21DA218A61FA229E030E040E050E0BD
:101CC0000E948D122AE0AE014F5F5F4F0E943612D4
:101CD000BE016F5F7F4FCE0183960E94E607CBA0C7
:101CE000DCA0C114D10419F10FA118A5011511052B
:101CF000F1F08091890490918A04080F191FB801AE
:101D000085E894E00E946207882389F02091850489
:101D1000309186048091890490918A04B601820FE3
:101D2000931F0E94101510938A0400938904CE011A
:101D300083960E945A07E1E0EE1AF10809F0B4CF49
:101D40000E94DE11A30192010E948D126F5B7F4FF2
:101D50008F4F9F4F85E894E00E948A070E94DE1112
:101D6000A30192010E948D126F5B7F4F8F4F9F4F97
:101D700085E894E00E948A0765E874E082EE93E0CB
:101D80000E940F0765E874E085E493E00E940F0766
:101D900060E080E00E94100665EC72E082E195E070
:101DA0000E94280761E080E00E9410066AE070E06F
:101DB00080E090E00E94950436E0A32E82EE93E04E
:101DC0000E948F0218161906CCF1BB24B39481E04F
:101DD000809303058FB7F8944091410350914203DB
:101DE00060914303709144038FBF8091F3049091FD
:101DF000F404A091F504B091F604481B590B6A0B4A
:101E00007B0B8091FF0490910005B0E0A0E0841767
:101E10009507A607B70708F046C110E08091FD04BA
:101E20001817C8F5E091F904F091FA04E10FF11DDB
:101E300062E080810E9430041F5FF0CF82EE93E069
:101E40000E946D0280933E03853709F0BECF8CE07F
:101E500090E09093400380933F030E94670560E009
:101E600080E00E9410066FEC72E082E195E00E9433
:101E7000280761E080E00E94100666ED72E082E1D2
:101E800095E00E94280760ED77E080E090E00E94F6
:101E90009504B12C9CCF312C8091FE04381608F0AB
:101EA00063C0E32CF12CE091FB04F091FC04EE0DF7
:101EB000FF1D61E080810E943004E091FB04F091FD
:101EC000FC04EE0DFF1D60E080810E94FE0381E0B6
:101ED00090E0A0E0B0E0032C04C0880F991FAA1F77
:101EE000BB1F0A94D2F74C016C01C094D094212CF2
:101EF0008091FD04281608F5022D10E0E091F90408
:101F0000F091FA04E00FF11F80810E94D2030C5F70
:101F10001F4F000F111FF801E956FB4F892B41F4A9
:101F20008081918188299929918380832394E0CFAE
:101F3000808191818C219D21F7CFE091FB04F0916C
:101F4000FC04EE0DFF1D61E080810E94FE03809184
:101F5000FB049091FC04E80EF91E60E0F70180811B
:101F60000E943004339498CF97E9E92E94E0F92E3B
:101F70008701F801878D90A1892B31F4148E8FEFA2
:101F80009FEF968F858F11A20A5F1F4F94E0033D4C
:101F9000190779F7D12C8091FD04D81608F052C0AA
:101FA000C12C8D2C912C880C991CF401E156FB4F0F
:101FB0004F012091FE04C21608F042C0F401608176
:101FC00071810C2C02C0769567950A94E2F7D29E37
:101FD000900111242C0D311DE7E9F4E080E0458DDE
:101FE000568D2417350709F483C18F5F36968A30E2
:101FF000B1F760FF23C0E7E9F4E090E080E0448DB2
:10200000411117C0E091F704F091F804E20FF31FBB
:102010004081A89EF001A99EF00D1124E956FB4FC6
:10202000448F368F258F10A2178E61E00E94C10168
:1020300005C0019636968A30910509F7C394B9CF49
:10204000D394A9CF80E0F70191A19111892FF6E0F7
:10205000EF0EF11C0E151F05B1F79FB7F8944091D4
:1020600041035091420360914303709144039FBF29
:102070004093F3045093F4046093F5047093F604D2
:10208000882389F08091B804882369F08091B60490
:102090009091B704019739F41091B304111106C05F
:1020A000B1108CCED0CC10920305FACF1A3209F0C1
:1020B00093C065E874E08FE794E00E942A078823C4
:1020C00029F10E94670560E080E00E94100660EE42
:1020D00072E082E195E00E94280761E080E00E94C2
:1020E000100668EE72E082E195E00E9428071092E7
:1020F0003D0310923C0364E572E08FE794E00E9498
:10210000E6076CE073E082EE93E08DCB80913C03B8
:1021100090913D03019690933D0380933C0360E0D2
:102120000397F1F480E00E94100660EE72E082E115
:1021300095E00E94280761E080E00E94100666EFAB
:1021400072E082E195E00E94280760E073E082EE91
:1021500093E00E94280761E08DE00E94FE0373CCAB
:1021600080E00E94100660EE72E082E195E00E943D
:10217000280761E080E00E9410066AE073E082E1D7
:1021800095E00E94280765E173E082EE93E00E94EB
:10219000280760E47FE180E090E00E9495040E94BF
:1021A000670564E572E08FE794E00E94E60760E06F
:1021B00080E00E94100665EC72E082E195E00E94EA
:1021C000280761E080E00E9410066FE070E080E088
:1021D00090E00E94950464CF1332C9F40E94670511
:1021E00060E080E00E94100660EE72E082E195E01F
:1021F0000E94280761E080E00E94100660E273E020
:1022000082E195E00E9428076AE273E0A0CF612F87
:102210008FE794E00E948A0741E0612F82E195E018
:102220000E940E053DCF853709F00DCC0E94670551
:1022300060E080E00E9410066FEC72E082E195E0C1
:102240000E94280761E080E00E94100666ED72E0BF
:1022500082E195E00E9428078CE090E09093400393
:1022600080933F0360ED77E080E090E00E9495046A
:10227000EACB8E30910571F582EE93E00E948F02D9
:10228000181619060CF0DFCB82EE93E00E946D0267
:1022900080933E03853709F0D6CB8CE090E0909395
:1022A000400380933F030E94670560E080E00E9446
:1022B00010066FEC72E082E195E00E94280761E071
:1022C00080E00E94100666ED72E082E195E00E94D7
:1022D0002807C8CF8A3091050CF0B5CB01969093B2
:1022E000400380933F036AE070E080E090E0BECF5F
:1022F00061709CCE8FE794E00E945A0785E894E0D5
:102300000E945A078BE894E00E945A0781E994E002
:102310000E945A0786E095E00E945A078CE095E0FB
:102320000C945A078F929F92AF92BF92CF92DF92F6
:10233000EF92FF92CF93DF93EC01688179818A81DC
:102340009B81611571058105910521F464E279EDA8
:102350008BE597E02DE133EF41E050E00E948D12D4
:1023600049015A019B01AC01A7EAB1E40E94AC12F9
:102370006B017C01ACEEB4EFA50194010E94BA128E
:10238000C60ED71EE81EF91EF7FE06C081E0C81A69
:10239000D108E10880E8F80AC882D982EA82FB8283
:1023A000C701B6019F77DF91CF91FF90EF90DF904B
:1023B000CF90BF90AF909F908F9008958F929F92F3
:1023C000AF92BF92CF92DF92EF92FF926091200284
:1023D0007091210280912202909123026115710572
:1023E0008105910521F464E279ED8BE597E02DE11B
:1023F00033EF41E050E00E948D1249015A019B01E8
:10240000AC01A7EAB1E40E94AC126B017C01ACEE16
:10241000B4EFA50194010E94BA12C60ED71EE81EA1
:10242000F91EF7FE06C081E0C81AD108E10880E86D
:10243000F80AC0922002D0922102E0922202F09289
:102440002302C701B6019F77FF90EF90DF90CF90F6
:10245000BF90AF909F908F900895609320027093EB
:10246000210280932202909323020895BB272A30F1
:1024700051F4992342F4BDE2909580957095619551
:102480007F4F8F4F9F4F0C944612BB27FA01A62F08
:102490006217710581059105330B30FB66F0AA27A1
:1024A000660F771F881F991FAA1FA21710F0A21B83
:1024B00063953850A9F7A05DAA3308F0A95DA193F0
:1024C00036F7B111B1931082CA010C946712DC0186
:1024D000FC01672F71917723E1F7329704C07C915B
:1024E0006D9370836291AE17BF07C8F30895F99991
:1024F000FECF92BD81BDF89A992780B50895262F09
:10250000F999FECF1FBA92BD81BD20BD0FB6F894D8
:10251000FA9AF99A0FBE01960895052E97FB1EF4BC
:1025200000940E94A41257FD07D00E94BF1207FC1E
:1025300003D04EF40C94A4125095409530952195FB
:102540003F4F4F4F5F4F08959095809570956195DF
:102550007F4F8F4F9F4F08950E94E112A59F900DCE
:10256000B49F900DA49F800D911D11240895B7FF75
:102570000C94AC120E94AC12821B930B0895A1E242
:102580001A2EAA1BBB1BFD010DC0AA1FBB1FEE1FED
:10259000FF1FA217B307E407F50720F0A21BB30B38
:1025A000E40BF50B661F771F881F991F1A9469F7B4
:1025B00060957095809590959B01AC01BD01CF0110
:1025C0000895A29FB001B39FC001A39F700D811D0C
:1025D0001124911DB29F700D811D1124911D08952C
:1025E000EE0FFF1F881F8BBF0790F691E02D199407
:1025F0000F931F93CF93DF938230910510F482E005
:1026000090E0E0912C05F0912D0530E020E0B0E065
:10261000A0E0309799F42115310509F44AC0281B30
:10262000390B24303105D8F58A819B8161157105FC
:1026300089F1FB0193838283FE0111C040815181A6
:102640000281138148175907E0F04817590799F498
:10265000109761F012960C93129713961C93329672
:10266000CF01DF91CF911F910F91089500932C0519
:1026700010932D05F4CF2115310551F04217530762
:1026800038F0A901DB019A01BD01DF01F801C1CFDA
:10269000EF01F9CF90932D0580932C05CDCFFE014E
:1026A000E20FF31F819391932250310939832883DC
:1026B000D7CF20912A0530912B05232B41F420916F
:1026C00026023091270230932B0520932A05209172
:1026D0002402309125022115310541F42DB73EB772
:1026E0004091280250912902241B350BE0912A05C4
:1026F000F0912B05E217F307A0F42E1B3F0B2817D0
:10270000390778F0AC014E5F5F4F2417350748F06A
:102710004E0F5F1F50932B0540932A058193919391
:102720009FCFF0E0E0E09CCFCF93DF930097E9F0FC
:10273000FC01329713821282A0912C05B0912D05D5
:10274000ED0130E020E01097A1F420813181820F6B
:10275000931F20912A0530912B052817390709F07E
:1027600061C0F0932B05E0932A05DF91CF91089586
:10277000EA01CE17DF07E8F54A815B819E0141152A
:102780005105B1F7E901FB83EA8349915991C40FDF
:10279000D51FEC17FD0761F4808191810296840FAB
:1027A000951FE90199838883828193819B838A8322
:1027B000F0E0E0E012968D919C9113970097B9F5A7
:1027C0002D913C911197CD010296820F931F20917C
:1027D0002A0530912B052817390739F6309751F51E
:1027E00010922D0510922C05B0932B05A0932A056D
:1027F000BCCFD383C28340815181840F951FC817FA
:10280000D90761F44E5F5F4F88819981480F591F46
:10281000518340838A819B81938382832115310573
:1028200009F0B0CFF0932D05E0932C059ECFFD016C
:10283000DC01C0CF13821282D7CF4F925F926F928A
:102840007F928F929F92AF92BF92CF92DF92EF9240
:10285000FF920F931F93CF93DF938C01009799F40E
:10286000CB01DF91CF911F910F91FF90EF90DF90FF
:10287000CF90BF90AF909F908F907F906F905F9020
:102880004F900C94F812FC01E60FF71F9C012250A8
:102890003109E217F30708F4AEC0D901CD91DC91FC
:1028A0001197C617D70720F1C530D10578F0CE01B2
:1028B00004978617970750F0C61BD70B2297C19332
:1028C000D1936D937C93CF010E949413C801DF9143
:1028D000CF911F910F91FF90EF90DF90CF90BF901D
:1028E000AF909F908F907F906F905F904F900895E2
:1028F0005B01AC1ABD0A4C018C0E9D1EA0912C05EB
:10290000B0912D05512C412CF12CE12C109731F573
:1029100080912A0590912B058815990509F05CC0D6
:102920004616570608F058C080912402909125025F
:10293000009741F48DB79EB740912802509129022B
:10294000841B950BE817F90708F055C0F0932B0589
:10295000E0932A05F90171836083B8CF8D919C9132
:10296000119712966C90129713967C901397A81556
:10297000B90559F56C0142E0C40ED11CCA14DB0440
:1029800020F1AC014A195B09DA011296159780F023
:102990006282738251834083D9016D937C93E114E9
:1029A000F10471F0D7011396FC93EE9312978ECF3A
:1029B00022968C0F9D1FF90191838083F301EFCF45
:1029C000F0932D05E0932C0581CF4816590608F4A5
:1029D0002C017D01D3019ACFCB010E94F8127C011A
:1029E000009749F0AE01B8010E94FE14C8010E9490
:1029F000941387016BCF10E000E068CFFB01DC018E
:102A000002C001900D9241505040D8F70895FB014B
:102A1000DC018D91019080190110D9F3990B089573
:102A2000FB01DC0101900D920020E1F7089511E017
:102A3000C3E4D1E000E006C0802FFE010E94F01246
:102A40002196011DC434D10780E00807A9F7F89446
:022A5000FFCFB6
:102A5200040A11111F1B1F1F161718191A1B1C1D00
:102A62003132334134353642373839432A30234400
:102A72000100000000002E05800000000000D102CD
:102A820031025E021E038F026D028102000000000D
:102A92006C042C04FB03000000001F063102C80472
:102AA200C7040D0A00313233340061646D696E006F
:102AB2004269656E76656E69646F00477275706F04
:102AC200352D53656363696F6E410045737065729E
:102AD200616E646F00436F6E6578696F6E00436F5D
:102AE2006E65637461646F0062006269656E006C9A
:102AF2006F67696E00457869746F736F006D006D62
:102B0200616C0044656E656761646F005265676958
:102B12007374726F00436F6469676F2E2E2E0053B9
:102B2200616C69646100636F6E20457869746F003F
:102B3200496E677265736F00436F72726563746189
:102B42006D656E746500426C6F71756561646F00CE
:102B5200626C6F71756561646F00496E636F72724A
:102B62006563746F00696E636F72726563746F0080
:102B720043616E63656C61646F0063616E63656C73
:042B820061646F001B
:00000001FF
