:100000000C9444010C9475010C9475010C947501C9
:100010000C9475010C9475010C9475010C94750188
:100020000C9475010C9475010C9475010C94750178
:100030000C9475010C9475010C9475010C94750168
:100040000C9475010C9475010C9475010C94750158
:100050000C9475010C9475010C9475010C94F809BD
:100060000C9475010C94C2090C9498090C947501B8
:100070000C9475010C9475010C9475010C94750128
:100080000C9475010C9475010C9475010C94750118
:100090000C9462090C9438090C9475010C94750148
:1000A0000C9475010C9475010C9475010C947501F8
:1000B0000C9475010C9475010C9475010C947501E8
:1000C0000C9475010C9475010C9475010C947501D8
:1000D0000C9475010C9475010C9475010C947501C8
:1000E0000C9475010C94FB030C9489030C94C903C4
:1000F0000C94AE030C94C0030C94E3040C94BC0366
:100100000C94E2040C94B2030C94C4030C948F027C
:100110000C941B180C945E020C94A8030C94D1024E
:100120000C9431020C946C040C94420A0C942C0430
:100130000C94B8060C9497030C949E030C948102C3
:100140000C948F030C94CE030C94A4030C9493038F
:100150000C946D020C949B030C94CA030C941E0324
:100160000C94B60300002100240027002A002D0073
:100170003000330001010000040107010A01000002
:100180002200250028002B002E003100340002013F
:100190000000050108010B010000200023002600DB
:1001A00029002C002F00320000010000030106018D
:1001B00009010505050507050808080802020202ED
:1001C0000A0A0808040404040101010101010101F3
:1001D0000303030303030303040707070C0C0C0CBE
:1001E0000C0C0C0C020202020606060606060606A7
:1001F0000B0B0B0B0B0B0B0B010210202008081034
:100200002040102040800201020108040201010286
:10021000040810204080804020100804020180045F
:1002200002018040201008040201080402010102BA
:1002300004081020408001020408102040800000C3
:100240000A0B02090C0D0E08070304010000000050
:10025000000000000000000000000000000000009E
:10026000000000000000000000001211100000005B
:10027000000000000000000000000000000000007E
:1002800000000000420A1B1811241FBECFEFD1E26C
:10029000DEBFCDBF00E00CBF13E0A0E0B2E0E0E6BF
:1002A000F8E300E00BBF02C007900D92A433B10742
:1002B000D9F725E0A4E3B3E001C01D92A23CB20748
:1002C000E1F711E0C3E4D1E000E006C021970109A5
:1002D000802FFE010E94F719C234D10780E0080781
:1002E000A9F70E94CD0B0C941E1C0C940000FC017D
:1002F000A089B18982E08C93A485B5851C92A685DE
:10030000B7858FEC8C93108EA489B58986E08C9389
:10031000A289B3898C9180618C93A289B3898C91D5
:1003200088608C93A289B3898C9180688C930288B1
:10033000F389E02D80818F7D8083089596E0899FE9
:10034000D0011124AD52BB4F90967C936E935F9772
:1003500091E091969C939197E0914005F091410531
:1003600090913F05992339F0309751F0811108C0E1
:100370008091EF041994309719F05C968C91FACF24
:100380000895CF92DF92EF92FF920F931F9396E022
:10039000899FF0011124ED52FB4F11A2278D30A14E
:1003A0002130310551F178F02230310509F451C086
:1003B0002330310509F452C01F910F91FF90EF9047
:1003C000DF90CF9008956623B9F361E070E00E945A
:1003D0009E012FB7F89480917D0390917E03A091A8
:1003E0007F03B09180032FBF80932B0590932C0542
:1003F000A0932D05B0932E05DFCF9FB7F894C09042
:100400007D03D0907E03E0907F03F09080039FBF38
:1004100000912B0510912C0520912D0530912E0572
:10042000C01AD10AE20AF30A00913D0510913E0577
:1004300030E020E00C151D052E053F0550F462E06C
:1004400070E01F910F91FF90EF90DF90CF900C9490
:100450009E016111B1CF63E070E0F3CF70E060E026
:10046000F0CFAF92BF92CF92DF92EF92FF920F93B5
:100470001F93CF93DF936C017B018B01040F151F3A
:10048000EB015E01AE18BF08C017D10759F06991A2
:10049000D601ED91FC910190F081E02DC6011995F6
:1004A000892B79F7C501DF91CF911F910F91FF90B3
:1004B000EF90DF90CF90BF90AF900895FC01538DE7
:1004C000448D252F30E0842F90E0821B930B54172E
:1004D00010F0CF96089501970895FC01918D828DBB
:1004E000981761F0A28DAE0FBF2FB11D5D968C9154
:1004F000928D9F5F9F73928F90E008958FEF9FEF93
:100500000895FC01918D828D981731F0828DE80F4E
:10051000F11D858D90E008958FEF9FEF0895FC0108
:10052000918D228D892F90E0805C9F4F821B9109D5
:100530008F739927089581E893E00E948F0221E04C
:10054000892B09F420E0822F08958EE194E00E9427
:100550008F0221E0892B09F420E0822F0895FC010D
:10056000A48DA80FB92FB11DA35ABF4F2C91848D14
:1005700090E001968F739927848FA689B7892C9371
:10058000A089B1898C91837080648C93938D848DC4
:10059000981306C00288F389E02D80818F7D8083C7
:1005A0000895EF92FF920F931F93CF93DF93EC0187
:1005B00081E0888F9B8D8C8D98131AC0E889F9890A
:1005C000808185FF15C09FB7F894EE89FF8960830D
:1005D000E889F98980818370806480839FBF81E08E
:1005E00090E0DF91CF911F910F91FF90EF900895D0
:1005F000F62E0B8D10E00F5F1F4F0F731127E02EAB
:100600008C8D8E110CC00FB607FCFACFE889F989E2
:10061000808185FFF5CFCE010E94AF02F1CFEB8D37
:10062000EC0FFD2FF11DE35AFF4FF0829FB7F894B6
:100630000B8FEA89FB8980818062CFCFCF93DF93D4
:10064000EC01888D8823B9F0AA89BB89E889F989EA
:100650008C9185FD03C0808186FD0DC00FB607FC1F
:10066000F7CF8C9185FFF2CF808185FFEDCFCE0152
:100670000E94AF02E9CFDF91CF91089580E090E032
:10068000892B29F00E94A50281110E94000080E0C0
:1006900090E0892B29F00E949B0281110E940000AA
:1006A00080E090E0892B49F080E090E0892B29F0F0
:1006B0000E94000081110E94000080E090E0892BE0
:1006C00049F080E090E0892B29F00E940000811120
:1006D0000C94000008958150823108F05AC0E82F30
:1006E000F0E08827E958FC4F8F4F0C94F7199703D7
:1006F0009B0389038F039303C9039E03A403A803E9
:10070000AE03B203B603BC03C003C903C403CA03E8
:10071000CE03809180008F77809380000895809130
:1007200080008F7DF9CF80918000877FF5CF84B5E1
:100730008F7784BD089584B58F7DFBCF8091B00005
:100740008F778093B00008958091B0008F7DF9CFAE
:10075000809190008F778093900008958091900011
:100760008F7DF9CF80919000877FF5CF8091A00099
:100770008F778093A00008958091A0008F7DF9CF9E
:100780008091A000877FF5CF809120018F778093A3
:1007900020010895809120018F7DF9CF8091200163
:1007A000877FF5CFCF93DF93282F30E0F901E25C0C
:1007B000FD4F8491F901E850FE4FD491F901EE54B8
:1007C000FE4FC491CC23A1F081110E946B03EC2F4A
:1007D000F0E0EE0FFF1FE856FE4FA591B491EC91AB
:1007E000ED2381E090E009F480E0DF91CF9108955E
:1007F00080E090E0FACF862F0C94D2031F93CF9322
:10080000DF93282F30E0F901E25CFD4F8491F9017C
:10081000E850FE4FD491F901EE54FE4FC491CC2321
:10082000A9F0162F81110E946B03EC2FF0E0EE0F60
:10083000FF1FE258FE4FA591B4918FB7F894EC9149
:10084000111108C0D095DE23DC938FBFDF91CF91CB
:100850001F910895DE2BF8CF862F642F0C94FE0392
:10086000CF93DF9390E0FC01E850FE4F24918E542B
:100870009E4FFC0184918823C9F090E0880F991F56
:10088000FC01EC59FE4FA591B491FC01E258FE4FDA
:10089000C591D49161110DC09FB7F8948C912095AA
:1008A00082238C938881282328839FBFDF91CF9157
:1008B0000895623051F49FB7F8943C91822F80954F
:1008C00083238C93E8812E2BEFCF8FB7F894EC9194
:1008D0002E2B2C938FBFEACF862F642F0C943004DD
:1008E000865320917B00982F987F277F922B90939F
:1008F0007B008770806480937C0080917A008064A4
:1009000080937A0080917A0086FDFCCF80917800F8
:100910009091790008953FB7F894809136039091B3
:100920003703A0913803B091390326B5A89B05C0C1
:100930002F3F19F00196A11DB11D3FBFBA2FA92F5E
:10094000982F8827BC01CD01620F711D811D911D5B
:1009500042E0660F771F881F991F4A95D1F70895C7
:100960008F929F92AF92BF92CF92DF92EF92FF92BF
:100970004B015C010E948B046B017C010E948B0483
:100980006C197D098E099F09683E734081059105A8
:10099000A8F321E0821A9108A108B10888EEC80ED8
:1009A00083E0D81EE11CF11C81149104A104B10460
:1009B00029F7FF90EF90DF90CF90BF90AF909F907E
:1009C0008F900895089590E080E00895CF92DF928F
:1009D000EF92FF920F931F93CF93DF931F921F927B
:1009E000CDB7DEB769834A83880F991F0091A405AC
:1009F0001091A505000F111FEEE4F5E09F012E54A4
:100A000035402017310714F41192F8CF2981FC01E9
:100A1000E25BFA4F21838A81808360E08091A205A6
:100A20000E94FE031016110604F501501109F80189
:100A3000E25BFA4FE080D090A005C0909E0588E070
:100A4000F82E6E2D661F6627661F8C2D0E94FE03F2
:100A5000EE0C61E08D2D0E94FE0360E08D2D0E9462
:100A6000FE03FA94F110EDCFDDCF61E08091A20595
:100A70000F900F90DF91CF911F910F91FF90EF900A
:100A8000DF90CF900C94FE03EF92FF920F931F9391
:100A9000CF937C018C0183E0000F111F8A95E1F751
:100AA000025A1A4FC1E0F80111928F0140E06C2FF9
:100AB000C7010E94E604CF5FC930A9F7CF911F910B
:100AC0000F91FF90EF900895CF93DF93EC0160E0DA
:100AD0008E810E94FE0361E08E810E94FE0360E031
:100AE0008E810E94FE038BE891E00197F1F7DF9180
:100AF000CF910895CF92DF92EF92FF920F931F93C1
:100B0000CF93DF936C017C0187E0E80EF11CD0E00D
:100B1000C0E0062F10E0B8010C2E02C07595679555
:100B20000A94E2F76170F70181917F010E94FE0350
:100B30002196C430D10579F7C601DF91CF911F917D
:100B40000F91FF90EF90DF90CF900C946405CF92BF
:100B5000DF92EF92FF920F931F93CF93DF93EC01FD
:100B6000F62E642F8C810E94FE038D818F3F19F039
:100B700060E00E94FE030F2D10E08F8584FF25C0EA
:100B80006E0187E0C80ED11CF12CE12CB8010E2CAF
:100B900002C0759567950A94E2F76170F60181913C
:100BA0006F010E94FE03FFEFEF1AFF0A88E0E816CC
:100BB000F10461F7CE01DF91CF911F910F91FF906A
:100BC000EF90DF90CF900C946405B80184E07595A8
:100BD00067958A95E1F7CE010E947A056F2DCE01C7
:100BE000DF91CF911F910F91FF90EF90DF90CF9009
:100BF0000C947A0540E0682F86EA95E00C94A705EE
:100C000081E00E94FA058BE39FE10197F1F70895D7
:100C1000CF93DF93823029F49091B505986090933B
:100C2000B5058093B9051092BA0580E48093BB05A1
:100C300080E18093BC0580E58093BD0561E08091F3
:100C4000AA050E9430048091AB058F3F19F061E046
:100C50000E94300461E08091AC050E943004C6EA35
:100C6000D5E09E01265A35408091B50584FD0BC024
:100C700084E090E021962817390744F461E08E81E2
:100C80000E943004EECF88E090E0F4CF8BE39DE04B
:100C90000197F1F760E08091AA050E94FE0360E0F1
:100CA0008091AC050E94FE038091AB058F3F19F047
:100CB00060E00E94FE038091B50584FD34C063E0CE
:100CC00086EA95E00E947A05CBE4D6E4CE0101974E
:100CD000F1F763E086EA95E00E947A052197F1F743
:100CE00063E086EA95E00E947A0583E592E0019749
:100CF000F1F762E086EA95E00E947A058091B505F9
:100D000080620E94FA0584E08093B6058CE00E9420
:100D1000FA050E94000682E08093B70586E0DF9125
:100D2000CF910C94FA0580620E94FA058BE496E458
:100D30000197F1F78091B50580620E94FA0583E57D
:100D400092E00197F1F78091B50580620E94FA0563
:100D5000D5CF9091B905691710F06FEF690FE62FA5
:100D6000F0E0EA55FA4F9489890F80680C94FA05EF
:100D700041E00E94A70581E090E00895EF92FF9284
:100D80000F931F93CF93DF937C01DC0114960D9199
:100D90001C91D0E0C0E0112780913A0390913B0371
:100DA000C017D107CCF4F70124813581C217D307CE
:100DB00028F40190F081E02D309759F4109234031B
:100DC000E4E3F3E060818C0F9D1F0E948619219659
:100DD000E3CFEC0FFD1FF6CF800F911F90933B03E5
:100DE00080933A03DF91CF911F910F91FF90EF9085
:100DF0000895FB0101900020E9F73197AF01461BF0
:100E0000570BDC01ED91FC910280F381E02D1994E8
:100E1000CF93DF93682F81E893E00E94D102EC0129
:100E200062E572E081E893E00E94F9068C0F9D1F55
:100E3000DF91CF9108958F929F92AF92BF920F93BF
:100E40001F93CF93DF93CDB7DEB7A1970FB6F8947A
:100E5000DEBF0FBECDBF19A2423008F44AE08E01BA
:100E60000F5D1F4F842E912CB12CA12CA501940154
:100E70000E94C619E62FB901CA01EA3004F5E05D07
:100E8000D801EE938D01232B242B252B79F790E0AD
:100E900080E0109729F0BD0181E893E00E94F906F7
:100EA000A1960FB6F894DEBF0FBECDBFDF91CF91F4
:100EB0001F910F91BF90AF909F908F900895E95C24
:100EC000DFCFCF92DF92EF92FF92CF93DF936C014F
:100ED000990FEE08FF08F7FE21C06DE281E893E06C
:100EE0000E94D102EC0166277727CB016C197D099E
:100EF0008E099F094AE00E941B07C80FD91F62E5AF
:100F000072E081E893E00E94F9068C0F9D1FDF914B
:100F1000CF91FF90EF90DF90CF9008954AE0C70106
:100F2000B6010E941B07EC01EACFCF93DF93BC010F
:100F300081E893E00E94F906EC0162E572E081E845
:100F400093E00E94F9068C0F9D1FDF91CF910895C9
:100F50000F931F93CF93DF93EC01FB0144815581E5
:100F6000608171810E9431028C0162E572E0CE01E4
:100F70000E94F906800F911FDF91CF911F910F9171
:100F800008950C94F906FC0124813581FB0144810C
:100F9000558124173507E1F4FC0180819181FB0123
:100FA000608171810097D1F061157105A1F4232B47
:100FB000C1F0FC01808190E008C0232B91F0FB017F
:100FC000808190E091958195910921E0892B09F02C
:100FD00020E0822F08950E940E1CF7CF6115710545
:100FE00061F721E0F6CFFC0180819181009711F03B
:100FF0000C949B1A08950F931F93CF93DF93EC01EA
:1010000088819981009759F02A813B8126173707FB
:1010100030F081E0DF91CF911F910F9108958B0106
:101020006F5F7F4F0E94241B009759F0998388833C
:101030001B830A832C813D81232B59F7FC011082ED
:10104000E8CF80E0E7CFEF92FF920F931F93CF930B
:10105000DF931F921F92CDB7DEB78C0169831A828E
:10106000FC01E480F580FFEFEF1AFF0AB7010E9450
:10107000FB07882381F0F8012081318184819581EB
:10108000BE016F5F7F4F820F931F0E94171CF801F4
:10109000F582E48281E00F900F90DF91CF911F9154
:1010A0000F91FF90EF900895EF92FF920F931F938F
:1010B000CF93DF93EC017B018A01BA010E94FB0709
:1010C00028813981811114C02115310519F0C90118
:1010D0000E949B1A198218821D821C821B821A820E
:1010E000CE01DF91CF911F910F91FF90EF90089566
:1010F0001D830C83B701C9010E94171CF1CFFB01AE
:1011000001900020E9F73197AF01461B570B0C9473
:101110005408FB01DC0111961C921E9213961C923E
:101120001E92129715961C921E9214978617970777
:1011300049F0608171816115710521F0448155810B
:101140000C9454080895FC011182108213821282BB
:1011500015821482FB0101900020E9F73197AF015D
:10116000461B570B0C9454085F926F927F928F929C
:101170009F92AF92BF92CF92DF92EF92FF920F9326
:101180001F93CF93DF9300D000D0CDB7DEB75C01C3
:101190003B0164E572E0CE0101960E94A30810E0D5
:1011A00000E080903A0390903B03081519050CF07D
:1011B0005DC0C8010E947E1968019FEFC91AD90A53
:1011C0008E3709F051C076018E149F04C1F0C7011B
:1011D0000E947E19582E682FCE0101960E94230886
:1011E000EAE25E1237C0BE016F5F7F4F81E893E095
:1011F0000E94A807B50181E893E00E94A807B50105
:10120000CE0101960E94C307882341F18D819E8102
:101210000196080F191FF3011183008311E0CE011D
:1012200001960E94F307812F26960FB6F894DEBF31
:101230000FBECDBFDF91CF911F910F91FF90EF9027
:10124000DF90CF90BF90AF909F908F907F906F90E6
:101250005F900895FFEFEF1AFF0AB6CF64E572E0E2
:10126000CE0101960E947F0886019BCF10E0D7CF68
:101270001F920F920FB60F9211240BB60F922F935D
:101280003F934F935F936F937F938F939F93AF930E
:10129000BF93EF93FF9381E893E00E94AF02FF9129
:1012A000EF91BF91AF919F918F917F916F915F91DE
:1012B0004F913F912F910F900BBE0F900FBE0F904B
:1012C0001F9018951F920F920FB60F9211240BB614
:1012D0000F922F938F939F93EF93FF93E09191033E
:1012E000F09192038081E0919703F091980382FD41
:1012F0001DC0908180919A038F5F8F7320919B0313
:10130000821741F0E0919A03F0E0EF57FC4F958F80
:1013100080939A03FF91EF919F918F912F910F905E
:101320000BBE0F900FBE0F901F9018958081F2CFCB
:101330001F920F920FB60F9211240BB60F922F939C
:101340003F934F935F936F937F938F939F93AF934D
:10135000BF93EF93FF938EE194E00E94AF02FF9161
:10136000EF91BF91AF919F918F917F916F915F911D
:101370004F913F912F910F900BBE0F900FBE0F908A
:101380001F9018951F920F920FB60F9211240BB653
:101390000F922F938F939F93EF93FF93E0912E04DF
:1013A000F0912F048081E0913404F091350482FDA6
:1013B0001DC09081809137048F5F8F732091380416
:1013C000821741F0E0913704F0E0E25EFB4F958F29
:1013D00080933704FF91EF919F918F912F910F9000
:1013E0000BBE0F900FBE0F901F9018958081F2CF0B
:1013F0001F920F920FB60F9211242F933F938F934A
:101400009F93AF93BF9380917D0390917E03A091B2
:101410007F03B09180033091350323E0230F2D37F4
:1014200058F50196A11DB11D2093350380937D03CE
:1014300090937E03A0937F03B09380038091360343
:1014400090913703A0913803B09139030196A11D03
:10145000B11D8093360390933703A0933803B09364
:101460003903BF91AF919F918F913F912F910F9031
:101470000FBE0F901F90189526E8230F0296A11D0E
:10148000B11DD2CFCF93DF931092840310928303C8
:1014900048EE53E060E070E040938503509386038C
:1014A00060938703709388038EE292E090938203A7
:1014B000809381032DEC30E030938E0320938D03D5
:1014C0002CEC30E03093900320938F0328EC30E035
:1014D000309392032093910329EC30E030939403EE
:1014E000209393032AEC30E03093960320939503E6
:1014F0002EEC30E0309398032093970310929A03D8
:1015000010929B0310929C0310929D031092210451
:1015100010922004409322045093230460932404E7
:101520007093250490931F0480931E0485EC90E033
:1015300090932B0480932A0484EC90E090932D04E4
:1015400080932C0480EC90E090932F0480932E04E1
:1015500081EC90E0909331048093300482EC90E031
:10156000909333048093320486EC90E0909335049A
:101570008093340410923704109238041092390486
:1015800010923A041092A9051092A8058AE492E0FC
:101590009093A7058093A60587E08093AA058FEF17
:1015A0008093AB0586E08093AC0585E08093AD0524
:1015B00084E08093AE0583E08093AF0582E0809362
:1015C000B0051092B1051092B2051092B3051092B9
:1015D000B4051092B50581E00E940806C3E3D0E08F
:1015E000D0939F05C0939E0585E390E09093A1055D
:1015F0008093A00584E390E09093A3058093A205D7
:1016000081E090E09093A5058093A40561E083E3D9
:101610000E94300461E08091A0050E94300461E0E6
:101620008091A2050E94300461E08091A2050E9491
:10163000FE03D0939F05C0939E05EEE5F5E08EE98D
:1016400095E011928E179F07E1F7D0E0C0E08091FE
:10165000A4059091A505C817D90774F540E06FE07F
:10166000CE010E94E6048091A4059091A505C817BB
:10167000D9072CF447E06BE0CE010E94E60440E07D
:1016800069E0CE010E94E6048091A4059091A50531
:10169000C817D9071CF4CE010E9444058091A40507
:1016A0009091A505C817D9072CF440E06CE0CE0155
:1016B0000E94E6042196CBCF65E572E088E495E0D0
:1016C0000E94A3086AE572E082E495E00E94A30804
:1016D0001092D5041092D9041092D8041092DA0412
:1016E00080E492E09093D4048093D304EFEEF4E08E
:1016F0008BE295E0108214821382158236968E1743
:101700009F07C1F78CE092E09093360580933505F2
:1017100088E092E0909338058093370584E08093C9
:10172000390580933A0580E192E0909334058093E7
:1017300033058AE090E090933C0580933B0584EF6D
:1017400091E090933E0580933D05109241051092E3
:10175000400510922F05109230051092310510921D
:10176000320510923F0564E572E08DEC94E00E9432
:10177000A30864E572E087EC94E00E94A30864E5A6
:1017800072E081EC94E00E94A30864E572E08BEBC8
:1017900094E0DF91CF910C94A308CF93DF93CDB762
:1017A000DEB7CE57D1090FB6F894DEBF0FBECDBF5E
:1017B000789484B5826084BD84B5816084BD85B52C
:1017C000826085BD85B5816085BD80916E00816038
:1017D00080936E00109281008091810082608093DE
:1017E00081008091810081608093810080918000E0
:1017F0008160809380008091B10084608093B1000B
:101800008091B00081608093B000809191008260EF
:1018100080939100809191008160809391008091EC
:1018200090008160809390008091A10082608093FD
:10183000A1008091A10081608093A1008091A0000F
:1018400081608093A00080912101826080932101BA
:10185000809121018160809321018091200181602C
:101860008093200180917A00846080937A00809137
:101870007A00826080937A0080917A008160809300
:101880007A0080917A00806880937A001092C1007B
:1018900082E00E94080680E40E94FA0500E012E05F
:1018A000D8016D918D0186EA95E00E94B806B2E0FC
:1018B00008301B07A9F70E94000682E00E94FA0583
:1018C0008BE39FE10197F1F760E082E00E94A906B7
:1018D00060E086EA95E00E94B80660E083E00E943E
:1018E000A90660E672E086EA95E00E94C10760E022
:1018F0008DE00E94A90660E086EA95E00E94B806A5
:1019000061E081E00E94A9066BE672E086EA95E05C
:101910000E94C1078EE194E00E94770181E893E084
:101920000E9477018FEF9FEF90937C0380937B035E
:1019300064E572E081EC94E00E947F0864E572E067
:101940008BEB94E00E947F0886E30E947004BC0148
:10195000990F880B990B611571058105910511F09F
:101960000E94CE18109279031092780361E08DE006
:101970000E94300461E08AE00E9430048091A40556
:101980009091A5051816190634F441E06CE090E03A
:1019900080E00E94E6048091A4059091A5051816A8
:1019A000190634F44FE06AE090E080E00E94E6041B
:1019B0008091A4059091A5051816190624F490E0CD
:1019C00080E00E94440500E110E0C8010E947E19F9
:1019D0008F3F09F04CC010933B0300933A03809172
:1019E0003A0390913B030E94610722242A94322CEF
:1019F00080917B0390917C038B30910509F03FC06F
:101A000060E080E00E94A9066BE772E086EA95E05C
:101A10000E94C10761E080E00E94A90665E872E0CB
:101A200086EA95E00E94C1078EE194E00E948F0251
:101A3000181619060CF02CC18EE194E00E946D027C
:101A400080937A03833409F023C10E94000660E08A
:101A500080E00E94A9066EE872E086EA95E00E94A6
:101A6000C10780917B0390917C03019615C00F5FA5
:101A70001F4F0115E4E01E0709F0A7CFB0CF8A3051
:101A8000910579F468EE73E080E090E00E94B00484
:101A90000E9400068BE090E090937C0380937B0390
:101AA000F7C08C30910509F0D0C68EE194E00E9419
:101AB0008F02181619060CF0EBC08EE194E00E941C
:101AC0006D0280937A030E94080780917A038C3616
:101AD00009F0D7C50E9400066AE070E080E090E05F
:101AE0000E94B00464E572E0CE018D5B9F4F0E94BE
:101AF000A3082B961FAE1EAE2B97BB24B394DD24F8
:101B0000D3948EE194E00E948F02892B09F491C056
:101B10008EE194E00E946D02182FDD2091F3682F72
:101B2000CE018D5B9F4F0E9423081A3251F7BB20D4
:101B300021F1BE016D5B7F4FCE0101960E948908A5
:101B4000BE01675B7F4FCE0101960E94B408D82E7C
:101B5000CE0101960E94F307DD2039F06AE070E0C3
:101B600080E090E00E94B004B12C64E572E0CE0108
:101B70008D5B9F4F0E947F08C4CF2B96EEACFFACCD
:101B80002B97BE016D5B7F4FCE0183960E94890823
:101B9000BE016D5D7F4F81E893E00E94A8076FA1B1
:101BA00078A590E080E04AE00E941B0762E572E0C1
:101BB00081E893E00E94F906C7010E94610764E58D
:101BC00072E0CE0101960E94A30887018FA198A51B
:101BD0008E0D9F1D0817190750F5C8010E947E1928
:101BE000C82E0E9408076C2DCE0101960E94230882
:101BF000FAE2CF1619F00F5F1F4FE8CFBE016F5FFB
:101C00007F4F81E893E00E94A807BE016D5D7F4F82
:101C1000CE0101960E94C307882369F3CE01019685
:101C20000E94F307CE0183960E94F3076ACFD12C5E
:101C3000F5CFDD2009F406C568E972E08EE194E095
:101C40000E94C1078AE992E00E94950760E080E067
:101C50000E94A9066FE972E086EA95E00E94C1073A
:101C600061E080E00E94A90665EA72E086EA95E0FC
:101C70000E94C10780917B0390917C030196909311
:101C80007C0380937B03CE018D5B9F4F0E94F30703
:101C900086E30E947004BC01990F880B990B0E9487
:101CA0001F192B013C0140927403509275036092FE
:101CB00076037092770387E30E947004BC01990F4A
:101CC000880B990B0E941F194B015C0180927003D5
:101CD00090927103A0927203B092730388E30E9402
:101CE0007004BC01990F880B990B0E941F196B019E
:101CF0007C01C0926C03D0926D03E0926E03F0926F
:101D00006F0389E30E947004BC01990F880B990B43
:101D10000E941F192F966CAF7DAF8EAF9FAF2F978C
:101D2000609368037093690380936A0390936B03D5
:101D30008AE30E947004BC01990F880B990B0E94E2
:101D40001F1963966CAF7DAF8EAF9FAF63976093A3
:101D500064037093650380936603909367038BE33A
:101D60000E947004BC01990F880B990B0E941F19E7
:101D700067966CAF7DAF8EAF9FAF67976093600340
:101D80007093610380936203909363038CE30E94DA
:101D90007004BC01990F880B990B0E941F196B9658
:101DA0006CAF7DAF8EAF9FAF6B9760935C0370930A
:101DB0005D0380935E0390935F038DE30E94700444
:101DC000BC01990F880B990B0E941F196F966CAF7D
:101DD0007DAF8EAF9FAF6F97609358037093590399
:101DE00080935A0390935B038EE30E947004BC01BE
:101DF000990F880B990B0E941F19A3966CAF7DAFAA
:101E00008EAF9FAFA3976093540370935503809355
:101E10005603909357038FE30E947004BC01990FFF
:101E2000880B990B0E941F19A7966CAF7DAF8EAFE0
:101E30009FAFA79760935003709351038093520311
:101E40009093530380E40E947004BC01990F880BA7
:101E5000990B0E941F19AB966CAF7DAF8EAF9FAFF1
:101E6000AB9760934C0370934D0380934E03909314
:101E70004F0381E40E947004BC01990F880B990BF9
:101E80000E941F19AF966CAF7DAF8EAF9FAFAF971B
:101E9000609348037093490380934A0390934B03E4
:101EA00082E40E947004BC01990F880B990B0E9478
:101EB0001F19E3966CAF7DAF8EAF9FAFE397609332
:101EC000440370934503809346039093470383E450
:101ED0000E947004BC01990F880B990B0E941F1976
:101EE000E7966CAF7DAF8EAF9FAFE79760934003EF
:101EF00070934103809342039093430384E40E94D0
:101F00007004BC01990F880B990B0E941F19EB9666
:101F10006CAF7DAF8EAF9FAFEB9760933C03709338
:101F20003D0380933E0390933F0385E40E94700439
:101F3000BC01990F880B990B0E941F19EF966CAF8B
:101F40007DAF8EAF9FAFEF9720E030E046E154E4E5
:101F5000C301B2010E94181987FFD4C781E090E045
:101F60009CA38BA320E030E046E154E4C501B4011A
:101F70000E94181987FFC9C781E090E09EA38DA336
:101F800020E030E046E154E4C701B6010E94181990
:101F900087FFBEC781E090E098A78FA320E030E0E4
:101FA00046E154E42F966CAD7DAD8EAD9FAD2F977D
:101FB0000E94181987FFAFC781E090E09AA789A710
:101FC00020E030E046E154E463966CAD7DAD8EAD2B
:101FD0009FAD63970E94181987FFA0C781E090E02A
:101FE0009CA78BA720E030E046E154E467966CADF7
:101FF0007DAD8EAD9FAD67970E94181987FF91C781
:1020000081E090E09EA78DA720E030E046E154E417
:102010006B966CAD7DAD8EAD9FAD6B970E94181920
:1020200087FF82C781E090E098AB8FA720E030E087
:1020300046E154E46F966CAD7DAD8EAD9FAD6F976C
:102040000E94181987FF73C781E090E09AAB89ABB3
:1020500020E030E046E154E4A3966CAD7DAD8EAD5A
:102060009FADA3970E94181987FF64C781E090E095
:102070009CAB8BAB20E030E046E154E4A7966CAD1E
:102080007DAD8EAD9FADA7970E94181987FF55C7EC
:1020900081E090E09EAB8DAB20E030E046E154E47F
:1020A000AB966CAD7DAD8EAD9FADAB970E94181910
:1020B00087FF46C781E090E098AF8FAB20E030E02B
:1020C00046E154E4AF966CAD7DAD8EAD9FADAF975C
:1020D0000E94181987FF37C781E090E09AAF89AF57
:1020E00020E030E046E154E4E3966CAD7DAD8EAD8A
:1020F0009FADE3970E94181987FF28C781E090E001
:102100009CAF8BAF20E030E046E154E4E7966CAD45
:102110007DAD8EAD9FADE7970E94181987FF19C757
:1021200081E090E09EAF8DAF20E030E046E154E4E6
:10213000EB966CAD7DAD8EAD9FADEB970E941819FF
:1021400087FF0AC781E090E021969FAF8EAF21976D
:1021500020E030E046E154E4EF966CAD7DAD8EAD0D
:102160009FADEF970E94181987FFFBC681E090E0B2
:1021700023969FAF8EAF239701E010E086E30E9485
:102180007004BC01990F880B990B0E941F192B0139
:102190003C014092740350927503609276037092F2
:1021A000770387E30E947004BC01990F880B990B99
:1021B0000E941F194B015C01809270039092710381
:1021C000A0927203B092730388E30E947004BC0172
:1021D000990F880B990B0E941F196B017C01C0920B
:1021E0006C03D0926D03E0926E03F0926F0389E36B
:1021F0000E947004BC01990F880B990B0E941F1953
:102200002F966CAF7DAF8EAF9FAF2F976093680313
:102210007093690380936A0390936B038AE30E942F
:102220007004BC01990F880B990B0E941F196396CB
:102230006CAF7DAF8EAF9FAF639760936403709375
:10224000650380936603909367038BE30E94700499
:10225000BC01990F880B990B0E941F1967966CAFF0
:102260007DAF8EAF9FAF67976093600370936103FC
:1022700080936203909363038CE30E947004BC011B
:10228000990F880B990B0E941F196B966CAF7DAF4D
:102290008EAF9FAF6B9760935C0370935D038093E9
:1022A0005E0390935F038DE30E947004BC01990F5D
:1022B000880B990B0E941F196F966CAF7DAF8EAF84
:1022C0009FAF6F97609358037093590380935A039D
:1022D00090935B038EE30E947004BC01990F880BFE
:1022E000990B0E941F19A3966CAF7DAF8EAF9FAF65
:1022F000A397609354037093550380935603909370
:1023000057038FE30E947004BC01990F880B990B4F
:102310000E941F19A7966CAF7DAF8EAF9FAFA79796
:10232000609350037093510380935203909353032F
:1023300080E40E947004BC01990F880B990B0E94E5
:102340001F19AB966CAF7DAF8EAF9FAFAB9760930D
:102350004C0370934D0380934E0390934F0381E49D
:102360000E947004BC01990F880B990B0E941F19E1
:10237000AF966CAF7DAF8EAF9FAFAF9760934803C2
:102380007093490380934A0390934B0382E40E9425
:102390007004BC01990F880B990B0E941F19E396DA
:1023A0006CAF7DAF8EAF9FAFE397609344037093A4
:1023B0004503809346039093470383E40E9470048F
:1023C000BC01990F880B990B0E941F19E7966CAFFF
:1023D0007DAF8EAF9FAFE79760934003709341034B
:1023E000809342039093430384E40E947004BC01F1
:1023F000990F880B990B0E941F19EB966CAF7DAF5C
:102400008EAF9FAFEB9760933C0370933D03809337
:102410003E0390933F0385E40E947004BC01990F32
:10242000880B990B0E941F19EF966CAF7DAF8EAF92
:102430009FAFEF9720E030E046E154E4C301B201E2
:102440000E94181987FF92C51A83098320E030E0A3
:1024500046E154E4C501B4010E94181987FF89C5FB
:102460001C830B8320E030E046E154E4C701B60151
:102470000E94181987FF80C51E830D8320E030E07D
:1024800046E154E42F966CAD7DAD8EAD9FAD2F9798
:102490000E94181987FF73C518870F8320E030E06A
:1024A00046E154E463966CAD7DAD8EAD9FAD639710
:1024B0000E94181987FF66C51A87098720E030E057
:1024C00046E154E467966CAD7DAD8EAD9FAD6797E8
:1024D0000E94181987FF59C51C870B8720E030E040
:1024E00046E154E46B966CAD7DAD8EAD9FAD6B97C0
:1024F0000E94181987FF4CC51E870D8720E030E029
:1025000046E154E46F966CAD7DAD8EAD9FAD6F9797
:102510000E94181987FF3FC5188B0F8720E030E015
:1025200046E154E4A3966CAD7DAD8EAD9FADA3970F
:102530000E94181987FF32C51A8B098B20E030E002
:1025400046E154E4A7966CAD7DAD8EAD9FADA797E7
:102550000E94181987FF25C51C8B0B8B20E030E0EB
:1025600046E154E4AB966CAD7DAD8EAD9FADAB97BF
:102570000E94181987FF18C51E8B0D8B20E030E0D4
:1025800046E154E4AF966CAD7DAD8EAD9FADAF9797
:102590000E94181987FF0BC5188F0F8B20E030E0C1
:1025A00046E154E4E3966CAD7DAD8EAD9FADE3970F
:1025B0000E94181987FFFEC41A8F098F20E030E0AF
:1025C00046E154E4E7966CAD7DAD8EAD9FADE797E7
:1025D0000E94181987FFF1C41C8F0B8F20E030E098
:1025E00046E154E4EB966CAD7DAD8EAD9FADEB97BF
:1025F0000E94181987FFE4C41E8F0D8F20E030E081
:1026000046E154E4EF966CAD7DAD8EAD9FADEF9796
:102610000E94181987FFD7C418A30F8FFE01B39625
:10262000CE0101967C018E5B9F4FD7014191519164
:102630002D913D914217530709F0C8C4E817F907D7
:10264000A9F79CCD6DEA72E08EE194E00E94C1078B
:102650008FEA92E00E94950760E080E00E94A90660
:102660006FE972E086EA95E00E94C10761E080E0D0
:102670000E94A90663EB72E086EA95E00E94C1071A
:1026800002CB823709F004CB0E9400066AE070E0BA
:1026900080E090E00E94B00464E572E0CE01839691
:1026A0000E94A30825961FAE1EAE2597EE24E39444
:1026B00011E08EE194E00E948F02892B09F47AC028
:1026C0008EE194E00E946D02082F112391F3682F90
:1026D000CE0183960E9423080A3259F7BE016D5D30
:1026E0007F4FCE010196EE2009F458C00E94890860
:1026F000BE016D5B7F4FCE0101960E94B408F82E9B
:10270000CE0101960E94F30710E0F11045C061E090
:1027100080913A0390913B030E94861980913A037D
:1027200090913B03019690933B0380933A0360E0C2
:102730000E94861900913A0310913B030F5F1F4FCF
:1027400010933B0300933A03C8010E947E198E3711
:1027500021F06EE7C8010E94861980913A0390919A
:102760003B03019690933B0380933A03BE016D5D5A
:102770007F4FCE0101960E948908CE0101960E94EA
:10278000BE06CE0101960E94F30764E572E0CE0119
:1027900083960E947F081E2DEF2C8BCF0E94890804
:1027A000CE0101960E94BE06CE0101960E94F3075B
:1027B000F12CF2CF112351F168E972E08EE194E03F
:1027C0000E94C1078AE992E00E94950760E080E0DC
:1027D0000E94A9066CEB72E086EA95E00E94C107B0
:1027E00061E080E00E94A90665EA72E086EA95E071
:1027F0000E94C10780917B0390917C030196909386
:102800007C0380937B03CE01839640CA6DEA72E01D
:102810008EE194E00E94C1078FEA92E00E94950742
:1028200060E080E00E94A9066CEB72E086EA95E029
:102830000E94C10761E080E00E94A90663EB72E09C
:1028400086EA95E00E94C107DECF8D30910509F040
:1028500017C38EE194E00E948F02181619060CF03F
:1028600017CA8EE194E00E946D0280937A03883645
:1028700009F0DEC20E94000660E08DE00E94FE03C7
:1028800064E572E081EC94E00E947F0864E572E008
:102890008BEB94E00E947F081092790310927803EA
:1028A00054E0E52EF12C0E947F181CA21BA21EA250
:1028B0001DA218A61FA229E030E040E050E00E94CF
:1028C00094192AE0AE014F5F5F4F0E94D718BE01F6
:1028D0006F5F7F4FCE0183960E947F08CBA0DCA064
:1028E000C114D10419F10FA118A501151105F1F0BA
:1028F0008091C5049091C604080F191FB80181EC9E
:1029000094E00E94FB07882389F02091C104309154
:10291000C2048091C5049091C604B601820F931F32
:102920000E94171C1093C6040093C504CE01839621
:102930000E94F30781E0E81AF10809F0B4CF0E9481
:102940007F1823E030E040E050E00E9494196F5B74
:102950007F4F8F4F9F4F81EC94E00E9423080E948D
:102960007F1823E030E040E050E00E9494196F5B54
:102970007F4F8F4F9F4F81EC94E00E94230861ECC2
:1029800074E08EE194E00E94A80761EC74E081E8B5
:1029900093E00E94A80760E080E00E94A90665EC31
:1029A00072E086EA95E00E94C10761E080E00E9443
:1029B000A9066AE070E080E090E00E94B0043CE08C
:1029C000C32ED12C46E0642E8EE194E00E948F024B
:1029D00018161906CCF17724739481E080933F0593
:1029E0008FB7F89440917D0350917E0360917F03EF
:1029F000709180038FBF80912F0590913005A09139
:102A00003105B0913205481B590B6A0B7B0B809145
:102A10003B0590913C05B0E0A0E084179507A60720
:102A2000B70708F043C110E0809139051817B8F5D1
:102A3000E0913505F0913605E10FF11D62E08081EE
:102A40000E9430041F5FF0CF8EE194E00E946D027F
:102A500080937A03853709F0BECFD0927C03C09271
:102A60007B030E94000660E080E00E94A9066FECF4
:102A700072E086EA95E00E94C10761E080E00E9472
:102A8000A90666ED72E086EA95E00E94C10760ED56
:102A900077E080E090E00E94B004712C9ECF512C32
:102AA00080913A05581608F063C0E52CF12CE091AE
:102AB0003705F0913805EE0DFF1D61E080810E9421
:102AC0003004E0913705F0913805EE0DFF1D60E010
:102AD00080810E94FE0381E090E0A0E0B0E0052C40
:102AE00004C0880F991FAA1FBB1F0A94D2F74C017C
:102AF0005C01A094B094412C80913905481608F5EA
:102B0000042D10E0E0913505F0913605E00FF11F3E
:102B100080810E94D2030C5F1F4F000F111FF8012C
:102B2000ED52FB4F892B41F48081918188299929AD
:102B3000918380834394E0CF808191818A219B217E
:102B4000F7CFE0913705F0913805EE0DFF1D61E0FC
:102B500080810E94FE038091370590913805E80E30
:102B6000F91E60E0D7018C910E943004539498CFF5
:102B700093EDA92E94E0B92E8501F801878D90A1DF
:102B8000892B21F4148E368E258E11A20A5F1F4FD9
:102B9000F5E00F301F0789F7912C809139059816C1
:102BA00008F052C0812CE92CF12CEE0CFF1CC7015F
:102BB00085529B4F7C0120913A05821608F042C055
:102BC000D7016D917C91082C02C0769567950A9487
:102BD000E2F7929E90011124280D311DE3EDF4E0FF
:102BE00080E0458D568D2417350709F422C28F5F8A
:102BF00036968A30B1F760FF23C0E3EDF4E090E051
:102C000080E0448D411117C0E0913305F091340507
:102C1000E20FF31F4081689EF001699EF00D1124C0
:102C2000ED52FB4F448F368F258F10A2178E61E037
:102C30000E94C10105C0019636968A30910509F7B8
:102C40008394B9CF9394A9CF80E0F50191A191111C
:102C5000892FF6E0AF0EB11C0A151B05B1F79FB71F
:102C6000F89440917D0350917E0360917F037091B1
:102C700080039FBF40932F0550933005609331052B
:102C800070933205882391F08091F404882371F0C9
:102C90008091F2049091F304019741F41091EF04B4
:102CA000111107C0711090CE0C94480E10923F0580
:102CB000F9CF1A3209F095C061EC74E08BEB94E027
:102CC0000E94C307882331F10E94000660E080E083
:102CD0000E94A90660EE72E086EA95E00E94C107B4
:102CE00061E080E00E94A90668EE72E086EA95E065
:102CF0000E94C107109279031092780364E572E094
:102D00008BEB94E00E947F086CE073E08EE194E02E
:102D10000C942F0D809178039091790301969093F4
:102D200079038093780360E00397F9F480E00E94D0
:102D3000A90660EE72E086EA95E00E94C10761E0B4
:102D400080E00E94A90666EF72E086EA95E00E94A4
:102D5000C10760E073E08EE194E00E94C10761E08A
:102D60008DE00E94FE030C94480E80E00E94A906AC
:102D700060EE72E086EA95E00E94C10761E080E0C3
:102D80000E94A9066AE073E086EA95E00E94C10706
:102D900065E173E08EE194E00E94C10760E47FE1A9
:102DA00080E090E00E94B0040E94000664E572E0BA
:102DB0008BEB94E00E947F0860E080E00E94A9060F
:102DC00065EC72E086EA95E00E94C10761E080E070
:102DD0000E94A9066FE070E080E090E00E94B004DD
:102DE00061CF1332C9F40E94000660E080E00E94C7
:102DF000A90660EE72E086EA95E00E94C10761E0F4
:102E000080E00E94A90660E273E086EA95E00E94F5
:102E1000C1076AE273E09FCF612F8BEB94E00E94C1
:102E2000230841E0612F86EA95E00E94A7053ACF8A
:102E3000853711F00C94480E0E94000660E080E097
:102E40000E94A9066FEC72E086EA95E00E94C10735
:102E500061E080E00E94A90666ED72E086EA95E0F6
:102E60000E94C1078CE090E090937C0380937B03E9
:102E700060ED77E080E090E00E94B0040C94480E92
:102E80008E30910581F58EE194E00E948F02181634
:102E9000190614F00C94480E8EE194E00E946D0225
:102EA00080937A03853711F00C94480E8CE090E003
:102EB00090937C0380937B030E94000660E080E097
:102EC0000E94A9066FEC72E086EA95E00E94C107B5
:102ED00061E080E00E94A90666ED72E086EA95E076
:102EE0000E94C107C5CF8A30910514F00C94480E9A
:102EF000019690937C0380937B036AE070E080E00E
:102F000090E0BACF1CA21BA22DC81EA21DA238C8D9
:102F100018A61FA243C81AA619A652C81CA61BA60B
:102F200061C81EA61DA670C818AA1FA67FC81AAA27
:102F300019AA8EC81CAA1BAA9DC81EAA1DAAACC885
:102F400018AE1FAABBC81AAE19AECAC81CAE1BAEBB
:102F5000D9C81EAE1DAEE8C821961FAE1EAE219781
:102F6000F7C823961FAE1EAE239706C91A82198290
:102F70006DCA1C821B8276CA1E821D827FCA188679
:102F80001F828CCA1A86198699CA1C861B86A6CAF5
:102F90001E861D86B3CA188A1F86C0CA1A8A198A55
:102FA000CDCA1C8A1B8ADACA1E8A1D8AE7CA188EF5
:102FB0001F8AF4CA1A8E198E01CB1C8E1B8E0ECB63
:102FC0001E8E1D8E1BCB18A21F8E28CBD12CC12C80
:102FD00000E810E0D7018D919D917D01892BC1F012
:102FE0008091A4059091A505181619068CF44091BE
:102FF0005E05C8010C2C02C0959587950A94E2F7EE
:10300000482B40935E0561E090E080E00E94E6047A
:10301000BFEFCB1ADB0AE8E0CE16D104D9F668E898
:1030200073E180E090E00E94B0040E943E030C94A3
:10303000F80C6170FDCD8BEB94E00E94F30781ECFE
:1030400094E00E94F30787EC94E00E94F3078DEC74
:1030500094E00E94F30782E495E00E94F30788E47D
:1030600095E00C94F3078F929F92AF92BF92CF920C
:10307000DF92EF92FF92CF93DF93EC016881798129
:103080008A819B81611571058105910521F464E2B6
:1030900079ED8BE597E02DE133EF41E050E00E94C0
:1030A000941949015A019B01AC01A7EAB1E40E94BD
:1030B000B3196B017C01ACEEB4EFA50194010E9441
:1030C000C119C60ED71EE81EF91EF7FE06C081E024
:1030D000C81AD108E10880E8F80AC882D982EA82D1
:1030E000FB82C701B6019F77DF91CF91FF90EF90F0
:1030F000DF90CF90BF90AF909F908F9008958F9268
:103100009F92AF92BF92CF92DF92EF92FF92609127
:103110002002709121028091220290912302611578
:1031200071058105910521F464E279ED8BE597E065
:103130002DE133EF41E050E00E94941949015A011A
:103140009B01AC01A7EAB1E40E94B3196B017C01B9
:10315000ACEEB4EFA50194010E94C119C60ED71EB2
:10316000E81EF91EF7FE06C081E0C81AD108E10882
:1031700080E8F80AC0922002D0922102E092220256
:10318000F0922302C701B6019F77FF90EF90DF9086
:10319000CF90BF90AF909F908F9008956093200242
:1031A0007093210280932202909323020895BB27FB
:1031B0002A3051F4992342F4BDE2909580957095A0
:1031C00061957F4F8F4F9F4F0C94E718BB27FA01F3
:1031D000A62F6217710581059105330B30FB66F050
:1031E000AA27660F771F881F991FAA1FA21710F022
:1031F000A21B63953850A9F7A05DAA3308F0A95D1A
:10320000A19336F7B111B1931082CA010C94081939
:10321000DC01FC01672F71917723E1F7329704C03D
:103220007C916D9370836291AE17BF07C8F30895C8
:103230000E945A1908F481E00895E89409C097FBA8
:103240003EF490958095709561957F4F8F4F9F4F7D
:103250009923A9F0F92F96E9BB279395F6958795C1
:1032600077956795B795F111F8CFFAF4BB0F11F484
:1032700060FF1BC06F5F7F4F8F4F9F4F16C088232B
:1032800011F096E911C0772321F09EE8872F762F61
:1032900005C0662371F096E8862F70E060E02AF0A2
:1032A0009A95660F771F881FDAF7880F969587958E
:1032B00097F90895990F0008550FAA0BE0E8FEEF63
:1032C00016161706E807F907C0F012161306E407EA
:1032D000F50798F0621B730B840B950B39F40A26E3
:1032E00061F0232B242B252B21F408950A2609F4C1
:1032F000A140A6958FEF811D811D0895F999FECFFC
:1033000092BD81BDF89A992780B50895262FF99925
:10331000FECF1FBA92BD81BD20BD0FB6F894FA9AB8
:10332000F99A0FBE01960895052E97FB1EF400949E
:103330000E94AB1957FD07D00E94C61907FC03D0A5
:103340004EF40C94AB1950954095309521953F4F14
:103350004F4F5F4F089590958095709561957F4F81
:103360008F4F9F4F08950E94E819A59F900DB49F1D
:10337000900DA49F800D911D11240895B7FF0C940A
:10338000B3190E94B319821B930B0895A1E21A2E60
:10339000AA1BBB1BFD010DC0AA1FBB1FEE1FFF1FF9
:1033A000A217B307E407F50720F0A21BB30BE40B49
:1033B000F50B661F771F881F991F1A9469F7609590
:1033C0007095809590959B01AC01BD01CF0108954A
:1033D000A29FB001B39FC001A39F700D811D112456
:1033E000911DB29F700D811D1124911D0895EE0F46
:1033F000FF1F881F8BBF0790F691E02D19940F9344
:103400001F93CF93DF938230910510F482E090E018
:10341000E091C005F091C10530E020E0B0E0A0E00F
:10342000309799F42115310509F44AC0281B390B4E
:1034300024303105D8F58A819B816115710589F1A8
:10344000FB0193838283FE0111C04081518102817F
:10345000138148175907E0F04817590799F4109756
:1034600061F012960C93129713961C933296CF012B
:10347000DF91CF911F910F9108950093C005109394
:10348000C105F4CF2115310551F04217530738F02B
:10349000A901DB019A01BD01DF01F801C1CFEF01F4
:1034A000F9CF9093C1058093C005CDCFFE01E20F07
:1034B000F31F819391932250310939832883D7CF09
:1034C0002091BE053091BF05232B41F420912602A7
:1034D000309127023093BF052093BE05209124022E
:1034E000309125022115310541F42DB73EB74091A9
:1034F000280250912902241B350BE091BE05F09162
:10350000BF05E217F307A0F42E1B3F0B281739075E
:1035100078F0AC014E5F5F4F2417350748F04E0F2F
:103520005F1F5093BF054093BE05819391939FCF3A
:10353000F0E0E0E09CCFCF93DF930097E9F0FC014F
:10354000329713821282A091C005B091C105ED019E
:1035500030E020E01097A1F420813181820F931F89
:103560002091BE053091BF052817390709F061C0C9
:10357000F093BF05E093BE05DF91CF910895EA0176
:10358000CE17DF07E8F54A815B819E0141155105A1
:10359000B1F7E901FB83EA8349915991C40FD51F23
:1035A000EC17FD0761F4808191810296840F951FCD
:1035B000E90199838883828193819B838A83F0E0E8
:1035C000E0E012968D919C9113970097B9F52D919B
:1035D0003C911197CD010296820F931F2091BE0559
:1035E0003091BF052817390739F6309751F51092F9
:1035F000C1051092C005B093BF05A093BE05BCCF16
:10360000D383C28340815181840F951FC817D90786
:1036100061F44E5F5F4F88819981480F591F518334
:1036200040838A819B81938382832115310509F030
:10363000B0CFF093C105E093C0059ECFFD01DC0142
:10364000C0CF13821282D7CF4F925F926F927F9238
:103650008F929F92AF92BF92CF92DF92EF92FF92A2
:103660000F931F93CF93DF938C01009799F4CB01B5
:10367000DF91CF911F910F91FF90EF90DF90CF904E
:10368000BF90AF909F908F907F906F905F904F9082
:103690000C94FF19FC01E60FF71F9C012250310921
:1036A000E217F30708F4AEC0D901CD91DC91119770
:1036B000C617D70720F1C530D10578F0CE010497A1
:1036C0008617970750F0C61BD70B2297C193D1934B
:1036D0006D937C93CF010E949B1AC801DF91CF911B
:1036E0001F910F91FF90EF90DF90CF90BF90AF9020
:1036F0009F908F907F906F905F904F9008955B01A7
:10370000AC1ABD0A4C018C0E9D1EA091C005B09153
:10371000C105512C412CF12CE12C109731F58091F1
:10372000BE059091BF058815990509F05CC0461645
:10373000570608F058C08091240290912502009706
:1037400041F48DB79EB74091280250912902841B05
:10375000950BE817F90708F055C0F093BF05E09303
:10376000BE05F90171836083B8CF8D919C9111974B
:1037700012966C90129713967C901397A815B90522
:1037800059F56C0142E0C40ED11CCA14DB0420F1CF
:10379000AC014A195B09DA011296159780F0628232
:1037A000738251834083D9016D937C93E114F104BA
:1037B00071F0D7011396FC93EE9312978ECF229659
:1037C0008C0F9D1FF90191838083F301EFCFF0935C
:1037D000C105E093C00581CF4816590608F42C01B5
:1037E0007D01D3019ACFCB010E94FF197C01009784
:1037F00049F0AE01B8010E94051CC8010E949B1A45
:1038000087016BCF10E000E068CFFB01DC0102C054
:1038100001900D9241505040D8F70895FB01DC0112
:103820008D91019080190110D9F3990B0895FB0136
:10383000DC0101900D920020E1F7089511E0C3E44E
:10384000D1E000E006C0802FFE010E94F71921960A
:10385000011DC434D10780E00807A9F7F894FFCF11
:10386000040A11111F1B1F1F161718191A1B1C1DE4
:103870003132334134353642373839432A302344E4
:10388000010000000000C205800000000000D1021D
:1038900031025E021E038F026D02810200000000F1
:1038A0006C042C04FB0300000000B8063102E304A2
:1038B000E2040D0A00313233340061646D696E0038
:1038C0004269656E76656E69646F00477275706FE8
:1038D000352D53656363696F6E4100457370657282
:1038E000616E646F00436F6E6578696F6E00436F41
:1038F0006E65637461646F0062006269656E006C7E
:103900006F67696E00457869746F736F006D006D45
:10391000616C0044656E656761646F00526567693C
:103920007374726F00436F6469676F2E2E2E00539D
:10393000616C69646100636F6E20457869746F0023
:10394000496E677265736F00436F7272656374616D
:103950006D656E746500426C6F71756561646F00B2
:10396000626C6F71756561646F00496E636F72722E
:103970006563746F00696E636F72726563746F0064
:1039800043616E63656C61646F0063616E63656C57
:0439900061646F00FF
:00000001FF
