:100000000C9444010C9475010C9475010C947501C9
:100010000C9475010C9475010C9475010C94750188
:100020000C9475010C9475010C9475010C94750178
:100030000C9475010C9475010C9475010C94750168
:100040000C9475010C9475010C9475010C94750158
:100050000C9475010C9475010C9475010C94CB10E3
:100060000C9475010C9495100C946B100C94750104
:100070000C9475010C9475010C9475010C94750128
:100080000C9475010C9475010C9475010C94750118
:100090000C9435100C940B100C9475010C94750194
:1000A0000C9475010C9475010C9475010C947501F8
:1000B0000C9475010C9475010C9475010C947501E8
:1000C0000C9475010C9475010C9475010C947501D8
:1000D0000C9475010C9475010C9475010C947501C8
:1000E0000C9475010C94A9030C94C0030C949D030B
:1000F0000C946C020C94A1030C94F0040C94CA03AD
:100100000C94BC030C94B2030C94B6030C9415111C
:100110000C94D7030C94861B0C943F020C94010D95
:100120000C942C030C948F020C94A5030C9497034D
:100130000C943A040C949D020C94CE030C94D803B6
:100140000C94DF020C9409040C947B020C94F104CF
:100150000C94D2030C947A040C94C4030C94AC0356
:100160000C94DC0300002100240027002A002D004D
:100170003000330001010000040107010A01000002
:100180002200250028002B002E003100340002013F
:100190000000050108010B010000200023002600DB
:1001A00029002C002F00320000010000030106018D
:1001B00009010505050507050808080802020202ED
:1001C0000A0A0808040404040101010101010101F3
:1001D0000303030303030303040707070C0C0C0CBE
:1001E0000C0C0C0C020202020606060606060606A7
:1001F0000B0B0B0B0B0B0B0B010210202008081034
:100200002040102040800201020108040201010286
:10021000040810204080804020100804020180045F
:1002200002018040201008040201080402010102BA
:1002300004081020408001020408102040800000C3
:100240000A0B02090C0D0E08070304010000000050
:10025000000000000000000000000000000000009E
:10026000000000000000000000001211100000005B
:10027000000000000000000000000000000000007E
:10028000000000001511861B11241FBECFEFD1E224
:10029000DEBFCDBF00E00CBF13E0A0E0B2E0E0E8BD
:1002A000FFE300E00BBF02C007900D92A03DB10735
:1002B000D9F726E0A0EDB3E001C01D92A736B20742
:1002C000E1F711E0C3E4D1E000E006C021970109A5
:1002D000802FFE010E94871DC234D10780E00807ED
:1002E000A9F70E94A0120C94AE1F0C940000FC0110
:1002F000A089B18982E08C93A485B5851C92A685DE
:10030000B7858FEC8C93108EA489B58986E08C9389
:10031000A289B3898C9180618C93A289B3898C91D5
:1003200088608C93A289B3898C9180688C930288B1
:10033000F389E02D80818F7D8083089596E0899FE9
:10034000D0011124A858BA4F90967C936E935F9772
:1003500091E091969C939197E091E505F091E605E7
:100360009091E405992339F0309751F0811108C03C
:10037000809194051994309719F05C968C91FACF7E
:100380000895CF92DF92EF92FF920F931F9396E022
:10039000899FF0011124E858FA4F11A2278D30A14E
:1003A0002130310551F178F02230310509F451C086
:1003B0002330310509F452C01F910F91FF90EF9047
:1003C000DF90CF9008956623B9F361E070E00E945A
:1003D0009E012FB7F8948091220490912304A0915C
:1003E0002404B09125042FBF8093D0059093D105AC
:1003F000A093D205B093D305DFCF9FB7F894C090F8
:100400002204D0902304E0902404F09025049FBFA0
:100410000091D0051091D1052091D2053091D305DE
:10042000C01AD10AE20AF30A0091E2051091E3052D
:1004300030E020E00C151D052E053F0550F462E06C
:1004400070E01F910F91FF90EF90DF90CF900C9490
:100450009E016111B1CF63E070E0F3CF70E060E026
:10046000F0CFDB0114964D915C9115976D917C91C5
:10047000DC01ED91FC910280F381E02D1994AF92A3
:10048000BF92CF92DF92EF92FF920F931F93CF9381
:10049000DF936C017B018B01040F151FEB015E01E3
:1004A000AE18BF08C017D10759F06991D601ED9178
:1004B000FC910190F081E02DC6011995892B79F707
:1004C000C501DF91CF911F910F91FF90EF90DF90C9
:1004D000CF90BF90AF900895FC01538D448D252F90
:1004E00030E0842F90E0821B930B541710F0CF96CE
:1004F000089501970895FC01918D828D981761F000
:10050000A28DAE0FBF2FB11D5D968C91928D9F5F16
:100510009F73928F90E008958FEF9FEF0895FC01F5
:10052000918D828D981731F0828DE80FF11D858DA8
:1005300090E008958FEF9FEF0895FC01918D228D3B
:10054000892F90E0805C9F4F821B91098F739927C0
:10055000089586E294E00E949D0221E0892B09F42F
:1005600020E0822F089583EC94E00E949D0221E018
:10057000892B09F420E0822F0895FC01A48DA80F97
:10058000B92FB11DA35ABF4F2C91848D90E00196D5
:100590008F739927848FA689B7892C93A089B189F5
:1005A0008C91837080648C93938D848D981306C096
:1005B0000288F389E02D80818F7D80830895EF92FA
:1005C000FF920F931F93CF93DF93EC0181E0888F0D
:1005D0009B8D8C8D98131AC0E889F989808185FFDD
:1005E00015C09FB7F894EE89FF896083E889F9897F
:1005F00080818370806480839FBF81E090E0DF9181
:10060000CF911F910F91FF90EF900895F62E0B8DD3
:1006100010E00F5F1F4F0F731127E02E8C8D8E118E
:100620000CC00FB607FCFACFE889F989808185FFF5
:10063000F5CFCE010E94BD02F1CFEB8DEC0FFD2F67
:10064000F11DE35AFF4FF0829FB7F8940B8FEA89B0
:10065000FB8980818062CFCFCF93DF93EC01888DBF
:100660008823B9F0AA89BB89E889F9898C9185FD2D
:1006700003C0808186FD0DC00FB607FCF7CF8C91BB
:1006800085FFF2CF808185FFEDCFCE010E94BD02B4
:10069000E9CFDF91CF91089580E090E0892B29F098
:1006A0000E94B30281110E94000080E090E0892B3B
:1006B00029F00E94A90281110E94000080E090E0D0
:1006C000892B49F080E090E0892B29F00E940000FE
:1006D00081110E94000080E090E0892B49F080E0C9
:1006E00090E0892B29F00E94000081110C940000F9
:1006F00008958150823108F05AC0E82FF0E0882731
:10070000EB57FC4F8F4F0C94871DA503A90397034C
:100710009D03A103D703AC03B203B603BC03C0031C
:10072000C403CA03CE03D703D203D803DC038091EA
:1007300080008F77809380000895809180008F7D66
:10074000F9CF80918000877FF5CF84B58F7784BD06
:10075000089584B58F7DFBCF8091B0008F77809313
:10076000B00008958091B0008F7DF9CF8091900006
:100770008F77809390000895809190008F7DF9CFBE
:1007800080919000877FF5CF8091A0008F77809334
:10079000A00008958091A0008F7DF9CF8091A000E6
:1007A000877FF5CF809120018F7780932001089576
:1007B000809120018F7DF9CF80912001877FF5CF37
:1007C000CF93DF93282F30E0F901E25CFD4F849155
:1007D000F901E850FE4FD491F901EE54FE4FC49157
:1007E000CC23A1F081110E947903EC2FF0E0EE0FF1
:1007F000FF1FE856FE4FA591B491EC91ED2381E0E7
:1008000090E009F480E0DF91CF91089580E090E0DE
:10081000FACF862F0C94E0031F93CF93DF93282FFA
:1008200030E0F901E25CFD4F8491F901E850FE4FA0
:10083000D491F901EE54FE4FC491CC23A9F0162FA8
:1008400081110E947903EC2FF0E0EE0FFF1FE258B8
:10085000FE4FA591B4918FB7F894EC91111108C097
:10086000D095DE23DC938FBFDF91CF911F91089548
:10087000DE2BF8CF862F642F0C940C04CF93DF93DC
:1008800090E0FC01E850FE4F24918E549E4FFC01F5
:1008900084918823C9F090E0880F991FFC01EC59DE
:1008A000FE4FA591B491FC01E258FE4FC591D49141
:1008B00061110DC09FB7F8948C91209582238C9381
:1008C0008881282328839FBFDF91CF9108956230CC
:1008D00051F49FB7F8943C91822F809583238C9399
:1008E000E8812E2BEFCF8FB7F894EC912E2B2C9321
:1008F0008FBFEACF862F642F0C943E04865320913D
:100900007B00982F987F277F922B90937B00877096
:10091000806480937C0080917A00806480937A0068
:1009200080917A0086FDFCCF8091780090917900CB
:1009300008953FB7F8948091120490911304A09108
:100940001404B091150426B5A89B05C02F3F19F0DB
:100950000196A11DB11D3FBFBA2FA92F982F88273F
:10096000BC01CD01620F711D811D911D42E0660F1A
:10097000771F881F991F4A95D1F708958F929F92EC
:10098000AF92BF92CF92DF92EF92FF924B015C0148
:100990000E9499046B017C010E9499046C197D09E5
:1009A0008E099F09683E734081059105A8F321E0F7
:1009B000821A9108A108B10888EEC80E83E0D81EFB
:1009C000E11CF11C81149104A104B10429F7FF90EA
:1009D000EF90DF90CF90BF90AF909F908F90089551
:1009E000089590E080E00895CF93DF9360E08FE179
:1009F0000E940C0460E080E20E940C0460E081E24E
:100A00000E940C0461E082E20E940C0464EF71E039
:100A100080E090E00E94BE04C0910F04D0911004C9
:100A200060E08FE10E940C0460E080E20E940C0410
:100A300061E081E20E940C0460E082E20E940C040A
:100A400064EF71E080E090E00E94BE0460E08FE11E
:100A50000E940C0461E080E20E940C0460E081E2EC
:100A60000E940C0460E082E20E940C0464EF71E0DA
:100A700080E090E00E94BE0461E08FE10E940C04DF
:100A800060E080E20E940C0460E081E20E940C04BD
:100A900060E082E20E940C0464EF71E080E090E08C
:100AA0000E94BE042496D0931004C0930F04649750
:100AB00051F481E090E0909319048093180410920F
:100AC000100410920F04DF91CF9108950F931F939C
:100AD000CF93DF93CAE2D2E002E010E068818AE0BF
:100AE0000E940C046A818BE00E940C046C818CE0F3
:100AF0000E940C046E818DE00E940C0464EF71E092
:100B000080E090E00E94BE0480910D0490910E045C
:100B1000019690930E0480930D04449741F4109332
:100B200019040093180410920E0410920D042896D4
:100B300082E0CA34D80791F6DF91CF911F910F91CF
:100B400008954F925F926F927F928F929F92AF9291
:100B5000BF92CF92DF92EF92FF920F931F93CF93AA
:100B6000DF93CDB7DEB7C457D1090FB6F894DEBF17
:100B70000FBECDBF86E30E947E04BC01990F880B97
:100B8000990B0E94AF1C2B013C014092090450922A
:100B90000A0460920B0470920C0487E30E947E04A6
:100BA000BC01990F880B990B0E94AF1C4B015C0193
:100BB0008092050490920604A0920704B092080463
:100BC00088E30E947E04BC01990F880B990B0E9458
:100BD000AF1C6B017C01C0920104D0920204E09230
:100BE0000304F092040489E30E947E04BC01990F7F
:100BF000880B990B0E94AF1C25966CAF7DAF8EAF12
:100C00009FAF25976093FD037093FE038093FF03CE
:100C1000909300048AE30E947E04BC01990F880B24
:100C2000990B0E94AF1C29966CAF7DAF8EAF9FAF22
:100C300029976093F9037093FA038093FB039093D1
:100C4000FC038BE30E947E04BC01990F880B990B77
:100C50000E94AF1C2D966CAF7DAF8EAF9FAF2D97CE
:100C60006093F5037093F6038093F7039093F80372
:100C70008CE30E947E04BC01990F880B990B0E94A3
:100C8000AF1C61966CAF7DAF8EAF9FAF61976093E5
:100C9000F1037093F2038093F3039093F4038DE3D5
:100CA0000E947E04BC01990F880B990B0E94AF1C17
:100CB00065966CAF7DAF8EAF9FAF65976093ED0388
:100CC0007093EE038093EF039093F0038EE30E9402
:100CD0007E04BC01990F880B990B0E94AF1C69968A
:100CE0006CAF7DAF8EAF9FAF69976093E903709350
:100CF000EA038093EB039093EC038FE30E947E045E
:100D0000BC01990F880B990B0E94AF1C6D966CAFBC
:100D10007DAF8EAF9FAF6D976093E5037093E60351
:100D20008093E7039093E80380E40E947E04BC0173
:100D3000990F880B990B0E94AF1CA1966CAF7DAFE9
:100D40008EAF9FAFA1976093E1037093E20380930E
:100D5000E3039093E40381E40E947E04BC01990FB5
:100D6000880B990B0E94AF1CA5966CAF7DAF8EAF20
:100D70009FAFA5976093DD037093DE038093DF033D
:100D80009093E00382E40E947E04BC01990F880BDB
:100D9000990B0E94AF1CA9966CAF7DAF8EAF9FAF31
:100DA000A9976093D9037093DA038093DB03909340
:100DB000DC0383E40E947E04BC01990F880B990B2D
:100DC0000E94AF1CAD966CAF7DAF8EAF9FAFAD975D
:100DD0006093D5037093D6038093D7039093D80381
:100DE00084E40E947E04BC01990F880B990B0E9439
:100DF000AF1CE1966CAF7DAF8EAF9FAFE197609374
:100E0000D1037093D2038093D3039093D40385E4EA
:100E10000E947E04BC01990F880B990B0E94AF1CA5
:100E2000E5966CAF7DAF8EAF9FAFE59720E030E0E9
:100E300046E154E4C301B2010E94A81C87FF71C3BC
:100E400081E090E09A83898320E030E046E154E439
:100E5000C501B4010E94A81C87FF66C381E090E031
:100E60009C838B8320E030E046E154E4C701B60167
:100E70000E94A81C87FF5BC381E090E09E838D8366
:100E800020E030E046E154E425966CAD7DAD8EADBA
:100E90009FAD25970E94A81C87FF4CC381E090E07E
:100EA00098878F8320E030E046E154E429966CADCA
:100EB0007DAD8EAD9FAD29970E94A81C87FF3DC3D5
:100EC00081E090E09A87898720E030E046E154E4B1
:100ED0002D966CAD7DAD8EAD9FAD2D970E94A81C5B
:100EE00087FF2EC381E090E09C878B8720E030E075
:100EF00046E154E461966CAD7DAD8EAD9FAD6197DA
:100F00000E94A81C87FF1FC381E090E09E878D8709
:100F100020E030E046E154E465966CAD7DAD8EADE9
:100F20009FAD65970E94A81C87FF10C381E090E0E9
:100F3000988B8F8720E030E046E154E469966CADF1
:100F40007DAD8EAD9FAD69970E94A81C87FF01C340
:100F500081E090E09A8B898B20E030E046E154E418
:100F60006D966CAD7DAD8EAD9FAD6D970E94A81C4A
:100F700087FFF2C281E090E09C8B8B8B20E030E019
:100F800046E154E4A1966CAD7DAD8EAD9FADA197C9
:100F90000E94A81C87FFE3C281E090E09E8B8D8BAE
:100FA00020E030E046E154E4A5966CAD7DAD8EAD19
:100FB0009FADA5970E94A81C87FFD4C281E090E056
:100FC000988F8F8B20E030E046E154E4A9966CAD19
:100FD0007DAD8EAD9FADA9970E94A81C87FFC5C2AD
:100FE00081E090E09A8F898F20E030E046E154E480
:100FF000AD966CAD7DAD8EAD9FADAD970E94A81C3A
:1010000087FFB6C281E090E09C8F8B8F20E030E0BC
:1010100046E154E4E1966CAD7DAD8EAD9FADE197B8
:101020000E94A81C87FFA7C281E090E09E8F8D8F51
:1010300020E030E046E154E4E5966CAD7DAD8EAD48
:101040009FADE5970E94A81C87FF98C281E090E0C1
:1010500098A38F8F01E010E086E30E947E04BC011C
:10106000990F880B990B0E94AF1C4B015C01809279
:10107000090490920A04A0920B04B0920C0487E336
:101080000E947E04BC01990F880B990B0E94AF1C33
:101090006B017C01C0920504D0920604E092070423
:1010A000F092080488E30E947E04BC01990F880B2B
:1010B000990B0E94AF1C25966CAF7DAF8EAF9FAF92
:1010C0002597609301047093020480930304909326
:1010D000040489E30E947E04BC01990F880B990BDC
:1010E0000E94AF1C29966CAF7DAF8EAF9FAF299742
:1010F0006093FD037093FE038093FF0390930004BD
:101100008AE30E947E04BC01990F880B990B0E9410
:10111000AF1C2D966CAF7DAF8EAF9FAF2D976093B8
:10112000F9037093FA038093FB039093FC038BE322
:101130000E947E04BC01990F880B990B0E94AF1C82
:1011400061966CAF7DAF8EAF9FAF61976093F503F3
:101150007093F6038093F7039093F8038CE30E9457
:101160007E04BC01990F880B990B0E94AF1C6596F9
:101170006CAF7DAF8EAF9FAF65976093F1037093B7
:10118000F2038093F3039093F4038DE30E947E04B3
:10119000BC01990F880B990B0E94AF1C69966CAF2C
:1011A0007DAF8EAF9FAF69976093ED037093EE03B1
:1011B0008093EF039093F0038EE30E947E04BC01C2
:1011C000990F880B990B0E94AF1C6D966CAF7DAF89
:1011D0008EAF9FAF6D976093E9037093EA0380939E
:1011E000EB039093EC038FE30E947E04BC01990F04
:1011F000880B990B0E94AF1CA1966CAF7DAF8EAF90
:101200009FAFA1976093E5037093E6038093E70394
:101210009093E80380E40E947E04BC01990F880B40
:10122000990B0E94AF1CA5966CAF7DAF8EAF9FAFA0
:10123000A5976093E1037093E2038093E303909397
:10124000E40381E40E947E04BC01990F880B990B92
:101250000E94AF1CA9966CAF7DAF8EAF9FAFA997D0
:101260006093DD037093DE038093DF039093E003CC
:1012700082E40E947E04BC01990F880B990B0E94A6
:10128000AF1CAD966CAF7DAF8EAF9FAFAD97609347
:10129000D9037093DA038093DB039093DC0383E438
:1012A0000E947E04BC01990F880B990B0E94AF1C11
:1012B000E1966CAF7DAF8EAF9FAFE1976093D503A2
:1012C0007093D6038093D7039093D80384E40E944D
:1012D0007E04BC01990F880B990B0E94AF1C2B0157
:1012E0003C014092D1035092D2036092D30370929A
:1012F000D40385E40E947E04BC01990F880B990BEE
:101300000E94AF1CE5966CAF7DAF8EAF9FAFE597A7
:1013100020E030E046E154E4C501B4010E94A81C7D
:1013200087FF2FC11AA309A320E030E046E154E46F
:10133000C701B6010E94A81C87FF26C11CA30BA3EE
:1013400020E030E046E154E425966CAD7DAD8EADF5
:101350009FAD25970E94A81C87FF19C11EA30DA34E
:1013600020E030E046E154E429966CAD7DAD8EADD1
:101370009FAD29970E94A81C87FF0CC118A70FA337
:1013800020E030E046E154E42D966CAD7DAD8EADAD
:101390009FAD2D970E94A81C87FFFFC01AA709A721
:1013A00020E030E046E154E461966CAD7DAD8EAD59
:1013B0009FAD61970E94A81C87FFF2C01CA70BA7D6
:1013C00020E030E046E154E465966CAD7DAD8EAD35
:1013D0009FAD65970E94A81C87FFE5C01EA70DA7BB
:1013E00020E030E046E154E469966CAD7DAD8EAD11
:1013F0009FAD69970E94A81C87FFD8C018AB0FA7A4
:1014000020E030E046E154E46D966CAD7DAD8EADEC
:101410009FAD6D970E94A81C87FFCBC01AAB09AB8C
:1014200020E030E046E154E4A1966CAD7DAD8EAD98
:101430009FADA1970E94A81C87FFBEC01CAB0BAB41
:1014400020E030E046E154E4A5966CAD7DAD8EAD74
:101450009FADA5970E94A81C87FFB1C01EAB0DAB26
:1014600020E030E046E154E4A9966CAD7DAD8EAD50
:101470009FADA9970E94A81C87FFA4C018AF0FAB0F
:1014800020E030E046E154E4AD966CAD7DAD8EAD2C
:101490009FADAD970E94A81C87FF97C01AAF09AFF8
:1014A00020E030E046E154E4E1966CAD7DAD8EADD8
:1014B0009FADE1970E94A81C87FF8AC01CAF0BAFAD
:1014C00020E030E046E154E4C301B2010E94A81CD0
:1014D00087FF81C01EAF0DAF20E030E046E154E44D
:1014E000E5966CAD7DAD8EAD9FADE5970E94A81CD5
:1014F00087FF74C021961FAF0EAF2197FE01319672
:10150000DE01919690E080E0419151912D913D91C5
:101510004217530709F067C0019680319105A1F782
:101520009BCD1A82198290CC1C821B829BCC1E827E
:101530001D82A6CC18861F82B5CC1A861986C4CC0B
:101540001C861B86D3CC1E861D86E2CC188A1F867D
:10155000F1CC1A8A198A00CD1C8A1B8A0FCD1E8AEB
:101560001D8A1ECD188E1F8A2DCD1A8E198E3CCD48
:101570001C8E1B8E4BCD1E8E1D8E5ACD18A21F8E1B
:1015800069CD1AA219A2D0CE1CA21BA2D9CE1EA22E
:101590001DA2E6CE18A61FA2F3CE1AA619A600CF4A
:1015A0001CA61BA60DCF1EA61DA61ACF18AA1FA6E5
:1015B00027CF1AAA19AA34CF1CAA1BAA41CF1EAA48
:1015C0001DAA4ECF18AE1FAA5BCF1AAE19AE68CFB8
:1015D0001CAE1BAE75CF1EAE1DAE7ECF21961FAECC
:1015E0001EAE21978BCFCC58DF4F0FB6F894DEBFDD
:1015F0000FBECDBFDF91CF911F910F91FF90EF9064
:10160000DF90CF90BF90AF909F908F907F906F9022
:101610005F904F900895CF92DF92EF92FF920F93D9
:101620001F93CF93DF931F921F92CDB7DEB76983CD
:101630004A83880F991F0091490610914A06000FAE
:10164000111FE3EFF5E09F01235F354020173107BD
:1016500014F41192F8CF2981FC01ED50FA4F218347
:101660008A81808360E0809147060E940C041016F6
:10167000110604F501501109F801ED50FA4FE08010
:10168000D0904506C090430688E0F82E6E2D661F68
:101690006627661F8C2D0E940C04EE0C61E08D2DD8
:1016A0000E940C0460E08D2D0E940C04FA94F1104D
:1016B000EDCFDDCF61E0809147060F900F90DF9175
:1016C000CF911F910F91FF90EF90DF90CF900C94EE
:1016D0000C04EF92FF920F931F93CF937C018C0128
:1016E00083E0000F111F8A95E1F70D5F194FC1E0EC
:1016F000F80111928F0140E06C2FC7010E940B0B83
:10170000CF5FC930A9F7CF911F910F91FF90EF9054
:1017100008952091490630914A0612161306E4F402
:1017200068307105CCF420E830E002C0359527958B
:101730006A95E2F7FC01ED50FA4F5089442349F0D5
:10174000252B208B61E0680F408990E080E00C94AD
:101750000B0B20952523F5CF0895CF93DF93EC0154
:1017600060E08E810E940C0461E08E810E940C0476
:1017700060E08E810E940C048BE891E00197F1F704
:10178000DF91CF910895CF92DF92EF92FF920F9366
:101790001F93CF93DF936C017C0187E0E80EF11C6F
:1017A000D0E0C0E0062F10E0B8010C2E02C0759505
:1017B00067950A94E2F76170F70181917F010E94B9
:1017C0000C042196C430D10579F7C601DF91CF9181
:1017D0001F910F91FF90EF90DF90CF900C94AD0B85
:1017E000CF92DF92EF92FF920F931F93CF93DF93ED
:1017F000EC01F62E642F8C810E940C048D818F3FAA
:1018000019F060E00E940C040F2D10E08F8584FF1A
:1018100025C06E0187E0C80ED11CF12CE12CB80167
:101820000E2C02C0759567950A94E2F76170F60177
:1018300081916F010E940C04FFEFEF1AFF0A88E00C
:10184000E816F10461F7CE01DF91CF911F910F915E
:10185000FF90EF90DF90CF900C94AD0BB80184E037
:10186000759567958A95E1F7CE010E94C30B6F2DA0
:10187000CE01DF91CF911F910F91FF90EF90DF90FC
:10188000CF900C94C30B40E0682F8BE496E00C944F
:10189000F00B81E00E94430C8BE39FE10197F1F78D
:1018A0000895CF93DF93823029F490915A0698607F
:1018B00090935A0680935E0610925F0680E48093B0
:1018C000600680E18093610680E58093620661E0B6
:1018D00080914F060E943E04809150068F3F19F080
:1018E00061E00E943E0461E0809151060E943E0446
:1018F000CBE4D6E09E012B54364080915A0684FDFD
:101900000BC084E090E021962817390744F461E089
:101910008E810E943E04EECF88E090E0F4CF8BE30E
:101920009DE00197F1F760E080914F060E940C0462
:1019300060E0809151060E940C04809150068F3F18
:1019400019F060E00E940C0480915A0684FD34C0B6
:1019500063E08BE496E00E94C30BCBE4D6E4CE01B7
:101960000197F1F763E08BE496E00E94C30B2197A7
:10197000F1F763E08BE496E00E94C30B83E592E00D
:101980000197F1F762E08BE496E00E94C30B80912F
:101990005A0680620E94430C84E080935B068CE0D0
:1019A0000E94430C0E94490C82E080935C0686E012
:1019B000DF91CF910C94430C80620E94430C8BE426
:1019C00096E40197F1F780915A0680620E94430CD9
:1019D00083E592E00197F1F780915A0680620E94B8
:1019E000430CD5CF90915E06691710F06FEF690F29
:1019F000E62FF0E0E55BF94F9489890F80680C943D
:101A0000430C41E00E94F00B81E090E00895FC015E
:101A100080819181009711F00C942B1E08950C94F5
:101A2000161DEF92FF920F931F93CF93DF937C01CC
:101A3000DC0114960D911C91D0E0C0E0112780913B
:101A4000160490911704C017D107CCF4F701248134
:101A50003581C217D30728F40190F081E02D30972B
:101A600059F41092D003E0EDF3E060818C0F9D1FDC
:101A70000E940F0D2196E3CFEC0FFD1FF6CF800FD4
:101A8000911F9093170480931604DF91CF911F91BB
:101A90000F91FF90EF9008950C940E1DCF93DF935C
:101AA000D0E0C0E0CE010E944C0D41E0813009F051
:101AB00040E0BE0190E080E00E94890B2196C83092
:101AC000D10581F7CE010E944C0D813079F441E0BF
:101AD000BE016850710981E090E00E94890B219657
:101AE000C031D10579F7DF91CF91089540E0BE0173
:101AF00090E080E0F2CFFB0101900020E9F7319700
:101B0000AF01461B570BDC01ED91FC910280F38184
:101B1000E02D1994CF93DF93BC0186E294E00E94FC
:101B20003102EC0162E772E086E294E00E947B0DF4
:101B30008C0F9D1FDF91CF910895CF93DF93682F76
:101B400086E294E00E94DF02EC0162E772E086E246
:101B500094E00E947B0D8C0F9D1FDF91CF91089523
:101B60008F929F92AF92BF92EF92FF920F931F932B
:101B7000CF93DF93CDB7DEB7A1970FB6F894DEBF52
:101B80000FBECDBF7C01FA01CB0119A2223008F4AF
:101B90002AE08E010F5D1F4F822E912CB12CA12CBB
:101BA000BF01A50194010E94561DF901CA016A30C6
:101BB0000CF5605DD8016E938D01232B242B252B12
:101BC00079F790E080E0109721F0BD01C7010E94F5
:101BD0007B0DA1960FB6F894DEBF0FBECDBFDF918F
:101BE000CF911F910F91FF90EF90BF90AF909F907A
:101BF0008F900895695CDECFCF92DF92EF92FF92D3
:101C00000F931F93CF93DF93EC016A017B01E8816F
:101C1000F9810190F081E02D6DE219958C01442746
:101C20005527BA014C195D096E097F092AE0CE01DA
:101C30000E94B00D800F911FDF91CF911F910F91E6
:101C4000FF90EF90DF90CF900895CF93DF93AC019A
:101C5000990F660B770B77FF10C086E294E00E9425
:101C6000FC0DEC0162E772E086E294E00E947B0DDD
:101C70008C0F9D1FDF91CF9108952AE086E294E0BA
:101C80000E94B00DEECFAB01770F660B770B77FD9F
:101C90000C94FC0D2AE00C94B00DCF93DF93BC01A3
:101CA00086E294E00E947B0DEC0162E772E086E23E
:101CB00094E00E947B0D8C0F9D1FDF91CF910895C2
:101CC0000C947B0DFC0124813581FB0144815581FD
:101CD00024173507E1F4FC0180819181FB016081CB
:101CE00071810097D1F061157105A1F4232BC1F02A
:101CF000FC01808190E008C0232B91F0FB018081E2
:101D000090E091958195910921E0892B09F020E0DF
:101D1000822F08950E949E1FF7CF6115710561F70C
:101D200021E0F6CF0F931F93CF93DF93EC018881CF
:101D30009981009759F02A813B812617370730F0A7
:101D400081E0DF91CF911F910F9108958B016F5F1B
:101D50007F4F0E94B41E009759F0998388831B839C
:101D60000A832C813D81232B59F7FC011082E8CF97
:101D700080E0E7CFEF92FF920F931F93CF93DF9313
:101D80006115710541F480E0DF91CF911F910F91B2
:101D9000FF90EF90089541155105B1F07B01EC01E2
:101DA0000C811D81040F151FB8010E94920E88231B
:101DB00051F3288139818C819D81B701820F931F56
:101DC0000E94A71F1D830C8381E0DECFCF93DF939A
:101DD0001F921F92CDB7DEB769831A8241E050E0AF
:101DE000BE016F5F7F4F0E94BA0E0F900F90DF9180
:101DF000CF910895EF92FF920F931F93CF93DF93AC
:101E0000EC017B018A01BA010E94920E288139817E
:101E1000811114C02115310519F0C9010E942B1E32
:101E2000198218821D821C821B821A82CE01DF91C8
:101E3000CF911F910F91FF90EF9008951D830C8318
:101E4000B701C9010E94A71FF1CFFB01019000203B
:101E5000E9F73197AF01461B570B0C94FA0E0F931D
:101E60001F93CF93DF93CDB7DEB762970FB6F89489
:101E7000DEBF0FBECDBF8C01CB01F80111821082F5
:101E800013821282158214824AE0BE016F5F7F4F77
:101E90000E94421CBE016F5F7F4FC8010E94250F48
:101EA00062960FB6F894DEBF0FBECDBFDF91CF9123
:101EB0001F910F910895FB01DC0111961C921E9257
:101EC00013961C921E92129715961C921E921497AE
:101ED0008617970749F0608171816115710521F0BE
:101EE000448155810C94FA0E0895FC0111821082F0
:101EF0001382128215821482FB0101900020E9F7FF
:101F00003197AF01461B570B0C94FA0E5F926F92FC
:101F10007F928F929F92AF92BF92CF92DF92EF9279
:101F2000FF920F931F93CF93DF9300D000D0CDB7D4
:101F3000DEB75C013B0164E772E0CE0101960E94CE
:101F4000750F00E110E080901604909017040815BA
:101F500019050CF05EC0C8010E944C0D68019FEF8E
:101F6000C91AD90A8E3709F052C076018E149F041F
:101F700099F0C7010E944C0D582E682FCE01019692
:101F80000E94E60EEAE25E1238C0CE0101960E947F
:101F90008A0DC5010E948A0DB501CE0101960E94ED
:101FA000620E882371F18D819E810196800F911FB1
:101FB000F301918380830250110910931B04009355
:101FC0001A0411E0CE0101960E94070D812F26967A
:101FD0000FB6F894DEBF0FBECDBFDF91CF911F913A
:101FE0000F91FF90EF90DF90CF90BF90AF909F90B8
:101FF0008F907F906F905F900895FFEFEF1AFF0A28
:10200000B5CF64E772E0CE0101960E94250F8601EC
:102010009ACF10E0D7CF1F920F920FB60F921124D4
:102020000BB60F922F933F934F935F936F937F93D2
:102030008F939F93AF93BF93EF93FF9386E294E0C8
:102040000E94BD02FF91EF91BF91AF919F918F913F
:102050007F916F915F914F913F912F910F900BBEA8
:102060000F900FBE0F901F9018951F920F920FB6F2
:102070000F9211240BB60F922F938F939F93EF9390
:10208000FF93E0913604F09137048081E0913C04A5
:10209000F0913D0482FD1DC0908180913F048F5FCF
:1020A0008F7320914004821741F0E0913F04F0E0EB
:1020B000EA5DFB4F958F80933F04FF91EF919F91D5
:1020C0008F912F910F900BBE0F900FBE0F901F900E
:1020D00018958081F2CF1F920F920FB60F921124A4
:1020E0000BB60F922F933F934F935F936F937F9312
:1020F0008F939F93AF93BF93EF93FF9383EC94E001
:102100000E94BD02FF91EF91BF91AF919F918F917E
:102110007F916F915F914F913F912F910F900BBEE7
:102120000F900FBE0F901F9018951F920F920FB631
:102130000F9211240BB60F922F938F939F93EF93CF
:10214000FF93E091D304F091D4048081E091D9040D
:10215000F091DA0482FD1DC090818091DC048F5FD4
:102160008F732091DD04821741F0E091DC04F0E0F0
:10217000ED53FB4F958F8093DC04FF91EF919F917E
:102180008F912F910F900BBE0F900FBE0F901F904D
:1021900018958081F2CF1F920F920FB60F921124E3
:1021A0002F933F938F939F93AF93BF93809122047C
:1021B00090912304A0912404B0912504309111043E
:1021C00023E0230F2D3758F50196A11DB11D209353
:1021D00011048093220490932304A0932404B093C9
:1021E00025048091120490911304A0911404B091DD
:1021F00015040196A11DB11D809312049093130440
:10220000A0931404B0931504BF91AF919F918F9147
:102210003F912F910F900FBE0F901F90189526E8B9
:10222000230F0296A11DB11DD2CFCF93DF93109241
:1022300029041092280448EE53E060E070E04093D7
:102240002A0450932B0460932C0470932D048EE485
:1022500092E090932704809326042DEC30E0309395
:102260003304209332042CEC30E030933504209377
:10227000340428EC30E0309337042093360429EC02
:1022800030E030933904209338042AEC30E0309366
:102290003B0420933A042EEC30E030933D0420932D
:1022A0003C0410923F04109240041092410410929A
:1022B00042041092C6041092C5044093C704509380
:1022C000C8046093C9047093CA049093C4048093B3
:1022D000C30485EC90E09093D0048093CF0484EC09
:1022E00090E09093D2048093D10480EC90E090939E
:1022F000D4048093D30481EC90E09093D60480932F
:10230000D50482EC90E09093D8048093D70486ECB7
:1023100090E09093DA048093D9041092DC04109238
:10232000DD041092DE041092DF0410924E0610922B
:102330004D068AE692E090934C0680934B0687E028
:1023400080934F068FEF8093500686E0809351066E
:1023500085E08093520684E08093530683E0809367
:10236000540682E080935506109256061092570646
:10237000109258061092590610925A0681E00E9457
:10238000510CC3E3D0E0D0934406C093430685E3E9
:1023900090E0909346068093450684E390E0909306
:1023A00048068093470681E090E090934A06809328
:1023B000490661E083E30E943E0461E080914506A6
:1023C0000E943E0461E0809147060E943E0461E065
:1023D000809147060E940C04D0934406C0934306A4
:1023E000E3E0F6E083E496E011928E179F07E1F7B1
:1023F000D0E0C0E08091490690914A06C817D907FD
:1024000074F540E06FE0CE010E940B0B809149060D
:1024100090914A06C817D9072CF447E06BE0CE012B
:102420000E940B0B40E069E0CE010E940B0B8091F3
:10243000490690914A06C817D9071CF4CE010E949C
:10244000690B8091490690914A06C817D9072CF468
:1024500040E06CE0CE010E940B0B2196CBCF65E7EC
:1024600072E08DEE95E00E94750F6AE772E087EEEC
:1024700095E00E94750F10927A0510927E051092D9
:102480007D0510927F0580E692E090937905809318
:102490007805E4E9F5E080ED95E01082148213827E
:1024A000158236968E179F07C1F78CE092E09093C5
:1024B000DB058093DA0588E092E09093DD05809358
:1024C000DC0584E08093DE058093DF0580E192E007
:1024D0009093D9058093D8058AE090E09093E10528
:1024E0008093E00584EF91E09093E3058093E2050B
:1024F0001092E6051092E5051092D4051092D505CC
:102500001092D6051092D7051092E40564E772E0A8
:1025100082E795E00E94750F64E772E08CE695E033
:102520000E94750F64E772E086E695E00E94750FE1
:1025300064E772E080E695E0DF91CF910C94750F2F
:10254000CF93DF93CDB7DEB7E0970FB6F894DEBF39
:102550000FBECDBF789484B5826084BD84B58160A0
:1025600084BD85B5826085BD85B5816085BD80915E
:102570006E00816080936E001092810080918100D6
:1025800082608093810080918100816080938100CE
:10259000809180008160809380008091B100846090
:1025A0008093B1008091B00081608093B0008091F1
:1025B000910082608093910080919100816080936E
:1025C0009100809190008160809390008091A100A3
:1025D00082608093A1008091A10081608093A1001E
:1025E0008091A00081608093A00080912101826091
:1025F000809321018091210181608093210180914C
:10260000200181608093200180917A008460809312
:102610007A0080917A00826080937A0080917A00BB
:10262000816080937A0080917A00806880937A003C
:102630001092C10082E00E94510C80E40E94430C81
:1026400000E012E0F80161918F018BE496E00E94B6
:10265000010DF2E008301F07A9F70E94490C82E043
:102660000E94430C8BE39FE10197F1F760E082E069
:102670000E94F20C60E08BE496E00E94010D60E0A5
:1026800083E00E94F20C60E872E08BE496E00E9426
:10269000600E60E08DE00E94F20C60E08BE496E05A
:1026A0000E94010D61E081E00E94F20C6BE872E093
:1026B0008BE496E00E94600E83EC94E00E94770128
:1026C00086E294E00E9477018FEF9FEF90932104C0
:1026D0008093200464E772E086E695E00E94250F6F
:1026E00064E772E080E695E00E94250F86E30E9491
:1026F0007E04BC01990F880B990B6115710581054A
:10270000910511F00E94391C10921E0410921D04B4
:1027100061E089E00E943E0461E08AE00E943E049C
:1027200010921C0481E090E09093190480931804A7
:1027300083EC94E00E94770161E08AE00E943E040D
:1027400061E08BE00E943E0461E08CE00E943E0468
:1027500061E08DE00E943E0461E08FE10E943E0452
:1027600061E080E20E943E0461E081E20E943E045A
:1027700061E082E20E943E0410E000E06FEFC801D9
:102780000E940F0D0F5F1F4F03331105B9F710E0C3
:1027900000E060E0C8010E940F0D0F5F1F4F003185
:1027A0001105B9F750E1E52EF12C6FEFC7010E943A
:1027B0000F0D8FEFE81AF80A95E6E916F104A9F76C
:1027C0008091490690914A061816190634F441E0A2
:1027D0006CE090E080E00E940B0B809149069091A4
:1027E0004A061816190634F44FE06AE090E080E0DB
:1027F0000E940B0B8091490690914A061816190603
:1028000024F490E080E00E94690B0E944E0DC80104
:102810000E944C0D8F3F09F058C01093170400938D
:10282000160480E190E090931B0480931A04809139
:102830001604909117040E94250E43E0442E512C5B
:10284000612C712C80912004909121048B30910592
:1028500009F043C060E080E00E94F20C6BE972E096
:102860008BE496E00E94600E61E080E00E94F20C32
:1028700065EA72E08BE496E00E94600E83EC94E0DF
:102880000E949D0218161906ECF483EC94E00E9455
:102890007B0280931F048334A9F40E94490C60E0FA
:1028A00080E00E94F20C6EEA72E08BE496E00E94F7
:1028B000600E809120049091210401969093210450
:1028C000809320040E944C03BDCF0F5F1F4F011562
:1028D000E4E01E0709F09BCFA4CF8A30910559F49C
:1028E00068EE73E080E090E00E94BE040E94490C14
:1028F0008BE090E0E3CF8C30910509F018C283ECB7
:1029000094E00E949D0218161906E4F683EC94E008
:102910000E947B0280931F040E949D0D80911F04E2
:102920008C3609F001C10E94490C6AE070E080E039
:1029300090E00E94BE0464E772E0CE0189960E9496
:10294000750F18AA1FA6BB24B394DD24D39483EC7F
:1029500094E00E949D02892B09F489C083EC94E0E5
:102960000E947B02182FDD2091F3682FCE018996FB
:102970000E94E60E1A3259F7BB2019F1BE01675DBD
:102980007F4FCE0101960E945B0FBE01615D7F4FBC
:10299000CE0101960E94860FD82ECE0101960E948C
:1029A000070DDD2039F06AE070E080E090E00E94E1
:1029B000BE04B12C64E772E0CE0189960E94250F17
:1029C000C6CFEFA4F8A8BE01675D7F4FCE01839606
:1029D0000E945B0FCE0183960E948A0D4FA158A5DD
:1029E00070E060E02AE086E294E00E94B00D62E7C9
:1029F00072E086E294E00E947B0DC7010E94250EE2
:102A000064E772E0CE0101960E94750F87018FA1E5
:102A100098A58E0D9F1D0817190738F5C8010E944B
:102A20004C0DC82E0E949D0D6C2DCE0101960E946A
:102A3000E60EFAE2CF1619F00F5F1F4FE8CFCE0176
:102A400001960E948A0DBE016D5D7F4FCE010196F9
:102A50000E94620E882381F3CE0101960E94070D29
:102A6000CE0183960E94070D72CFD12CF5CFDD20C9
:102A7000E1F168EB72E083EC94E00E94600E8AEB77
:102A800092E00E944D0E60E080E00E94F20C6FEB3D
:102A900072E08BE496E00E94600E61E080E00E94AC
:102AA000F20C65EC72E08BE496E00E94600E60ED43
:102AB00077E080E090E00E94BE0400911A0410913B
:102AC0001B04C8010E944C0D61E0680FC8010E9400
:102AD0000F0D809120049091210401969093210480
:102AE00080932004CE01899600C16DEC72E083ECE6
:102AF00094E00E94600E8FEC92E00E944D0E60E028
:102B000080E00E94F20C6FEB72E08BE496E00E9492
:102B1000600E61E080E00E94F20C63ED72E08BE4F5
:102B200096E00E94600EDECF823709F0CBCE0E9485
:102B3000490C6AE070E080E090E00E94BE0464E727
:102B400072E0CE0183960E94750F1AA619A610E0B6
:102B500000E0EE24E394FF24F39483EC94E00E94DD
:102B60009D02892B09F490C083EC94E00E947B02C3
:102B7000D82EFF2091F30F5F1F4F682FCE01839651
:102B80000E94E60E8AE2D812E8CFEE2009F469C06E
:102B9000093011050CF063C0BE016D5D7F4FCE01A1
:102BA00001960E945B0FBE01675D7F4FCE010196CB
:102BB0000E94860FF82ECE0101960E94070DF1109B
:102BC0004DC0809116049091170490931B0480933C
:102BD0001A0461E00E940F0D809116049091170471
:102BE0000196909317048093160460E00E940F0DE5
:102BF00000911604109117040F5F1F4F10931704D4
:102C000000931604C8010E940E1D8E3721F06EE756
:102C1000C8010E94161D8091160490911704019618
:102C20009093170480931604BE016D5D7F4FCE0113
:102C300001960E945B0FCE0101960E94110DCE01FC
:102C400001960E94070D64E772E0CE0183960E9410
:102C5000250FFE2CE12C10E000E07FCFEF2CF12CB3
:102C60007CCF06301105DCF7BE016D5D7F4FCE01D4
:102C700001960E945B0FCE0101960E94110DCE01BC
:102C800001960E94070D69CFFF2091F168EB72E079
:102C900083EC94E00E94600E8AEB92E00E944D0E5D
:102CA00060E080E00E94F20C6CED72E08BE496E054
:102CB0000E94600E61E080E00E94F20C65EC72E020
:102CC0008BE496E00E94600E60ED77E080E090E09B
:102CD0000E94BE048091200490912104019690935B
:102CE000210480932004CE0183960E94070DEACD33
:102CF0006DEC72E083EC94E00E94600E8FEC92E049
:102D00000E944D0E60E080E00E94F20C6CED72E0DB
:102D10008BE496E00E94600E61E080E00E94F20C7D
:102D200063ED72E08BE496E00E94600EDCCF8D30A4
:102D3000910509F03BC383EC94E00E949D021816B4
:102D400019060CF0BFCD83EC94E00E947B028093C7
:102D50001F04883609F006C30E94490C60E089E030
:102D60000E940C0464E772E086E695E00E94250F5D
:102D700064E772E080E695E00E94250F10921E0441
:102D800010921D0404E010E00E94EA1B1CA21BA28A
:102D90001EA21DA218A61FA229E030E040E050E0CC
:102DA0000E94241D2AE0AE014F5F5F4F0E944D1C20
:102DB000BE016F5F7F4FCE0183960E94250F4FA10A
:102DC00058A56BA17CA186E695E00E94BA0ECE01C3
:102DD00083960E94070D01501109B1F60E94EA1B6B
:102DE000A30192010E94241D6F5B7F4F8F4F9F4F65
:102DF00086E695E00E94E60E0E94EA1BA30192017E
:102E00000E94241D6F5B7F4F8F4F9F4F86E695E09A
:102E10000E94E60E66E675E083EC94E00E943102C3
:102E200086E695E00E948A0D60E080E00E94F20C48
:102E300065EE72E08BE496E00E94600E61E080E057
:102E40000E94F20C6AE070E080E090E00E94BE0414
:102E500036E0832E83EC94E00E949D02181619063A
:102E6000CCF19924939481E08093E4058FB7F89492
:102E70004091220450912304609124047091250410
:102E80008FBF8091D4059091D505A091D605B091C2
:102E9000D705481B590B6A0B7B0B8091E00590917D
:102EA000E105B0E0A0E084179507A607B70708F092
:102EB00046C110E08091DE051817C8F5E091DA05EB
:102EC000F091DB05E10FF11D62E080810E943E047C
:102ED0001F5FF0CF83EC94E00E947B0280931F047D
:102EE000853709F0BECFECE0F0E0F0932104E093E9
:102EF00020040E94490C60E080E00E94F20C6FEE1A
:102F000072E08BE496E00E94600E61E080E00E9437
:102F1000F20C66EF72E08BE496E00E94600E60EDCA
:102F200077E080E090E00E94BE04912C9CCF312C91
:102F30008091DF05381608F063C0E32CF12CE09196
:102F4000DC05F091DD05EE0DFF1D61E080810E9442
:102F50003E04E091DC05F091DD05EE0DFF1D60E023
:102F600080810E940C0481E090E0A0E0B0E0032C9E
:102F700004C0880F991FAA1FBB1F0A94D2F75C01D7
:102F80006C01C094D094212C8091DE05281608F5A0
:102F9000022D10E0E091DA05F091DB05E00FF11F62
:102FA00080810E94E0030C5F1F4F000F111FF8018A
:102FB000E858FA4F892B41F4808191818A299B2915
:102FC000918380832394E0CF808191818C219D2106
:102FD000F7CFE091DC05F091DD05EE0DFF1D61E01E
:102FE00080810E940C048091DC059091DD05E80E43
:102FF000F91E60E0F70180810E943E04339498CF6F
:1030000098E7E92E95E0F92E8701F801878D90A1C8
:10301000892B31F4148E8FEF9FEF968F858F11A23D
:103020000A5F1F4F95E0043B190779F7D12C809177
:10303000DE05D81608F052C0C12CAD2CB12CAA0C5C
:10304000BB1CF501E058FA4F5F012091DF05C21665
:1030500008F042C0F501608171810C2C02C07695A8
:1030600067950A94E2F7D29E900111242C0D311D30
:10307000E8E7F5E080E0458D568D2417350709F423
:103080001FC38F5F36968A30B1F760FF23C0E8E731
:10309000F5E090E080E0448D411117C0E091D80543
:1030A000F091D905E20FF31F4081889EF001899EBF
:1030B000F00D1124E858FA4F448F368F258F10A257
:1030C000178E61E00E94C10105C0019636968A30D4
:1030D000910509F7C394B9CFD394A9CF80E0F70144
:1030E00091A19111892FF6E0EF0EF11C0E151F052D
:1030F000B1F79FB7F8944091220450912304609156
:103100002404709125049FBF4093D4055093D505A6
:103110006093D6057093D705882389F0809199052F
:10312000882369F08091970590919805019739F46B
:1031300010919405111106C091108CCEC3CB109242
:10314000E405FACF1A3209F0E6C066E675E080E6DB
:1031500095E00E94620E882309F477C00E94490C12
:1031600060E080E00E94F20C60E073E08BE496E0A7
:103170000E94600E61E080E00E94F20C68E073E063
:103180008BE496E00E94600E10921E0410921D04C3
:1031900064E772E080E695E00E94250F80912004AC
:1031A00090912104019690932104809320048091B2
:1031B0001A0490911B0401960E944C0D1CA21BA2A4
:1031C0001EA21DA218A61FA24AE0BE016F5F7F4F7C
:1031D00090E00E947E1CBE016F5F7F4FCE01839600
:1031E0000E94250F66E173E0CE0101960E94750FE3
:1031F0004FA158A56BA17CA1CE0101960E94BA0EE9
:1032000081110CC089819A81009711F00E942B1EB8
:103210001A8219821E821D821C821B82BE016F5F70
:103220007F4FCE0189960E945B0FCE0101960E94CE
:10323000070DCE0183960E94070DBE01675D7F4F8B
:1032400083EC94E00E9431024DCC80911D0490915A
:103250001E04019690931E0480931D0460E0039762
:10326000F1F480E00E94F20C60E073E08BE496E001
:103270000E94600E61E080E00E94F20C60E273E068
:103280008BE496E00E94600E6AE273E083EC94E0C7
:103290000E94600E61E089E00E940C0413CB80E084
:1032A0000E94F20C60E073E08BE496E00E94600EF6
:1032B00061E080E00E94F20C66E373E08BE496E04C
:1032C0000E94600E61E473E083EC94E00E94600E63
:1032D00060E47FE180E090E00E94BE040E94490C1F
:1032E00064E772E080E695E00E94250F60E080E0F0
:1032F0000E94F20C65EE72E08BE496E00E94600E94
:1033000061E080E00E94F20C6FE070E080E090E00D
:103310000E94BE0411CF1332C9F40E94490C60E030
:1033200080E00E94F20C60E073E08BE496E00E9483
:10333000600E61E080E00E94F20C6EE473E08BE4CA
:1033400096E00E94600E68E573E0A0CF612F80E6F2
:1033500095E00E94E60E41E0612F8BE496E00E942A
:10336000F00BEACE853709F0ADCA0E94490C60E047
:1033700080E00E94F20C6FEE72E08BE496E00E9417
:10338000600E61E080E00E94F20C66EF72E08BE478
:1033900096E00E94600E8CE090E090932104809370
:1033A000200460ED77E080E090E0A2C08E309105CF
:1033B00009F078C183EC94E00E949D02181619066A
:1033C0000CF080CA83EC94E00E947B0280931F047F
:1033D000813669F50E94490C60E080E00E94F20CA1
:1033E00064E673E08BE496E00E94600E68EE73E0A2
:1033F00080E090E00E94BE0410E000E0C8010E945E
:103400004C0D78019FEFE91AF90A882309F45AC193
:1034100087010031110591F787EC93E00E944D0E72
:103420006DEC73E083EC94E00E94600EC6C08037C0
:1034300009F0C6C00E94490C60E080E00E94F20CD6
:1034400062E773E08BE496E00E94600E80911A04BC
:1034500090911B0401960E944C0D082F10E001155D
:10346000110509F448C0809118049091190401973E
:1034700019F40E946605F7CF68E873E180E090E0F8
:103480000E94BE048091180490911904029719F4C7
:103490000E94F404F7CF0E94A1050E94490C60E04D
:1034A00080E00E94F20C60E873E08BE496E00E94FA
:1034B000600E61E080E00E94F20C6EE873E08BE445
:1034C00096E00E94600E61E08BE00E94F20CB80171
:1034D0008BE496E00E94430EB80183EC94E00E94D6
:1034E000430E81E080931C046FE070E080E090E088
:1034F0000E94BE04E7C9C8010E944C0D882331F028
:103500000F5F1F4F00311105B1F786CF809118046E
:1035100090911904019719F40E946605F7CF68E8A5
:1035200073E180E090E00E94BE04809118049091C5
:103530001904029719F40E94F404F7CF81E08093F4
:103540001C040E94A1057C018C010F5F1F4FB80174
:10355000CE0101960E942F0FC8010E94250E61E046
:10356000C7010E940F0D80911A0490911B04602FD7
:1035700001960E940F0DBE016F5F7F4F83EC94E0B8
:103580000E9431020E94490C60E080E00E94F20C2F
:103590006AE973E08BE496E00E94600E61E087E0E8
:1035A0000E94F20CBE016F5F7F4F8BE496E00E9499
:1035B0003102CE0101960E94070D0E944E0D94CF5C
:1035C0008537E9F48CE090E0909321048093200407
:1035D0000E94490C60E080E00E94F20C6FEE72E005
:1035E0008BE496E00E94600E61E080E00E94F20CA5
:1035F00066EF72E08BE496E00E94600ED2CE8337D5
:1036000009F060C980911C04882309F444C00E9419
:10361000490C60E080E00E94F20C67EA73E08BE402
:1036200096E00E94600E61E080E00E94F20C62EB86
:1036300073E08BE496E00E94600E80911A049091F2
:103640001B0401960E944C0D60E08150990B0E9472
:103650000F0D80911A0490911B0460E001960E9466
:103660000F0D0E94A10580911804909119040197F3
:1036700019F40E946605F7CF68E873E180E090E0F6
:103680000E94BE048091180490911904029719F4C5
:103690000E94F404F7CF0E944E0D68EE73E080E0C4
:1036A00090E026CF8A3091050CF00CC901969093DA
:1036B0002104809320046AE070E080E090E018CF5D
:1036C000617000CDB701CE0101960E942F0FC70196
:1036D0000E94250E61E0C8010E940F0D80911A041E
:1036E00090911B046E2D01960E940F0DBE016F5F1D
:1036F0007F4F83EC94E00E9431020E94490C60E00D
:1037000080E00E94F20C6AEB73E044CF80E695E023
:103710000E94070D86E695E00E94070D8CE695E075
:103720000E94070D82E795E00E94070D87EE95E065
:103730000E94070D8DEE95E00C94070D8F929F92DD
:10374000AF92BF92CF92DF92EF92FF92CF93DF932F
:10375000EC01688179818A819B8161157105810500
:10376000910521F464E279ED8BE597E02DE133EFEB
:1037700041E050E00E94241D49015A019B01AC0127
:10378000A7EAB1E40E94431D6B017C01ACEEB4EFEB
:10379000A50194010E94511DC60ED71EE81EF91EF8
:1037A000F7FE06C081E0C81AD108E10880E8F80AEF
:1037B000C882D982EA82FB82C701B6019F77DF9176
:1037C000CF91FF90EF90DF90CF90BF90AF909F9000
:1037D0008F9008958F929F92AF92BF92CF92DF9277
:1037E000EF92FF926091200270912102809122025B
:1037F00090912302611571058105910521F464E220
:1038000079ED8BE597E02DE133EF41E050E00E9448
:10381000241D49015A019B01AC01A7EAB1E40E94B1
:10382000431D6B017C01ACEEB4EFA50194010E9435
:10383000511DC60ED71EE81EF91EF7FE06C081E018
:10384000C81AD108E10880E8F80AC0922002D09294
:103850002102E0922202F0922302C701B6019F7773
:10386000FF90EF90DF90CF90BF90AF909F908F90A0
:103870000895609320027093210280932202909316
:1038800023020895BB274A3031F4992322F4BDE284
:10389000909581959F4F0C947F1CBB272A3051F443
:1038A000992342F4BDE290958095709561957F4F84
:1038B0008F4F9F4F0C945D1CBB27FA01A62F6217F8
:1038C000710581059105330B30FB66F0AA27660F61
:1038D000771F881F991FAA1FA21710F0A21B6395BC
:1038E0003850A9F7A05DAA3308F0A95DA19336F777
:1038F000B111B1931082CA010C94981CBB27FB0133
:103900005527AA27880F991FAA1FA41710F0A41BD8
:1039100083955051B9F7A05DAA3308F0A95DA19332
:10392000009779F7B111B1931192CB010C94981CC7
:10393000DC01FC01672F71917723E1F7329704C016
:103940007C916D9370836291AE17BF07C8F30895A1
:103950000E94EA1C08F481E00895E89409C097FBEE
:103960003EF490958095709561957F4F8F4F9F4F56
:103970009923A9F0F92F96E9BB279395F69587959A
:1039800077956795B795F111F8CFFAF4BB0F11F45D
:1039900060FF1BC06F5F7F4F8F4F9F4F16C0882304
:1039A00011F096E911C0772321F09EE8872F762F3A
:1039B00005C0662371F096E8862F70E060E02AF07B
:1039C0009A95660F771F881FDAF7880F9695879567
:1039D00097F90895990F0008550FAA0BE0E8FEEF3C
:1039E00016161706E807F907C0F012161306E407C3
:1039F000F50798F0621B730B840B950B39F40A26BC
:103A000061F0232B242B252B21F408950A2609F499
:103A1000A140A6958FEF811D811D0895F999FECFD4
:103A200092BD81BDF89A992780B50895262FF999FE
:103A3000FECF1FBA92BD81BD20BD0FB6F894FA9A91
:103A4000F99A0FBE01960895052E97FB1EF4009477
:103A50000E943B1D57FD07D00E94561D07FC03D056
:103A60004EF40C943B1D50954095309521953F4F59
:103A70004F4F5F4F089590958095709561957F4F5A
:103A80008F4F9F4F08950E94781DA59F900DB49F62
:103A9000900DA49F800D911D11240895B7FF0C94E3
:103AA000431D0E94431D821B930B0895A1E21A2E11
:103AB000AA1BBB1BFD010DC0AA1FBB1FEE1FFF1FD2
:103AC000A217B307E407F50720F0A21BB30BE40B22
:103AD000F50B661F771F881F991F1A9469F7609569
:103AE0007095809590959B01AC01BD01CF01089523
:103AF000A29FB001B39FC001A39F700D811D11242F
:103B0000911DB29F700D811D1124911D0895EE0F1E
:103B1000FF1F881F8BBF0790F691E02D19940F931C
:103B20001F93CF93DF938230910510F482E090E0F1
:103B3000E0916506F091660630E020E0B0E0A0E09C
:103B4000309799F42115310509F44AC0281B390B27
:103B500024303105D8F58A819B816115710589F181
:103B6000FB0193838283FE0111C040815181028158
:103B7000138148175907E0F04817590799F410972F
:103B800061F012960C93129713961C933296CF0104
:103B9000DF91CF911F910F910895009365061093C7
:103BA0006606F4CF2115310551F04217530738F05E
:103BB000A901DB019A01BD01DF01F801C1CFEF01CD
:103BC000F9CF9093660680936506CDCFFE01E20F94
:103BD000F31F819391932250310939832883D7CFE2
:103BE0002091630630916406232B41F42091260234
:103BF00030912702309364062093630620912402BB
:103C0000309125022115310541F42DB73EB7409181
:103C1000280250912902241B350BE0916306F09194
:103C20006406E217F307A0F42E1B3F0B2817390791
:103C300078F0AC014E5F5F4F2417350748F04E0F08
:103C40005F1F5093640640936306819391939FCFC7
:103C5000F0E0E0E09CCFCF93DF930097E9F0FC0128
:103C6000329713821282A0916506B0916606ED012B
:103C700030E020E01097A1F420813181820F931F62
:103C800020916306309164062817390709F061C056
:103C9000F0936406E0936306DF91CF910895EA0103
:103CA000CE17DF07E8F54A815B819E01411551057A
:103CB000B1F7E901FB83EA8349915991C40FD51FFC
:103CC000EC17FD0761F4808191810296840F951FA6
:103CD000E90199838883828193819B838A83F0E0C1
:103CE000E0E012968D919C9113970097B9F52D9174
:103CF0003C911197CD010296820F931F209163068C
:103D0000309164062817390739F6309751F510922B
:103D1000660610926506B0936406A0936306BCCF56
:103D2000D383C28340815181840F951FC817D9075F
:103D300061F44E5F5F4F88819981480F591F51830D
:103D400040838A819B81938382832115310509F009
:103D5000B0CFF0936606E09365069ECFFD01DC01CF
:103D6000C0CF13821282D7CF4F925F926F927F9211
:103D70008F929F92AF92BF92CF92DF92EF92FF927B
:103D80000F931F93CF93DF938C01009799F4CB018E
:103D9000DF91CF911F910F91FF90EF90DF90CF9027
:103DA000BF90AF909F908F907F906F905F904F905B
:103DB0000C948F1DFC01E60FF71F9C012250310966
:103DC000E217F30708F4AEC0D901CD91DC91119749
:103DD000C617D70720F1C530D10578F0CE0104977A
:103DE0008617970750F0C61BD70B2297C193D19324
:103DF0006D937C93CF010E942B1EC801DF91CF9160
:103E00001F910F91FF90EF90DF90CF90BF90AF90F8
:103E10009F908F907F906F905F904F9008955B017F
:103E2000AC1ABD0A4C018C0E9D1EA0916506B09186
:103E30006606512C412CF12CE12C109731F5809124
:103E40006306909164068815990509F05CC04616D2
:103E5000570608F058C080912402909125020097DF
:103E600041F48DB79EB74091280250912902841BDE
:103E7000950BE817F90708F055C0F0936406E09336
:103E80006306F90171836083B8CF8D919C9111977E
:103E900012966C90129713967C901397A815B905FB
:103EA00059F56C0142E0C40ED11CCA14DB0420F1A8
:103EB000AC014A195B09DA011296159780F062820B
:103EC000738251834083D9016D937C93E114F10493
:103ED00071F0D7011396FC93EE9312978ECF229632
:103EE0008C0F9D1FF90191838083F301EFCFF09335
:103EF0006606E093650681CF4816590608F42C0142
:103F00007D01D3019ACFCB010E948F1D7C010097C8
:103F100049F0AE01B8010E94951FC8010E942B1EF6
:103F200087016BCF10E000E068CFFB01DC0102C02D
:103F300001900D9241505040D8F70895FB01DC01EB
:103F40008D91019080190110D9F3990B0895FB010F
:103F5000DC0101900D920020E1F7089511E0C3E427
:103F6000D1E000E006C0802FFE010E94871D21964F
:103F7000011DC434D10780E00807A9F7F894FFCFEA
:103F8000040A11111F1B1F1F161718191A1B1C1DBD
:103F90003132334134353642373839432A302344BD
:103FA0000100000000006706800001000100000021
:103FB00000000000010001000000000000000100FE
:103FC0000100010000000000010000000000DF020D
:103FD0003F026C022C039D027B028F020000000056
:103FE0007A043A04090400000000010D3F02F104C4
:103FF000F0040D0A00313233340061646D696E00E3
:104000004269656E76656E69646F00477275706FA0
:10401000352D53656363696F6E410045737065723A
:10402000616E646F00436F6E6578696F6E00436FF9
:104030006E65637461646F0062006269656E006C36
:104040006F67696E00457869746F736F006D006DFE
:10405000616C0044656E656761646F0052656769F5
:104060007374726F00436F6469676F2E2E2E005356
:10407000616C69646100636F6E20457869746F00DC
:10408000496E677265736F00436F72726563746126
:104090006D656E746500636F72726563746F2C007A
:1040A000426C6F71756561646F00626C6F717565EC
:1040B00061646F2C3000496E636F72726563746F58
:1040C00000696E636F72726563746F2C30004361B8
:1040D0006E63656C61646F0063616E63656C6164DF
:1040E0006F2C3000526573657276616E646F2E2E90
:1040F0002E00506172717565616E646F2E2E2E00F8
:1041000050617271756561646F20656E2000526543
:104110007365727661646F3A2000506172717565E3
:1041200061646F20656E0053616C69646120646531
:104130006C005061727175656F00526573657276BF
:1041400061646F20656E00566163696F006E6F0079
:00000001FF
