:100000000C9444010C9475010C9475010C947501C9
:100010000C9475010C9475010C9475010C94750188
:100020000C9475010C9475010C9475010C94750178
:100030000C9475010C9475010C9475010C94750168
:100040000C9475010C9475010C9475010C94750158
:100050000C9475010C9475010C9475010C947D053C
:100060000C9475010C9447050C941D050C947501B6
:100070000C9475010C9475010C9475010C94750128
:100080000C9475010C9475010C9475010C94750118
:100090000C9475010C9475010C9475010C94750108
:1000A0000C9475010C9475010C9475010C947501F8
:1000B0000C9475010C9475010C9475010C947501E8
:1000C0000C9475010C9475010C9475010C947501D8
:1000D0000C9475010C9475010C9475010C947501C8
:1000E0000C9475010C9406060C94DE020C94E40248
:1000F0000C94D2030C94CD030C94D3020C94D7022D
:100100000C9404030C9477010C94C7010C940D0219
:100110000C94B3010C94F2020C94F6020C94FC02C1
:100120000C94C9030C945A020C9409030C940A030E
:100130000C94ED070C9400030C94CF020C940E0366
:100140000C94D1030C94DB020C94EE020C94A103EA
:100150000C94C9020C94A4010C94D5010C941705BD
:100160000C94E802000020002300260029002C0047
:100170002F00320000010000030106010901000008
:100180002100240027002A002D0030003300010147
:100190000000040107010A010000220025002800D8
:1001A0002B002E003100340002010000050108017F
:1001B0000B010505050507050808080802020202EB
:1001C0000A0A0808040404040101010101010101F3
:1001D0000303030303030303040707070C0C0C0CBE
:1001E0000C0C0C0C020202020606060606060606A7
:1001F0000B0B0B0B0B0B0B0B010210202008081034
:100200002040102040800201020108040201010286
:10021000040810204080804020100804020180045F
:1002200002018040201008040201080402010102BA
:1002300004081020408001020408102040800000C3
:100240000A0B02090C0D0E08070304010000000050
:10025000000000000000000000000000000000009E
:10026000000000000000000000001211100000005B
:10027000000000000000000000000000000000007E
:10028000000000000606ED0711241FBECFEFD1E2EB
:10029000DEBFCDBF00E00CBF23E0AAE5B2E001C0A5
:1002A0001D92A739B207E1F712E0A0E0B2E0ECE559
:1002B000F4E100E00BBF02C007900D92AA35B10730
:1002C000D9F711E0C3E4D1E000E006C021970109AD
:1002D000802FFE010E94FE07C234D10780E008078C
:1002E000A9F70E94E5060C941C0A0C940000AF923A
:1002F000BF92CF92DF92EF92FF920F931F93CF9313
:10030000DF936C017B018B01040F151FEB015E0174
:10031000AE18BF08C017D10759F06991D601ED9109
:10032000FC910190F081E02DC6011995892B79F798
:10033000C501DF91CF911F910F91FF90EF90DF905A
:10034000CF90BF90AF900895FC01538D448D252F21
:1003500030E0842F90E0821B930B541710F0CF965F
:10036000089501970895FC01918D828D981761F091
:10037000A28DAE0FBF2FB11D5D968C91928D9F5FA8
:100380009F73928F90E008958FEF9FEF0895FC0187
:10039000918D828D981731F0828DE80FF11D858D3A
:1003A00090E008958FEF9FEF0895FC01918D228DCD
:1003B000892F90E0805C9F4F821B91098F73992752
:1003C000089583E692E00E94D50121E0892B09F48B
:1003D00020E0822F0895FC01A48DA80FB92FB11D34
:1003E000A35ABF4F2C91848D90E001968F7399276B
:1003F000848FA689B7892C93A089B1898C91837049
:1004000080648C93938D848D981306C00288F38941
:10041000E02D80818F7D80830895EF92FF920F936E
:100420001F93CF93DF93EC0181E0888F9B8D8C8DA0
:1004300098131AC0E889F989808185FF15C09FB794
:10044000F894EE89FF896083E889F9898081837057
:10045000806480839FBF81E090E0DF91CF911F9106
:100460000F91FF90EF900895F62E0B8D10E00F5F27
:100470001F4F0F731127E02E8C8D8E110CC00FB6FD
:1004800007FCFACFE889F989808185FFF5CFCE0195
:100490000E94EB01F1CFEB8DEC0FFD2FF11DE35A24
:1004A000FF4FF0829FB7F8940B8FEA89FB89808118
:1004B0008062CFCFCF93DF93EC01888D8823B9F092
:1004C000AA89BB89E889F9898C9185FD03C080815F
:1004D00086FD0DC00FB607FCF7CF8C9185FFF2CFDC
:1004E000808185FFEDCFCE010E94EB01E9CFDF9146
:1004F000CF91089580E090E0892B29F00E94E101DE
:1005000081110E94000080E090E0892B49F080E09A
:1005100090E0892B29F00E94000081110E940000C8
:1005200080E090E0892B49F080E090E0892B29F071
:100530000E94000081110E94000080E090E0892B61
:1005400049F080E090E0892B29F00E9400008111A1
:100550000C94000008958150823108F05AC0E82FB1
:10056000F0E08827E954FD4F8F4F0C94FE07D70227
:10057000DB02C902CF02D3020903DE02E402E80271
:10058000EE02F202F602FC020003090304030A036E
:100590000E03809180008F77809380000895809172
:1005A00080008F7DF9CF80918000877FF5CF84B563
:1005B0008F7784BD089584B58F7DFBCF8091B00087
:1005C0008F778093B00008958091B0008F7DF9CF30
:1005D000809190008F778093900008958091900093
:1005E0008F7DF9CF80919000877FF5CF8091A0001B
:1005F0008F778093A00008958091A0008F7DF9CF20
:100600008091A000877FF5CF809120018F77809324
:1006100020010895809120018F7DF9CF80912001E4
:10062000877FF5CF1F93CF93DF93282F30E0F90119
:10063000E25CFD4F8491F901E850FE4FD491F9013D
:10064000EE54FE4FC491CC23A9F0162F81110E94C5
:10065000AB02EC2FF0E0EE0FFF1FE856FE4FA59126
:10066000B4918FB7F894EC91111108C0D095DE23A6
:10067000DC938FBFDF91CF911F910895DE2BF8CFD0
:10068000CF93DF9390E0FC01E850FE4F24918E540D
:100690009E4FFC0184918823C9F090E0880F991F38
:1006A000FC01E258FE4FA591B491FC01E856FE4FC3
:1006B000C591D49161110DC09FB7F8948C9120958C
:1006C00082238C938881282328839FBFDF91CF9139
:1006D0000895623051F49FB7F8943C91822F809531
:1006E00083238C93E8812E2BEFCF8FB7F894EC9176
:1006F0002E2B2C938FBFEACF3FB7F89480915F02E7
:1007000090916002A0916102B091620226B5A89B0F
:1007100005C02F3F19F00196A11DB11D3FBFBA2F93
:10072000A92F982F8827BC01CD01620F711D811D53
:10073000911D42E0660F771F881F991F4A95D1F7D8
:100740000895CF93DF9370E0FB01E25CFD4F84914D
:10075000FB01E850FE4FD4916E547E4FFB01C491D3
:10076000CC23A1F081110E94AB02EC2FF0E0EE0F40
:10077000FF1FEC59FE4FA591B491EC91ED2381E060
:1007800090E009F480E0DF91CF91089580E090E05F
:10079000FACF862F642F0C941203862F642F0C94AB
:1007A0004003089590E080E00895CF93DF93EC013B
:1007B00060E08E810E94120361E08E810E9412032C
:1007C00060E08E810E9412038BE891E00197F1F7BF
:1007D000DF91CF910895CF92DF92EF92FF920F9326
:1007E0001F93CF93DF936C017C0187E0E80EF11C2F
:1007F000D0E0C0E0062F10E0B8010C2E02C07595C5
:1008000067950A94E2F76170F70181917F010E9478
:1008100012032196C430D10579F7C601DF91CF913B
:100820001F910F91FF90EF90DF90CF900C94D50324
:10083000CF92DF92EF92FF920F931F93CF93DF93AC
:10084000EC01F62E642F8C810E9412038D818F3F64
:1008500019F060E00E9412030F2D10E08F8584FFD5
:1008600025C06E0187E0C80ED11CF12CE12CB80127
:100870000E2C02C0759567950A94E2F76170F60137
:1008800081916F010E941203FFEFEF1AFF0A88E0C7
:10089000E816F10461F7CE01DF91CF911F910F911E
:1008A000FF90EF90DF90CF900C94D503B80184E0D7
:1008B000759567958A95E1F7CE010E94EB036F2D40
:1008C000CE01DF91CF911F910F91FF90EF90DF90BC
:1008D000CF900C94EB0340E0682F86E093E00C94FB
:1008E0001804CF93DF93823029F490911503986018
:1008F000909315038093190310921A0380E4809358
:100900001B0380E180931C0380E580931D0361E05D
:1009100080910A030E94400380910B038F3F19F0DE
:1009200061E00E94400361E080910C030E9440035B
:10093000C6E0D3E09E01265033408091150384FD2C
:100940000BC084E090E021962817390744F461E059
:100950008E810E944003EECF88E090E0F4CF8BE3DD
:100960009DE00197F1F760E080910A030E94120375
:1009700060E080910C030E94120380910B038F3F73
:1009800019F060E00E9412038091150384FD39C0C4
:1009900063E086E093E00E94EB03CBE4D6E4CE0173
:1009A0000197F1F763E086E093E00E94EB03219763
:1009B000F1F763E086E093E00E94EB0383E592E0C9
:1009C0000197F1F762E086E093E00E94EB038091EB
:1009D000150380620E946B0484E0809316038CE010
:1009E0000E946B0481E00E946B048BE39FE10197FE
:1009F000F1F782E08093170386E0DF91CF910C94AA
:100A00006B0480620E946B048BE496E40197F1F71B
:100A10008091150380620E946B0483E592E0019748
:100A2000F1F78091150380620E946B04D0CF41E002
:100A30000E94180481E090E008951F920F920FB673
:100A40000F9211240BB60F922F933F934F935F9306
:100A50006F937F938F939F93AF93BF93EF93FF9386
:100A600083E692E00E94EB01FF91EF91BF91AF917D
:100A70009F918F917F916F915F914F913F912F91B6
:100A80000F900BBE0F900FBE0F901F9018951F92E6
:100A90000F920FB60F9211240BB60F922F938F93D4
:100AA0009F93EF93FF93E0917302F0917402808122
:100AB000E0917902F0917A0282FD1DC090818091CF
:100AC0007C028F5F8F7320917D02821741F0E0914D
:100AD0007C02F0E0ED59FD4F958F80937C02FF91F1
:100AE000EF919F918F912F910F900BBE0F900FBEA2
:100AF0000F901F9018958081F2CF1F920F920FB622
:100B00000F9211242F933F938F939F93AF93BF9393
:100B100080915B0290915C02A0915D02B0915E02B7
:100B200030915A0223E0230F2D3758F50196A11D6D
:100B3000B11D20935A0280935B0290935C02A093B4
:100B40005D02B0935E0280915F0290916002A0917D
:100B50006102B09162020196A11DB11D80935F02F6
:100B600090936002A0936102B0936202BF91AF9133
:100B70009F918F913F912F910F900FBE0F901F90DB
:100B8000189526E8230F0296A11DB11DD2CFEF9232
:100B9000FF920F931F93CF93DF93EC017B018A01A8
:100BA00088819981009729F02A813B812417350794
:100BB00088F4B8016F5F7F4F0E942B09009791F076
:100BC000998388831B830A832C813D81232B11F415
:100BD000FC0110821D830C83B701888199810E94DA
:100BE000150A0CC088819981009711F00E94A20813
:100BF000198218821D821C821B821A82CE01DF910B
:100C0000CF911F910F91FF90EF900895109266027F
:100C10001092650288EE93E0A0E0B0E08093670256
:100C200090936802A0936902B0936A028DE192E00A
:100C3000909364028093630285EC90E0909370023D
:100C400080936F0284EC90E0909372028093710223
:100C500080EC90E0909374028093730281EC90E0BA
:100C6000909376028093750282EC90E090937802E4
:100C70008093770286EC90E090937A0280937902D9
:100C800010927C0210927D0210927E0210927F02DE
:100C900010928E0310928D031092900310928F0386
:100CA000109292031092910346E050E061E472E0EA
:100CB0008DE893E00E94C705109220031092240350
:100CC00010922303109225038BE392E090931F036D
:100CD00080931E03EAE3F3E01082148213821582EC
:100CE000369683E0E637F807B9F783E092E0909311
:100CF00081038093800380E092E09093830380934C
:100D0000820394E09093840383E08093850327E03B
:100D100032E030937F0320937E032AE030E030936B
:100D200087032093860324EF31E0309389032093D7
:100D3000880310928C0310928B0310927A03109206
:100D40007B0310927C0310927D0310928A03109211
:100D50000903109208032FE232E030930703209337
:100D6000060327E020930A032FEF20930B0326E0CE
:100D700020930C0325E020930D0390930E038093A2
:100D80000F0382E08093100310921103109212035C
:100D900010921303109214031092150381E00E9425
:100DA0007104109201031092000310920303109239
:100DB0000203109205031092040350E040E069E53D
:100DC00072E080E093E00C94C705789484B582606B
:100DD00084BD84B5816084BD85B5826085BD85B5DF
:100DE000816085BD80916E00816080936E0010925D
:100DF00081008091810082608093810080918100D8
:100E00008160809381008091800081608093800068
:100E10008091B10084608093B1008091B0008160C6
:100E20008093B000809191008260809391008091C6
:100E30009100816080939100809190008160809307
:100E400090008091A10082608093A1008091A10018
:100E500081608093A1008091A00081608093A000B8
:100E60008091210182608093210180912101816024
:100E700080932101809120018160809320018091E5
:100E80007A00846080937A0080917A0082608093F7
:100E90007A0080917A00816080937A0080917A0054
:100EA000806880937A001092C10082E00E947104F1
:100EB00081E00E946B04CBE3DFE1CE010197F1F703
:100EC00082E00E946B042197F1F7E1E08091190321
:100ED0008111E0E0E195F0E0EA5FFC4F84898068F1
:100EE0000E946B0444E050E068E472E086E093E026
:100EF0000E947701E0911903E23008F06CC0E150E4
:100F0000F0E0EA5FFC4F848980680E946B044CE04B
:100F100050E06DE472E086E093E00E947701E0919A
:100F20007302F091740282E08083E0916F02F0918D
:100F300070021082E0917102F09172028FEC808356
:100F400010927B02E0917702F091780286E0808334
:100F5000E0917502F0917602808180618083E0915A
:100F60007502F0917602808188608083E09175023D
:100F7000F0917602808180688083E0917502F09123
:100F8000760280818F7D80830E947C036B017C01CF
:100F90008AE0882E912CA12CB12C0E947C036C1924
:100FA0007D098E099F09683E734081059105A8F36C
:100FB00021E0821A9108A108B10888EEC80E83E0EA
:100FC000D81EE11CF11C81149104A104B10429F77D
:100FD0000E947A02D9CFE1E093CF809100039091F3
:100FE0000103009711F00E94A20880918D03909157
:100FF0008E03009711F00C94A2080895EE0FFF1FC6
:10100000881F8BBF0790F691E02D19940F931F93C3
:10101000CF93DF938230910510F482E090E0E0916D
:101020009503F091960330E020E0B0E0A0E0309727
:1010300099F42115310509F44AC0281B390B2430D5
:101040003105D8F58A819B816115710589F1FB0114
:1010500093838283FE0111C04081518102811381FB
:1010600048175907E0F04817590799F4109761F0AD
:1010700012960C93129713961C933296CF01DF9120
:10108000CF911F910F9108950093950310939603AC
:10109000F4CF2115310551F04217530738F0A9015B
:1010A000DB019A01BD01DF01F801C1CFEF01F9CFEA
:1010B0009093960380939503CDCFFE01E20FF31F2B
:1010C000819391932250310939832883D7CF20917E
:1010D000930330919403232B41F420911502309116
:1010E00016023093940320939303209113023091BE
:1010F00014022115310541F42DB73EB74091170276
:1011000050911802241B350BE0919303F091940346
:10111000E217F307A0F42E1B3F0B2817390778F0CE
:10112000AC014E5F5F4F2417350748F04E0F5F1F2D
:101130005093940340939303819391939FCFF0E056
:10114000E0E09CCFCF93DF930097E9F0FC0132976A
:1011500013821282A0919503B0919603ED0130E0C5
:1011600020E01097A1F420813181820F931F2091FC
:101170009303309194032817390709F061C0F09365
:101180009403E0939303DF91CF910895EA01CE1782
:10119000DF07E8F54A815B819E0141155105B1F7F2
:1011A000E901FB83EA8349915991C40FD51FEC17DC
:1011B000FD0761F4808191810296840F951FE901FA
:1011C00099838883828193819B838A83F0E0E0E026
:1011D00012968D919C9113970097B9F52D913C91A2
:1011E0001197CD010296820F931F209193033091A6
:1011F00094032817390739F6309751F51092960362
:1012000010929503B0939403A0939303BCCFD38320
:10121000C28340815181840F951FC817D90761F49B
:101220004E5F5F4F88819981480F591F51834083DA
:101230008A819B81938382832115310509F0B0CF88
:10124000F0939603E09395039ECFFD01DC01C0CFA0
:1012500013821282D7CF4F925F926F927F928F92BA
:101260009F92AF92BF92CF92DF92EF92FF920F9335
:101270001F93CF93DF938C01009799F4CB01DF91FB
:10128000CF911F910F91FF90EF90DF90CF90BF9083
:10129000AF909F908F907F906F905F904F900C9445
:1012A0000608FC01E60FF71F9C0122503109E217E6
:1012B000F30708F4AEC0D901CD91DC911197C617A0
:1012C000D70720F1C530D10578F0CE0104978617F5
:1012D000970750F0C61BD70B2297C193D1936D93FC
:1012E0007C93CF010E94A208C801DF91CF911F918A
:1012F0000F91FF90EF90DF90CF90BF90AF909F90B5
:101300008F907F906F905F904F9008955B01AC1A23
:10131000BD0A4C018C0E9D1EA0919503B0919603C1
:10132000512C412CF12CE12C109731F58091930335
:10133000909194038815990509F05CC046165706EC
:1013400008F058C08091130290911402009741F464
:101350008DB79EB74091170250911802841B950BD0
:10136000E817F90708F055C0F0939403E09393034E
:10137000F90171836083B8CF8D919C91119712967A
:101380006C90129713967C901397A815B90559F590
:101390006C0142E0C40ED11CCA14DB0420F1AC0184
:1013A0004A195B09DA011296159780F062827382FE
:1013B00051834083D9016D937C93E114F10471F062
:1013C000D7011396FC93EE9312978ECF22968C0F33
:1013D0009D1FF90191838083F301EFCFF093960372
:1013E000E093950381CF4816590608F42C017D013E
:1013F000D3019ACFCB010E9406087C01009749F0E7
:10140000AE01B8010E940C0AC8010E94A20887011F
:101410006BCF10E000E068CFFB01DC0102C001905F
:101420000D9241505040D8F70895FB01DC01019026
:101430000D920020E1F7089511E0C3E4D1E000E04F
:1014400006C0802FFE010E94FE072196011DC434B4
:0C145000D10780E00807A9F7F894FFCF4F
:10145C00161718191A1B1C313233343536373839F4
:10146C002A3023000097038000000000000D027753
:10147C0001A4015A02D501B301C7010000000017F5
:10148C00057701D203D10300000000CD03C903A1ED
:10149C000332303231303400484F4C4100496E69D0
:0A14AC006369616E646F2E2E2E003E
:00000001FF
